{
	"create2/Create2.sol": {
		"createFactory2": {
			"abi": [
				{
					"inputs": [
						{
							"internalType": "address",
							"name": "_token1",
							"type": "address"
						},
						{
							"internalType": "address",
							"name": "_token2",
							"type": "address"
						}
					],
					"name": "create2",
					"outputs": [
						{
							"internalType": "address",
							"name": "pairAddr",
							"type": "address"
						}
					],
					"stateMutability": "nonpayable",
					"type": "function"
				},
				{
					"inputs": [
						{
							"internalType": "address",
							"name": "",
							"type": "address"
						},
						{
							"internalType": "address",
							"name": "",
							"type": "address"
						}
					],
					"name": "getPair",
					"outputs": [
						{
							"internalType": "address",
							"name": "",
							"type": "address"
						}
					],
					"stateMutability": "view",
					"type": "function"
				}
			],
			"devdoc": {
				"kind": "dev",
				"methods": {},
				"version": 1
			},
			"evm": {
				"assembly": "    /* \"create2/Create2.sol\":60:270  contract createFactory2{\r... */\n  mstore(0x40, 0x80)\n  callvalue\n  dup1\n  iszero\n  tag_1\n  jumpi\n  0x00\n  dup1\n  revert\ntag_1:\n  pop\n  dataSize(sub_0)\n  dup1\n  dataOffset(sub_0)\n  0x00\n  codecopy\n  0x00\n  return\nstop\n\nsub_0: assembly {\n        /* \"create2/Create2.sol\":60:270  contract createFactory2{\r... */\n      mstore(0x40, 0x80)\n      callvalue\n      dup1\n      iszero\n      tag_1\n      jumpi\n      0x00\n      dup1\n      revert\n    tag_1:\n      pop\n      jumpi(tag_2, lt(calldatasize, 0x04))\n      shr(0xe0, calldataload(0x00))\n      dup1\n      0x36ad9e\n      eq\n      tag_3\n      jumpi\n      dup1\n      0xe6a43905\n      eq\n      tag_4\n      jumpi\n    tag_2:\n      0x00\n      dup1\n      revert\n        /* \"create2/Create2.sol\":163:267  function create2(address _token1,address _token2) external returns(address pairAddr){\r... */\n    tag_3:\n      tag_5\n      0x04\n      dup1\n      calldatasize\n      sub\n      dup2\n      add\n      swap1\n      tag_6\n      swap2\n      swap1\n      tag_7\n      jump\t// in\n    tag_6:\n      tag_8\n      jump\t// in\n    tag_5:\n      mload(0x40)\n      tag_9\n      swap2\n      swap1\n      tag_10\n      jump\t// in\n    tag_9:\n      mload(0x40)\n      dup1\n      swap2\n      sub\n      swap1\n      return\n        /* \"create2/Create2.sol\":90:148  mapping(address=>mapping(address=>address)) public getPair */\n    tag_4:\n      tag_11\n      0x04\n      dup1\n      calldatasize\n      sub\n      dup2\n      add\n      swap1\n      tag_12\n      swap2\n      swap1\n      tag_7\n      jump\t// in\n    tag_12:\n      tag_13\n      jump\t// in\n    tag_11:\n      mload(0x40)\n      tag_14\n      swap2\n      swap1\n      tag_10\n      jump\t// in\n    tag_14:\n      mload(0x40)\n      dup1\n      swap2\n      sub\n      swap1\n      return\n        /* \"create2/Create2.sol\":163:267  function create2(address _token1,address _token2) external returns(address pairAddr){\r... */\n    tag_8:\n        /* \"create2/Create2.sol\":230:246  address pairAddr */\n      0x00\n        /* \"create2/Create2.sol\":163:267  function create2(address _token1,address _token2) external returns(address pairAddr){\r... */\n      swap3\n      swap2\n      pop\n      pop\n      jump\t// out\n        /* \"create2/Create2.sol\":90:148  mapping(address=>mapping(address=>address)) public getPair */\n    tag_13:\n      mstore(0x20, 0x00)\n      dup2\n      0x00\n      mstore\n      mstore(0x20, keccak256(0x00, 0x40))\n      dup1\n      0x00\n      mstore\n      keccak256(0x00, 0x40)\n      0x00\n      swap2\n      pop\n      swap2\n      pop\n      swap1\n      sload\n      swap1\n      0x0100\n      exp\n      swap1\n      div\n      0xffffffffffffffffffffffffffffffffffffffff\n      and\n      dup2\n      jump\t// out\n        /* \"#utility.yul\":7:146   */\n    tag_17:\n        /* \"#utility.yul\":53:58   */\n      0x00\n        /* \"#utility.yul\":91:97   */\n      dup2\n        /* \"#utility.yul\":78:98   */\n      calldataload\n        /* \"#utility.yul\":69:98   */\n      swap1\n      pop\n        /* \"#utility.yul\":107:140   */\n      tag_19\n        /* \"#utility.yul\":134:139   */\n      dup2\n        /* \"#utility.yul\":107:140   */\n      tag_20\n      jump\t// in\n    tag_19:\n        /* \"#utility.yul\":7:146   */\n      swap3\n      swap2\n      pop\n      pop\n      jump\t// out\n        /* \"#utility.yul\":152:626   */\n    tag_7:\n        /* \"#utility.yul\":220:226   */\n      0x00\n        /* \"#utility.yul\":228:234   */\n      dup1\n        /* \"#utility.yul\":277:279   */\n      0x40\n        /* \"#utility.yul\":265:274   */\n      dup4\n        /* \"#utility.yul\":256:263   */\n      dup6\n        /* \"#utility.yul\":252:275   */\n      sub\n        /* \"#utility.yul\":248:280   */\n      slt\n        /* \"#utility.yul\":245:364   */\n      iszero\n      tag_22\n      jumpi\n        /* \"#utility.yul\":283:362   */\n      tag_23\n      tag_24\n      jump\t// in\n    tag_23:\n        /* \"#utility.yul\":245:364   */\n    tag_22:\n        /* \"#utility.yul\":403:404   */\n      0x00\n        /* \"#utility.yul\":428:481   */\n      tag_25\n        /* \"#utility.yul\":473:480   */\n      dup6\n        /* \"#utility.yul\":464:470   */\n      dup3\n        /* \"#utility.yul\":453:462   */\n      dup7\n        /* \"#utility.yul\":449:471   */\n      add\n        /* \"#utility.yul\":428:481   */\n      tag_17\n      jump\t// in\n    tag_25:\n        /* \"#utility.yul\":418:481   */\n      swap3\n      pop\n        /* \"#utility.yul\":374:491   */\n      pop\n        /* \"#utility.yul\":530:532   */\n      0x20\n        /* \"#utility.yul\":556:609   */\n      tag_26\n        /* \"#utility.yul\":601:608   */\n      dup6\n        /* \"#utility.yul\":592:598   */\n      dup3\n        /* \"#utility.yul\":581:590   */\n      dup7\n        /* \"#utility.yul\":577:599   */\n      add\n        /* \"#utility.yul\":556:609   */\n      tag_17\n      jump\t// in\n    tag_26:\n        /* \"#utility.yul\":546:609   */\n      swap2\n      pop\n        /* \"#utility.yul\":501:619   */\n      pop\n        /* \"#utility.yul\":152:626   */\n      swap3\n      pop\n      swap3\n      swap1\n      pop\n      jump\t// out\n        /* \"#utility.yul\":632:750   */\n    tag_27:\n        /* \"#utility.yul\":719:743   */\n      tag_29\n        /* \"#utility.yul\":737:742   */\n      dup2\n        /* \"#utility.yul\":719:743   */\n      tag_30\n      jump\t// in\n    tag_29:\n        /* \"#utility.yul\":714:717   */\n      dup3\n        /* \"#utility.yul\":707:744   */\n      mstore\n        /* \"#utility.yul\":632:750   */\n      pop\n      pop\n      jump\t// out\n        /* \"#utility.yul\":756:978   */\n    tag_10:\n        /* \"#utility.yul\":849:853   */\n      0x00\n        /* \"#utility.yul\":887:889   */\n      0x20\n        /* \"#utility.yul\":876:885   */\n      dup3\n        /* \"#utility.yul\":872:890   */\n      add\n        /* \"#utility.yul\":864:890   */\n      swap1\n      pop\n        /* \"#utility.yul\":900:971   */\n      tag_32\n        /* \"#utility.yul\":968:969   */\n      0x00\n        /* \"#utility.yul\":957:966   */\n      dup4\n        /* \"#utility.yul\":953:970   */\n      add\n        /* \"#utility.yul\":944:950   */\n      dup5\n        /* \"#utility.yul\":900:971   */\n      tag_27\n      jump\t// in\n    tag_32:\n        /* \"#utility.yul\":756:978   */\n      swap3\n      swap2\n      pop\n      pop\n      jump\t// out\n        /* \"#utility.yul\":1065:1161   */\n    tag_30:\n        /* \"#utility.yul\":1102:1109   */\n      0x00\n        /* \"#utility.yul\":1131:1155   */\n      tag_36\n        /* \"#utility.yul\":1149:1154   */\n      dup3\n        /* \"#utility.yul\":1131:1155   */\n      tag_37\n      jump\t// in\n    tag_36:\n        /* \"#utility.yul\":1120:1155   */\n      swap1\n      pop\n        /* \"#utility.yul\":1065:1161   */\n      swap2\n      swap1\n      pop\n      jump\t// out\n        /* \"#utility.yul\":1167:1293   */\n    tag_37:\n        /* \"#utility.yul\":1204:1211   */\n      0x00\n        /* \"#utility.yul\":1244:1286   */\n      0xffffffffffffffffffffffffffffffffffffffff\n        /* \"#utility.yul\":1237:1242   */\n      dup3\n        /* \"#utility.yul\":1233:1287   */\n      and\n        /* \"#utility.yul\":1222:1287   */\n      swap1\n      pop\n        /* \"#utility.yul\":1167:1293   */\n      swap2\n      swap1\n      pop\n      jump\t// out\n        /* \"#utility.yul\":1422:1539   */\n    tag_24:\n        /* \"#utility.yul\":1531:1532   */\n      0x00\n        /* \"#utility.yul\":1528:1529   */\n      dup1\n        /* \"#utility.yul\":1521:1533   */\n      revert\n        /* \"#utility.yul\":1545:1667   */\n    tag_20:\n        /* \"#utility.yul\":1618:1642   */\n      tag_43\n        /* \"#utility.yul\":1636:1641   */\n      dup2\n        /* \"#utility.yul\":1618:1642   */\n      tag_30\n      jump\t// in\n    tag_43:\n        /* \"#utility.yul\":1611:1616   */\n      dup2\n        /* \"#utility.yul\":1608:1643   */\n      eq\n        /* \"#utility.yul\":1598:1661   */\n      tag_44\n      jumpi\n        /* \"#utility.yul\":1657:1658   */\n      0x00\n        /* \"#utility.yul\":1654:1655   */\n      dup1\n        /* \"#utility.yul\":1647:1659   */\n      revert\n        /* \"#utility.yul\":1598:1661   */\n    tag_44:\n        /* \"#utility.yul\":1545:1667   */\n      pop\n      jump\t// out\n\n    auxdata: 0xa2646970667358221220b0a014e692c12e8e6c93dafe473d29d9b2037b9e7f73921144cf05a97c1780ea64736f6c63430008070033\n}\n",
				"bytecode": {
					"linkReferences": {},
					"object": "608060405234801561001057600080fd5b506101e7806100206000396000f3fe608060405234801561001057600080fd5b50600436106100355760003560e01c806236ad9e1461003a578063e6a439051461006a575b600080fd5b610054600480360381019061004f91906100f9565b61009a565b6040516100619190610148565b60405180910390f35b610084600480360381019061007f91906100f9565b6100a2565b6040516100919190610148565b60405180910390f35b600092915050565b60006020528160005260406000206020528060005260406000206000915091509054906101000a900473ffffffffffffffffffffffffffffffffffffffff1681565b6000813590506100f38161019a565b92915050565b600080604083850312156101105761010f610195565b5b600061011e858286016100e4565b925050602061012f858286016100e4565b9150509250929050565b61014281610163565b82525050565b600060208201905061015d6000830184610139565b92915050565b600061016e82610175565b9050919050565b600073ffffffffffffffffffffffffffffffffffffffff82169050919050565b600080fd5b6101a381610163565b81146101ae57600080fd5b5056fea2646970667358221220b0a014e692c12e8e6c93dafe473d29d9b2037b9e7f73921144cf05a97c1780ea64736f6c63430008070033",
					"opcodes": "PUSH1 0x80 PUSH1 0x40 MSTORE CALLVALUE DUP1 ISZERO PUSH2 0x10 JUMPI PUSH1 0x0 DUP1 REVERT JUMPDEST POP PUSH2 0x1E7 DUP1 PUSH2 0x20 PUSH1 0x0 CODECOPY PUSH1 0x0 RETURN INVALID PUSH1 0x80 PUSH1 0x40 MSTORE CALLVALUE DUP1 ISZERO PUSH2 0x10 JUMPI PUSH1 0x0 DUP1 REVERT JUMPDEST POP PUSH1 0x4 CALLDATASIZE LT PUSH2 0x35 JUMPI PUSH1 0x0 CALLDATALOAD PUSH1 0xE0 SHR DUP1 PUSH3 0x36AD9E EQ PUSH2 0x3A JUMPI DUP1 PUSH4 0xE6A43905 EQ PUSH2 0x6A JUMPI JUMPDEST PUSH1 0x0 DUP1 REVERT JUMPDEST PUSH2 0x54 PUSH1 0x4 DUP1 CALLDATASIZE SUB DUP2 ADD SWAP1 PUSH2 0x4F SWAP2 SWAP1 PUSH2 0xF9 JUMP JUMPDEST PUSH2 0x9A JUMP JUMPDEST PUSH1 0x40 MLOAD PUSH2 0x61 SWAP2 SWAP1 PUSH2 0x148 JUMP JUMPDEST PUSH1 0x40 MLOAD DUP1 SWAP2 SUB SWAP1 RETURN JUMPDEST PUSH2 0x84 PUSH1 0x4 DUP1 CALLDATASIZE SUB DUP2 ADD SWAP1 PUSH2 0x7F SWAP2 SWAP1 PUSH2 0xF9 JUMP JUMPDEST PUSH2 0xA2 JUMP JUMPDEST PUSH1 0x40 MLOAD PUSH2 0x91 SWAP2 SWAP1 PUSH2 0x148 JUMP JUMPDEST PUSH1 0x40 MLOAD DUP1 SWAP2 SUB SWAP1 RETURN JUMPDEST PUSH1 0x0 SWAP3 SWAP2 POP POP JUMP JUMPDEST PUSH1 0x0 PUSH1 0x20 MSTORE DUP2 PUSH1 0x0 MSTORE PUSH1 0x40 PUSH1 0x0 KECCAK256 PUSH1 0x20 MSTORE DUP1 PUSH1 0x0 MSTORE PUSH1 0x40 PUSH1 0x0 KECCAK256 PUSH1 0x0 SWAP2 POP SWAP2 POP SWAP1 SLOAD SWAP1 PUSH2 0x100 EXP SWAP1 DIV PUSH20 0xFFFFFFFFFFFFFFFFFFFFFFFFFFFFFFFFFFFFFFFF AND DUP2 JUMP JUMPDEST PUSH1 0x0 DUP2 CALLDATALOAD SWAP1 POP PUSH2 0xF3 DUP2 PUSH2 0x19A JUMP JUMPDEST SWAP3 SWAP2 POP POP JUMP JUMPDEST PUSH1 0x0 DUP1 PUSH1 0x40 DUP4 DUP6 SUB SLT ISZERO PUSH2 0x110 JUMPI PUSH2 0x10F PUSH2 0x195 JUMP JUMPDEST JUMPDEST PUSH1 0x0 PUSH2 0x11E DUP6 DUP3 DUP7 ADD PUSH2 0xE4 JUMP JUMPDEST SWAP3 POP POP PUSH1 0x20 PUSH2 0x12F DUP6 DUP3 DUP7 ADD PUSH2 0xE4 JUMP JUMPDEST SWAP2 POP POP SWAP3 POP SWAP3 SWAP1 POP JUMP JUMPDEST PUSH2 0x142 DUP2 PUSH2 0x163 JUMP JUMPDEST DUP3 MSTORE POP POP JUMP JUMPDEST PUSH1 0x0 PUSH1 0x20 DUP3 ADD SWAP1 POP PUSH2 0x15D PUSH1 0x0 DUP4 ADD DUP5 PUSH2 0x139 JUMP JUMPDEST SWAP3 SWAP2 POP POP JUMP JUMPDEST PUSH1 0x0 PUSH2 0x16E DUP3 PUSH2 0x175 JUMP JUMPDEST SWAP1 POP SWAP2 SWAP1 POP JUMP JUMPDEST PUSH1 0x0 PUSH20 0xFFFFFFFFFFFFFFFFFFFFFFFFFFFFFFFFFFFFFFFF DUP3 AND SWAP1 POP SWAP2 SWAP1 POP JUMP JUMPDEST PUSH1 0x0 DUP1 REVERT JUMPDEST PUSH2 0x1A3 DUP2 PUSH2 0x163 JUMP JUMPDEST DUP2 EQ PUSH2 0x1AE JUMPI PUSH1 0x0 DUP1 REVERT JUMPDEST POP JUMP INVALID LOG2 PUSH5 0x6970667358 0x22 SLT KECCAK256 0xB0 LOG0 EQ 0xE6 SWAP3 0xC1 0x2E DUP15 PUSH13 0x93DAFE473D29D9B2037B9E7F73 SWAP3 GT DIFFICULTY 0xCF SDIV 0xA9 PUSH29 0x1780EA64736F6C63430008070033000000000000000000000000000000 "
				},
				"gasEstimates": {
					"creation": {
						"codeDepositCost": "97400",
						"executionCost": "147",
						"totalCost": "97547"
					},
					"external": {
						"create2(address,address)": "infinite",
						"getPair(address,address)": "infinite"
					}
				},
				"methodIdentifiers": {
					"create2(address,address)": "0036ad9e",
					"getPair(address,address)": "e6a43905"
				}
			},
			"storageLayout": {
				"storage": [
					{
						"astId": 7,
						"contract": "create2/Create2.sol:createFactory2",
						"label": "getPair",
						"offset": 0,
						"slot": "0",
						"type": "t_mapping(t_address,t_mapping(t_address,t_address))"
					}
				],
				"types": {
					"t_address": {
						"encoding": "inplace",
						"label": "address",
						"numberOfBytes": "20"
					},
					"t_mapping(t_address,t_address)": {
						"encoding": "mapping",
						"key": "t_address",
						"label": "mapping(address => address)",
						"numberOfBytes": "32",
						"value": "t_address"
					},
					"t_mapping(t_address,t_mapping(t_address,t_address))": {
						"encoding": "mapping",
						"key": "t_address",
						"label": "mapping(address => mapping(address => address))",
						"numberOfBytes": "32",
						"value": "t_mapping(t_address,t_address)"
					}
				}
			},
			"userdoc": {
				"kind": "user",
				"methods": {},
				"version": 1
			}
		}
	}
}