{
	"ERC721/Ape.sol": {
		"WTFApe": {
			"abi": [
				{
					"inputs": [
						{
							"internalType": "string",
							"name": "name_",
							"type": "string"
						},
						{
							"internalType": "string",
							"name": "symbol_",
							"type": "string"
						}
					],
					"stateMutability": "nonpayable",
					"type": "constructor"
				},
				{
					"anonymous": false,
					"inputs": [
						{
							"indexed": true,
							"internalType": "address",
							"name": "owner",
							"type": "address"
						},
						{
							"indexed": true,
							"internalType": "address",
							"name": "approved",
							"type": "address"
						},
						{
							"indexed": true,
							"internalType": "uint256",
							"name": "tokenId",
							"type": "uint256"
						}
					],
					"name": "Approval",
					"type": "event"
				},
				{
					"anonymous": false,
					"inputs": [
						{
							"indexed": true,
							"internalType": "address",
							"name": "owner",
							"type": "address"
						},
						{
							"indexed": true,
							"internalType": "address",
							"name": "operater",
							"type": "address"
						},
						{
							"indexed": false,
							"internalType": "bool",
							"name": "approved",
							"type": "bool"
						}
					],
					"name": "ApprovalForAll",
					"type": "event"
				},
				{
					"anonymous": false,
					"inputs": [
						{
							"indexed": true,
							"internalType": "address",
							"name": "from",
							"type": "address"
						},
						{
							"indexed": true,
							"internalType": "address",
							"name": "to",
							"type": "address"
						},
						{
							"indexed": true,
							"internalType": "uint256",
							"name": "tokenId",
							"type": "uint256"
						}
					],
					"name": "Transfer",
					"type": "event"
				},
				{
					"inputs": [],
					"name": "MAX_APES",
					"outputs": [
						{
							"internalType": "uint256",
							"name": "",
							"type": "uint256"
						}
					],
					"stateMutability": "view",
					"type": "function"
				},
				{
					"inputs": [
						{
							"internalType": "address",
							"name": "to",
							"type": "address"
						},
						{
							"internalType": "uint256",
							"name": "tokenID",
							"type": "uint256"
						}
					],
					"name": "approve",
					"outputs": [],
					"stateMutability": "nonpayable",
					"type": "function"
				},
				{
					"inputs": [
						{
							"internalType": "address",
							"name": "owner",
							"type": "address"
						}
					],
					"name": "balanceOf",
					"outputs": [
						{
							"internalType": "uint256",
							"name": "",
							"type": "uint256"
						}
					],
					"stateMutability": "view",
					"type": "function"
				},
				{
					"inputs": [
						{
							"internalType": "uint256",
							"name": "tokenID",
							"type": "uint256"
						}
					],
					"name": "getApproved",
					"outputs": [
						{
							"internalType": "address",
							"name": "",
							"type": "address"
						}
					],
					"stateMutability": "view",
					"type": "function"
				},
				{
					"inputs": [
						{
							"internalType": "address",
							"name": "owner",
							"type": "address"
						},
						{
							"internalType": "address",
							"name": "operater",
							"type": "address"
						}
					],
					"name": "isApprovedForAll",
					"outputs": [
						{
							"internalType": "bool",
							"name": "",
							"type": "bool"
						}
					],
					"stateMutability": "view",
					"type": "function"
				},
				{
					"inputs": [
						{
							"internalType": "address",
							"name": "to",
							"type": "address"
						},
						{
							"internalType": "uint256",
							"name": "tokenId",
							"type": "uint256"
						}
					],
					"name": "mint",
					"outputs": [],
					"stateMutability": "nonpayable",
					"type": "function"
				},
				{
					"inputs": [],
					"name": "name",
					"outputs": [
						{
							"internalType": "string",
							"name": "",
							"type": "string"
						}
					],
					"stateMutability": "view",
					"type": "function"
				},
				{
					"inputs": [
						{
							"internalType": "uint256",
							"name": "tokenID",
							"type": "uint256"
						}
					],
					"name": "ownerOf",
					"outputs": [
						{
							"internalType": "address",
							"name": "owner",
							"type": "address"
						}
					],
					"stateMutability": "view",
					"type": "function"
				},
				{
					"inputs": [
						{
							"internalType": "address",
							"name": "from",
							"type": "address"
						},
						{
							"internalType": "address",
							"name": "to",
							"type": "address"
						},
						{
							"internalType": "uint256",
							"name": "tokenID",
							"type": "uint256"
						}
					],
					"name": "safeTransferFrom",
					"outputs": [],
					"stateMutability": "nonpayable",
					"type": "function"
				},
				{
					"inputs": [
						{
							"internalType": "address",
							"name": "from",
							"type": "address"
						},
						{
							"internalType": "address",
							"name": "to",
							"type": "address"
						},
						{
							"internalType": "uint256",
							"name": "tokenID",
							"type": "uint256"
						},
						{
							"internalType": "bytes",
							"name": "_data",
							"type": "bytes"
						}
					],
					"name": "safeTransferFrom",
					"outputs": [],
					"stateMutability": "nonpayable",
					"type": "function"
				},
				{
					"inputs": [
						{
							"internalType": "address",
							"name": "operater",
							"type": "address"
						},
						{
							"internalType": "bool",
							"name": "approved",
							"type": "bool"
						}
					],
					"name": "setApprovalForAll",
					"outputs": [],
					"stateMutability": "nonpayable",
					"type": "function"
				},
				{
					"inputs": [
						{
							"internalType": "bytes4",
							"name": "interfaceId",
							"type": "bytes4"
						}
					],
					"name": "supportsInterface",
					"outputs": [
						{
							"internalType": "bool",
							"name": "",
							"type": "bool"
						}
					],
					"stateMutability": "pure",
					"type": "function"
				},
				{
					"inputs": [],
					"name": "symbol",
					"outputs": [
						{
							"internalType": "string",
							"name": "",
							"type": "string"
						}
					],
					"stateMutability": "view",
					"type": "function"
				},
				{
					"inputs": [
						{
							"internalType": "uint256",
							"name": "tokenId",
							"type": "uint256"
						}
					],
					"name": "tokenURI",
					"outputs": [
						{
							"internalType": "string",
							"name": "",
							"type": "string"
						}
					],
					"stateMutability": "view",
					"type": "function"
				},
				{
					"inputs": [
						{
							"internalType": "address",
							"name": "from",
							"type": "address"
						},
						{
							"internalType": "address",
							"name": "to",
							"type": "address"
						},
						{
							"internalType": "uint256",
							"name": "tokenID",
							"type": "uint256"
						}
					],
					"name": "transferFrom",
					"outputs": [],
					"stateMutability": "nonpayable",
					"type": "function"
				}
			],
			"devdoc": {
				"kind": "dev",
				"methods": {},
				"version": 1
			},
			"evm": {
				"assembly": "    /* \"ERC721/Ape.sol\":98:721  contract WTFApe is ERC721{\r... */\n  mstore(0x40, 0x80)\n    /* \"ERC721/Ape.sol\":153:158  10000 */\n  0x2710\n    /* \"ERC721/Ape.sol\":130:158  uint public MAX_APES = 10000 */\n  0x06\n  sstore\n    /* \"ERC721/Ape.sol\":198:284  constructor(string memory name_, string memory symbol_) ERC721(name_, symbol_){\r... */\n  callvalue\n  dup1\n  iszero\n  tag_1\n  jumpi\n  0x00\n  dup1\n  revert\ntag_1:\n  pop\n  mload(0x40)\n  sub(codesize, bytecodeSize)\n  dup1\n  bytecodeSize\n  dup4\n  codecopy\n  dup2\n  dup2\n  add\n  0x40\n  mstore\n  dup2\n  add\n  swap1\n  tag_2\n  swap2\n  swap1\n  tag_3\n  jump\t// in\ntag_2:\n    /* \"ERC721/Ape.sol\":261:266  name_ */\n  dup2\n    /* \"ERC721/Ape.sol\":268:275  symbol_ */\n  dup2\n    /* \"ERC721/ERC721.sol\":962:967  _name */\n  dup2\n    /* \"ERC721/ERC721.sol\":955:959  name */\n  0x00\n    /* \"ERC721/ERC721.sol\":955:967  name = _name */\n  swap1\n  dup1\n  mload\n  swap1\n  0x20\n  add\n  swap1\n  tag_7\n  swap3\n  swap2\n  swap1\n  tag_8\n  jump\t// in\ntag_7:\n  pop\n    /* \"ERC721/ERC721.sol\":987:994  _symbol */\n  dup1\n    /* \"ERC721/ERC721.sol\":978:984  symbol */\n  0x01\n    /* \"ERC721/ERC721.sol\":978:994  symbol = _symbol */\n  swap1\n  dup1\n  mload\n  swap1\n  0x20\n  add\n  swap1\n  tag_9\n  swap3\n  swap2\n  swap1\n  tag_8\n  jump\t// in\ntag_9:\n  pop\n    /* \"ERC721/ERC721.sol\":890:1002  constructor(string memory _name,string memory _symbol){\r... */\n  pop\n  pop\n    /* \"ERC721/Ape.sol\":198:284  constructor(string memory name_, string memory symbol_) ERC721(name_, symbol_){\r... */\n  pop\n  pop\n    /* \"ERC721/Ape.sol\":98:721  contract WTFApe is ERC721{\r... */\n  jump(tag_11)\ntag_8:\n  dup3\n  dup1\n  sload\n  tag_12\n  swap1\n  tag_13\n  jump\t// in\ntag_12:\n  swap1\n  0x00\n  mstore\n  keccak256(0x00, 0x20)\n  swap1\n  0x1f\n  add\n  0x20\n  swap1\n  div\n  dup2\n  add\n  swap3\n  dup3\n  tag_15\n  jumpi\n  0x00\n  dup6\n  sstore\n  jump(tag_14)\ntag_15:\n  dup3\n  0x1f\n  lt\n  tag_16\n  jumpi\n  dup1\n  mload\n  not(0xff)\n  and\n  dup4\n  dup1\n  add\n  or\n  dup6\n  sstore\n  jump(tag_14)\ntag_16:\n  dup3\n  dup1\n  add\n  0x01\n  add\n  dup6\n  sstore\n  dup3\n  iszero\n  tag_14\n  jumpi\n  swap2\n  dup3\n  add\ntag_17:\n  dup3\n  dup2\n  gt\n  iszero\n  tag_18\n  jumpi\n  dup3\n  mload\n  dup3\n  sstore\n  swap2\n  0x20\n  add\n  swap2\n  swap1\n  0x01\n  add\n  swap1\n  jump(tag_17)\ntag_18:\ntag_14:\n  pop\n  swap1\n  pop\n  tag_19\n  swap2\n  swap1\n  tag_20\n  jump\t// in\ntag_19:\n  pop\n  swap1\n  jump\t// out\ntag_20:\ntag_21:\n  dup1\n  dup3\n  gt\n  iszero\n  tag_22\n  jumpi\n  0x00\n  dup2\n  0x00\n  swap1\n  sstore\n  pop\n  0x01\n  add\n  jump(tag_21)\ntag_22:\n  pop\n  swap1\n  jump\t// out\n    /* \"#utility.yul\":7:428   */\ntag_24:\n    /* \"#utility.yul\":96:101   */\n  0x00\n    /* \"#utility.yul\":121:187   */\n  tag_26\n    /* \"#utility.yul\":137:186   */\n  tag_27\n    /* \"#utility.yul\":179:185   */\n  dup5\n    /* \"#utility.yul\":137:186   */\n  tag_28\n  jump\t// in\ntag_27:\n    /* \"#utility.yul\":121:187   */\n  tag_29\n  jump\t// in\ntag_26:\n    /* \"#utility.yul\":112:187   */\n  swap1\n  pop\n    /* \"#utility.yul\":210:216   */\n  dup3\n    /* \"#utility.yul\":203:208   */\n  dup2\n    /* \"#utility.yul\":196:217   */\n  mstore\n    /* \"#utility.yul\":248:252   */\n  0x20\n    /* \"#utility.yul\":241:246   */\n  dup2\n    /* \"#utility.yul\":237:253   */\n  add\n    /* \"#utility.yul\":286:289   */\n  dup5\n    /* \"#utility.yul\":277:283   */\n  dup5\n    /* \"#utility.yul\":272:275   */\n  dup5\n    /* \"#utility.yul\":268:284   */\n  add\n    /* \"#utility.yul\":265:290   */\n  gt\n    /* \"#utility.yul\":262:374   */\n  iszero\n  tag_30\n  jumpi\n    /* \"#utility.yul\":293:372   */\n  tag_31\n  tag_32\n  jump\t// in\ntag_31:\n    /* \"#utility.yul\":262:374   */\ntag_30:\n    /* \"#utility.yul\":383:422   */\n  tag_33\n    /* \"#utility.yul\":415:421   */\n  dup5\n    /* \"#utility.yul\":410:413   */\n  dup3\n    /* \"#utility.yul\":405:408   */\n  dup6\n    /* \"#utility.yul\":383:422   */\n  tag_34\n  jump\t// in\ntag_33:\n    /* \"#utility.yul\":102:428   */\n  pop\n    /* \"#utility.yul\":7:428   */\n  swap4\n  swap3\n  pop\n  pop\n  pop\n  jump\t// out\n    /* \"#utility.yul\":448:803   */\ntag_35:\n    /* \"#utility.yul\":515:520   */\n  0x00\n    /* \"#utility.yul\":564:567   */\n  dup3\n    /* \"#utility.yul\":557:561   */\n  0x1f\n    /* \"#utility.yul\":549:555   */\n  dup4\n    /* \"#utility.yul\":545:562   */\n  add\n    /* \"#utility.yul\":541:568   */\n  slt\n    /* \"#utility.yul\":531:653   */\n  tag_37\n  jumpi\n    /* \"#utility.yul\":572:651   */\n  tag_38\n  tag_39\n  jump\t// in\ntag_38:\n    /* \"#utility.yul\":531:653   */\ntag_37:\n    /* \"#utility.yul\":682:688   */\n  dup2\n    /* \"#utility.yul\":676:689   */\n  mload\n    /* \"#utility.yul\":707:797   */\n  tag_40\n    /* \"#utility.yul\":793:796   */\n  dup5\n    /* \"#utility.yul\":785:791   */\n  dup3\n    /* \"#utility.yul\":778:782   */\n  0x20\n    /* \"#utility.yul\":770:776   */\n  dup7\n    /* \"#utility.yul\":766:783   */\n  add\n    /* \"#utility.yul\":707:797   */\n  tag_24\n  jump\t// in\ntag_40:\n    /* \"#utility.yul\":698:797   */\n  swap2\n  pop\n    /* \"#utility.yul\":521:803   */\n  pop\n    /* \"#utility.yul\":448:803   */\n  swap3\n  swap2\n  pop\n  pop\n  jump\t// out\n    /* \"#utility.yul\":809:1662   */\ntag_3:\n    /* \"#utility.yul\":908:914   */\n  0x00\n    /* \"#utility.yul\":916:922   */\n  dup1\n    /* \"#utility.yul\":965:967   */\n  0x40\n    /* \"#utility.yul\":953:962   */\n  dup4\n    /* \"#utility.yul\":944:951   */\n  dup6\n    /* \"#utility.yul\":940:963   */\n  sub\n    /* \"#utility.yul\":936:968   */\n  slt\n    /* \"#utility.yul\":933:1052   */\n  iszero\n  tag_42\n  jumpi\n    /* \"#utility.yul\":971:1050   */\n  tag_43\n  tag_44\n  jump\t// in\ntag_43:\n    /* \"#utility.yul\":933:1052   */\ntag_42:\n    /* \"#utility.yul\":1112:1113   */\n  0x00\n    /* \"#utility.yul\":1101:1110   */\n  dup4\n    /* \"#utility.yul\":1097:1114   */\n  add\n    /* \"#utility.yul\":1091:1115   */\n  mload\n    /* \"#utility.yul\":1142:1160   */\n  0xffffffffffffffff\n    /* \"#utility.yul\":1134:1140   */\n  dup2\n    /* \"#utility.yul\":1131:1161   */\n  gt\n    /* \"#utility.yul\":1128:1245   */\n  iszero\n  tag_45\n  jumpi\n    /* \"#utility.yul\":1164:1243   */\n  tag_46\n  tag_47\n  jump\t// in\ntag_46:\n    /* \"#utility.yul\":1128:1245   */\ntag_45:\n    /* \"#utility.yul\":1269:1343   */\n  tag_48\n    /* \"#utility.yul\":1335:1342   */\n  dup6\n    /* \"#utility.yul\":1326:1332   */\n  dup3\n    /* \"#utility.yul\":1315:1324   */\n  dup7\n    /* \"#utility.yul\":1311:1333   */\n  add\n    /* \"#utility.yul\":1269:1343   */\n  tag_35\n  jump\t// in\ntag_48:\n    /* \"#utility.yul\":1259:1343   */\n  swap3\n  pop\n    /* \"#utility.yul\":1062:1353   */\n  pop\n    /* \"#utility.yul\":1413:1415   */\n  0x20\n    /* \"#utility.yul\":1402:1411   */\n  dup4\n    /* \"#utility.yul\":1398:1416   */\n  add\n    /* \"#utility.yul\":1392:1417   */\n  mload\n    /* \"#utility.yul\":1444:1462   */\n  0xffffffffffffffff\n    /* \"#utility.yul\":1436:1442   */\n  dup2\n    /* \"#utility.yul\":1433:1463   */\n  gt\n    /* \"#utility.yul\":1430:1547   */\n  iszero\n  tag_49\n  jumpi\n    /* \"#utility.yul\":1466:1545   */\n  tag_50\n  tag_47\n  jump\t// in\ntag_50:\n    /* \"#utility.yul\":1430:1547   */\ntag_49:\n    /* \"#utility.yul\":1571:1645   */\n  tag_51\n    /* \"#utility.yul\":1637:1644   */\n  dup6\n    /* \"#utility.yul\":1628:1634   */\n  dup3\n    /* \"#utility.yul\":1617:1626   */\n  dup7\n    /* \"#utility.yul\":1613:1635   */\n  add\n    /* \"#utility.yul\":1571:1645   */\n  tag_35\n  jump\t// in\ntag_51:\n    /* \"#utility.yul\":1561:1645   */\n  swap2\n  pop\n    /* \"#utility.yul\":1363:1655   */\n  pop\n    /* \"#utility.yul\":809:1662   */\n  swap3\n  pop\n  swap3\n  swap1\n  pop\n  jump\t// out\n    /* \"#utility.yul\":1668:1797   */\ntag_29:\n    /* \"#utility.yul\":1702:1708   */\n  0x00\n    /* \"#utility.yul\":1729:1749   */\n  tag_53\n  tag_54\n  jump\t// in\ntag_53:\n    /* \"#utility.yul\":1719:1749   */\n  swap1\n  pop\n    /* \"#utility.yul\":1758:1791   */\n  tag_55\n    /* \"#utility.yul\":1786:1790   */\n  dup3\n    /* \"#utility.yul\":1778:1784   */\n  dup3\n    /* \"#utility.yul\":1758:1791   */\n  tag_56\n  jump\t// in\ntag_55:\n    /* \"#utility.yul\":1668:1797   */\n  swap2\n  swap1\n  pop\n  jump\t// out\n    /* \"#utility.yul\":1803:1878   */\ntag_54:\n    /* \"#utility.yul\":1836:1842   */\n  0x00\n    /* \"#utility.yul\":1869:1871   */\n  0x40\n    /* \"#utility.yul\":1863:1872   */\n  mload\n    /* \"#utility.yul\":1853:1872   */\n  swap1\n  pop\n    /* \"#utility.yul\":1803:1878   */\n  swap1\n  jump\t// out\n    /* \"#utility.yul\":1884:2192   */\ntag_28:\n    /* \"#utility.yul\":1946:1950   */\n  0x00\n    /* \"#utility.yul\":2036:2054   */\n  0xffffffffffffffff\n    /* \"#utility.yul\":2028:2034   */\n  dup3\n    /* \"#utility.yul\":2025:2055   */\n  gt\n    /* \"#utility.yul\":2022:2078   */\n  iszero\n  tag_59\n  jumpi\n    /* \"#utility.yul\":2058:2076   */\n  tag_60\n  tag_61\n  jump\t// in\ntag_60:\n    /* \"#utility.yul\":2022:2078   */\ntag_59:\n    /* \"#utility.yul\":2096:2125   */\n  tag_62\n    /* \"#utility.yul\":2118:2124   */\n  dup3\n    /* \"#utility.yul\":2096:2125   */\n  tag_63\n  jump\t// in\ntag_62:\n    /* \"#utility.yul\":2088:2125   */\n  swap1\n  pop\n    /* \"#utility.yul\":2180:2184   */\n  0x20\n    /* \"#utility.yul\":2174:2178   */\n  dup2\n    /* \"#utility.yul\":2170:2185   */\n  add\n    /* \"#utility.yul\":2162:2185   */\n  swap1\n  pop\n    /* \"#utility.yul\":1884:2192   */\n  swap2\n  swap1\n  pop\n  jump\t// out\n    /* \"#utility.yul\":2198:2505   */\ntag_34:\n    /* \"#utility.yul\":2266:2267   */\n  0x00\n    /* \"#utility.yul\":2276:2389   */\ntag_65:\n    /* \"#utility.yul\":2290:2296   */\n  dup4\n    /* \"#utility.yul\":2287:2288   */\n  dup2\n    /* \"#utility.yul\":2284:2297   */\n  lt\n    /* \"#utility.yul\":2276:2389   */\n  iszero\n  tag_67\n  jumpi\n    /* \"#utility.yul\":2375:2376   */\n  dup1\n    /* \"#utility.yul\":2370:2373   */\n  dup3\n    /* \"#utility.yul\":2366:2377   */\n  add\n    /* \"#utility.yul\":2360:2378   */\n  mload\n    /* \"#utility.yul\":2356:2357   */\n  dup2\n    /* \"#utility.yul\":2351:2354   */\n  dup5\n    /* \"#utility.yul\":2347:2358   */\n  add\n    /* \"#utility.yul\":2340:2379   */\n  mstore\n    /* \"#utility.yul\":2312:2314   */\n  0x20\n    /* \"#utility.yul\":2309:2310   */\n  dup2\n    /* \"#utility.yul\":2305:2315   */\n  add\n    /* \"#utility.yul\":2300:2315   */\n  swap1\n  pop\n    /* \"#utility.yul\":2276:2389   */\n  jump(tag_65)\ntag_67:\n    /* \"#utility.yul\":2407:2413   */\n  dup4\n    /* \"#utility.yul\":2404:2405   */\n  dup2\n    /* \"#utility.yul\":2401:2414   */\n  gt\n    /* \"#utility.yul\":2398:2499   */\n  iszero\n  tag_68\n  jumpi\n    /* \"#utility.yul\":2487:2488   */\n  0x00\n    /* \"#utility.yul\":2478:2484   */\n  dup5\n    /* \"#utility.yul\":2473:2476   */\n  dup5\n    /* \"#utility.yul\":2469:2485   */\n  add\n    /* \"#utility.yul\":2462:2489   */\n  mstore\n    /* \"#utility.yul\":2398:2499   */\ntag_68:\n    /* \"#utility.yul\":2247:2505   */\n  pop\n    /* \"#utility.yul\":2198:2505   */\n  pop\n  pop\n  pop\n  jump\t// out\n    /* \"#utility.yul\":2511:2831   */\ntag_13:\n    /* \"#utility.yul\":2555:2561   */\n  0x00\n    /* \"#utility.yul\":2592:2593   */\n  0x02\n    /* \"#utility.yul\":2586:2590   */\n  dup3\n    /* \"#utility.yul\":2582:2594   */\n  div\n    /* \"#utility.yul\":2572:2594   */\n  swap1\n  pop\n    /* \"#utility.yul\":2639:2640   */\n  0x01\n    /* \"#utility.yul\":2633:2637   */\n  dup3\n    /* \"#utility.yul\":2629:2641   */\n  and\n    /* \"#utility.yul\":2660:2678   */\n  dup1\n    /* \"#utility.yul\":2650:2731   */\n  tag_70\n  jumpi\n    /* \"#utility.yul\":2716:2720   */\n  0x7f\n    /* \"#utility.yul\":2708:2714   */\n  dup3\n    /* \"#utility.yul\":2704:2721   */\n  and\n    /* \"#utility.yul\":2694:2721   */\n  swap2\n  pop\n    /* \"#utility.yul\":2650:2731   */\ntag_70:\n    /* \"#utility.yul\":2778:2780   */\n  0x20\n    /* \"#utility.yul\":2770:2776   */\n  dup3\n    /* \"#utility.yul\":2767:2781   */\n  lt\n    /* \"#utility.yul\":2747:2765   */\n  dup2\n    /* \"#utility.yul\":2744:2782   */\n  eq\n    /* \"#utility.yul\":2741:2825   */\n  iszero\n  tag_71\n  jumpi\n    /* \"#utility.yul\":2797:2815   */\n  tag_72\n  tag_73\n  jump\t// in\ntag_72:\n    /* \"#utility.yul\":2741:2825   */\ntag_71:\n    /* \"#utility.yul\":2562:2831   */\n  pop\n    /* \"#utility.yul\":2511:2831   */\n  swap2\n  swap1\n  pop\n  jump\t// out\n    /* \"#utility.yul\":2837:3118   */\ntag_56:\n    /* \"#utility.yul\":2920:2947   */\n  tag_75\n    /* \"#utility.yul\":2942:2946   */\n  dup3\n    /* \"#utility.yul\":2920:2947   */\n  tag_63\n  jump\t// in\ntag_75:\n    /* \"#utility.yul\":2912:2918   */\n  dup2\n    /* \"#utility.yul\":2908:2948   */\n  add\n    /* \"#utility.yul\":3050:3056   */\n  dup2\n    /* \"#utility.yul\":3038:3048   */\n  dup2\n    /* \"#utility.yul\":3035:3057   */\n  lt\n    /* \"#utility.yul\":3014:3032   */\n  0xffffffffffffffff\n    /* \"#utility.yul\":3002:3012   */\n  dup3\n    /* \"#utility.yul\":2999:3033   */\n  gt\n    /* \"#utility.yul\":2996:3058   */\n  or\n    /* \"#utility.yul\":2993:3081   */\n  iszero\n  tag_76\n  jumpi\n    /* \"#utility.yul\":3061:3079   */\n  tag_77\n  tag_61\n  jump\t// in\ntag_77:\n    /* \"#utility.yul\":2993:3081   */\ntag_76:\n    /* \"#utility.yul\":3101:3111   */\n  dup1\n    /* \"#utility.yul\":3097:3099   */\n  0x40\n    /* \"#utility.yul\":3090:3112   */\n  mstore\n    /* \"#utility.yul\":2880:3118   */\n  pop\n    /* \"#utility.yul\":2837:3118   */\n  pop\n  pop\n  jump\t// out\n    /* \"#utility.yul\":3124:3304   */\ntag_73:\n    /* \"#utility.yul\":3172:3249   */\n  0x4e487b7100000000000000000000000000000000000000000000000000000000\n    /* \"#utility.yul\":3169:3170   */\n  0x00\n    /* \"#utility.yul\":3162:3250   */\n  mstore\n    /* \"#utility.yul\":3269:3273   */\n  0x22\n    /* \"#utility.yul\":3266:3267   */\n  0x04\n    /* \"#utility.yul\":3259:3274   */\n  mstore\n    /* \"#utility.yul\":3293:3297   */\n  0x24\n    /* \"#utility.yul\":3290:3291   */\n  0x00\n    /* \"#utility.yul\":3283:3298   */\n  revert\n    /* \"#utility.yul\":3310:3490   */\ntag_61:\n    /* \"#utility.yul\":3358:3435   */\n  0x4e487b7100000000000000000000000000000000000000000000000000000000\n    /* \"#utility.yul\":3355:3356   */\n  0x00\n    /* \"#utility.yul\":3348:3436   */\n  mstore\n    /* \"#utility.yul\":3455:3459   */\n  0x41\n    /* \"#utility.yul\":3452:3453   */\n  0x04\n    /* \"#utility.yul\":3445:3460   */\n  mstore\n    /* \"#utility.yul\":3479:3483   */\n  0x24\n    /* \"#utility.yul\":3476:3477   */\n  0x00\n    /* \"#utility.yul\":3469:3484   */\n  revert\n    /* \"#utility.yul\":3496:3613   */\ntag_39:\n    /* \"#utility.yul\":3605:3606   */\n  0x00\n    /* \"#utility.yul\":3602:3603   */\n  dup1\n    /* \"#utility.yul\":3595:3607   */\n  revert\n    /* \"#utility.yul\":3619:3736   */\ntag_32:\n    /* \"#utility.yul\":3728:3729   */\n  0x00\n    /* \"#utility.yul\":3725:3726   */\n  dup1\n    /* \"#utility.yul\":3718:3730   */\n  revert\n    /* \"#utility.yul\":3742:3859   */\ntag_47:\n    /* \"#utility.yul\":3851:3852   */\n  0x00\n    /* \"#utility.yul\":3848:3849   */\n  dup1\n    /* \"#utility.yul\":3841:3853   */\n  revert\n    /* \"#utility.yul\":3865:3982   */\ntag_44:\n    /* \"#utility.yul\":3974:3975   */\n  0x00\n    /* \"#utility.yul\":3971:3972   */\n  dup1\n    /* \"#utility.yul\":3964:3976   */\n  revert\n    /* \"#utility.yul\":3988:4090   */\ntag_63:\n    /* \"#utility.yul\":4029:4035   */\n  0x00\n    /* \"#utility.yul\":4080:4082   */\n  0x1f\n    /* \"#utility.yul\":4076:4083   */\n  not\n    /* \"#utility.yul\":4071:4073   */\n  0x1f\n    /* \"#utility.yul\":4064:4069   */\n  dup4\n    /* \"#utility.yul\":4060:4074   */\n  add\n    /* \"#utility.yul\":4056:4084   */\n  and\n    /* \"#utility.yul\":4046:4084   */\n  swap1\n  pop\n    /* \"#utility.yul\":3988:4090   */\n  swap2\n  swap1\n  pop\n  jump\t// out\n    /* \"ERC721/Ape.sol\":98:721  contract WTFApe is ERC721{\r... */\ntag_11:\n  dataSize(sub_0)\n  dup1\n  dataOffset(sub_0)\n  0x00\n  codecopy\n  0x00\n  return\nstop\n\nsub_0: assembly {\n        /* \"ERC721/Ape.sol\":98:721  contract WTFApe is ERC721{\r... */\n      mstore(0x40, 0x80)\n      callvalue\n      dup1\n      iszero\n      tag_1\n      jumpi\n      0x00\n      dup1\n      revert\n    tag_1:\n      pop\n      jumpi(tag_2, lt(calldatasize, 0x04))\n      shr(0xe0, calldataload(0x00))\n      dup1\n      0x6352211e\n      gt\n      tag_18\n      jumpi\n      dup1\n      0xb88d4fde\n      gt\n      tag_19\n      jumpi\n      dup1\n      0xb88d4fde\n      eq\n      tag_14\n      jumpi\n      dup1\n      0xbb8a16bd\n      eq\n      tag_15\n      jumpi\n      dup1\n      0xc87b56dd\n      eq\n      tag_16\n      jumpi\n      dup1\n      0xe985e9c5\n      eq\n      tag_17\n      jumpi\n      jump(tag_2)\n    tag_19:\n      dup1\n      0x6352211e\n      eq\n      tag_10\n      jumpi\n      dup1\n      0x70a08231\n      eq\n      tag_11\n      jumpi\n      dup1\n      0x95d89b41\n      eq\n      tag_12\n      jumpi\n      dup1\n      0xa22cb465\n      eq\n      tag_13\n      jumpi\n      jump(tag_2)\n    tag_18:\n      dup1\n      0x095ea7b3\n      gt\n      tag_20\n      jumpi\n      dup1\n      0x095ea7b3\n      eq\n      tag_6\n      jumpi\n      dup1\n      0x23b872dd\n      eq\n      tag_7\n      jumpi\n      dup1\n      0x40c10f19\n      eq\n      tag_8\n      jumpi\n      dup1\n      0x42842e0e\n      eq\n      tag_9\n      jumpi\n      jump(tag_2)\n    tag_20:\n      dup1\n      0x01ffc9a7\n      eq\n      tag_3\n      jumpi\n      dup1\n      0x06fdde03\n      eq\n      tag_4\n      jumpi\n      dup1\n      0x081812fc\n      eq\n      tag_5\n      jumpi\n    tag_2:\n      0x00\n      dup1\n      revert\n        /* \"ERC721/ERC721.sol\":1109:1394  function supportsInterface(bytes4 interfaceId)external pure override returns(bool){\r... */\n    tag_3:\n      tag_21\n      0x04\n      dup1\n      calldatasize\n      sub\n      dup2\n      add\n      swap1\n      tag_22\n      swap2\n      swap1\n      tag_23\n      jump\t// in\n    tag_22:\n      tag_24\n      jump\t// in\n    tag_21:\n      mload(0x40)\n      tag_25\n      swap2\n      swap1\n      tag_26\n      jump\t// in\n    tag_25:\n      mload(0x40)\n      dup1\n      swap2\n      sub\n      swap1\n      return\n        /* \"ERC721/ERC721.sol\":342:369  string public override name */\n    tag_4:\n      tag_27\n      tag_28\n      jump\t// in\n    tag_27:\n      mload(0x40)\n      tag_29\n      swap2\n      swap1\n      tag_30\n      jump\t// in\n    tag_29:\n      mload(0x40)\n      dup1\n      swap2\n      sub\n      swap1\n      return\n        /* \"ERC721/ERC721.sol\":2342:2621  function getApproved(uint tokenID) external view override returns(address){\r... */\n    tag_5:\n      tag_31\n      0x04\n      dup1\n      calldatasize\n      sub\n      dup2\n      add\n      swap1\n      tag_32\n      swap2\n      swap1\n      tag_33\n      jump\t// in\n    tag_32:\n      tag_34\n      jump\t// in\n    tag_31:\n      mload(0x40)\n      tag_35\n      swap2\n      swap1\n      tag_36\n      jump\t// in\n    tag_35:\n      mload(0x40)\n      dup1\n      swap2\n      sub\n      swap1\n      return\n        /* \"ERC721/ERC721.sol\":2792:3059  function approve(address to,uint tokenID) external override{\r... */\n    tag_6:\n      tag_37\n      0x04\n      dup1\n      calldatasize\n      sub\n      dup2\n      add\n      swap1\n      tag_38\n      swap2\n      swap1\n      tag_39\n      jump\t// in\n    tag_38:\n      tag_40\n      jump\t// in\n    tag_37:\n      stop\n        /* \"ERC721/ERC721.sol\":3455:3713  function transferFrom(address from,address to,uint tokenID) external override{\r... */\n    tag_7:\n      tag_41\n      0x04\n      dup1\n      calldatasize\n      sub\n      dup2\n      add\n      swap1\n      tag_42\n      swap2\n      swap1\n      tag_43\n      jump\t// in\n    tag_42:\n      tag_44\n      jump\t// in\n    tag_41:\n      stop\n        /* \"ERC721/Ape.sol\":554:718  function mint(address to, uint tokenId) external {\r... */\n    tag_8:\n      tag_45\n      0x04\n      dup1\n      calldatasize\n      sub\n      dup2\n      add\n      swap1\n      tag_46\n      swap2\n      swap1\n      tag_39\n      jump\t// in\n    tag_46:\n      tag_47\n      jump\t// in\n    tag_45:\n      stop\n        /* \"ERC721/ERC721.sol\":4579:4715  function safeTransferFrom(address from,address to,uint tokenID) external override{\r... */\n    tag_9:\n      tag_48\n      0x04\n      dup1\n      calldatasize\n      sub\n      dup2\n      add\n      swap1\n      tag_49\n      swap2\n      swap1\n      tag_43\n      jump\t// in\n    tag_49:\n      tag_50\n      jump\t// in\n    tag_48:\n      stop\n        /* \"ERC721/ERC721.sol\":1644:1822  function ownerOf(uint tokenID) public view override returns(address owner){\r... */\n    tag_10:\n      tag_51\n      0x04\n      dup1\n      calldatasize\n      sub\n      dup2\n      add\n      swap1\n      tag_52\n      swap2\n      swap1\n      tag_33\n      jump\t// in\n    tag_52:\n      tag_53\n      jump\t// in\n    tag_51:\n      mload(0x40)\n      tag_54\n      swap2\n      swap1\n      tag_36\n      jump\t// in\n    tag_54:\n      mload(0x40)\n      dup1\n      swap2\n      sub\n      swap1\n      return\n        /* \"ERC721/ERC721.sol\":1423:1597  function balanceOf(address owner) external view override returns(uint){\r... */\n    tag_11:\n      tag_55\n      0x04\n      dup1\n      calldatasize\n      sub\n      dup2\n      add\n      swap1\n      tag_56\n      swap2\n      swap1\n      tag_57\n      jump\t// in\n    tag_56:\n      tag_58\n      jump\t// in\n    tag_55:\n      mload(0x40)\n      tag_59\n      swap2\n      swap1\n      tag_60\n      jump\t// in\n    tag_59:\n      mload(0x40)\n      dup1\n      swap2\n      sub\n      swap1\n      return\n        /* \"ERC721/ERC721.sol\":396:425  string public override symbol */\n    tag_12:\n      tag_61\n      tag_62\n      jump\t// in\n    tag_61:\n      mload(0x40)\n      tag_63\n      swap2\n      swap1\n      tag_30\n      jump\t// in\n    tag_63:\n      mload(0x40)\n      dup1\n      swap2\n      sub\n      swap1\n      return\n        /* \"ERC721/ERC721.sol\":2129:2334  function setApprovalForAll(address operater,bool approved)external override{\r... */\n    tag_13:\n      tag_64\n      0x04\n      dup1\n      calldatasize\n      sub\n      dup2\n      add\n      swap1\n      tag_65\n      swap2\n      swap1\n      tag_66\n      jump\t// in\n    tag_65:\n      tag_67\n      jump\t// in\n    tag_64:\n      stop\n        /* \"ERC721/ERC721.sol\":4281:4565  function safeTransferFrom(address from,address to,uint tokenID,bytes memory _data)public override{\r... */\n    tag_14:\n      tag_68\n      0x04\n      dup1\n      calldatasize\n      sub\n      dup2\n      add\n      swap1\n      tag_69\n      swap2\n      swap1\n      tag_70\n      jump\t// in\n    tag_69:\n      tag_71\n      jump\t// in\n    tag_68:\n      stop\n        /* \"ERC721/Ape.sol\":130:158  uint public MAX_APES = 10000 */\n    tag_15:\n      tag_72\n      tag_73\n      jump\t// in\n    tag_72:\n      mload(0x40)\n      tag_74\n      swap2\n      swap1\n      tag_60\n      jump\t// in\n    tag_74:\n      mload(0x40)\n      dup1\n      swap2\n      sub\n      swap1\n      return\n        /* \"ERC721/ERC721.sol\":6143:6458  function tokenURI(uint256 tokenId) public view virtual override returns (string memory) {\r... */\n    tag_16:\n      tag_75\n      0x04\n      dup1\n      calldatasize\n      sub\n      dup2\n      add\n      swap1\n      tag_76\n      swap2\n      swap1\n      tag_33\n      jump\t// in\n    tag_76:\n      tag_77\n      jump\t// in\n    tag_75:\n      mload(0x40)\n      tag_78\n      swap2\n      swap1\n      tag_30\n      jump\t// in\n    tag_78:\n      mload(0x40)\n      dup1\n      swap2\n      sub\n      swap1\n      return\n        /* \"ERC721/ERC721.sol\":1871:2068  function isApprovedForAll(address owner,address operater)\r... */\n    tag_17:\n      tag_79\n      0x04\n      dup1\n      calldatasize\n      sub\n      dup2\n      add\n      swap1\n      tag_80\n      swap2\n      swap1\n      tag_81\n      jump\t// in\n    tag_80:\n      tag_82\n      jump\t// in\n    tag_79:\n      mload(0x40)\n      tag_83\n      swap2\n      swap1\n      tag_26\n      jump\t// in\n    tag_83:\n      mload(0x40)\n      dup1\n      swap2\n      sub\n      swap1\n      return\n        /* \"ERC721/ERC721.sol\":1109:1394  function supportsInterface(bytes4 interfaceId)external pure override returns(bool){\r... */\n    tag_24:\n        /* \"ERC721/ERC721.sol\":1186:1190  bool */\n      0x00\n        /* \"ERC721/ERC721.sol\":1238:1263  type(IERC721).interfaceId */\n      0x80ac58cd00000000000000000000000000000000000000000000000000000000\n        /* \"ERC721/ERC721.sol\":1223:1263  interfaceId == type(IERC721).interfaceId */\n      not(0xffffffffffffffffffffffffffffffffffffffffffffffffffffffff)\n      and\n        /* \"ERC721/ERC721.sol\":1223:1234  interfaceId */\n      dup3\n        /* \"ERC721/ERC721.sol\":1223:1263  interfaceId == type(IERC721).interfaceId */\n      not(0xffffffffffffffffffffffffffffffffffffffffffffffffffffffff)\n      and\n      eq\n        /* \"ERC721/ERC721.sol\":1223:1321  interfaceId == type(IERC721).interfaceId || \r... */\n      dup1\n      tag_85\n      jumpi\n      pop\n        /* \"ERC721/ERC721.sol\":1296:1321  type(IERC165).interfaceId */\n      0x01ffc9a700000000000000000000000000000000000000000000000000000000\n        /* \"ERC721/ERC721.sol\":1281:1321  interfaceId == type(IERC165).interfaceId */\n      not(0xffffffffffffffffffffffffffffffffffffffffffffffffffffffff)\n      and\n        /* \"ERC721/ERC721.sol\":1281:1292  interfaceId */\n      dup3\n        /* \"ERC721/ERC721.sol\":1281:1321  interfaceId == type(IERC165).interfaceId */\n      not(0xffffffffffffffffffffffffffffffffffffffffffffffffffffffff)\n      and\n      eq\n        /* \"ERC721/ERC721.sol\":1223:1321  interfaceId == type(IERC721).interfaceId || \r... */\n    tag_85:\n        /* \"ERC721/ERC721.sol\":1223:1386  interfaceId == type(IERC721).interfaceId || \r... */\n      dup1\n      tag_86\n      jumpi\n      pop\n        /* \"ERC721/ERC721.sol\":1353:1386  type(IERC721Metadata).interfaceId */\n      0x5b5e139f00000000000000000000000000000000000000000000000000000000\n        /* \"ERC721/ERC721.sol\":1338:1386  interfaceId == type(IERC721Metadata).interfaceId */\n      not(0xffffffffffffffffffffffffffffffffffffffffffffffffffffffff)\n      and\n        /* \"ERC721/ERC721.sol\":1338:1349  interfaceId */\n      dup3\n        /* \"ERC721/ERC721.sol\":1338:1386  interfaceId == type(IERC721Metadata).interfaceId */\n      not(0xffffffffffffffffffffffffffffffffffffffffffffffffffffffff)\n      and\n      eq\n        /* \"ERC721/ERC721.sol\":1223:1386  interfaceId == type(IERC721).interfaceId || \r... */\n    tag_86:\n        /* \"ERC721/ERC721.sol\":1202:1386  return \r... */\n      swap1\n      pop\n        /* \"ERC721/ERC721.sol\":1109:1394  function supportsInterface(bytes4 interfaceId)external pure override returns(bool){\r... */\n      swap2\n      swap1\n      pop\n      jump\t// out\n        /* \"ERC721/ERC721.sol\":342:369  string public override name */\n    tag_28:\n      0x00\n      dup1\n      sload\n      tag_87\n      swap1\n      tag_88\n      jump\t// in\n    tag_87:\n      dup1\n      0x1f\n      add\n      0x20\n      dup1\n      swap2\n      div\n      mul\n      0x20\n      add\n      mload(0x40)\n      swap1\n      dup2\n      add\n      0x40\n      mstore\n      dup1\n      swap3\n      swap2\n      swap1\n      dup2\n      dup2\n      mstore\n      0x20\n      add\n      dup3\n      dup1\n      sload\n      tag_89\n      swap1\n      tag_88\n      jump\t// in\n    tag_89:\n      dup1\n      iszero\n      tag_90\n      jumpi\n      dup1\n      0x1f\n      lt\n      tag_91\n      jumpi\n      0x0100\n      dup1\n      dup4\n      sload\n      div\n      mul\n      dup4\n      mstore\n      swap2\n      0x20\n      add\n      swap2\n      jump(tag_90)\n    tag_91:\n      dup3\n      add\n      swap2\n      swap1\n      0x00\n      mstore\n      keccak256(0x00, 0x20)\n      swap1\n    tag_92:\n      dup2\n      sload\n      dup2\n      mstore\n      swap1\n      0x01\n      add\n      swap1\n      0x20\n      add\n      dup1\n      dup4\n      gt\n      tag_92\n      jumpi\n      dup3\n      swap1\n      sub\n      0x1f\n      and\n      dup3\n      add\n      swap2\n    tag_90:\n      pop\n      pop\n      pop\n      pop\n      pop\n      dup2\n      jump\t// out\n        /* \"ERC721/ERC721.sol\":2342:2621  function getApproved(uint tokenID) external view override returns(address){\r... */\n    tag_34:\n        /* \"ERC721/ERC721.sol\":2408:2415  address */\n      0x00\n        /* \"ERC721/ERC721.sol\":2462:2463  0 */\n      dup1\n        /* \"ERC721/ERC721.sol\":2435:2464  _owner[tokenID] != address(0) */\n      0xffffffffffffffffffffffffffffffffffffffff\n      and\n        /* \"ERC721/ERC721.sol\":2435:2441  _owner */\n      0x02\n        /* \"ERC721/ERC721.sol\":2435:2450  _owner[tokenID] */\n      0x00\n        /* \"ERC721/ERC721.sol\":2442:2449  tokenID */\n      dup5\n        /* \"ERC721/ERC721.sol\":2435:2450  _owner[tokenID] */\n      dup2\n      mstore\n      0x20\n      add\n      swap1\n      dup2\n      mstore\n      0x20\n      add\n      0x00\n      keccak256\n      0x00\n      swap1\n      sload\n      swap1\n      0x0100\n      exp\n      swap1\n      div\n      0xffffffffffffffffffffffffffffffffffffffff\n      and\n        /* \"ERC721/ERC721.sol\":2435:2464  _owner[tokenID] != address(0) */\n      0xffffffffffffffffffffffffffffffffffffffff\n      and\n      eq\n      iszero\n        /* \"ERC721/ERC721.sol\":2427:2489  require(_owner[tokenID] != address(0),\"token  doesn't exist!\") */\n      tag_94\n      jumpi\n      mload(0x40)\n      0x08c379a000000000000000000000000000000000000000000000000000000000\n      dup2\n      mstore\n      0x04\n      add\n      tag_95\n      swap1\n      tag_96\n      jump\t// in\n    tag_95:\n      mload(0x40)\n      dup1\n      swap2\n      sub\n      swap1\n      revert\n    tag_94:\n        /* \"ERC721/ERC721.sol\":2544:2545  0 */\n      0x00\n        /* \"ERC721/ERC721.sol\":2508:2546  _tokenApprovals[tokenID] != address(0) */\n      0xffffffffffffffffffffffffffffffffffffffff\n      and\n        /* \"ERC721/ERC721.sol\":2508:2523  _tokenApprovals */\n      0x04\n        /* \"ERC721/ERC721.sol\":2508:2532  _tokenApprovals[tokenID] */\n      0x00\n        /* \"ERC721/ERC721.sol\":2524:2531  tokenID */\n      dup5\n        /* \"ERC721/ERC721.sol\":2508:2532  _tokenApprovals[tokenID] */\n      dup2\n      mstore\n      0x20\n      add\n      swap1\n      dup2\n      mstore\n      0x20\n      add\n      0x00\n      keccak256\n      0x00\n      swap1\n      sload\n      swap1\n      0x0100\n      exp\n      swap1\n      div\n      0xffffffffffffffffffffffffffffffffffffffff\n      and\n        /* \"ERC721/ERC721.sol\":2508:2546  _tokenApprovals[tokenID] != address(0) */\n      0xffffffffffffffffffffffffffffffffffffffff\n      and\n      eq\n      iszero\n        /* \"ERC721/ERC721.sol\":2500:2571  require(_tokenApprovals[tokenID] != address(0),\"token doesn't approve\") */\n      tag_97\n      jumpi\n      mload(0x40)\n      0x08c379a000000000000000000000000000000000000000000000000000000000\n      dup2\n      mstore\n      0x04\n      add\n      tag_98\n      swap1\n      tag_99\n      jump\t// in\n    tag_98:\n      mload(0x40)\n      dup1\n      swap2\n      sub\n      swap1\n      revert\n    tag_97:\n        /* \"ERC721/ERC721.sol\":2589:2604  _tokenApprovals */\n      0x04\n        /* \"ERC721/ERC721.sol\":2589:2613  _tokenApprovals[tokenID] */\n      0x00\n        /* \"ERC721/ERC721.sol\":2605:2612  tokenID */\n      dup4\n        /* \"ERC721/ERC721.sol\":2589:2613  _tokenApprovals[tokenID] */\n      dup2\n      mstore\n      0x20\n      add\n      swap1\n      dup2\n      mstore\n      0x20\n      add\n      0x00\n      keccak256\n      0x00\n      swap1\n      sload\n      swap1\n      0x0100\n      exp\n      swap1\n      div\n      0xffffffffffffffffffffffffffffffffffffffff\n      and\n        /* \"ERC721/ERC721.sol\":2582:2613  return _tokenApprovals[tokenID] */\n      swap1\n      pop\n        /* \"ERC721/ERC721.sol\":2342:2621  function getApproved(uint tokenID) external view override returns(address){\r... */\n      swap2\n      swap1\n      pop\n      jump\t// out\n        /* \"ERC721/ERC721.sol\":2792:3059  function approve(address to,uint tokenID) external override{\r... */\n    tag_40:\n        /* \"ERC721/ERC721.sol\":2862:2875  address owner */\n      0x00\n        /* \"ERC721/ERC721.sol\":2878:2884  _owner */\n      0x02\n        /* \"ERC721/ERC721.sol\":2878:2893  _owner[tokenID] */\n      0x00\n        /* \"ERC721/ERC721.sol\":2885:2892  tokenID */\n      dup4\n        /* \"ERC721/ERC721.sol\":2878:2893  _owner[tokenID] */\n      dup2\n      mstore\n      0x20\n      add\n      swap1\n      dup2\n      mstore\n      0x20\n      add\n      0x00\n      keccak256\n      0x00\n      swap1\n      sload\n      swap1\n      0x0100\n      exp\n      swap1\n      div\n      0xffffffffffffffffffffffffffffffffffffffff\n      and\n        /* \"ERC721/ERC721.sol\":2862:2893  address owner = _owner[tokenID] */\n      swap1\n      pop\n        /* \"ERC721/ERC721.sol\":2924:2929  owner */\n      dup1\n        /* \"ERC721/ERC721.sol\":2912:2929  msg.sender==owner */\n      0xffffffffffffffffffffffffffffffffffffffff\n      and\n        /* \"ERC721/ERC721.sol\":2912:2922  msg.sender */\n      caller\n        /* \"ERC721/ERC721.sol\":2912:2929  msg.sender==owner */\n      0xffffffffffffffffffffffffffffffffffffffff\n      and\n      eq\n        /* \"ERC721/ERC721.sol\":2912:2970  msg.sender==owner || _operatorApprovals[owner][msg.sender] */\n      dup1\n      tag_101\n      jumpi\n      pop\n        /* \"ERC721/ERC721.sol\":2933:2951  _operatorApprovals */\n      0x05\n        /* \"ERC721/ERC721.sol\":2933:2958  _operatorApprovals[owner] */\n      0x00\n        /* \"ERC721/ERC721.sol\":2952:2957  owner */\n      dup3\n        /* \"ERC721/ERC721.sol\":2933:2958  _operatorApprovals[owner] */\n      0xffffffffffffffffffffffffffffffffffffffff\n      and\n      0xffffffffffffffffffffffffffffffffffffffff\n      and\n      dup2\n      mstore\n      0x20\n      add\n      swap1\n      dup2\n      mstore\n      0x20\n      add\n      0x00\n      keccak256\n        /* \"ERC721/ERC721.sol\":2933:2970  _operatorApprovals[owner][msg.sender] */\n      0x00\n        /* \"ERC721/ERC721.sol\":2959:2969  msg.sender */\n      caller\n        /* \"ERC721/ERC721.sol\":2933:2970  _operatorApprovals[owner][msg.sender] */\n      0xffffffffffffffffffffffffffffffffffffffff\n      and\n      0xffffffffffffffffffffffffffffffffffffffff\n      and\n      dup2\n      mstore\n      0x20\n      add\n      swap1\n      dup2\n      mstore\n      0x20\n      add\n      0x00\n      keccak256\n      0x00\n      swap1\n      sload\n      swap1\n      0x0100\n      exp\n      swap1\n      div\n      0xff\n      and\n        /* \"ERC721/ERC721.sol\":2912:2970  msg.sender==owner || _operatorApprovals[owner][msg.sender] */\n    tag_101:\n        /* \"ERC721/ERC721.sol\":2904:3004  require(msg.sender==owner || _operatorApprovals[owner][msg.sender],\"not owner nor approved for all\") */\n      tag_102\n      jumpi\n      mload(0x40)\n      0x08c379a000000000000000000000000000000000000000000000000000000000\n      dup2\n      mstore\n      0x04\n      add\n      tag_103\n      swap1\n      tag_104\n      jump\t// in\n    tag_103:\n      mload(0x40)\n      dup1\n      swap2\n      sub\n      swap1\n      revert\n    tag_102:\n        /* \"ERC721/ERC721.sol\":3015:3043  _approve(owner, to, tokenID) */\n      tag_105\n        /* \"ERC721/ERC721.sol\":3024:3029  owner */\n      dup2\n        /* \"ERC721/ERC721.sol\":3031:3033  to */\n      dup5\n        /* \"ERC721/ERC721.sol\":3035:3042  tokenID */\n      dup5\n        /* \"ERC721/ERC721.sol\":3015:3023  _approve */\n      tag_106\n        /* \"ERC721/ERC721.sol\":3015:3043  _approve(owner, to, tokenID) */\n      jump\t// in\n    tag_105:\n        /* \"ERC721/ERC721.sol\":2851:3059  {\r... */\n      pop\n        /* \"ERC721/ERC721.sol\":2792:3059  function approve(address to,uint tokenID) external override{\r... */\n      pop\n      pop\n      jump\t// out\n        /* \"ERC721/ERC721.sol\":3455:3713  function transferFrom(address from,address to,uint tokenID) external override{\r... */\n    tag_44:\n        /* \"ERC721/ERC721.sol\":3543:3556  address owner */\n      0x00\n        /* \"ERC721/ERC721.sol\":3559:3565  _owner */\n      0x02\n        /* \"ERC721/ERC721.sol\":3559:3574  _owner[tokenID] */\n      0x00\n        /* \"ERC721/ERC721.sol\":3566:3573  tokenID */\n      dup4\n        /* \"ERC721/ERC721.sol\":3559:3574  _owner[tokenID] */\n      dup2\n      mstore\n      0x20\n      add\n      swap1\n      dup2\n      mstore\n      0x20\n      add\n      0x00\n      keccak256\n      0x00\n      swap1\n      sload\n      swap1\n      0x0100\n      exp\n      swap1\n      div\n      0xffffffffffffffffffffffffffffffffffffffff\n      and\n        /* \"ERC721/ERC721.sol\":3543:3574  address owner = _owner[tokenID] */\n      swap1\n      pop\n        /* \"ERC721/ERC721.sol\":3593:3637  _isApprovedOrOwner(owner,msg.sender,tokenID) */\n      tag_108\n        /* \"ERC721/ERC721.sol\":3612:3617  owner */\n      dup2\n        /* \"ERC721/ERC721.sol\":3618:3628  msg.sender */\n      caller\n        /* \"ERC721/ERC721.sol\":3629:3636  tokenID */\n      dup5\n        /* \"ERC721/ERC721.sol\":3593:3611  _isApprovedOrOwner */\n      tag_109\n        /* \"ERC721/ERC721.sol\":3593:3637  _isApprovedOrOwner(owner,msg.sender,tokenID) */\n      jump\t// in\n    tag_108:\n        /* \"ERC721/ERC721.sol\":3585:3662  require(_isApprovedOrOwner(owner,msg.sender,tokenID),\"not owner or approved\") */\n      tag_110\n      jumpi\n      mload(0x40)\n      0x08c379a000000000000000000000000000000000000000000000000000000000\n      dup2\n      mstore\n      0x04\n      add\n      tag_111\n      swap1\n      tag_112\n      jump\t// in\n    tag_111:\n      mload(0x40)\n      dup1\n      swap2\n      sub\n      swap1\n      revert\n    tag_110:\n        /* \"ERC721/ERC721.sol\":3673:3705  _transfer(owner,from,to,tokenID) */\n      tag_113\n        /* \"ERC721/ERC721.sol\":3683:3688  owner */\n      dup2\n        /* \"ERC721/ERC721.sol\":3689:3693  from */\n      dup6\n        /* \"ERC721/ERC721.sol\":3694:3696  to */\n      dup6\n        /* \"ERC721/ERC721.sol\":3697:3704  tokenID */\n      dup6\n        /* \"ERC721/ERC721.sol\":3673:3682  _transfer */\n      tag_114\n        /* \"ERC721/ERC721.sol\":3673:3705  _transfer(owner,from,to,tokenID) */\n      jump\t// in\n    tag_113:\n        /* \"ERC721/ERC721.sol\":3532:3713  {\r... */\n      pop\n        /* \"ERC721/ERC721.sol\":3455:3713  function transferFrom(address from,address to,uint tokenID) external override{\r... */\n      pop\n      pop\n      pop\n      jump\t// out\n        /* \"ERC721/Ape.sol\":554:718  function mint(address to, uint tokenId) external {\r... */\n    tag_47:\n        /* \"ERC721/Ape.sol\":633:634  0 */\n      0x00\n        /* \"ERC721/Ape.sol\":622:629  tokenId */\n      dup2\n        /* \"ERC721/Ape.sol\":622:634  tokenId >= 0 */\n      lt\n      iszero\n        /* \"ERC721/Ape.sol\":622:656  tokenId >= 0 && tokenId < MAX_APES */\n      dup1\n      iszero\n      tag_116\n      jumpi\n      pop\n        /* \"ERC721/Ape.sol\":648:656  MAX_APES */\n      sload(0x06)\n        /* \"ERC721/Ape.sol\":638:645  tokenId */\n      dup2\n        /* \"ERC721/Ape.sol\":638:656  tokenId < MAX_APES */\n      lt\n        /* \"ERC721/Ape.sol\":622:656  tokenId >= 0 && tokenId < MAX_APES */\n    tag_116:\n        /* \"ERC721/Ape.sol\":614:681  require(tokenId >= 0 && tokenId < MAX_APES, \"tokenId out of range\") */\n      tag_117\n      jumpi\n      mload(0x40)\n      0x08c379a000000000000000000000000000000000000000000000000000000000\n      dup2\n      mstore\n      0x04\n      add\n      tag_118\n      swap1\n      tag_119\n      jump\t// in\n    tag_118:\n      mload(0x40)\n      dup1\n      swap2\n      sub\n      swap1\n      revert\n    tag_117:\n        /* \"ERC721/Ape.sol\":692:710  _mint(to, tokenId) */\n      tag_120\n        /* \"ERC721/Ape.sol\":698:700  to */\n      dup3\n        /* \"ERC721/Ape.sol\":702:709  tokenId */\n      dup3\n        /* \"ERC721/Ape.sol\":692:697  _mint */\n      tag_121\n        /* \"ERC721/Ape.sol\":692:710  _mint(to, tokenId) */\n      jump\t// in\n    tag_120:\n        /* \"ERC721/Ape.sol\":554:718  function mint(address to, uint tokenId) external {\r... */\n      pop\n      pop\n      jump\t// out\n        /* \"ERC721/ERC721.sol\":4579:4715  function safeTransferFrom(address from,address to,uint tokenID) external override{\r... */\n    tag_50:\n        /* \"ERC721/ERC721.sol\":4671:4707  safeTransferFrom(from,to,tokenID,\"\") */\n      tag_123\n        /* \"ERC721/ERC721.sol\":4688:4692  from */\n      dup4\n        /* \"ERC721/ERC721.sol\":4693:4695  to */\n      dup4\n        /* \"ERC721/ERC721.sol\":4696:4703  tokenID */\n      dup4\n        /* \"ERC721/ERC721.sol\":4671:4707  safeTransferFrom(from,to,tokenID,\"\") */\n      mload(0x40)\n      dup1\n      0x20\n      add\n      0x40\n      mstore\n      dup1\n      0x00\n      dup2\n      mstore\n      pop\n        /* \"ERC721/ERC721.sol\":4671:4687  safeTransferFrom */\n      tag_71\n        /* \"ERC721/ERC721.sol\":4671:4707  safeTransferFrom(from,to,tokenID,\"\") */\n      jump\t// in\n    tag_123:\n        /* \"ERC721/ERC721.sol\":4579:4715  function safeTransferFrom(address from,address to,uint tokenID) external override{\r... */\n      pop\n      pop\n      pop\n      jump\t// out\n        /* \"ERC721/ERC721.sol\":1644:1822  function ownerOf(uint tokenID) public view override returns(address owner){\r... */\n    tag_53:\n        /* \"ERC721/ERC721.sol\":1704:1717  address owner */\n      0x00\n        /* \"ERC721/ERC721.sol\":1737:1743  _owner */\n      0x02\n        /* \"ERC721/ERC721.sol\":1737:1752  _owner[tokenID] */\n      0x00\n        /* \"ERC721/ERC721.sol\":1744:1751  tokenID */\n      dup4\n        /* \"ERC721/ERC721.sol\":1737:1752  _owner[tokenID] */\n      dup2\n      mstore\n      0x20\n      add\n      swap1\n      dup2\n      mstore\n      0x20\n      add\n      0x00\n      keccak256\n      0x00\n      swap1\n      sload\n      swap1\n      0x0100\n      exp\n      swap1\n      div\n      0xffffffffffffffffffffffffffffffffffffffff\n      and\n        /* \"ERC721/ERC721.sol\":1729:1752  owner = _owner[tokenID] */\n      swap1\n      pop\n        /* \"ERC721/ERC721.sol\":1788:1789  0 */\n      0x00\n        /* \"ERC721/ERC721.sol\":1771:1790  owner != address(0) */\n      0xffffffffffffffffffffffffffffffffffffffff\n      and\n        /* \"ERC721/ERC721.sol\":1771:1776  owner */\n      dup2\n        /* \"ERC721/ERC721.sol\":1771:1790  owner != address(0) */\n      0xffffffffffffffffffffffffffffffffffffffff\n      and\n      eq\n      iszero\n        /* \"ERC721/ERC721.sol\":1763:1814  require(owner != address(0), \"token doesn't exist\") */\n      tag_125\n      jumpi\n      mload(0x40)\n      0x08c379a000000000000000000000000000000000000000000000000000000000\n      dup2\n      mstore\n      0x04\n      add\n      tag_126\n      swap1\n      tag_127\n      jump\t// in\n    tag_126:\n      mload(0x40)\n      dup1\n      swap2\n      sub\n      swap1\n      revert\n    tag_125:\n        /* \"ERC721/ERC721.sol\":1644:1822  function ownerOf(uint tokenID) public view override returns(address owner){\r... */\n      swap2\n      swap1\n      pop\n      jump\t// out\n        /* \"ERC721/ERC721.sol\":1423:1597  function balanceOf(address owner) external view override returns(uint){\r... */\n    tag_58:\n        /* \"ERC721/ERC721.sol\":1488:1492  uint */\n      0x00\n        /* \"ERC721/ERC721.sol\":1529:1530  0 */\n      dup1\n        /* \"ERC721/ERC721.sol\":1512:1531  owner != address(0) */\n      0xffffffffffffffffffffffffffffffffffffffff\n      and\n        /* \"ERC721/ERC721.sol\":1512:1517  owner */\n      dup3\n        /* \"ERC721/ERC721.sol\":1512:1531  owner != address(0) */\n      0xffffffffffffffffffffffffffffffffffffffff\n      and\n      eq\n      iszero\n        /* \"ERC721/ERC721.sol\":1504:1556  require(owner != address(0),\"owner is zero address\") */\n      tag_129\n      jumpi\n      mload(0x40)\n      0x08c379a000000000000000000000000000000000000000000000000000000000\n      dup2\n      mstore\n      0x04\n      add\n      tag_130\n      swap1\n      tag_131\n      jump\t// in\n    tag_130:\n      mload(0x40)\n      dup1\n      swap2\n      sub\n      swap1\n      revert\n    tag_129:\n        /* \"ERC721/ERC721.sol\":1574:1582  _balance */\n      0x03\n        /* \"ERC721/ERC721.sol\":1574:1589  _balance[owner] */\n      0x00\n        /* \"ERC721/ERC721.sol\":1583:1588  owner */\n      dup4\n        /* \"ERC721/ERC721.sol\":1574:1589  _balance[owner] */\n      0xffffffffffffffffffffffffffffffffffffffff\n      and\n      0xffffffffffffffffffffffffffffffffffffffff\n      and\n      dup2\n      mstore\n      0x20\n      add\n      swap1\n      dup2\n      mstore\n      0x20\n      add\n      0x00\n      keccak256\n      sload\n        /* \"ERC721/ERC721.sol\":1567:1589  return _balance[owner] */\n      swap1\n      pop\n        /* \"ERC721/ERC721.sol\":1423:1597  function balanceOf(address owner) external view override returns(uint){\r... */\n      swap2\n      swap1\n      pop\n      jump\t// out\n        /* \"ERC721/ERC721.sol\":396:425  string public override symbol */\n    tag_62:\n      0x01\n      dup1\n      sload\n      tag_132\n      swap1\n      tag_88\n      jump\t// in\n    tag_132:\n      dup1\n      0x1f\n      add\n      0x20\n      dup1\n      swap2\n      div\n      mul\n      0x20\n      add\n      mload(0x40)\n      swap1\n      dup2\n      add\n      0x40\n      mstore\n      dup1\n      swap3\n      swap2\n      swap1\n      dup2\n      dup2\n      mstore\n      0x20\n      add\n      dup3\n      dup1\n      sload\n      tag_133\n      swap1\n      tag_88\n      jump\t// in\n    tag_133:\n      dup1\n      iszero\n      tag_134\n      jumpi\n      dup1\n      0x1f\n      lt\n      tag_135\n      jumpi\n      0x0100\n      dup1\n      dup4\n      sload\n      div\n      mul\n      dup4\n      mstore\n      swap2\n      0x20\n      add\n      swap2\n      jump(tag_134)\n    tag_135:\n      dup3\n      add\n      swap2\n      swap1\n      0x00\n      mstore\n      keccak256(0x00, 0x20)\n      swap1\n    tag_136:\n      dup2\n      sload\n      dup2\n      mstore\n      swap1\n      0x01\n      add\n      swap1\n      0x20\n      add\n      dup1\n      dup4\n      gt\n      tag_136\n      jumpi\n      dup3\n      swap1\n      sub\n      0x1f\n      and\n      dup3\n      add\n      swap2\n    tag_134:\n      pop\n      pop\n      pop\n      pop\n      pop\n      dup2\n      jump\t// out\n        /* \"ERC721/ERC721.sol\":2129:2334  function setApprovalForAll(address operater,bool approved)external override{\r... */\n    tag_67:\n        /* \"ERC721/ERC721.sol\":2258:2266  approved */\n      dup1\n        /* \"ERC721/ERC721.sol\":2215:2233  _operatorApprovals */\n      0x05\n        /* \"ERC721/ERC721.sol\":2215:2245  _operatorApprovals[msg.sender] */\n      0x00\n        /* \"ERC721/ERC721.sol\":2234:2244  msg.sender */\n      caller\n        /* \"ERC721/ERC721.sol\":2215:2245  _operatorApprovals[msg.sender] */\n      0xffffffffffffffffffffffffffffffffffffffff\n      and\n      0xffffffffffffffffffffffffffffffffffffffff\n      and\n      dup2\n      mstore\n      0x20\n      add\n      swap1\n      dup2\n      mstore\n      0x20\n      add\n      0x00\n      keccak256\n        /* \"ERC721/ERC721.sol\":2215:2255  _operatorApprovals[msg.sender][operater] */\n      0x00\n        /* \"ERC721/ERC721.sol\":2246:2254  operater */\n      dup5\n        /* \"ERC721/ERC721.sol\":2215:2255  _operatorApprovals[msg.sender][operater] */\n      0xffffffffffffffffffffffffffffffffffffffff\n      and\n      0xffffffffffffffffffffffffffffffffffffffff\n      and\n      dup2\n      mstore\n      0x20\n      add\n      swap1\n      dup2\n      mstore\n      0x20\n      add\n      0x00\n      keccak256\n      0x00\n        /* \"ERC721/ERC721.sol\":2215:2266  _operatorApprovals[msg.sender][operater] = approved */\n      0x0100\n      exp\n      dup2\n      sload\n      dup2\n      0xff\n      mul\n      not\n      and\n      swap1\n      dup4\n      iszero\n      iszero\n      mul\n      or\n      swap1\n      sstore\n      pop\n        /* \"ERC721/ERC721.sol\":2308:2316  operater */\n      dup2\n        /* \"ERC721/ERC721.sol\":2282:2326  ApprovalForAll(msg.sender,operater,approved) */\n      0xffffffffffffffffffffffffffffffffffffffff\n      and\n        /* \"ERC721/ERC721.sol\":2297:2307  msg.sender */\n      caller\n        /* \"ERC721/ERC721.sol\":2282:2326  ApprovalForAll(msg.sender,operater,approved) */\n      0xffffffffffffffffffffffffffffffffffffffff\n      and\n      0x17307eab39ab6107e8899845ad3d59bd9653f200f220920489ca2b5937696c31\n        /* \"ERC721/ERC721.sol\":2317:2325  approved */\n      dup4\n        /* \"ERC721/ERC721.sol\":2282:2326  ApprovalForAll(msg.sender,operater,approved) */\n      mload(0x40)\n      tag_138\n      swap2\n      swap1\n      tag_26\n      jump\t// in\n    tag_138:\n      mload(0x40)\n      dup1\n      swap2\n      sub\n      swap1\n      log3\n        /* \"ERC721/ERC721.sol\":2129:2334  function setApprovalForAll(address operater,bool approved)external override{\r... */\n      pop\n      pop\n      jump\t// out\n        /* \"ERC721/ERC721.sol\":4281:4565  function safeTransferFrom(address from,address to,uint tokenID,bytes memory _data)public override{\r... */\n    tag_71:\n        /* \"ERC721/ERC721.sol\":4389:4402  address owner */\n      0x00\n        /* \"ERC721/ERC721.sol\":4406:4422  ownerOf(tokenID) */\n      tag_140\n        /* \"ERC721/ERC721.sol\":4414:4421  tokenID */\n      dup4\n        /* \"ERC721/ERC721.sol\":4406:4413  ownerOf */\n      tag_53\n        /* \"ERC721/ERC721.sol\":4406:4422  ownerOf(tokenID) */\n      jump\t// in\n    tag_140:\n        /* \"ERC721/ERC721.sol\":4389:4422  address owner =  ownerOf(tokenID) */\n      swap1\n      pop\n        /* \"ERC721/ERC721.sol\":4441:4479  _isApprovedOrOwner(owner,from,tokenID) */\n      tag_141\n        /* \"ERC721/ERC721.sol\":4460:4465  owner */\n      dup2\n        /* \"ERC721/ERC721.sol\":4466:4470  from */\n      dup7\n        /* \"ERC721/ERC721.sol\":4471:4478  tokenID */\n      dup6\n        /* \"ERC721/ERC721.sol\":4441:4459  _isApprovedOrOwner */\n      tag_109\n        /* \"ERC721/ERC721.sol\":4441:4479  _isApprovedOrOwner(owner,from,tokenID) */\n      jump\t// in\n    tag_141:\n        /* \"ERC721/ERC721.sol\":4433:4504  require(_isApprovedOrOwner(owner,from,tokenID),\"not owner or approved\") */\n      tag_142\n      jumpi\n      mload(0x40)\n      0x08c379a000000000000000000000000000000000000000000000000000000000\n      dup2\n      mstore\n      0x04\n      add\n      tag_143\n      swap1\n      tag_112\n      jump\t// in\n    tag_143:\n      mload(0x40)\n      dup1\n      swap2\n      sub\n      swap1\n      revert\n    tag_142:\n        /* \"ERC721/ERC721.sol\":4515:4557  _safeTransfer(owner,from,to,tokenID,_data) */\n      tag_144\n        /* \"ERC721/ERC721.sol\":4529:4534  owner */\n      dup2\n        /* \"ERC721/ERC721.sol\":4535:4539  from */\n      dup7\n        /* \"ERC721/ERC721.sol\":4540:4542  to */\n      dup7\n        /* \"ERC721/ERC721.sol\":4543:4550  tokenID */\n      dup7\n        /* \"ERC721/ERC721.sol\":4551:4556  _data */\n      dup7\n        /* \"ERC721/ERC721.sol\":4515:4528  _safeTransfer */\n      tag_145\n        /* \"ERC721/ERC721.sol\":4515:4557  _safeTransfer(owner,from,to,tokenID,_data) */\n      jump\t// in\n    tag_144:\n        /* \"ERC721/ERC721.sol\":4378:4565  {\r... */\n      pop\n        /* \"ERC721/ERC721.sol\":4281:4565  function safeTransferFrom(address from,address to,uint tokenID,bytes memory _data)public override{\r... */\n      pop\n      pop\n      pop\n      pop\n      jump\t// out\n        /* \"ERC721/Ape.sol\":130:158  uint public MAX_APES = 10000 */\n    tag_73:\n      sload(0x06)\n      dup2\n      jump\t// out\n        /* \"ERC721/ERC721.sol\":6143:6458  function tokenURI(uint256 tokenId) public view virtual override returns (string memory) {\r... */\n    tag_77:\n        /* \"ERC721/ERC721.sol\":6216:6229  string memory */\n      0x60\n        /* \"ERC721/ERC721.sol\":6277:6278  0 */\n      0x00\n        /* \"ERC721/ERC721.sol\":6250:6279  _owner[tokenId] != address(0) */\n      0xffffffffffffffffffffffffffffffffffffffff\n      and\n        /* \"ERC721/ERC721.sol\":6250:6256  _owner */\n      0x02\n        /* \"ERC721/ERC721.sol\":6250:6265  _owner[tokenId] */\n      0x00\n        /* \"ERC721/ERC721.sol\":6257:6264  tokenId */\n      dup5\n        /* \"ERC721/ERC721.sol\":6250:6265  _owner[tokenId] */\n      dup2\n      mstore\n      0x20\n      add\n      swap1\n      dup2\n      mstore\n      0x20\n      add\n      0x00\n      keccak256\n      0x00\n      swap1\n      sload\n      swap1\n      0x0100\n      exp\n      swap1\n      div\n      0xffffffffffffffffffffffffffffffffffffffff\n      and\n        /* \"ERC721/ERC721.sol\":6250:6279  _owner[tokenId] != address(0) */\n      0xffffffffffffffffffffffffffffffffffffffff\n      and\n      eq\n      iszero\n        /* \"ERC721/ERC721.sol\":6242:6299  require(_owner[tokenId] != address(0), \"Token Not Exist\") */\n      tag_147\n      jumpi\n      mload(0x40)\n      0x08c379a000000000000000000000000000000000000000000000000000000000\n      dup2\n      mstore\n      0x04\n      add\n      tag_148\n      swap1\n      tag_149\n      jump\t// in\n    tag_148:\n      mload(0x40)\n      dup1\n      swap2\n      sub\n      swap1\n      revert\n    tag_147:\n        /* \"ERC721/ERC721.sol\":6312:6333  string memory baseURI */\n      0x00\n        /* \"ERC721/ERC721.sol\":6336:6346  _baseURI() */\n      tag_150\n        /* \"ERC721/ERC721.sol\":6336:6344  _baseURI */\n      tag_151\n        /* \"ERC721/ERC721.sol\":6336:6346  _baseURI() */\n      jump\t// in\n    tag_150:\n        /* \"ERC721/ERC721.sol\":6312:6346  string memory baseURI = _baseURI() */\n      swap1\n      pop\n        /* \"ERC721/ERC721.sol\":6388:6389  0 */\n      0x00\n        /* \"ERC721/ERC721.sol\":6370:6377  baseURI */\n      dup2\n        /* \"ERC721/ERC721.sol\":6364:6385  bytes(baseURI).length */\n      mload\n        /* \"ERC721/ERC721.sol\":6364:6389  bytes(baseURI).length > 0 */\n      gt\n        /* \"ERC721/ERC721.sol\":6364:6450  bytes(baseURI).length > 0 ? string(abi.encodePacked(baseURI, tokenId.toString())) : \"\" */\n      tag_152\n      jumpi\n      mload(0x40)\n      dup1\n      0x20\n      add\n      0x40\n      mstore\n      dup1\n      0x00\n      dup2\n      mstore\n      pop\n      jump(tag_153)\n    tag_152:\n        /* \"ERC721/ERC721.sol\":6416:6423  baseURI */\n      dup1\n        /* \"ERC721/ERC721.sol\":6425:6443  tokenId.toString() */\n      tag_154\n        /* \"ERC721/ERC721.sol\":6425:6432  tokenId */\n      dup5\n        /* \"ERC721/ERC721.sol\":6425:6441  tokenId.toString */\n      tag_155\n        /* \"ERC721/ERC721.sol\":6425:6443  tokenId.toString() */\n      jump\t// in\n    tag_154:\n        /* \"ERC721/ERC721.sol\":6399:6444  abi.encodePacked(baseURI, tokenId.toString()) */\n      add(0x20, mload(0x40))\n      tag_156\n      swap3\n      swap2\n      swap1\n      tag_157\n      jump\t// in\n    tag_156:\n      mload(0x40)\n      0x20\n      dup2\n      dup4\n      sub\n      sub\n      dup2\n      mstore\n      swap1\n      0x40\n      mstore\n        /* \"ERC721/ERC721.sol\":6364:6450  bytes(baseURI).length > 0 ? string(abi.encodePacked(baseURI, tokenId.toString())) : \"\" */\n    tag_153:\n        /* \"ERC721/ERC721.sol\":6357:6450  return bytes(baseURI).length > 0 ? string(abi.encodePacked(baseURI, tokenId.toString())) : \"\" */\n      swap2\n      pop\n      pop\n        /* \"ERC721/ERC721.sol\":6143:6458  function tokenURI(uint256 tokenId) public view virtual override returns (string memory) {\r... */\n      swap2\n      swap1\n      pop\n      jump\t// out\n        /* \"ERC721/ERC721.sol\":1871:2068  function isApprovedForAll(address owner,address operater)\r... */\n    tag_82:\n        /* \"ERC721/ERC721.sol\":1996:2000  bool */\n      0x00\n        /* \"ERC721/ERC721.sol\":2025:2043  _operatorApprovals */\n      0x05\n        /* \"ERC721/ERC721.sol\":2025:2050  _operatorApprovals[owner] */\n      0x00\n        /* \"ERC721/ERC721.sol\":2044:2049  owner */\n      dup5\n        /* \"ERC721/ERC721.sol\":2025:2050  _operatorApprovals[owner] */\n      0xffffffffffffffffffffffffffffffffffffffff\n      and\n      0xffffffffffffffffffffffffffffffffffffffff\n      and\n      dup2\n      mstore\n      0x20\n      add\n      swap1\n      dup2\n      mstore\n      0x20\n      add\n      0x00\n      keccak256\n        /* \"ERC721/ERC721.sol\":2025:2060  _operatorApprovals[owner][operater] */\n      0x00\n        /* \"ERC721/ERC721.sol\":2051:2059  operater */\n      dup4\n        /* \"ERC721/ERC721.sol\":2025:2060  _operatorApprovals[owner][operater] */\n      0xffffffffffffffffffffffffffffffffffffffff\n      and\n      0xffffffffffffffffffffffffffffffffffffffff\n      and\n      dup2\n      mstore\n      0x20\n      add\n      swap1\n      dup2\n      mstore\n      0x20\n      add\n      0x00\n      keccak256\n      0x00\n      swap1\n      sload\n      swap1\n      0x0100\n      exp\n      swap1\n      div\n      0xff\n      and\n        /* \"ERC721/ERC721.sol\":2018:2060  return _operatorApprovals[owner][operater] */\n      swap1\n      pop\n        /* \"ERC721/ERC721.sol\":1871:2068  function isApprovedForAll(address owner,address operater)\r... */\n      swap3\n      swap2\n      pop\n      pop\n      jump\t// out\n        /* \"ERC721/ERC721.sol\":2629:2784  function _approve(address owner,address to,uint tokenID)private{\r... */\n    tag_106:\n        /* \"ERC721/ERC721.sol\":2730:2732  to */\n      dup2\n        /* \"ERC721/ERC721.sol\":2703:2718  _tokenApprovals */\n      0x04\n        /* \"ERC721/ERC721.sol\":2703:2727  _tokenApprovals[tokenID] */\n      0x00\n        /* \"ERC721/ERC721.sol\":2719:2726  tokenID */\n      dup4\n        /* \"ERC721/ERC721.sol\":2703:2727  _tokenApprovals[tokenID] */\n      dup2\n      mstore\n      0x20\n      add\n      swap1\n      dup2\n      mstore\n      0x20\n      add\n      0x00\n      keccak256\n      0x00\n        /* \"ERC721/ERC721.sol\":2703:2732  _tokenApprovals[tokenID] = to */\n      0x0100\n      exp\n      dup2\n      sload\n      dup2\n      0xffffffffffffffffffffffffffffffffffffffff\n      mul\n      not\n      and\n      swap1\n      dup4\n      0xffffffffffffffffffffffffffffffffffffffff\n      and\n      mul\n      or\n      swap1\n      sstore\n      pop\n        /* \"ERC721/ERC721.sol\":2768:2775  tokenID */\n      dup1\n        /* \"ERC721/ERC721.sol\":2764:2766  to */\n      dup3\n        /* \"ERC721/ERC721.sol\":2748:2776  Approval(owner, to, tokenID) */\n      0xffffffffffffffffffffffffffffffffffffffff\n      and\n        /* \"ERC721/ERC721.sol\":2757:2762  owner */\n      dup5\n        /* \"ERC721/ERC721.sol\":2748:2776  Approval(owner, to, tokenID) */\n      0xffffffffffffffffffffffffffffffffffffffff\n      and\n      0x8c5be1e5ebec7d5bd14f71427d1e84f3dd0314c0f7b2291e5b200ac8c7c3b925\n      mload(0x40)\n      mload(0x40)\n      dup1\n      swap2\n      sub\n      swap1\n      log4\n        /* \"ERC721/ERC721.sol\":2629:2784  function _approve(address owner,address to,uint tokenID)private{\r... */\n      pop\n      pop\n      pop\n      jump\t// out\n        /* \"ERC721/ERC721.sol\":3768:4023  function _isApprovedOrOwner(address owner,address spender,uint tokenID)private view returns(bool){\r... */\n    tag_109:\n        /* \"ERC721/ERC721.sol\":3860:3864  bool */\n      0x00\n        /* \"ERC721/ERC721.sol\":3895:3900  owner */\n      dup4\n        /* \"ERC721/ERC721.sol\":3884:3900  spender == owner */\n      0xffffffffffffffffffffffffffffffffffffffff\n      and\n        /* \"ERC721/ERC721.sol\":3884:3891  spender */\n      dup4\n        /* \"ERC721/ERC721.sol\":3884:3900  spender == owner */\n      0xffffffffffffffffffffffffffffffffffffffff\n      and\n      eq\n        /* \"ERC721/ERC721.sol\":3884:3952  spender == owner ||\r... */\n      dup1\n      tag_161\n      jumpi\n      pop\n        /* \"ERC721/ERC721.sol\":3945:3952  spender */\n      dup3\n        /* \"ERC721/ERC721.sol\":3917:3952  _tokenApprovals[tokenID] == spender */\n      0xffffffffffffffffffffffffffffffffffffffff\n      and\n        /* \"ERC721/ERC721.sol\":3917:3932  _tokenApprovals */\n      0x04\n        /* \"ERC721/ERC721.sol\":3917:3941  _tokenApprovals[tokenID] */\n      0x00\n        /* \"ERC721/ERC721.sol\":3933:3940  tokenID */\n      dup5\n        /* \"ERC721/ERC721.sol\":3917:3941  _tokenApprovals[tokenID] */\n      dup2\n      mstore\n      0x20\n      add\n      swap1\n      dup2\n      mstore\n      0x20\n      add\n      0x00\n      keccak256\n      0x00\n      swap1\n      sload\n      swap1\n      0x0100\n      exp\n      swap1\n      div\n      0xffffffffffffffffffffffffffffffffffffffff\n      and\n        /* \"ERC721/ERC721.sol\":3917:3952  _tokenApprovals[tokenID] == spender */\n      0xffffffffffffffffffffffffffffffffffffffff\n      and\n      eq\n        /* \"ERC721/ERC721.sol\":3884:3952  spender == owner ||\r... */\n    tag_161:\n        /* \"ERC721/ERC721.sol\":3884:4003  spender == owner ||\r... */\n      dup1\n      tag_162\n      jumpi\n      pop\n        /* \"ERC721/ERC721.sol\":3969:3987  _operatorApprovals */\n      0x05\n        /* \"ERC721/ERC721.sol\":3969:3994  _operatorApprovals[owner] */\n      0x00\n        /* \"ERC721/ERC721.sol\":3988:3993  owner */\n      dup6\n        /* \"ERC721/ERC721.sol\":3969:3994  _operatorApprovals[owner] */\n      0xffffffffffffffffffffffffffffffffffffffff\n      and\n      0xffffffffffffffffffffffffffffffffffffffff\n      and\n      dup2\n      mstore\n      0x20\n      add\n      swap1\n      dup2\n      mstore\n      0x20\n      add\n      0x00\n      keccak256\n        /* \"ERC721/ERC721.sol\":3969:4003  _operatorApprovals[owner][spender] */\n      0x00\n        /* \"ERC721/ERC721.sol\":3995:4002  spender */\n      dup5\n        /* \"ERC721/ERC721.sol\":3969:4003  _operatorApprovals[owner][spender] */\n      0xffffffffffffffffffffffffffffffffffffffff\n      and\n      0xffffffffffffffffffffffffffffffffffffffff\n      and\n      dup2\n      mstore\n      0x20\n      add\n      swap1\n      dup2\n      mstore\n      0x20\n      add\n      0x00\n      keccak256\n      0x00\n      swap1\n      sload\n      swap1\n      0x0100\n      exp\n      swap1\n      div\n      0xff\n      and\n        /* \"ERC721/ERC721.sol\":3884:4003  spender == owner ||\r... */\n    tag_162:\n        /* \"ERC721/ERC721.sol\":3876:4015  return (spender == owner ||\r... */\n      swap1\n      pop\n        /* \"ERC721/ERC721.sol\":3768:4023  function _isApprovedOrOwner(address owner,address spender,uint tokenID)private view returns(bool){\r... */\n      swap4\n      swap3\n      pop\n      pop\n      pop\n      jump\t// out\n        /* \"ERC721/ERC721.sol\":3067:3447  function _transfer(address owner,address from,address to, uint tokenID)private{\r... */\n    tag_114:\n        /* \"ERC721/ERC721.sol\":3171:3176  owner */\n      dup4\n        /* \"ERC721/ERC721.sol\":3163:3176  from == owner */\n      0xffffffffffffffffffffffffffffffffffffffff\n      and\n        /* \"ERC721/ERC721.sol\":3163:3167  from */\n      dup4\n        /* \"ERC721/ERC721.sol\":3163:3176  from == owner */\n      0xffffffffffffffffffffffffffffffffffffffff\n      and\n      eq\n        /* \"ERC721/ERC721.sol\":3155:3189  require(from == owner,\"not owner\") */\n      tag_164\n      jumpi\n      mload(0x40)\n      0x08c379a000000000000000000000000000000000000000000000000000000000\n      dup2\n      mstore\n      0x04\n      add\n      tag_165\n      swap1\n      tag_166\n      jump\t// in\n    tag_165:\n      mload(0x40)\n      dup1\n      swap2\n      sub\n      swap1\n      revert\n    tag_164:\n        /* \"ERC721/ERC721.sol\":3221:3222  0 */\n      0x00\n        /* \"ERC721/ERC721.sol\":3207:3223  to != address(0) */\n      0xffffffffffffffffffffffffffffffffffffffff\n      and\n        /* \"ERC721/ERC721.sol\":3207:3209  to */\n      dup3\n        /* \"ERC721/ERC721.sol\":3207:3223  to != address(0) */\n      0xffffffffffffffffffffffffffffffffffffffff\n      and\n      eq\n      iszero\n        /* \"ERC721/ERC721.sol\":3199:3255  require(to != address(0),\"transfer to the zero address\") */\n      tag_167\n      jumpi\n      mload(0x40)\n      0x08c379a000000000000000000000000000000000000000000000000000000000\n      dup2\n      mstore\n      0x04\n      add\n      tag_168\n      swap1\n      tag_169\n      jump\t// in\n    tag_168:\n      mload(0x40)\n      dup1\n      swap2\n      sub\n      swap1\n      revert\n    tag_167:\n        /* \"ERC721/ERC721.sol\":3268:3302  _approve(owner,address(0),tokenID) */\n      tag_170\n        /* \"ERC721/ERC721.sol\":3277:3282  owner */\n      dup5\n        /* \"ERC721/ERC721.sol\":3291:3292  0 */\n      0x00\n        /* \"ERC721/ERC721.sol\":3294:3301  tokenID */\n      dup4\n        /* \"ERC721/ERC721.sol\":3268:3276  _approve */\n      tag_106\n        /* \"ERC721/ERC721.sol\":3268:3302  _approve(owner,address(0),tokenID) */\n      jump\t// in\n    tag_170:\n        /* \"ERC721/ERC721.sol\":3334:3335  1 */\n      0x01\n        /* \"ERC721/ERC721.sol\":3315:3323  _balance */\n      0x03\n        /* \"ERC721/ERC721.sol\":3315:3330  _balance[owner] */\n      0x00\n        /* \"ERC721/ERC721.sol\":3324:3329  owner */\n      dup7\n        /* \"ERC721/ERC721.sol\":3315:3330  _balance[owner] */\n      0xffffffffffffffffffffffffffffffffffffffff\n      and\n      0xffffffffffffffffffffffffffffffffffffffff\n      and\n      dup2\n      mstore\n      0x20\n      add\n      swap1\n      dup2\n      mstore\n      0x20\n      add\n      0x00\n      keccak256\n      0x00\n        /* \"ERC721/ERC721.sol\":3315:3335  _balance[owner] -= 1 */\n      dup3\n      dup3\n      sload\n      tag_171\n      swap2\n      swap1\n      tag_172\n      jump\t// in\n    tag_171:\n      swap3\n      pop\n      pop\n      dup2\n      swap1\n      sstore\n      pop\n        /* \"ERC721/ERC721.sol\":3362:3363  1 */\n      0x01\n        /* \"ERC721/ERC721.sol\":3346:3354  _balance */\n      0x03\n        /* \"ERC721/ERC721.sol\":3346:3358  _balance[to] */\n      0x00\n        /* \"ERC721/ERC721.sol\":3355:3357  to */\n      dup5\n        /* \"ERC721/ERC721.sol\":3346:3358  _balance[to] */\n      0xffffffffffffffffffffffffffffffffffffffff\n      and\n      0xffffffffffffffffffffffffffffffffffffffff\n      and\n      dup2\n      mstore\n      0x20\n      add\n      swap1\n      dup2\n      mstore\n      0x20\n      add\n      0x00\n      keccak256\n      0x00\n        /* \"ERC721/ERC721.sol\":3346:3363  _balance[to] += 1 */\n      dup3\n      dup3\n      sload\n      tag_173\n      swap2\n      swap1\n      tag_174\n      jump\t// in\n    tag_173:\n      swap3\n      pop\n      pop\n      dup2\n      swap1\n      sstore\n      pop\n        /* \"ERC721/ERC721.sol\":3392:3394  to */\n      dup2\n        /* \"ERC721/ERC721.sol\":3374:3380  _owner */\n      0x02\n        /* \"ERC721/ERC721.sol\":3374:3389  _owner[tokenID] */\n      0x00\n        /* \"ERC721/ERC721.sol\":3381:3388  tokenID */\n      dup4\n        /* \"ERC721/ERC721.sol\":3374:3389  _owner[tokenID] */\n      dup2\n      mstore\n      0x20\n      add\n      swap1\n      dup2\n      mstore\n      0x20\n      add\n      0x00\n      keccak256\n      0x00\n        /* \"ERC721/ERC721.sol\":3374:3394  _owner[tokenID] = to */\n      0x0100\n      exp\n      dup2\n      sload\n      dup2\n      0xffffffffffffffffffffffffffffffffffffffff\n      mul\n      not\n      and\n      swap1\n      dup4\n      0xffffffffffffffffffffffffffffffffffffffff\n      and\n      mul\n      or\n      swap1\n      sstore\n      pop\n        /* \"ERC721/ERC721.sol\":3431:3438  tokenID */\n      dup1\n        /* \"ERC721/ERC721.sol\":3427:3429  to */\n      dup3\n        /* \"ERC721/ERC721.sol\":3412:3439  Transfer(from, to, tokenID) */\n      0xffffffffffffffffffffffffffffffffffffffff\n      and\n        /* \"ERC721/ERC721.sol\":3421:3425  from */\n      dup5\n        /* \"ERC721/ERC721.sol\":3412:3439  Transfer(from, to, tokenID) */\n      0xffffffffffffffffffffffffffffffffffffffff\n      and\n      0xddf252ad1be2c89b69c2b068fc378daa952ba7f163c4a11628f55a4df523b3ef\n      mload(0x40)\n      mload(0x40)\n      dup1\n      swap2\n      sub\n      swap1\n      log4\n        /* \"ERC721/ERC721.sol\":3067:3447  function _transfer(address owner,address from,address to, uint tokenID)private{\r... */\n      pop\n      pop\n      pop\n      pop\n      jump\t// out\n        /* \"ERC721/ERC721.sol\":5403:5720  function _mint(address to,uint tokenID) internal virtual{\r... */\n    tag_121:\n        /* \"ERC721/ERC721.sol\":5492:5493  0 */\n      0x00\n        /* \"ERC721/ERC721.sol\":5478:5494  to != address(0) */\n      0xffffffffffffffffffffffffffffffffffffffff\n      and\n        /* \"ERC721/ERC721.sol\":5478:5480  to */\n      dup3\n        /* \"ERC721/ERC721.sol\":5478:5494  to != address(0) */\n      0xffffffffffffffffffffffffffffffffffffffff\n      and\n      eq\n      iszero\n        /* \"ERC721/ERC721.sol\":5470:5528  require(to != address(0),\"address can't be zero address!\") */\n      tag_176\n      jumpi\n      mload(0x40)\n      0x08c379a000000000000000000000000000000000000000000000000000000000\n      dup2\n      mstore\n      0x04\n      add\n      tag_177\n      swap1\n      tag_178\n      jump\t// in\n    tag_177:\n      mload(0x40)\n      dup1\n      swap2\n      sub\n      swap1\n      revert\n    tag_176:\n        /* \"ERC721/ERC721.sol\":5574:5575  0 */\n      0x00\n        /* \"ERC721/ERC721.sol\":5547:5576  _owner[tokenID] == address(0) */\n      0xffffffffffffffffffffffffffffffffffffffff\n      and\n        /* \"ERC721/ERC721.sol\":5547:5553  _owner */\n      0x02\n        /* \"ERC721/ERC721.sol\":5547:5562  _owner[tokenID] */\n      0x00\n        /* \"ERC721/ERC721.sol\":5554:5561  tokenID */\n      dup4\n        /* \"ERC721/ERC721.sol\":5547:5562  _owner[tokenID] */\n      dup2\n      mstore\n      0x20\n      add\n      swap1\n      dup2\n      mstore\n      0x20\n      add\n      0x00\n      keccak256\n      0x00\n      swap1\n      sload\n      swap1\n      0x0100\n      exp\n      swap1\n      div\n      0xffffffffffffffffffffffffffffffffffffffff\n      and\n        /* \"ERC721/ERC721.sol\":5547:5576  _owner[tokenID] == address(0) */\n      0xffffffffffffffffffffffffffffffffffffffff\n      and\n      eq\n        /* \"ERC721/ERC721.sol\":5539:5600  require(_owner[tokenID] == address(0),\"token already minted\") */\n      tag_179\n      jumpi\n      mload(0x40)\n      0x08c379a000000000000000000000000000000000000000000000000000000000\n      dup2\n      mstore\n      0x04\n      add\n      tag_180\n      swap1\n      tag_181\n      jump\t// in\n    tag_180:\n      mload(0x40)\n      dup1\n      swap2\n      sub\n      swap1\n      revert\n    tag_179:\n        /* \"ERC721/ERC721.sol\":5629:5630  1 */\n      0x01\n        /* \"ERC721/ERC721.sol\":5613:5621  _balance */\n      0x03\n        /* \"ERC721/ERC721.sol\":5613:5625  _balance[to] */\n      0x00\n        /* \"ERC721/ERC721.sol\":5622:5624  to */\n      dup5\n        /* \"ERC721/ERC721.sol\":5613:5625  _balance[to] */\n      0xffffffffffffffffffffffffffffffffffffffff\n      and\n      0xffffffffffffffffffffffffffffffffffffffff\n      and\n      dup2\n      mstore\n      0x20\n      add\n      swap1\n      dup2\n      mstore\n      0x20\n      add\n      0x00\n      keccak256\n      0x00\n        /* \"ERC721/ERC721.sol\":5613:5630  _balance[to] += 1 */\n      dup3\n      dup3\n      sload\n      tag_182\n      swap2\n      swap1\n      tag_174\n      jump\t// in\n    tag_182:\n      swap3\n      pop\n      pop\n      dup2\n      swap1\n      sstore\n      pop\n        /* \"ERC721/ERC721.sol\":5659:5661  to */\n      dup2\n        /* \"ERC721/ERC721.sol\":5641:5647  _owner */\n      0x02\n        /* \"ERC721/ERC721.sol\":5641:5656  _owner[tokenID] */\n      0x00\n        /* \"ERC721/ERC721.sol\":5648:5655  tokenID */\n      dup4\n        /* \"ERC721/ERC721.sol\":5641:5656  _owner[tokenID] */\n      dup2\n      mstore\n      0x20\n      add\n      swap1\n      dup2\n      mstore\n      0x20\n      add\n      0x00\n      keccak256\n      0x00\n        /* \"ERC721/ERC721.sol\":5641:5661  _owner[tokenID] = to */\n      0x0100\n      exp\n      dup2\n      sload\n      dup2\n      0xffffffffffffffffffffffffffffffffffffffff\n      mul\n      not\n      and\n      swap1\n      dup4\n      0xffffffffffffffffffffffffffffffffffffffff\n      and\n      mul\n      or\n      swap1\n      sstore\n      pop\n        /* \"ERC721/ERC721.sol\":5704:5711  tokenID */\n      dup1\n        /* \"ERC721/ERC721.sol\":5700:5702  to */\n      dup3\n        /* \"ERC721/ERC721.sol\":5679:5712  Transfer(address(0), to, tokenID) */\n      0xffffffffffffffffffffffffffffffffffffffff\n      and\n        /* \"ERC721/ERC721.sol\":5696:5697  0 */\n      0x00\n        /* \"ERC721/ERC721.sol\":5679:5712  Transfer(address(0), to, tokenID) */\n      0xffffffffffffffffffffffffffffffffffffffff\n      and\n      0xddf252ad1be2c89b69c2b068fc378daa952ba7f163c4a11628f55a4df523b3ef\n      mload(0x40)\n      mload(0x40)\n      dup1\n      swap2\n      sub\n      swap1\n      log4\n        /* \"ERC721/ERC721.sol\":5403:5720  function _mint(address to,uint tokenID) internal virtual{\r... */\n      pop\n      pop\n      jump\t// out\n        /* \"ERC721/ERC721.sol\":4033:4273  function _safeTransfer(address owner,address from, address to,uint tokenID,bytes memory _data)private{\r... */\n    tag_145:\n        /* \"ERC721/ERC721.sol\":4145:4177  _transfer(owner,from,to,tokenID) */\n      tag_184\n        /* \"ERC721/ERC721.sol\":4155:4160  owner */\n      dup6\n        /* \"ERC721/ERC721.sol\":4161:4165  from */\n      dup6\n        /* \"ERC721/ERC721.sol\":4166:4168  to */\n      dup6\n        /* \"ERC721/ERC721.sol\":4169:4176  tokenID */\n      dup6\n        /* \"ERC721/ERC721.sol\":4145:4154  _transfer */\n      tag_114\n        /* \"ERC721/ERC721.sol\":4145:4177  _transfer(owner,from,to,tokenID) */\n      jump\t// in\n    tag_184:\n        /* \"ERC721/ERC721.sol\":4196:4243  _checkOnERC721Received(from, to, tokenID,_data) */\n      tag_185\n        /* \"ERC721/ERC721.sol\":4219:4223  from */\n      dup5\n        /* \"ERC721/ERC721.sol\":4225:4227  to */\n      dup5\n        /* \"ERC721/ERC721.sol\":4229:4236  tokenID */\n      dup5\n        /* \"ERC721/ERC721.sol\":4237:4242  _data */\n      dup5\n        /* \"ERC721/ERC721.sol\":4196:4218  _checkOnERC721Received */\n      tag_186\n        /* \"ERC721/ERC721.sol\":4196:4243  _checkOnERC721Received(from, to, tokenID,_data) */\n      jump\t// in\n    tag_185:\n        /* \"ERC721/ERC721.sol\":4188:4265  require(_checkOnERC721Received(from, to, tokenID,_data),\"not ERC721Receiver\") */\n      tag_187\n      jumpi\n      mload(0x40)\n      0x08c379a000000000000000000000000000000000000000000000000000000000\n      dup2\n      mstore\n      0x04\n      add\n      tag_188\n      swap1\n      tag_189\n      jump\t// in\n    tag_188:\n      mload(0x40)\n      dup1\n      swap2\n      sub\n      swap1\n      revert\n    tag_187:\n        /* \"ERC721/ERC721.sol\":4033:4273  function _safeTransfer(address owner,address from, address to,uint tokenID,bytes memory _data)private{\r... */\n      pop\n      pop\n      pop\n      pop\n      pop\n      jump\t// out\n        /* \"ERC721/Ape.sol\":372:521  function _baseURI() internal pure override returns (string memory) {\r... */\n    tag_151:\n        /* \"ERC721/Ape.sol\":424:437  string memory */\n      0x60\n        /* \"ERC721/Ape.sol\":450:513  return \"ipfs://QmeSjSinHpPnmXmspMjwiXyN6zS4E9zccariGR3jxcaWtq/\" */\n      mload(0x40)\n      dup1\n      0x60\n      add\n      0x40\n      mstore\n      dup1\n      0x36\n      dup2\n      mstore\n      0x20\n      add\n      data_8382b382247cd07401a2ef2f394137c3f3b0972798bae0a9c78b0c261acbb56b\n      0x36\n      swap2\n      codecopy\n      swap1\n      pop\n        /* \"ERC721/Ape.sol\":372:521  function _baseURI() internal pure override returns (string memory) {\r... */\n      swap1\n      jump\t// out\n        /* \"ERC721/String.sol\":407:1130  function toString(uint256 value) internal pure returns (string memory) {\r... */\n    tag_155:\n        /* \"ERC721/String.sol\":463:476  string memory */\n      0x60\n        /* \"ERC721/String.sol\":693:694  0 */\n      0x00\n        /* \"ERC721/String.sol\":684:689  value */\n      dup3\n        /* \"ERC721/String.sol\":684:694  value == 0 */\n      eq\n        /* \"ERC721/String.sol\":680:733  if (value == 0) {\r... */\n      iszero\n      tag_192\n      jumpi\n        /* \"ERC721/String.sol\":711:721  return \"0\" */\n      mload(0x40)\n      dup1\n      0x40\n      add\n      0x40\n      mstore\n      dup1\n      0x01\n      dup2\n      mstore\n      0x20\n      add\n      0x3000000000000000000000000000000000000000000000000000000000000000\n      dup2\n      mstore\n      pop\n      swap1\n      pop\n      jump(tag_191)\n        /* \"ERC721/String.sol\":680:733  if (value == 0) {\r... */\n    tag_192:\n        /* \"ERC721/String.sol\":743:755  uint256 temp */\n      0x00\n        /* \"ERC721/String.sol\":758:763  value */\n      dup3\n        /* \"ERC721/String.sol\":743:763  uint256 temp = value */\n      swap1\n      pop\n        /* \"ERC721/String.sol\":774:788  uint256 digits */\n      0x00\n        /* \"ERC721/String.sol\":799:877  while (temp != 0) {\r... */\n    tag_193:\n        /* \"ERC721/String.sol\":814:815  0 */\n      0x00\n        /* \"ERC721/String.sol\":806:810  temp */\n      dup3\n        /* \"ERC721/String.sol\":806:815  temp != 0 */\n      eq\n        /* \"ERC721/String.sol\":799:877  while (temp != 0) {\r... */\n      tag_194\n      jumpi\n        /* \"ERC721/String.sol\":832:840  digits++ */\n      dup1\n      dup1\n      tag_195\n      swap1\n      tag_196\n      jump\t// in\n    tag_195:\n      swap2\n      pop\n      pop\n        /* \"ERC721/String.sol\":863:865  10 */\n      0x0a\n        /* \"ERC721/String.sol\":855:865  temp /= 10 */\n      dup3\n      tag_197\n      swap2\n      swap1\n      tag_198\n      jump\t// in\n    tag_197:\n      swap2\n      pop\n        /* \"ERC721/String.sol\":799:877  while (temp != 0) {\r... */\n      jump(tag_193)\n    tag_194:\n        /* \"ERC721/String.sol\":887:906  bytes memory buffer */\n      0x00\n        /* \"ERC721/String.sol\":919:925  digits */\n      dup2\n        /* \"ERC721/String.sol\":909:926  new bytes(digits) */\n      0xffffffffffffffff\n      dup2\n      gt\n      iszero\n      tag_199\n      jumpi\n      tag_200\n      tag_201\n      jump\t// in\n    tag_200:\n    tag_199:\n      mload(0x40)\n      swap1\n      dup1\n      dup3\n      mstore\n      dup1\n      0x1f\n      add\n      not(0x1f)\n      and\n      0x20\n      add\n      dup3\n      add\n      0x40\n      mstore\n      dup1\n      iszero\n      tag_202\n      jumpi\n      dup2\n      0x20\n      add\n      0x01\n      dup3\n      mul\n      dup1\n      calldatasize\n      dup4\n      calldatacopy\n      dup1\n      dup3\n      add\n      swap2\n      pop\n      pop\n      swap1\n      pop\n    tag_202:\n      pop\n        /* \"ERC721/String.sol\":887:926  bytes memory buffer = new bytes(digits) */\n      swap1\n      pop\n        /* \"ERC721/String.sol\":937:1091  while (value != 0) {\r... */\n    tag_203:\n        /* \"ERC721/String.sol\":953:954  0 */\n      0x00\n        /* \"ERC721/String.sol\":944:949  value */\n      dup6\n        /* \"ERC721/String.sol\":944:954  value != 0 */\n      eq\n        /* \"ERC721/String.sol\":937:1091  while (value != 0) {\r... */\n      tag_204\n      jumpi\n        /* \"ERC721/String.sol\":981:982  1 */\n      0x01\n        /* \"ERC721/String.sol\":971:982  digits -= 1 */\n      dup3\n      tag_205\n      swap2\n      swap1\n      tag_172\n      jump\t// in\n    tag_205:\n      swap2\n      pop\n        /* \"ERC721/String.sol\":1048:1050  10 */\n      0x0a\n        /* \"ERC721/String.sol\":1040:1045  value */\n      dup6\n        /* \"ERC721/String.sol\":1040:1050  value % 10 */\n      tag_206\n      swap2\n      swap1\n      tag_207\n      jump\t// in\n    tag_206:\n        /* \"ERC721/String.sol\":1027:1029  48 */\n      0x30\n        /* \"ERC721/String.sol\":1027:1051  48 + uint256(value % 10) */\n      tag_208\n      swap2\n      swap1\n      tag_174\n      jump\t// in\n    tag_208:\n        /* \"ERC721/String.sol\":1014:1053  bytes1(uint8(48 + uint256(value % 10))) */\n      0xf8\n      shl\n        /* \"ERC721/String.sol\":997:1003  buffer */\n      dup2\n        /* \"ERC721/String.sol\":1004:1010  digits */\n      dup4\n        /* \"ERC721/String.sol\":997:1011  buffer[digits] */\n      dup2\n      mload\n      dup2\n      lt\n      tag_209\n      jumpi\n      tag_210\n      tag_211\n      jump\t// in\n    tag_210:\n    tag_209:\n      0x20\n      add\n      add\n        /* \"ERC721/String.sol\":997:1053  buffer[digits] = bytes1(uint8(48 + uint256(value % 10))) */\n      swap1\n      not(0xffffffffffffffffffffffffffffffffffffffffffffffffffffffffffffff)\n      and\n      swap1\n      dup2\n      0x00\n      byte\n      swap1\n      mstore8\n      pop\n        /* \"ERC721/String.sol\":1077:1079  10 */\n      0x0a\n        /* \"ERC721/String.sol\":1068:1079  value /= 10 */\n      dup6\n      tag_212\n      swap2\n      swap1\n      tag_198\n      jump\t// in\n    tag_212:\n      swap5\n      pop\n        /* \"ERC721/String.sol\":937:1091  while (value != 0) {\r... */\n      jump(tag_203)\n    tag_204:\n        /* \"ERC721/String.sol\":1115:1121  buffer */\n      dup1\n        /* \"ERC721/String.sol\":1101:1122  return string(buffer) */\n      swap4\n      pop\n      pop\n      pop\n      pop\n        /* \"ERC721/String.sol\":407:1130  function toString(uint256 value) internal pure returns (string memory) {\r... */\n    tag_191:\n      swap2\n      swap1\n      pop\n      jump\t// out\n        /* \"ERC721/ERC721.sol\":4883:5393  function _checkOnERC721Received(\r... */\n    tag_186:\n        /* \"ERC721/ERC721.sol\":5035:5039  bool */\n      0x00\n        /* \"ERC721/ERC721.sol\":5056:5071  to.isContract() */\n      tag_214\n        /* \"ERC721/ERC721.sol\":5056:5058  to */\n      dup5\n        /* \"ERC721/ERC721.sol\":5056:5069  to.isContract */\n      0xffffffffffffffffffffffffffffffffffffffff\n      and\n      tag_215\n        /* \"ERC721/ERC721.sol\":5056:5071  to.isContract() */\n      jump\t// in\n    tag_214:\n        /* \"ERC721/ERC721.sol\":5052:5386  if (to.isContract()) {\r... */\n      iszero\n      tag_216\n      jumpi\n        /* \"ERC721/ERC721.sol\":5289:5330  IERC721Receiver.onERC721Received.selector */\n      shl(0xe0, 0x150b7a02)\n        /* \"ERC721/ERC721.sol\":5112:5330  IERC721Receiver(to).onERC721Received(\r... */\n      not(0xffffffffffffffffffffffffffffffffffffffffffffffffffffffff)\n      and\n        /* \"ERC721/ERC721.sol\":5128:5130  to */\n      dup5\n        /* \"ERC721/ERC721.sol\":5112:5148  IERC721Receiver(to).onERC721Received */\n      0xffffffffffffffffffffffffffffffffffffffff\n      and\n      0x150b7a02\n        /* \"ERC721/ERC721.sol\":5171:5181  msg.sender */\n      caller\n        /* \"ERC721/ERC721.sol\":5204:5208  from */\n      dup9\n        /* \"ERC721/ERC721.sol\":5231:5238  tokenId */\n      dup8\n        /* \"ERC721/ERC721.sol\":5261:5266  _data */\n      dup8\n        /* \"ERC721/ERC721.sol\":5112:5285  IERC721Receiver(to).onERC721Received(\r... */\n      mload(0x40)\n      dup6\n      0xffffffff\n      and\n      0xe0\n      shl\n      dup2\n      mstore\n      0x04\n      add\n      tag_217\n      swap5\n      swap4\n      swap3\n      swap2\n      swap1\n      tag_218\n      jump\t// in\n    tag_217:\n      0x20\n      mload(0x40)\n      dup1\n      dup4\n      sub\n      dup2\n      0x00\n      dup8\n      dup1\n      extcodesize\n      iszero\n      dup1\n      iszero\n      tag_219\n      jumpi\n      0x00\n      dup1\n      revert\n    tag_219:\n      pop\n      gas\n      call\n      iszero\n      dup1\n      iszero\n      tag_221\n      jumpi\n      returndatasize\n      0x00\n      dup1\n      returndatacopy\n      revert(0x00, returndatasize)\n    tag_221:\n      pop\n      pop\n      pop\n      pop\n      mload(0x40)\n      returndatasize\n      not(0x1f)\n      0x1f\n      dup3\n      add\n      and\n      dup3\n      add\n      dup1\n      0x40\n      mstore\n      pop\n      dup2\n      add\n      swap1\n      tag_222\n      swap2\n      swap1\n      tag_223\n      jump\t// in\n    tag_222:\n        /* \"ERC721/ERC721.sol\":5112:5330  IERC721Receiver(to).onERC721Received(\r... */\n      not(0xffffffffffffffffffffffffffffffffffffffffffffffffffffffff)\n      and\n      eq\n        /* \"ERC721/ERC721.sol\":5088:5330  return\r... */\n      swap1\n      pop\n      jump(tag_213)\n        /* \"ERC721/ERC721.sol\":5052:5386  if (to.isContract()) {\r... */\n    tag_216:\n        /* \"ERC721/ERC721.sol\":5370:5374  true */\n      0x01\n        /* \"ERC721/ERC721.sol\":5363:5374  return true */\n      swap1\n      pop\n        /* \"ERC721/ERC721.sol\":4883:5393  function _checkOnERC721Received(\r... */\n    tag_213:\n      swap5\n      swap4\n      pop\n      pop\n      pop\n      pop\n      jump\t// out\n        /* \"ERC721/Address.sol\":82:271  function isContract(address account) internal view returns(bool){\r... */\n    tag_215:\n        /* \"ERC721/Address.sol\":141:145  bool */\n      0x00\n        /* \"ERC721/Address.sol\":157:166  uint size */\n      dup1\n        /* \"ERC721/Address.sol\":221:228  account */\n      dup3\n        /* \"ERC721/Address.sol\":209:229  extcodesize(account) */\n      extcodesize\n        /* \"ERC721/Address.sol\":201:229  size := extcodesize(account) */\n      swap1\n      pop\n        /* \"ERC721/Address.sol\":262:263  0 */\n      0x00\n        /* \"ERC721/Address.sol\":257:261  size */\n      dup2\n        /* \"ERC721/Address.sol\":257:263  size>0 */\n      gt\n        /* \"ERC721/Address.sol\":250:263  return size>0 */\n      swap2\n      pop\n      pop\n        /* \"ERC721/Address.sol\":82:271  function isContract(address account) internal view returns(bool){\r... */\n      swap2\n      swap1\n      pop\n      jump\t// out\n        /* \"#utility.yul\":7:417   */\n    tag_227:\n        /* \"#utility.yul\":84:89   */\n      0x00\n        /* \"#utility.yul\":109:174   */\n      tag_229\n        /* \"#utility.yul\":125:173   */\n      tag_230\n        /* \"#utility.yul\":166:172   */\n      dup5\n        /* \"#utility.yul\":125:173   */\n      tag_231\n      jump\t// in\n    tag_230:\n        /* \"#utility.yul\":109:174   */\n      tag_232\n      jump\t// in\n    tag_229:\n        /* \"#utility.yul\":100:174   */\n      swap1\n      pop\n        /* \"#utility.yul\":197:203   */\n      dup3\n        /* \"#utility.yul\":190:195   */\n      dup2\n        /* \"#utility.yul\":183:204   */\n      mstore\n        /* \"#utility.yul\":235:239   */\n      0x20\n        /* \"#utility.yul\":228:233   */\n      dup2\n        /* \"#utility.yul\":224:240   */\n      add\n        /* \"#utility.yul\":273:276   */\n      dup5\n        /* \"#utility.yul\":264:270   */\n      dup5\n        /* \"#utility.yul\":259:262   */\n      dup5\n        /* \"#utility.yul\":255:271   */\n      add\n        /* \"#utility.yul\":252:277   */\n      gt\n        /* \"#utility.yul\":249:361   */\n      iszero\n      tag_233\n      jumpi\n        /* \"#utility.yul\":280:359   */\n      tag_234\n      tag_235\n      jump\t// in\n    tag_234:\n        /* \"#utility.yul\":249:361   */\n    tag_233:\n        /* \"#utility.yul\":370:411   */\n      tag_236\n        /* \"#utility.yul\":404:410   */\n      dup5\n        /* \"#utility.yul\":399:402   */\n      dup3\n        /* \"#utility.yul\":394:397   */\n      dup6\n        /* \"#utility.yul\":370:411   */\n      tag_237\n      jump\t// in\n    tag_236:\n        /* \"#utility.yul\":90:417   */\n      pop\n        /* \"#utility.yul\":7:417   */\n      swap4\n      swap3\n      pop\n      pop\n      pop\n      jump\t// out\n        /* \"#utility.yul\":423:562   */\n    tag_238:\n        /* \"#utility.yul\":469:474   */\n      0x00\n        /* \"#utility.yul\":507:513   */\n      dup2\n        /* \"#utility.yul\":494:514   */\n      calldataload\n        /* \"#utility.yul\":485:514   */\n      swap1\n      pop\n        /* \"#utility.yul\":523:556   */\n      tag_240\n        /* \"#utility.yul\":550:555   */\n      dup2\n        /* \"#utility.yul\":523:556   */\n      tag_241\n      jump\t// in\n    tag_240:\n        /* \"#utility.yul\":423:562   */\n      swap3\n      swap2\n      pop\n      pop\n      jump\t// out\n        /* \"#utility.yul\":568:701   */\n    tag_242:\n        /* \"#utility.yul\":611:616   */\n      0x00\n        /* \"#utility.yul\":649:655   */\n      dup2\n        /* \"#utility.yul\":636:656   */\n      calldataload\n        /* \"#utility.yul\":627:656   */\n      swap1\n      pop\n        /* \"#utility.yul\":665:695   */\n      tag_244\n        /* \"#utility.yul\":689:694   */\n      dup2\n        /* \"#utility.yul\":665:695   */\n      tag_245\n      jump\t// in\n    tag_244:\n        /* \"#utility.yul\":568:701   */\n      swap3\n      swap2\n      pop\n      pop\n      jump\t// out\n        /* \"#utility.yul\":707:844   */\n    tag_246:\n        /* \"#utility.yul\":752:757   */\n      0x00\n        /* \"#utility.yul\":790:796   */\n      dup2\n        /* \"#utility.yul\":777:797   */\n      calldataload\n        /* \"#utility.yul\":768:797   */\n      swap1\n      pop\n        /* \"#utility.yul\":806:838   */\n      tag_248\n        /* \"#utility.yul\":832:837   */\n      dup2\n        /* \"#utility.yul\":806:838   */\n      tag_249\n      jump\t// in\n    tag_248:\n        /* \"#utility.yul\":707:844   */\n      swap3\n      swap2\n      pop\n      pop\n      jump\t// out\n        /* \"#utility.yul\":850:991   */\n    tag_250:\n        /* \"#utility.yul\":906:911   */\n      0x00\n        /* \"#utility.yul\":937:943   */\n      dup2\n        /* \"#utility.yul\":931:944   */\n      mload\n        /* \"#utility.yul\":922:944   */\n      swap1\n      pop\n        /* \"#utility.yul\":953:985   */\n      tag_252\n        /* \"#utility.yul\":979:984   */\n      dup2\n        /* \"#utility.yul\":953:985   */\n      tag_249\n      jump\t// in\n    tag_252:\n        /* \"#utility.yul\":850:991   */\n      swap3\n      swap2\n      pop\n      pop\n      jump\t// out\n        /* \"#utility.yul\":1010:1348   */\n    tag_253:\n        /* \"#utility.yul\":1065:1070   */\n      0x00\n        /* \"#utility.yul\":1114:1117   */\n      dup3\n        /* \"#utility.yul\":1107:1111   */\n      0x1f\n        /* \"#utility.yul\":1099:1105   */\n      dup4\n        /* \"#utility.yul\":1095:1112   */\n      add\n        /* \"#utility.yul\":1091:1118   */\n      slt\n        /* \"#utility.yul\":1081:1203   */\n      tag_255\n      jumpi\n        /* \"#utility.yul\":1122:1201   */\n      tag_256\n      tag_257\n      jump\t// in\n    tag_256:\n        /* \"#utility.yul\":1081:1203   */\n    tag_255:\n        /* \"#utility.yul\":1239:1245   */\n      dup2\n        /* \"#utility.yul\":1226:1246   */\n      calldataload\n        /* \"#utility.yul\":1264:1342   */\n      tag_258\n        /* \"#utility.yul\":1338:1341   */\n      dup5\n        /* \"#utility.yul\":1330:1336   */\n      dup3\n        /* \"#utility.yul\":1323:1327   */\n      0x20\n        /* \"#utility.yul\":1315:1321   */\n      dup7\n        /* \"#utility.yul\":1311:1328   */\n      add\n        /* \"#utility.yul\":1264:1342   */\n      tag_227\n      jump\t// in\n    tag_258:\n        /* \"#utility.yul\":1255:1342   */\n      swap2\n      pop\n        /* \"#utility.yul\":1071:1348   */\n      pop\n        /* \"#utility.yul\":1010:1348   */\n      swap3\n      swap2\n      pop\n      pop\n      jump\t// out\n        /* \"#utility.yul\":1354:1493   */\n    tag_259:\n        /* \"#utility.yul\":1400:1405   */\n      0x00\n        /* \"#utility.yul\":1438:1444   */\n      dup2\n        /* \"#utility.yul\":1425:1445   */\n      calldataload\n        /* \"#utility.yul\":1416:1445   */\n      swap1\n      pop\n        /* \"#utility.yul\":1454:1487   */\n      tag_261\n        /* \"#utility.yul\":1481:1486   */\n      dup2\n        /* \"#utility.yul\":1454:1487   */\n      tag_262\n      jump\t// in\n    tag_261:\n        /* \"#utility.yul\":1354:1493   */\n      swap3\n      swap2\n      pop\n      pop\n      jump\t// out\n        /* \"#utility.yul\":1499:1828   */\n    tag_57:\n        /* \"#utility.yul\":1558:1564   */\n      0x00\n        /* \"#utility.yul\":1607:1609   */\n      0x20\n        /* \"#utility.yul\":1595:1604   */\n      dup3\n        /* \"#utility.yul\":1586:1593   */\n      dup5\n        /* \"#utility.yul\":1582:1605   */\n      sub\n        /* \"#utility.yul\":1578:1610   */\n      slt\n        /* \"#utility.yul\":1575:1694   */\n      iszero\n      tag_264\n      jumpi\n        /* \"#utility.yul\":1613:1692   */\n      tag_265\n      tag_266\n      jump\t// in\n    tag_265:\n        /* \"#utility.yul\":1575:1694   */\n    tag_264:\n        /* \"#utility.yul\":1733:1734   */\n      0x00\n        /* \"#utility.yul\":1758:1811   */\n      tag_267\n        /* \"#utility.yul\":1803:1810   */\n      dup5\n        /* \"#utility.yul\":1794:1800   */\n      dup3\n        /* \"#utility.yul\":1783:1792   */\n      dup6\n        /* \"#utility.yul\":1779:1801   */\n      add\n        /* \"#utility.yul\":1758:1811   */\n      tag_238\n      jump\t// in\n    tag_267:\n        /* \"#utility.yul\":1748:1811   */\n      swap2\n      pop\n        /* \"#utility.yul\":1704:1821   */\n      pop\n        /* \"#utility.yul\":1499:1828   */\n      swap3\n      swap2\n      pop\n      pop\n      jump\t// out\n        /* \"#utility.yul\":1834:2308   */\n    tag_81:\n        /* \"#utility.yul\":1902:1908   */\n      0x00\n        /* \"#utility.yul\":1910:1916   */\n      dup1\n        /* \"#utility.yul\":1959:1961   */\n      0x40\n        /* \"#utility.yul\":1947:1956   */\n      dup4\n        /* \"#utility.yul\":1938:1945   */\n      dup6\n        /* \"#utility.yul\":1934:1957   */\n      sub\n        /* \"#utility.yul\":1930:1962   */\n      slt\n        /* \"#utility.yul\":1927:2046   */\n      iszero\n      tag_269\n      jumpi\n        /* \"#utility.yul\":1965:2044   */\n      tag_270\n      tag_266\n      jump\t// in\n    tag_270:\n        /* \"#utility.yul\":1927:2046   */\n    tag_269:\n        /* \"#utility.yul\":2085:2086   */\n      0x00\n        /* \"#utility.yul\":2110:2163   */\n      tag_271\n        /* \"#utility.yul\":2155:2162   */\n      dup6\n        /* \"#utility.yul\":2146:2152   */\n      dup3\n        /* \"#utility.yul\":2135:2144   */\n      dup7\n        /* \"#utility.yul\":2131:2153   */\n      add\n        /* \"#utility.yul\":2110:2163   */\n      tag_238\n      jump\t// in\n    tag_271:\n        /* \"#utility.yul\":2100:2163   */\n      swap3\n      pop\n        /* \"#utility.yul\":2056:2173   */\n      pop\n        /* \"#utility.yul\":2212:2214   */\n      0x20\n        /* \"#utility.yul\":2238:2291   */\n      tag_272\n        /* \"#utility.yul\":2283:2290   */\n      dup6\n        /* \"#utility.yul\":2274:2280   */\n      dup3\n        /* \"#utility.yul\":2263:2272   */\n      dup7\n        /* \"#utility.yul\":2259:2281   */\n      add\n        /* \"#utility.yul\":2238:2291   */\n      tag_238\n      jump\t// in\n    tag_272:\n        /* \"#utility.yul\":2228:2291   */\n      swap2\n      pop\n        /* \"#utility.yul\":2183:2301   */\n      pop\n        /* \"#utility.yul\":1834:2308   */\n      swap3\n      pop\n      swap3\n      swap1\n      pop\n      jump\t// out\n        /* \"#utility.yul\":2314:2933   */\n    tag_43:\n        /* \"#utility.yul\":2391:2397   */\n      0x00\n        /* \"#utility.yul\":2399:2405   */\n      dup1\n        /* \"#utility.yul\":2407:2413   */\n      0x00\n        /* \"#utility.yul\":2456:2458   */\n      0x60\n        /* \"#utility.yul\":2444:2453   */\n      dup5\n        /* \"#utility.yul\":2435:2442   */\n      dup7\n        /* \"#utility.yul\":2431:2454   */\n      sub\n        /* \"#utility.yul\":2427:2459   */\n      slt\n        /* \"#utility.yul\":2424:2543   */\n      iszero\n      tag_274\n      jumpi\n        /* \"#utility.yul\":2462:2541   */\n      tag_275\n      tag_266\n      jump\t// in\n    tag_275:\n        /* \"#utility.yul\":2424:2543   */\n    tag_274:\n        /* \"#utility.yul\":2582:2583   */\n      0x00\n        /* \"#utility.yul\":2607:2660   */\n      tag_276\n        /* \"#utility.yul\":2652:2659   */\n      dup7\n        /* \"#utility.yul\":2643:2649   */\n      dup3\n        /* \"#utility.yul\":2632:2641   */\n      dup8\n        /* \"#utility.yul\":2628:2650   */\n      add\n        /* \"#utility.yul\":2607:2660   */\n      tag_238\n      jump\t// in\n    tag_276:\n        /* \"#utility.yul\":2597:2660   */\n      swap4\n      pop\n        /* \"#utility.yul\":2553:2670   */\n      pop\n        /* \"#utility.yul\":2709:2711   */\n      0x20\n        /* \"#utility.yul\":2735:2788   */\n      tag_277\n        /* \"#utility.yul\":2780:2787   */\n      dup7\n        /* \"#utility.yul\":2771:2777   */\n      dup3\n        /* \"#utility.yul\":2760:2769   */\n      dup8\n        /* \"#utility.yul\":2756:2778   */\n      add\n        /* \"#utility.yul\":2735:2788   */\n      tag_238\n      jump\t// in\n    tag_277:\n        /* \"#utility.yul\":2725:2788   */\n      swap3\n      pop\n        /* \"#utility.yul\":2680:2798   */\n      pop\n        /* \"#utility.yul\":2837:2839   */\n      0x40\n        /* \"#utility.yul\":2863:2916   */\n      tag_278\n        /* \"#utility.yul\":2908:2915   */\n      dup7\n        /* \"#utility.yul\":2899:2905   */\n      dup3\n        /* \"#utility.yul\":2888:2897   */\n      dup8\n        /* \"#utility.yul\":2884:2906   */\n      add\n        /* \"#utility.yul\":2863:2916   */\n      tag_259\n      jump\t// in\n    tag_278:\n        /* \"#utility.yul\":2853:2916   */\n      swap2\n      pop\n        /* \"#utility.yul\":2808:2926   */\n      pop\n        /* \"#utility.yul\":2314:2933   */\n      swap3\n      pop\n      swap3\n      pop\n      swap3\n      jump\t// out\n        /* \"#utility.yul\":2939:3882   */\n    tag_70:\n        /* \"#utility.yul\":3034:3040   */\n      0x00\n        /* \"#utility.yul\":3042:3048   */\n      dup1\n        /* \"#utility.yul\":3050:3056   */\n      0x00\n        /* \"#utility.yul\":3058:3064   */\n      dup1\n        /* \"#utility.yul\":3107:3110   */\n      0x80\n        /* \"#utility.yul\":3095:3104   */\n      dup6\n        /* \"#utility.yul\":3086:3093   */\n      dup8\n        /* \"#utility.yul\":3082:3105   */\n      sub\n        /* \"#utility.yul\":3078:3111   */\n      slt\n        /* \"#utility.yul\":3075:3195   */\n      iszero\n      tag_280\n      jumpi\n        /* \"#utility.yul\":3114:3193   */\n      tag_281\n      tag_266\n      jump\t// in\n    tag_281:\n        /* \"#utility.yul\":3075:3195   */\n    tag_280:\n        /* \"#utility.yul\":3234:3235   */\n      0x00\n        /* \"#utility.yul\":3259:3312   */\n      tag_282\n        /* \"#utility.yul\":3304:3311   */\n      dup8\n        /* \"#utility.yul\":3295:3301   */\n      dup3\n        /* \"#utility.yul\":3284:3293   */\n      dup9\n        /* \"#utility.yul\":3280:3302   */\n      add\n        /* \"#utility.yul\":3259:3312   */\n      tag_238\n      jump\t// in\n    tag_282:\n        /* \"#utility.yul\":3249:3312   */\n      swap5\n      pop\n        /* \"#utility.yul\":3205:3322   */\n      pop\n        /* \"#utility.yul\":3361:3363   */\n      0x20\n        /* \"#utility.yul\":3387:3440   */\n      tag_283\n        /* \"#utility.yul\":3432:3439   */\n      dup8\n        /* \"#utility.yul\":3423:3429   */\n      dup3\n        /* \"#utility.yul\":3412:3421   */\n      dup9\n        /* \"#utility.yul\":3408:3430   */\n      add\n        /* \"#utility.yul\":3387:3440   */\n      tag_238\n      jump\t// in\n    tag_283:\n        /* \"#utility.yul\":3377:3440   */\n      swap4\n      pop\n        /* \"#utility.yul\":3332:3450   */\n      pop\n        /* \"#utility.yul\":3489:3491   */\n      0x40\n        /* \"#utility.yul\":3515:3568   */\n      tag_284\n        /* \"#utility.yul\":3560:3567   */\n      dup8\n        /* \"#utility.yul\":3551:3557   */\n      dup3\n        /* \"#utility.yul\":3540:3549   */\n      dup9\n        /* \"#utility.yul\":3536:3558   */\n      add\n        /* \"#utility.yul\":3515:3568   */\n      tag_259\n      jump\t// in\n    tag_284:\n        /* \"#utility.yul\":3505:3568   */\n      swap3\n      pop\n        /* \"#utility.yul\":3460:3578   */\n      pop\n        /* \"#utility.yul\":3645:3647   */\n      0x60\n        /* \"#utility.yul\":3634:3643   */\n      dup6\n        /* \"#utility.yul\":3630:3648   */\n      add\n        /* \"#utility.yul\":3617:3649   */\n      calldataload\n        /* \"#utility.yul\":3676:3694   */\n      0xffffffffffffffff\n        /* \"#utility.yul\":3668:3674   */\n      dup2\n        /* \"#utility.yul\":3665:3695   */\n      gt\n        /* \"#utility.yul\":3662:3779   */\n      iszero\n      tag_285\n      jumpi\n        /* \"#utility.yul\":3698:3777   */\n      tag_286\n      tag_287\n      jump\t// in\n    tag_286:\n        /* \"#utility.yul\":3662:3779   */\n    tag_285:\n        /* \"#utility.yul\":3803:3865   */\n      tag_288\n        /* \"#utility.yul\":3857:3864   */\n      dup8\n        /* \"#utility.yul\":3848:3854   */\n      dup3\n        /* \"#utility.yul\":3837:3846   */\n      dup9\n        /* \"#utility.yul\":3833:3855   */\n      add\n        /* \"#utility.yul\":3803:3865   */\n      tag_253\n      jump\t// in\n    tag_288:\n        /* \"#utility.yul\":3793:3865   */\n      swap2\n      pop\n        /* \"#utility.yul\":3588:3875   */\n      pop\n        /* \"#utility.yul\":2939:3882   */\n      swap3\n      swap6\n      swap2\n      swap5\n      pop\n      swap3\n      pop\n      jump\t// out\n        /* \"#utility.yul\":3888:4356   */\n    tag_66:\n        /* \"#utility.yul\":3953:3959   */\n      0x00\n        /* \"#utility.yul\":3961:3967   */\n      dup1\n        /* \"#utility.yul\":4010:4012   */\n      0x40\n        /* \"#utility.yul\":3998:4007   */\n      dup4\n        /* \"#utility.yul\":3989:3996   */\n      dup6\n        /* \"#utility.yul\":3985:4008   */\n      sub\n        /* \"#utility.yul\":3981:4013   */\n      slt\n        /* \"#utility.yul\":3978:4097   */\n      iszero\n      tag_290\n      jumpi\n        /* \"#utility.yul\":4016:4095   */\n      tag_291\n      tag_266\n      jump\t// in\n    tag_291:\n        /* \"#utility.yul\":3978:4097   */\n    tag_290:\n        /* \"#utility.yul\":4136:4137   */\n      0x00\n        /* \"#utility.yul\":4161:4214   */\n      tag_292\n        /* \"#utility.yul\":4206:4213   */\n      dup6\n        /* \"#utility.yul\":4197:4203   */\n      dup3\n        /* \"#utility.yul\":4186:4195   */\n      dup7\n        /* \"#utility.yul\":4182:4204   */\n      add\n        /* \"#utility.yul\":4161:4214   */\n      tag_238\n      jump\t// in\n    tag_292:\n        /* \"#utility.yul\":4151:4214   */\n      swap3\n      pop\n        /* \"#utility.yul\":4107:4224   */\n      pop\n        /* \"#utility.yul\":4263:4265   */\n      0x20\n        /* \"#utility.yul\":4289:4339   */\n      tag_293\n        /* \"#utility.yul\":4331:4338   */\n      dup6\n        /* \"#utility.yul\":4322:4328   */\n      dup3\n        /* \"#utility.yul\":4311:4320   */\n      dup7\n        /* \"#utility.yul\":4307:4329   */\n      add\n        /* \"#utility.yul\":4289:4339   */\n      tag_242\n      jump\t// in\n    tag_293:\n        /* \"#utility.yul\":4279:4339   */\n      swap2\n      pop\n        /* \"#utility.yul\":4234:4349   */\n      pop\n        /* \"#utility.yul\":3888:4356   */\n      swap3\n      pop\n      swap3\n      swap1\n      pop\n      jump\t// out\n        /* \"#utility.yul\":4362:4836   */\n    tag_39:\n        /* \"#utility.yul\":4430:4436   */\n      0x00\n        /* \"#utility.yul\":4438:4444   */\n      dup1\n        /* \"#utility.yul\":4487:4489   */\n      0x40\n        /* \"#utility.yul\":4475:4484   */\n      dup4\n        /* \"#utility.yul\":4466:4473   */\n      dup6\n        /* \"#utility.yul\":4462:4485   */\n      sub\n        /* \"#utility.yul\":4458:4490   */\n      slt\n        /* \"#utility.yul\":4455:4574   */\n      iszero\n      tag_295\n      jumpi\n        /* \"#utility.yul\":4493:4572   */\n      tag_296\n      tag_266\n      jump\t// in\n    tag_296:\n        /* \"#utility.yul\":4455:4574   */\n    tag_295:\n        /* \"#utility.yul\":4613:4614   */\n      0x00\n        /* \"#utility.yul\":4638:4691   */\n      tag_297\n        /* \"#utility.yul\":4683:4690   */\n      dup6\n        /* \"#utility.yul\":4674:4680   */\n      dup3\n        /* \"#utility.yul\":4663:4672   */\n      dup7\n        /* \"#utility.yul\":4659:4681   */\n      add\n        /* \"#utility.yul\":4638:4691   */\n      tag_238\n      jump\t// in\n    tag_297:\n        /* \"#utility.yul\":4628:4691   */\n      swap3\n      pop\n        /* \"#utility.yul\":4584:4701   */\n      pop\n        /* \"#utility.yul\":4740:4742   */\n      0x20\n        /* \"#utility.yul\":4766:4819   */\n      tag_298\n        /* \"#utility.yul\":4811:4818   */\n      dup6\n        /* \"#utility.yul\":4802:4808   */\n      dup3\n        /* \"#utility.yul\":4791:4800   */\n      dup7\n        /* \"#utility.yul\":4787:4809   */\n      add\n        /* \"#utility.yul\":4766:4819   */\n      tag_259\n      jump\t// in\n    tag_298:\n        /* \"#utility.yul\":4756:4819   */\n      swap2\n      pop\n        /* \"#utility.yul\":4711:4829   */\n      pop\n        /* \"#utility.yul\":4362:4836   */\n      swap3\n      pop\n      swap3\n      swap1\n      pop\n      jump\t// out\n        /* \"#utility.yul\":4842:5169   */\n    tag_23:\n        /* \"#utility.yul\":4900:4906   */\n      0x00\n        /* \"#utility.yul\":4949:4951   */\n      0x20\n        /* \"#utility.yul\":4937:4946   */\n      dup3\n        /* \"#utility.yul\":4928:4935   */\n      dup5\n        /* \"#utility.yul\":4924:4947   */\n      sub\n        /* \"#utility.yul\":4920:4952   */\n      slt\n        /* \"#utility.yul\":4917:5036   */\n      iszero\n      tag_300\n      jumpi\n        /* \"#utility.yul\":4955:5034   */\n      tag_301\n      tag_266\n      jump\t// in\n    tag_301:\n        /* \"#utility.yul\":4917:5036   */\n    tag_300:\n        /* \"#utility.yul\":5075:5076   */\n      0x00\n        /* \"#utility.yul\":5100:5152   */\n      tag_302\n        /* \"#utility.yul\":5144:5151   */\n      dup5\n        /* \"#utility.yul\":5135:5141   */\n      dup3\n        /* \"#utility.yul\":5124:5133   */\n      dup6\n        /* \"#utility.yul\":5120:5142   */\n      add\n        /* \"#utility.yul\":5100:5152   */\n      tag_246\n      jump\t// in\n    tag_302:\n        /* \"#utility.yul\":5090:5152   */\n      swap2\n      pop\n        /* \"#utility.yul\":5046:5162   */\n      pop\n        /* \"#utility.yul\":4842:5169   */\n      swap3\n      swap2\n      pop\n      pop\n      jump\t// out\n        /* \"#utility.yul\":5175:5524   */\n    tag_223:\n        /* \"#utility.yul\":5244:5250   */\n      0x00\n        /* \"#utility.yul\":5293:5295   */\n      0x20\n        /* \"#utility.yul\":5281:5290   */\n      dup3\n        /* \"#utility.yul\":5272:5279   */\n      dup5\n        /* \"#utility.yul\":5268:5291   */\n      sub\n        /* \"#utility.yul\":5264:5296   */\n      slt\n        /* \"#utility.yul\":5261:5380   */\n      iszero\n      tag_304\n      jumpi\n        /* \"#utility.yul\":5299:5378   */\n      tag_305\n      tag_266\n      jump\t// in\n    tag_305:\n        /* \"#utility.yul\":5261:5380   */\n    tag_304:\n        /* \"#utility.yul\":5419:5420   */\n      0x00\n        /* \"#utility.yul\":5444:5507   */\n      tag_306\n        /* \"#utility.yul\":5499:5506   */\n      dup5\n        /* \"#utility.yul\":5490:5496   */\n      dup3\n        /* \"#utility.yul\":5479:5488   */\n      dup6\n        /* \"#utility.yul\":5475:5497   */\n      add\n        /* \"#utility.yul\":5444:5507   */\n      tag_250\n      jump\t// in\n    tag_306:\n        /* \"#utility.yul\":5434:5507   */\n      swap2\n      pop\n        /* \"#utility.yul\":5390:5517   */\n      pop\n        /* \"#utility.yul\":5175:5524   */\n      swap3\n      swap2\n      pop\n      pop\n      jump\t// out\n        /* \"#utility.yul\":5530:5859   */\n    tag_33:\n        /* \"#utility.yul\":5589:5595   */\n      0x00\n        /* \"#utility.yul\":5638:5640   */\n      0x20\n        /* \"#utility.yul\":5626:5635   */\n      dup3\n        /* \"#utility.yul\":5617:5624   */\n      dup5\n        /* \"#utility.yul\":5613:5636   */\n      sub\n        /* \"#utility.yul\":5609:5641   */\n      slt\n        /* \"#utility.yul\":5606:5725   */\n      iszero\n      tag_308\n      jumpi\n        /* \"#utility.yul\":5644:5723   */\n      tag_309\n      tag_266\n      jump\t// in\n    tag_309:\n        /* \"#utility.yul\":5606:5725   */\n    tag_308:\n        /* \"#utility.yul\":5764:5765   */\n      0x00\n        /* \"#utility.yul\":5789:5842   */\n      tag_310\n        /* \"#utility.yul\":5834:5841   */\n      dup5\n        /* \"#utility.yul\":5825:5831   */\n      dup3\n        /* \"#utility.yul\":5814:5823   */\n      dup6\n        /* \"#utility.yul\":5810:5832   */\n      add\n        /* \"#utility.yul\":5789:5842   */\n      tag_259\n      jump\t// in\n    tag_310:\n        /* \"#utility.yul\":5779:5842   */\n      swap2\n      pop\n        /* \"#utility.yul\":5735:5852   */\n      pop\n        /* \"#utility.yul\":5530:5859   */\n      swap3\n      swap2\n      pop\n      pop\n      jump\t// out\n        /* \"#utility.yul\":5865:5983   */\n    tag_311:\n        /* \"#utility.yul\":5952:5976   */\n      tag_313\n        /* \"#utility.yul\":5970:5975   */\n      dup2\n        /* \"#utility.yul\":5952:5976   */\n      tag_314\n      jump\t// in\n    tag_313:\n        /* \"#utility.yul\":5947:5950   */\n      dup3\n        /* \"#utility.yul\":5940:5977   */\n      mstore\n        /* \"#utility.yul\":5865:5983   */\n      pop\n      pop\n      jump\t// out\n        /* \"#utility.yul\":5989:6098   */\n    tag_315:\n        /* \"#utility.yul\":6070:6091   */\n      tag_317\n        /* \"#utility.yul\":6085:6090   */\n      dup2\n        /* \"#utility.yul\":6070:6091   */\n      tag_318\n      jump\t// in\n    tag_317:\n        /* \"#utility.yul\":6065:6068   */\n      dup3\n        /* \"#utility.yul\":6058:6092   */\n      mstore\n        /* \"#utility.yul\":5989:6098   */\n      pop\n      pop\n      jump\t// out\n        /* \"#utility.yul\":6104:6464   */\n    tag_319:\n        /* \"#utility.yul\":6190:6193   */\n      0x00\n        /* \"#utility.yul\":6218:6256   */\n      tag_321\n        /* \"#utility.yul\":6250:6255   */\n      dup3\n        /* \"#utility.yul\":6218:6256   */\n      tag_322\n      jump\t// in\n    tag_321:\n        /* \"#utility.yul\":6272:6342   */\n      tag_323\n        /* \"#utility.yul\":6335:6341   */\n      dup2\n        /* \"#utility.yul\":6330:6333   */\n      dup6\n        /* \"#utility.yul\":6272:6342   */\n      tag_324\n      jump\t// in\n    tag_323:\n        /* \"#utility.yul\":6265:6342   */\n      swap4\n      pop\n        /* \"#utility.yul\":6351:6403   */\n      tag_325\n        /* \"#utility.yul\":6396:6402   */\n      dup2\n        /* \"#utility.yul\":6391:6394   */\n      dup6\n        /* \"#utility.yul\":6384:6388   */\n      0x20\n        /* \"#utility.yul\":6377:6382   */\n      dup7\n        /* \"#utility.yul\":6373:6389   */\n      add\n        /* \"#utility.yul\":6351:6403   */\n      tag_326\n      jump\t// in\n    tag_325:\n        /* \"#utility.yul\":6428:6457   */\n      tag_327\n        /* \"#utility.yul\":6450:6456   */\n      dup2\n        /* \"#utility.yul\":6428:6457   */\n      tag_328\n      jump\t// in\n    tag_327:\n        /* \"#utility.yul\":6423:6426   */\n      dup5\n        /* \"#utility.yul\":6419:6458   */\n      add\n        /* \"#utility.yul\":6412:6458   */\n      swap2\n      pop\n        /* \"#utility.yul\":6194:6464   */\n      pop\n        /* \"#utility.yul\":6104:6464   */\n      swap3\n      swap2\n      pop\n      pop\n      jump\t// out\n        /* \"#utility.yul\":6470:6834   */\n    tag_329:\n        /* \"#utility.yul\":6558:6561   */\n      0x00\n        /* \"#utility.yul\":6586:6625   */\n      tag_331\n        /* \"#utility.yul\":6619:6624   */\n      dup3\n        /* \"#utility.yul\":6586:6625   */\n      tag_332\n      jump\t// in\n    tag_331:\n        /* \"#utility.yul\":6641:6712   */\n      tag_333\n        /* \"#utility.yul\":6705:6711   */\n      dup2\n        /* \"#utility.yul\":6700:6703   */\n      dup6\n        /* \"#utility.yul\":6641:6712   */\n      tag_334\n      jump\t// in\n    tag_333:\n        /* \"#utility.yul\":6634:6712   */\n      swap4\n      pop\n        /* \"#utility.yul\":6721:6773   */\n      tag_335\n        /* \"#utility.yul\":6766:6772   */\n      dup2\n        /* \"#utility.yul\":6761:6764   */\n      dup6\n        /* \"#utility.yul\":6754:6758   */\n      0x20\n        /* \"#utility.yul\":6747:6752   */\n      dup7\n        /* \"#utility.yul\":6743:6759   */\n      add\n        /* \"#utility.yul\":6721:6773   */\n      tag_326\n      jump\t// in\n    tag_335:\n        /* \"#utility.yul\":6798:6827   */\n      tag_336\n        /* \"#utility.yul\":6820:6826   */\n      dup2\n        /* \"#utility.yul\":6798:6827   */\n      tag_328\n      jump\t// in\n    tag_336:\n        /* \"#utility.yul\":6793:6796   */\n      dup5\n        /* \"#utility.yul\":6789:6828   */\n      add\n        /* \"#utility.yul\":6782:6828   */\n      swap2\n      pop\n        /* \"#utility.yul\":6562:6834   */\n      pop\n        /* \"#utility.yul\":6470:6834   */\n      swap3\n      swap2\n      pop\n      pop\n      jump\t// out\n        /* \"#utility.yul\":6840:7217   */\n    tag_337:\n        /* \"#utility.yul\":6946:6949   */\n      0x00\n        /* \"#utility.yul\":6974:7013   */\n      tag_339\n        /* \"#utility.yul\":7007:7012   */\n      dup3\n        /* \"#utility.yul\":6974:7013   */\n      tag_332\n      jump\t// in\n    tag_339:\n        /* \"#utility.yul\":7029:7118   */\n      tag_340\n        /* \"#utility.yul\":7111:7117   */\n      dup2\n        /* \"#utility.yul\":7106:7109   */\n      dup6\n        /* \"#utility.yul\":7029:7118   */\n      tag_341\n      jump\t// in\n    tag_340:\n        /* \"#utility.yul\":7022:7118   */\n      swap4\n      pop\n        /* \"#utility.yul\":7127:7179   */\n      tag_342\n        /* \"#utility.yul\":7172:7178   */\n      dup2\n        /* \"#utility.yul\":7167:7170   */\n      dup6\n        /* \"#utility.yul\":7160:7164   */\n      0x20\n        /* \"#utility.yul\":7153:7158   */\n      dup7\n        /* \"#utility.yul\":7149:7165   */\n      add\n        /* \"#utility.yul\":7127:7179   */\n      tag_326\n      jump\t// in\n    tag_342:\n        /* \"#utility.yul\":7204:7210   */\n      dup1\n        /* \"#utility.yul\":7199:7202   */\n      dup5\n        /* \"#utility.yul\":7195:7211   */\n      add\n        /* \"#utility.yul\":7188:7211   */\n      swap2\n      pop\n        /* \"#utility.yul\":6950:7217   */\n      pop\n        /* \"#utility.yul\":6840:7217   */\n      swap3\n      swap2\n      pop\n      pop\n      jump\t// out\n        /* \"#utility.yul\":7223:7589   */\n    tag_343:\n        /* \"#utility.yul\":7365:7368   */\n      0x00\n        /* \"#utility.yul\":7386:7453   */\n      tag_345\n        /* \"#utility.yul\":7450:7452   */\n      0x14\n        /* \"#utility.yul\":7445:7448   */\n      dup4\n        /* \"#utility.yul\":7386:7453   */\n      tag_334\n      jump\t// in\n    tag_345:\n        /* \"#utility.yul\":7379:7453   */\n      swap2\n      pop\n        /* \"#utility.yul\":7462:7555   */\n      tag_346\n        /* \"#utility.yul\":7551:7554   */\n      dup3\n        /* \"#utility.yul\":7462:7555   */\n      tag_347\n      jump\t// in\n    tag_346:\n        /* \"#utility.yul\":7580:7582   */\n      0x20\n        /* \"#utility.yul\":7575:7578   */\n      dup3\n        /* \"#utility.yul\":7571:7583   */\n      add\n        /* \"#utility.yul\":7564:7583   */\n      swap1\n      pop\n        /* \"#utility.yul\":7223:7589   */\n      swap2\n      swap1\n      pop\n      jump\t// out\n        /* \"#utility.yul\":7595:7961   */\n    tag_348:\n        /* \"#utility.yul\":7737:7740   */\n      0x00\n        /* \"#utility.yul\":7758:7825   */\n      tag_350\n        /* \"#utility.yul\":7822:7824   */\n      0x15\n        /* \"#utility.yul\":7817:7820   */\n      dup4\n        /* \"#utility.yul\":7758:7825   */\n      tag_334\n      jump\t// in\n    tag_350:\n        /* \"#utility.yul\":7751:7825   */\n      swap2\n      pop\n        /* \"#utility.yul\":7834:7927   */\n      tag_351\n        /* \"#utility.yul\":7923:7926   */\n      dup3\n        /* \"#utility.yul\":7834:7927   */\n      tag_352\n      jump\t// in\n    tag_351:\n        /* \"#utility.yul\":7952:7954   */\n      0x20\n        /* \"#utility.yul\":7947:7950   */\n      dup3\n        /* \"#utility.yul\":7943:7955   */\n      add\n        /* \"#utility.yul\":7936:7955   */\n      swap1\n      pop\n        /* \"#utility.yul\":7595:7961   */\n      swap2\n      swap1\n      pop\n      jump\t// out\n        /* \"#utility.yul\":7967:8333   */\n    tag_353:\n        /* \"#utility.yul\":8109:8112   */\n      0x00\n        /* \"#utility.yul\":8130:8197   */\n      tag_355\n        /* \"#utility.yul\":8194:8196   */\n      0x1c\n        /* \"#utility.yul\":8189:8192   */\n      dup4\n        /* \"#utility.yul\":8130:8197   */\n      tag_334\n      jump\t// in\n    tag_355:\n        /* \"#utility.yul\":8123:8197   */\n      swap2\n      pop\n        /* \"#utility.yul\":8206:8299   */\n      tag_356\n        /* \"#utility.yul\":8295:8298   */\n      dup3\n        /* \"#utility.yul\":8206:8299   */\n      tag_357\n      jump\t// in\n    tag_356:\n        /* \"#utility.yul\":8324:8326   */\n      0x20\n        /* \"#utility.yul\":8319:8322   */\n      dup3\n        /* \"#utility.yul\":8315:8327   */\n      add\n        /* \"#utility.yul\":8308:8327   */\n      swap1\n      pop\n        /* \"#utility.yul\":7967:8333   */\n      swap2\n      swap1\n      pop\n      jump\t// out\n        /* \"#utility.yul\":8339:8705   */\n    tag_358:\n        /* \"#utility.yul\":8481:8484   */\n      0x00\n        /* \"#utility.yul\":8502:8569   */\n      tag_360\n        /* \"#utility.yul\":8566:8568   */\n      0x1e\n        /* \"#utility.yul\":8561:8564   */\n      dup4\n        /* \"#utility.yul\":8502:8569   */\n      tag_334\n      jump\t// in\n    tag_360:\n        /* \"#utility.yul\":8495:8569   */\n      swap2\n      pop\n        /* \"#utility.yul\":8578:8671   */\n      tag_361\n        /* \"#utility.yul\":8667:8670   */\n      dup3\n        /* \"#utility.yul\":8578:8671   */\n      tag_362\n      jump\t// in\n    tag_361:\n        /* \"#utility.yul\":8696:8698   */\n      0x20\n        /* \"#utility.yul\":8691:8694   */\n      dup3\n        /* \"#utility.yul\":8687:8699   */\n      add\n        /* \"#utility.yul\":8680:8699   */\n      swap1\n      pop\n        /* \"#utility.yul\":8339:8705   */\n      swap2\n      swap1\n      pop\n      jump\t// out\n        /* \"#utility.yul\":8711:9077   */\n    tag_363:\n        /* \"#utility.yul\":8853:8856   */\n      0x00\n        /* \"#utility.yul\":8874:8941   */\n      tag_365\n        /* \"#utility.yul\":8938:8940   */\n      0x15\n        /* \"#utility.yul\":8933:8936   */\n      dup4\n        /* \"#utility.yul\":8874:8941   */\n      tag_334\n      jump\t// in\n    tag_365:\n        /* \"#utility.yul\":8867:8941   */\n      swap2\n      pop\n        /* \"#utility.yul\":8950:9043   */\n      tag_366\n        /* \"#utility.yul\":9039:9042   */\n      dup3\n        /* \"#utility.yul\":8950:9043   */\n      tag_367\n      jump\t// in\n    tag_366:\n        /* \"#utility.yul\":9068:9070   */\n      0x20\n        /* \"#utility.yul\":9063:9066   */\n      dup3\n        /* \"#utility.yul\":9059:9071   */\n      add\n        /* \"#utility.yul\":9052:9071   */\n      swap1\n      pop\n        /* \"#utility.yul\":8711:9077   */\n      swap2\n      swap1\n      pop\n      jump\t// out\n        /* \"#utility.yul\":9083:9449   */\n    tag_368:\n        /* \"#utility.yul\":9225:9228   */\n      0x00\n        /* \"#utility.yul\":9246:9313   */\n      tag_370\n        /* \"#utility.yul\":9310:9312   */\n      0x15\n        /* \"#utility.yul\":9305:9308   */\n      dup4\n        /* \"#utility.yul\":9246:9313   */\n      tag_334\n      jump\t// in\n    tag_370:\n        /* \"#utility.yul\":9239:9313   */\n      swap2\n      pop\n        /* \"#utility.yul\":9322:9415   */\n      tag_371\n        /* \"#utility.yul\":9411:9414   */\n      dup3\n        /* \"#utility.yul\":9322:9415   */\n      tag_372\n      jump\t// in\n    tag_371:\n        /* \"#utility.yul\":9440:9442   */\n      0x20\n        /* \"#utility.yul\":9435:9438   */\n      dup3\n        /* \"#utility.yul\":9431:9443   */\n      add\n        /* \"#utility.yul\":9424:9443   */\n      swap1\n      pop\n        /* \"#utility.yul\":9083:9449   */\n      swap2\n      swap1\n      pop\n      jump\t// out\n        /* \"#utility.yul\":9455:9821   */\n    tag_373:\n        /* \"#utility.yul\":9597:9600   */\n      0x00\n        /* \"#utility.yul\":9618:9685   */\n      tag_375\n        /* \"#utility.yul\":9682:9684   */\n      0x1e\n        /* \"#utility.yul\":9677:9680   */\n      dup4\n        /* \"#utility.yul\":9618:9685   */\n      tag_334\n      jump\t// in\n    tag_375:\n        /* \"#utility.yul\":9611:9685   */\n      swap2\n      pop\n        /* \"#utility.yul\":9694:9787   */\n      tag_376\n        /* \"#utility.yul\":9783:9786   */\n      dup3\n        /* \"#utility.yul\":9694:9787   */\n      tag_377\n      jump\t// in\n    tag_376:\n        /* \"#utility.yul\":9812:9814   */\n      0x20\n        /* \"#utility.yul\":9807:9810   */\n      dup3\n        /* \"#utility.yul\":9803:9815   */\n      add\n        /* \"#utility.yul\":9796:9815   */\n      swap1\n      pop\n        /* \"#utility.yul\":9455:9821   */\n      swap2\n      swap1\n      pop\n      jump\t// out\n        /* \"#utility.yul\":9827:10193   */\n    tag_378:\n        /* \"#utility.yul\":9969:9972   */\n      0x00\n        /* \"#utility.yul\":9990:10057   */\n      tag_380\n        /* \"#utility.yul\":10054:10056   */\n      0x13\n        /* \"#utility.yul\":10049:10052   */\n      dup4\n        /* \"#utility.yul\":9990:10057   */\n      tag_334\n      jump\t// in\n    tag_380:\n        /* \"#utility.yul\":9983:10057   */\n      swap2\n      pop\n        /* \"#utility.yul\":10066:10159   */\n      tag_381\n        /* \"#utility.yul\":10155:10158   */\n      dup3\n        /* \"#utility.yul\":10066:10159   */\n      tag_382\n      jump\t// in\n    tag_381:\n        /* \"#utility.yul\":10184:10186   */\n      0x20\n        /* \"#utility.yul\":10179:10182   */\n      dup3\n        /* \"#utility.yul\":10175:10187   */\n      add\n        /* \"#utility.yul\":10168:10187   */\n      swap1\n      pop\n        /* \"#utility.yul\":9827:10193   */\n      swap2\n      swap1\n      pop\n      jump\t// out\n        /* \"#utility.yul\":10199:10565   */\n    tag_383:\n        /* \"#utility.yul\":10341:10344   */\n      0x00\n        /* \"#utility.yul\":10362:10429   */\n      tag_385\n        /* \"#utility.yul\":10426:10428   */\n      0x15\n        /* \"#utility.yul\":10421:10424   */\n      dup4\n        /* \"#utility.yul\":10362:10429   */\n      tag_334\n      jump\t// in\n    tag_385:\n        /* \"#utility.yul\":10355:10429   */\n      swap2\n      pop\n        /* \"#utility.yul\":10438:10531   */\n      tag_386\n        /* \"#utility.yul\":10527:10530   */\n      dup3\n        /* \"#utility.yul\":10438:10531   */\n      tag_387\n      jump\t// in\n    tag_386:\n        /* \"#utility.yul\":10556:10558   */\n      0x20\n        /* \"#utility.yul\":10551:10554   */\n      dup3\n        /* \"#utility.yul\":10547:10559   */\n      add\n        /* \"#utility.yul\":10540:10559   */\n      swap1\n      pop\n        /* \"#utility.yul\":10199:10565   */\n      swap2\n      swap1\n      pop\n      jump\t// out\n        /* \"#utility.yul\":10571:10937   */\n    tag_388:\n        /* \"#utility.yul\":10713:10716   */\n      0x00\n        /* \"#utility.yul\":10734:10801   */\n      tag_390\n        /* \"#utility.yul\":10798:10800   */\n      0x0f\n        /* \"#utility.yul\":10793:10796   */\n      dup4\n        /* \"#utility.yul\":10734:10801   */\n      tag_334\n      jump\t// in\n    tag_390:\n        /* \"#utility.yul\":10727:10801   */\n      swap2\n      pop\n        /* \"#utility.yul\":10810:10903   */\n      tag_391\n        /* \"#utility.yul\":10899:10902   */\n      dup3\n        /* \"#utility.yul\":10810:10903   */\n      tag_392\n      jump\t// in\n    tag_391:\n        /* \"#utility.yul\":10928:10930   */\n      0x20\n        /* \"#utility.yul\":10923:10926   */\n      dup3\n        /* \"#utility.yul\":10919:10931   */\n      add\n        /* \"#utility.yul\":10912:10931   */\n      swap1\n      pop\n        /* \"#utility.yul\":10571:10937   */\n      swap2\n      swap1\n      pop\n      jump\t// out\n        /* \"#utility.yul\":10943:11309   */\n    tag_393:\n        /* \"#utility.yul\":11085:11088   */\n      0x00\n        /* \"#utility.yul\":11106:11173   */\n      tag_395\n        /* \"#utility.yul\":11170:11172   */\n      0x14\n        /* \"#utility.yul\":11165:11168   */\n      dup4\n        /* \"#utility.yul\":11106:11173   */\n      tag_334\n      jump\t// in\n    tag_395:\n        /* \"#utility.yul\":11099:11173   */\n      swap2\n      pop\n        /* \"#utility.yul\":11182:11275   */\n      tag_396\n        /* \"#utility.yul\":11271:11274   */\n      dup3\n        /* \"#utility.yul\":11182:11275   */\n      tag_397\n      jump\t// in\n    tag_396:\n        /* \"#utility.yul\":11300:11302   */\n      0x20\n        /* \"#utility.yul\":11295:11298   */\n      dup3\n        /* \"#utility.yul\":11291:11303   */\n      add\n        /* \"#utility.yul\":11284:11303   */\n      swap1\n      pop\n        /* \"#utility.yul\":10943:11309   */\n      swap2\n      swap1\n      pop\n      jump\t// out\n        /* \"#utility.yul\":11315:11681   */\n    tag_398:\n        /* \"#utility.yul\":11457:11460   */\n      0x00\n        /* \"#utility.yul\":11478:11545   */\n      tag_400\n        /* \"#utility.yul\":11542:11544   */\n      0x12\n        /* \"#utility.yul\":11537:11540   */\n      dup4\n        /* \"#utility.yul\":11478:11545   */\n      tag_334\n      jump\t// in\n    tag_400:\n        /* \"#utility.yul\":11471:11545   */\n      swap2\n      pop\n        /* \"#utility.yul\":11554:11647   */\n      tag_401\n        /* \"#utility.yul\":11643:11646   */\n      dup3\n        /* \"#utility.yul\":11554:11647   */\n      tag_402\n      jump\t// in\n    tag_401:\n        /* \"#utility.yul\":11672:11674   */\n      0x20\n        /* \"#utility.yul\":11667:11670   */\n      dup3\n        /* \"#utility.yul\":11663:11675   */\n      add\n        /* \"#utility.yul\":11656:11675   */\n      swap1\n      pop\n        /* \"#utility.yul\":11315:11681   */\n      swap2\n      swap1\n      pop\n      jump\t// out\n        /* \"#utility.yul\":11687:12052   */\n    tag_403:\n        /* \"#utility.yul\":11829:11832   */\n      0x00\n        /* \"#utility.yul\":11850:11916   */\n      tag_405\n        /* \"#utility.yul\":11914:11915   */\n      0x09\n        /* \"#utility.yul\":11909:11912   */\n      dup4\n        /* \"#utility.yul\":11850:11916   */\n      tag_334\n      jump\t// in\n    tag_405:\n        /* \"#utility.yul\":11843:11916   */\n      swap2\n      pop\n        /* \"#utility.yul\":11925:12018   */\n      tag_406\n        /* \"#utility.yul\":12014:12017   */\n      dup3\n        /* \"#utility.yul\":11925:12018   */\n      tag_407\n      jump\t// in\n    tag_406:\n        /* \"#utility.yul\":12043:12045   */\n      0x20\n        /* \"#utility.yul\":12038:12041   */\n      dup3\n        /* \"#utility.yul\":12034:12046   */\n      add\n        /* \"#utility.yul\":12027:12046   */\n      swap1\n      pop\n        /* \"#utility.yul\":11687:12052   */\n      swap2\n      swap1\n      pop\n      jump\t// out\n        /* \"#utility.yul\":12058:12176   */\n    tag_408:\n        /* \"#utility.yul\":12145:12169   */\n      tag_410\n        /* \"#utility.yul\":12163:12168   */\n      dup2\n        /* \"#utility.yul\":12145:12169   */\n      tag_411\n      jump\t// in\n    tag_410:\n        /* \"#utility.yul\":12140:12143   */\n      dup3\n        /* \"#utility.yul\":12133:12170   */\n      mstore\n        /* \"#utility.yul\":12058:12176   */\n      pop\n      pop\n      jump\t// out\n        /* \"#utility.yul\":12182:12617   */\n    tag_157:\n        /* \"#utility.yul\":12362:12365   */\n      0x00\n        /* \"#utility.yul\":12384:12479   */\n      tag_413\n        /* \"#utility.yul\":12475:12478   */\n      dup3\n        /* \"#utility.yul\":12466:12472   */\n      dup6\n        /* \"#utility.yul\":12384:12479   */\n      tag_337\n      jump\t// in\n    tag_413:\n        /* \"#utility.yul\":12377:12479   */\n      swap2\n      pop\n        /* \"#utility.yul\":12496:12591   */\n      tag_414\n        /* \"#utility.yul\":12587:12590   */\n      dup3\n        /* \"#utility.yul\":12578:12584   */\n      dup5\n        /* \"#utility.yul\":12496:12591   */\n      tag_337\n      jump\t// in\n    tag_414:\n        /* \"#utility.yul\":12489:12591   */\n      swap2\n      pop\n        /* \"#utility.yul\":12608:12611   */\n      dup2\n        /* \"#utility.yul\":12601:12611   */\n      swap1\n      pop\n        /* \"#utility.yul\":12182:12617   */\n      swap4\n      swap3\n      pop\n      pop\n      pop\n      jump\t// out\n        /* \"#utility.yul\":12623:12845   */\n    tag_36:\n        /* \"#utility.yul\":12716:12720   */\n      0x00\n        /* \"#utility.yul\":12754:12756   */\n      0x20\n        /* \"#utility.yul\":12743:12752   */\n      dup3\n        /* \"#utility.yul\":12739:12757   */\n      add\n        /* \"#utility.yul\":12731:12757   */\n      swap1\n      pop\n        /* \"#utility.yul\":12767:12838   */\n      tag_416\n        /* \"#utility.yul\":12835:12836   */\n      0x00\n        /* \"#utility.yul\":12824:12833   */\n      dup4\n        /* \"#utility.yul\":12820:12837   */\n      add\n        /* \"#utility.yul\":12811:12817   */\n      dup5\n        /* \"#utility.yul\":12767:12838   */\n      tag_311\n      jump\t// in\n    tag_416:\n        /* \"#utility.yul\":12623:12845   */\n      swap3\n      swap2\n      pop\n      pop\n      jump\t// out\n        /* \"#utility.yul\":12851:13491   */\n    tag_218:\n        /* \"#utility.yul\":13046:13050   */\n      0x00\n        /* \"#utility.yul\":13084:13087   */\n      0x80\n        /* \"#utility.yul\":13073:13082   */\n      dup3\n        /* \"#utility.yul\":13069:13088   */\n      add\n        /* \"#utility.yul\":13061:13088   */\n      swap1\n      pop\n        /* \"#utility.yul\":13098:13169   */\n      tag_418\n        /* \"#utility.yul\":13166:13167   */\n      0x00\n        /* \"#utility.yul\":13155:13164   */\n      dup4\n        /* \"#utility.yul\":13151:13168   */\n      add\n        /* \"#utility.yul\":13142:13148   */\n      dup8\n        /* \"#utility.yul\":13098:13169   */\n      tag_311\n      jump\t// in\n    tag_418:\n        /* \"#utility.yul\":13179:13251   */\n      tag_419\n        /* \"#utility.yul\":13247:13249   */\n      0x20\n        /* \"#utility.yul\":13236:13245   */\n      dup4\n        /* \"#utility.yul\":13232:13250   */\n      add\n        /* \"#utility.yul\":13223:13229   */\n      dup7\n        /* \"#utility.yul\":13179:13251   */\n      tag_311\n      jump\t// in\n    tag_419:\n        /* \"#utility.yul\":13261:13333   */\n      tag_420\n        /* \"#utility.yul\":13329:13331   */\n      0x40\n        /* \"#utility.yul\":13318:13327   */\n      dup4\n        /* \"#utility.yul\":13314:13332   */\n      add\n        /* \"#utility.yul\":13305:13311   */\n      dup6\n        /* \"#utility.yul\":13261:13333   */\n      tag_408\n      jump\t// in\n    tag_420:\n        /* \"#utility.yul\":13380:13389   */\n      dup2\n        /* \"#utility.yul\":13374:13378   */\n      dup2\n        /* \"#utility.yul\":13370:13390   */\n      sub\n        /* \"#utility.yul\":13365:13367   */\n      0x60\n        /* \"#utility.yul\":13354:13363   */\n      dup4\n        /* \"#utility.yul\":13350:13368   */\n      add\n        /* \"#utility.yul\":13343:13391   */\n      mstore\n        /* \"#utility.yul\":13408:13484   */\n      tag_421\n        /* \"#utility.yul\":13479:13483   */\n      dup2\n        /* \"#utility.yul\":13470:13476   */\n      dup5\n        /* \"#utility.yul\":13408:13484   */\n      tag_319\n      jump\t// in\n    tag_421:\n        /* \"#utility.yul\":13400:13484   */\n      swap1\n      pop\n        /* \"#utility.yul\":12851:13491   */\n      swap6\n      swap5\n      pop\n      pop\n      pop\n      pop\n      pop\n      jump\t// out\n        /* \"#utility.yul\":13497:13707   */\n    tag_26:\n        /* \"#utility.yul\":13584:13588   */\n      0x00\n        /* \"#utility.yul\":13622:13624   */\n      0x20\n        /* \"#utility.yul\":13611:13620   */\n      dup3\n        /* \"#utility.yul\":13607:13625   */\n      add\n        /* \"#utility.yul\":13599:13625   */\n      swap1\n      pop\n        /* \"#utility.yul\":13635:13700   */\n      tag_423\n        /* \"#utility.yul\":13697:13698   */\n      0x00\n        /* \"#utility.yul\":13686:13695   */\n      dup4\n        /* \"#utility.yul\":13682:13699   */\n      add\n        /* \"#utility.yul\":13673:13679   */\n      dup5\n        /* \"#utility.yul\":13635:13700   */\n      tag_315\n      jump\t// in\n    tag_423:\n        /* \"#utility.yul\":13497:13707   */\n      swap3\n      swap2\n      pop\n      pop\n      jump\t// out\n        /* \"#utility.yul\":13713:14026   */\n    tag_30:\n        /* \"#utility.yul\":13826:13830   */\n      0x00\n        /* \"#utility.yul\":13864:13866   */\n      0x20\n        /* \"#utility.yul\":13853:13862   */\n      dup3\n        /* \"#utility.yul\":13849:13867   */\n      add\n        /* \"#utility.yul\":13841:13867   */\n      swap1\n      pop\n        /* \"#utility.yul\":13913:13922   */\n      dup2\n        /* \"#utility.yul\":13907:13911   */\n      dup2\n        /* \"#utility.yul\":13903:13923   */\n      sub\n        /* \"#utility.yul\":13899:13900   */\n      0x00\n        /* \"#utility.yul\":13888:13897   */\n      dup4\n        /* \"#utility.yul\":13884:13901   */\n      add\n        /* \"#utility.yul\":13877:13924   */\n      mstore\n        /* \"#utility.yul\":13941:14019   */\n      tag_425\n        /* \"#utility.yul\":14014:14018   */\n      dup2\n        /* \"#utility.yul\":14005:14011   */\n      dup5\n        /* \"#utility.yul\":13941:14019   */\n      tag_329\n      jump\t// in\n    tag_425:\n        /* \"#utility.yul\":13933:14019   */\n      swap1\n      pop\n        /* \"#utility.yul\":13713:14026   */\n      swap3\n      swap2\n      pop\n      pop\n      jump\t// out\n        /* \"#utility.yul\":14032:14451   */\n    tag_119:\n        /* \"#utility.yul\":14198:14202   */\n      0x00\n        /* \"#utility.yul\":14236:14238   */\n      0x20\n        /* \"#utility.yul\":14225:14234   */\n      dup3\n        /* \"#utility.yul\":14221:14239   */\n      add\n        /* \"#utility.yul\":14213:14239   */\n      swap1\n      pop\n        /* \"#utility.yul\":14285:14294   */\n      dup2\n        /* \"#utility.yul\":14279:14283   */\n      dup2\n        /* \"#utility.yul\":14275:14295   */\n      sub\n        /* \"#utility.yul\":14271:14272   */\n      0x00\n        /* \"#utility.yul\":14260:14269   */\n      dup4\n        /* \"#utility.yul\":14256:14273   */\n      add\n        /* \"#utility.yul\":14249:14296   */\n      mstore\n        /* \"#utility.yul\":14313:14444   */\n      tag_427\n        /* \"#utility.yul\":14439:14443   */\n      dup2\n        /* \"#utility.yul\":14313:14444   */\n      tag_343\n      jump\t// in\n    tag_427:\n        /* \"#utility.yul\":14305:14444   */\n      swap1\n      pop\n        /* \"#utility.yul\":14032:14451   */\n      swap2\n      swap1\n      pop\n      jump\t// out\n        /* \"#utility.yul\":14457:14876   */\n    tag_112:\n        /* \"#utility.yul\":14623:14627   */\n      0x00\n        /* \"#utility.yul\":14661:14663   */\n      0x20\n        /* \"#utility.yul\":14650:14659   */\n      dup3\n        /* \"#utility.yul\":14646:14664   */\n      add\n        /* \"#utility.yul\":14638:14664   */\n      swap1\n      pop\n        /* \"#utility.yul\":14710:14719   */\n      dup2\n        /* \"#utility.yul\":14704:14708   */\n      dup2\n        /* \"#utility.yul\":14700:14720   */\n      sub\n        /* \"#utility.yul\":14696:14697   */\n      0x00\n        /* \"#utility.yul\":14685:14694   */\n      dup4\n        /* \"#utility.yul\":14681:14698   */\n      add\n        /* \"#utility.yul\":14674:14721   */\n      mstore\n        /* \"#utility.yul\":14738:14869   */\n      tag_429\n        /* \"#utility.yul\":14864:14868   */\n      dup2\n        /* \"#utility.yul\":14738:14869   */\n      tag_348\n      jump\t// in\n    tag_429:\n        /* \"#utility.yul\":14730:14869   */\n      swap1\n      pop\n        /* \"#utility.yul\":14457:14876   */\n      swap2\n      swap1\n      pop\n      jump\t// out\n        /* \"#utility.yul\":14882:15301   */\n    tag_169:\n        /* \"#utility.yul\":15048:15052   */\n      0x00\n        /* \"#utility.yul\":15086:15088   */\n      0x20\n        /* \"#utility.yul\":15075:15084   */\n      dup3\n        /* \"#utility.yul\":15071:15089   */\n      add\n        /* \"#utility.yul\":15063:15089   */\n      swap1\n      pop\n        /* \"#utility.yul\":15135:15144   */\n      dup2\n        /* \"#utility.yul\":15129:15133   */\n      dup2\n        /* \"#utility.yul\":15125:15145   */\n      sub\n        /* \"#utility.yul\":15121:15122   */\n      0x00\n        /* \"#utility.yul\":15110:15119   */\n      dup4\n        /* \"#utility.yul\":15106:15123   */\n      add\n        /* \"#utility.yul\":15099:15146   */\n      mstore\n        /* \"#utility.yul\":15163:15294   */\n      tag_431\n        /* \"#utility.yul\":15289:15293   */\n      dup2\n        /* \"#utility.yul\":15163:15294   */\n      tag_353\n      jump\t// in\n    tag_431:\n        /* \"#utility.yul\":15155:15294   */\n      swap1\n      pop\n        /* \"#utility.yul\":14882:15301   */\n      swap2\n      swap1\n      pop\n      jump\t// out\n        /* \"#utility.yul\":15307:15726   */\n    tag_178:\n        /* \"#utility.yul\":15473:15477   */\n      0x00\n        /* \"#utility.yul\":15511:15513   */\n      0x20\n        /* \"#utility.yul\":15500:15509   */\n      dup3\n        /* \"#utility.yul\":15496:15514   */\n      add\n        /* \"#utility.yul\":15488:15514   */\n      swap1\n      pop\n        /* \"#utility.yul\":15560:15569   */\n      dup2\n        /* \"#utility.yul\":15554:15558   */\n      dup2\n        /* \"#utility.yul\":15550:15570   */\n      sub\n        /* \"#utility.yul\":15546:15547   */\n      0x00\n        /* \"#utility.yul\":15535:15544   */\n      dup4\n        /* \"#utility.yul\":15531:15548   */\n      add\n        /* \"#utility.yul\":15524:15571   */\n      mstore\n        /* \"#utility.yul\":15588:15719   */\n      tag_433\n        /* \"#utility.yul\":15714:15718   */\n      dup2\n        /* \"#utility.yul\":15588:15719   */\n      tag_358\n      jump\t// in\n    tag_433:\n        /* \"#utility.yul\":15580:15719   */\n      swap1\n      pop\n        /* \"#utility.yul\":15307:15726   */\n      swap2\n      swap1\n      pop\n      jump\t// out\n        /* \"#utility.yul\":15732:16151   */\n    tag_131:\n        /* \"#utility.yul\":15898:15902   */\n      0x00\n        /* \"#utility.yul\":15936:15938   */\n      0x20\n        /* \"#utility.yul\":15925:15934   */\n      dup3\n        /* \"#utility.yul\":15921:15939   */\n      add\n        /* \"#utility.yul\":15913:15939   */\n      swap1\n      pop\n        /* \"#utility.yul\":15985:15994   */\n      dup2\n        /* \"#utility.yul\":15979:15983   */\n      dup2\n        /* \"#utility.yul\":15975:15995   */\n      sub\n        /* \"#utility.yul\":15971:15972   */\n      0x00\n        /* \"#utility.yul\":15960:15969   */\n      dup4\n        /* \"#utility.yul\":15956:15973   */\n      add\n        /* \"#utility.yul\":15949:15996   */\n      mstore\n        /* \"#utility.yul\":16013:16144   */\n      tag_435\n        /* \"#utility.yul\":16139:16143   */\n      dup2\n        /* \"#utility.yul\":16013:16144   */\n      tag_363\n      jump\t// in\n    tag_435:\n        /* \"#utility.yul\":16005:16144   */\n      swap1\n      pop\n        /* \"#utility.yul\":15732:16151   */\n      swap2\n      swap1\n      pop\n      jump\t// out\n        /* \"#utility.yul\":16157:16576   */\n    tag_96:\n        /* \"#utility.yul\":16323:16327   */\n      0x00\n        /* \"#utility.yul\":16361:16363   */\n      0x20\n        /* \"#utility.yul\":16350:16359   */\n      dup3\n        /* \"#utility.yul\":16346:16364   */\n      add\n        /* \"#utility.yul\":16338:16364   */\n      swap1\n      pop\n        /* \"#utility.yul\":16410:16419   */\n      dup2\n        /* \"#utility.yul\":16404:16408   */\n      dup2\n        /* \"#utility.yul\":16400:16420   */\n      sub\n        /* \"#utility.yul\":16396:16397   */\n      0x00\n        /* \"#utility.yul\":16385:16394   */\n      dup4\n        /* \"#utility.yul\":16381:16398   */\n      add\n        /* \"#utility.yul\":16374:16421   */\n      mstore\n        /* \"#utility.yul\":16438:16569   */\n      tag_437\n        /* \"#utility.yul\":16564:16568   */\n      dup2\n        /* \"#utility.yul\":16438:16569   */\n      tag_368\n      jump\t// in\n    tag_437:\n        /* \"#utility.yul\":16430:16569   */\n      swap1\n      pop\n        /* \"#utility.yul\":16157:16576   */\n      swap2\n      swap1\n      pop\n      jump\t// out\n        /* \"#utility.yul\":16582:17001   */\n    tag_104:\n        /* \"#utility.yul\":16748:16752   */\n      0x00\n        /* \"#utility.yul\":16786:16788   */\n      0x20\n        /* \"#utility.yul\":16775:16784   */\n      dup3\n        /* \"#utility.yul\":16771:16789   */\n      add\n        /* \"#utility.yul\":16763:16789   */\n      swap1\n      pop\n        /* \"#utility.yul\":16835:16844   */\n      dup2\n        /* \"#utility.yul\":16829:16833   */\n      dup2\n        /* \"#utility.yul\":16825:16845   */\n      sub\n        /* \"#utility.yul\":16821:16822   */\n      0x00\n        /* \"#utility.yul\":16810:16819   */\n      dup4\n        /* \"#utility.yul\":16806:16823   */\n      add\n        /* \"#utility.yul\":16799:16846   */\n      mstore\n        /* \"#utility.yul\":16863:16994   */\n      tag_439\n        /* \"#utility.yul\":16989:16993   */\n      dup2\n        /* \"#utility.yul\":16863:16994   */\n      tag_373\n      jump\t// in\n    tag_439:\n        /* \"#utility.yul\":16855:16994   */\n      swap1\n      pop\n        /* \"#utility.yul\":16582:17001   */\n      swap2\n      swap1\n      pop\n      jump\t// out\n        /* \"#utility.yul\":17007:17426   */\n    tag_127:\n        /* \"#utility.yul\":17173:17177   */\n      0x00\n        /* \"#utility.yul\":17211:17213   */\n      0x20\n        /* \"#utility.yul\":17200:17209   */\n      dup3\n        /* \"#utility.yul\":17196:17214   */\n      add\n        /* \"#utility.yul\":17188:17214   */\n      swap1\n      pop\n        /* \"#utility.yul\":17260:17269   */\n      dup2\n        /* \"#utility.yul\":17254:17258   */\n      dup2\n        /* \"#utility.yul\":17250:17270   */\n      sub\n        /* \"#utility.yul\":17246:17247   */\n      0x00\n        /* \"#utility.yul\":17235:17244   */\n      dup4\n        /* \"#utility.yul\":17231:17248   */\n      add\n        /* \"#utility.yul\":17224:17271   */\n      mstore\n        /* \"#utility.yul\":17288:17419   */\n      tag_441\n        /* \"#utility.yul\":17414:17418   */\n      dup2\n        /* \"#utility.yul\":17288:17419   */\n      tag_378\n      jump\t// in\n    tag_441:\n        /* \"#utility.yul\":17280:17419   */\n      swap1\n      pop\n        /* \"#utility.yul\":17007:17426   */\n      swap2\n      swap1\n      pop\n      jump\t// out\n        /* \"#utility.yul\":17432:17851   */\n    tag_99:\n        /* \"#utility.yul\":17598:17602   */\n      0x00\n        /* \"#utility.yul\":17636:17638   */\n      0x20\n        /* \"#utility.yul\":17625:17634   */\n      dup3\n        /* \"#utility.yul\":17621:17639   */\n      add\n        /* \"#utility.yul\":17613:17639   */\n      swap1\n      pop\n        /* \"#utility.yul\":17685:17694   */\n      dup2\n        /* \"#utility.yul\":17679:17683   */\n      dup2\n        /* \"#utility.yul\":17675:17695   */\n      sub\n        /* \"#utility.yul\":17671:17672   */\n      0x00\n        /* \"#utility.yul\":17660:17669   */\n      dup4\n        /* \"#utility.yul\":17656:17673   */\n      add\n        /* \"#utility.yul\":17649:17696   */\n      mstore\n        /* \"#utility.yul\":17713:17844   */\n      tag_443\n        /* \"#utility.yul\":17839:17843   */\n      dup2\n        /* \"#utility.yul\":17713:17844   */\n      tag_383\n      jump\t// in\n    tag_443:\n        /* \"#utility.yul\":17705:17844   */\n      swap1\n      pop\n        /* \"#utility.yul\":17432:17851   */\n      swap2\n      swap1\n      pop\n      jump\t// out\n        /* \"#utility.yul\":17857:18276   */\n    tag_149:\n        /* \"#utility.yul\":18023:18027   */\n      0x00\n        /* \"#utility.yul\":18061:18063   */\n      0x20\n        /* \"#utility.yul\":18050:18059   */\n      dup3\n        /* \"#utility.yul\":18046:18064   */\n      add\n        /* \"#utility.yul\":18038:18064   */\n      swap1\n      pop\n        /* \"#utility.yul\":18110:18119   */\n      dup2\n        /* \"#utility.yul\":18104:18108   */\n      dup2\n        /* \"#utility.yul\":18100:18120   */\n      sub\n        /* \"#utility.yul\":18096:18097   */\n      0x00\n        /* \"#utility.yul\":18085:18094   */\n      dup4\n        /* \"#utility.yul\":18081:18098   */\n      add\n        /* \"#utility.yul\":18074:18121   */\n      mstore\n        /* \"#utility.yul\":18138:18269   */\n      tag_445\n        /* \"#utility.yul\":18264:18268   */\n      dup2\n        /* \"#utility.yul\":18138:18269   */\n      tag_388\n      jump\t// in\n    tag_445:\n        /* \"#utility.yul\":18130:18269   */\n      swap1\n      pop\n        /* \"#utility.yul\":17857:18276   */\n      swap2\n      swap1\n      pop\n      jump\t// out\n        /* \"#utility.yul\":18282:18701   */\n    tag_181:\n        /* \"#utility.yul\":18448:18452   */\n      0x00\n        /* \"#utility.yul\":18486:18488   */\n      0x20\n        /* \"#utility.yul\":18475:18484   */\n      dup3\n        /* \"#utility.yul\":18471:18489   */\n      add\n        /* \"#utility.yul\":18463:18489   */\n      swap1\n      pop\n        /* \"#utility.yul\":18535:18544   */\n      dup2\n        /* \"#utility.yul\":18529:18533   */\n      dup2\n        /* \"#utility.yul\":18525:18545   */\n      sub\n        /* \"#utility.yul\":18521:18522   */\n      0x00\n        /* \"#utility.yul\":18510:18519   */\n      dup4\n        /* \"#utility.yul\":18506:18523   */\n      add\n        /* \"#utility.yul\":18499:18546   */\n      mstore\n        /* \"#utility.yul\":18563:18694   */\n      tag_447\n        /* \"#utility.yul\":18689:18693   */\n      dup2\n        /* \"#utility.yul\":18563:18694   */\n      tag_393\n      jump\t// in\n    tag_447:\n        /* \"#utility.yul\":18555:18694   */\n      swap1\n      pop\n        /* \"#utility.yul\":18282:18701   */\n      swap2\n      swap1\n      pop\n      jump\t// out\n        /* \"#utility.yul\":18707:19126   */\n    tag_189:\n        /* \"#utility.yul\":18873:18877   */\n      0x00\n        /* \"#utility.yul\":18911:18913   */\n      0x20\n        /* \"#utility.yul\":18900:18909   */\n      dup3\n        /* \"#utility.yul\":18896:18914   */\n      add\n        /* \"#utility.yul\":18888:18914   */\n      swap1\n      pop\n        /* \"#utility.yul\":18960:18969   */\n      dup2\n        /* \"#utility.yul\":18954:18958   */\n      dup2\n        /* \"#utility.yul\":18950:18970   */\n      sub\n        /* \"#utility.yul\":18946:18947   */\n      0x00\n        /* \"#utility.yul\":18935:18944   */\n      dup4\n        /* \"#utility.yul\":18931:18948   */\n      add\n        /* \"#utility.yul\":18924:18971   */\n      mstore\n        /* \"#utility.yul\":18988:19119   */\n      tag_449\n        /* \"#utility.yul\":19114:19118   */\n      dup2\n        /* \"#utility.yul\":18988:19119   */\n      tag_398\n      jump\t// in\n    tag_449:\n        /* \"#utility.yul\":18980:19119   */\n      swap1\n      pop\n        /* \"#utility.yul\":18707:19126   */\n      swap2\n      swap1\n      pop\n      jump\t// out\n        /* \"#utility.yul\":19132:19551   */\n    tag_166:\n        /* \"#utility.yul\":19298:19302   */\n      0x00\n        /* \"#utility.yul\":19336:19338   */\n      0x20\n        /* \"#utility.yul\":19325:19334   */\n      dup3\n        /* \"#utility.yul\":19321:19339   */\n      add\n        /* \"#utility.yul\":19313:19339   */\n      swap1\n      pop\n        /* \"#utility.yul\":19385:19394   */\n      dup2\n        /* \"#utility.yul\":19379:19383   */\n      dup2\n        /* \"#utility.yul\":19375:19395   */\n      sub\n        /* \"#utility.yul\":19371:19372   */\n      0x00\n        /* \"#utility.yul\":19360:19369   */\n      dup4\n        /* \"#utility.yul\":19356:19373   */\n      add\n        /* \"#utility.yul\":19349:19396   */\n      mstore\n        /* \"#utility.yul\":19413:19544   */\n      tag_451\n        /* \"#utility.yul\":19539:19543   */\n      dup2\n        /* \"#utility.yul\":19413:19544   */\n      tag_403\n      jump\t// in\n    tag_451:\n        /* \"#utility.yul\":19405:19544   */\n      swap1\n      pop\n        /* \"#utility.yul\":19132:19551   */\n      swap2\n      swap1\n      pop\n      jump\t// out\n        /* \"#utility.yul\":19557:19779   */\n    tag_60:\n        /* \"#utility.yul\":19650:19654   */\n      0x00\n        /* \"#utility.yul\":19688:19690   */\n      0x20\n        /* \"#utility.yul\":19677:19686   */\n      dup3\n        /* \"#utility.yul\":19673:19691   */\n      add\n        /* \"#utility.yul\":19665:19691   */\n      swap1\n      pop\n        /* \"#utility.yul\":19701:19772   */\n      tag_453\n        /* \"#utility.yul\":19769:19770   */\n      0x00\n        /* \"#utility.yul\":19758:19767   */\n      dup4\n        /* \"#utility.yul\":19754:19771   */\n      add\n        /* \"#utility.yul\":19745:19751   */\n      dup5\n        /* \"#utility.yul\":19701:19772   */\n      tag_408\n      jump\t// in\n    tag_453:\n        /* \"#utility.yul\":19557:19779   */\n      swap3\n      swap2\n      pop\n      pop\n      jump\t// out\n        /* \"#utility.yul\":19785:19914   */\n    tag_232:\n        /* \"#utility.yul\":19819:19825   */\n      0x00\n        /* \"#utility.yul\":19846:19866   */\n      tag_455\n      tag_456\n      jump\t// in\n    tag_455:\n        /* \"#utility.yul\":19836:19866   */\n      swap1\n      pop\n        /* \"#utility.yul\":19875:19908   */\n      tag_457\n        /* \"#utility.yul\":19903:19907   */\n      dup3\n        /* \"#utility.yul\":19895:19901   */\n      dup3\n        /* \"#utility.yul\":19875:19908   */\n      tag_458\n      jump\t// in\n    tag_457:\n        /* \"#utility.yul\":19785:19914   */\n      swap2\n      swap1\n      pop\n      jump\t// out\n        /* \"#utility.yul\":19920:19995   */\n    tag_456:\n        /* \"#utility.yul\":19953:19959   */\n      0x00\n        /* \"#utility.yul\":19986:19988   */\n      0x40\n        /* \"#utility.yul\":19980:19989   */\n      mload\n        /* \"#utility.yul\":19970:19989   */\n      swap1\n      pop\n        /* \"#utility.yul\":19920:19995   */\n      swap1\n      jump\t// out\n        /* \"#utility.yul\":20001:20308   */\n    tag_231:\n        /* \"#utility.yul\":20062:20066   */\n      0x00\n        /* \"#utility.yul\":20152:20170   */\n      0xffffffffffffffff\n        /* \"#utility.yul\":20144:20150   */\n      dup3\n        /* \"#utility.yul\":20141:20171   */\n      gt\n        /* \"#utility.yul\":20138:20194   */\n      iszero\n      tag_461\n      jumpi\n        /* \"#utility.yul\":20174:20192   */\n      tag_462\n      tag_201\n      jump\t// in\n    tag_462:\n        /* \"#utility.yul\":20138:20194   */\n    tag_461:\n        /* \"#utility.yul\":20212:20241   */\n      tag_463\n        /* \"#utility.yul\":20234:20240   */\n      dup3\n        /* \"#utility.yul\":20212:20241   */\n      tag_328\n      jump\t// in\n    tag_463:\n        /* \"#utility.yul\":20204:20241   */\n      swap1\n      pop\n        /* \"#utility.yul\":20296:20300   */\n      0x20\n        /* \"#utility.yul\":20290:20294   */\n      dup2\n        /* \"#utility.yul\":20286:20301   */\n      add\n        /* \"#utility.yul\":20278:20301   */\n      swap1\n      pop\n        /* \"#utility.yul\":20001:20308   */\n      swap2\n      swap1\n      pop\n      jump\t// out\n        /* \"#utility.yul\":20314:20412   */\n    tag_322:\n        /* \"#utility.yul\":20365:20371   */\n      0x00\n        /* \"#utility.yul\":20399:20404   */\n      dup2\n        /* \"#utility.yul\":20393:20405   */\n      mload\n        /* \"#utility.yul\":20383:20405   */\n      swap1\n      pop\n        /* \"#utility.yul\":20314:20412   */\n      swap2\n      swap1\n      pop\n      jump\t// out\n        /* \"#utility.yul\":20418:20517   */\n    tag_332:\n        /* \"#utility.yul\":20470:20476   */\n      0x00\n        /* \"#utility.yul\":20504:20509   */\n      dup2\n        /* \"#utility.yul\":20498:20510   */\n      mload\n        /* \"#utility.yul\":20488:20510   */\n      swap1\n      pop\n        /* \"#utility.yul\":20418:20517   */\n      swap2\n      swap1\n      pop\n      jump\t// out\n        /* \"#utility.yul\":20523:20691   */\n    tag_324:\n        /* \"#utility.yul\":20606:20617   */\n      0x00\n        /* \"#utility.yul\":20640:20646   */\n      dup3\n        /* \"#utility.yul\":20635:20638   */\n      dup3\n        /* \"#utility.yul\":20628:20647   */\n      mstore\n        /* \"#utility.yul\":20680:20684   */\n      0x20\n        /* \"#utility.yul\":20675:20678   */\n      dup3\n        /* \"#utility.yul\":20671:20685   */\n      add\n        /* \"#utility.yul\":20656:20685   */\n      swap1\n      pop\n        /* \"#utility.yul\":20523:20691   */\n      swap3\n      swap2\n      pop\n      pop\n      jump\t// out\n        /* \"#utility.yul\":20697:20866   */\n    tag_334:\n        /* \"#utility.yul\":20781:20792   */\n      0x00\n        /* \"#utility.yul\":20815:20821   */\n      dup3\n        /* \"#utility.yul\":20810:20813   */\n      dup3\n        /* \"#utility.yul\":20803:20822   */\n      mstore\n        /* \"#utility.yul\":20855:20859   */\n      0x20\n        /* \"#utility.yul\":20850:20853   */\n      dup3\n        /* \"#utility.yul\":20846:20860   */\n      add\n        /* \"#utility.yul\":20831:20860   */\n      swap1\n      pop\n        /* \"#utility.yul\":20697:20866   */\n      swap3\n      swap2\n      pop\n      pop\n      jump\t// out\n        /* \"#utility.yul\":20872:21020   */\n    tag_341:\n        /* \"#utility.yul\":20974:20985   */\n      0x00\n        /* \"#utility.yul\":21011:21014   */\n      dup2\n        /* \"#utility.yul\":20996:21014   */\n      swap1\n      pop\n        /* \"#utility.yul\":20872:21020   */\n      swap3\n      swap2\n      pop\n      pop\n      jump\t// out\n        /* \"#utility.yul\":21026:21331   */\n    tag_174:\n        /* \"#utility.yul\":21066:21069   */\n      0x00\n        /* \"#utility.yul\":21085:21105   */\n      tag_470\n        /* \"#utility.yul\":21103:21104   */\n      dup3\n        /* \"#utility.yul\":21085:21105   */\n      tag_411\n      jump\t// in\n    tag_470:\n        /* \"#utility.yul\":21080:21105   */\n      swap2\n      pop\n        /* \"#utility.yul\":21119:21139   */\n      tag_471\n        /* \"#utility.yul\":21137:21138   */\n      dup4\n        /* \"#utility.yul\":21119:21139   */\n      tag_411\n      jump\t// in\n    tag_471:\n        /* \"#utility.yul\":21114:21139   */\n      swap3\n      pop\n        /* \"#utility.yul\":21273:21274   */\n      dup3\n        /* \"#utility.yul\":21205:21271   */\n      0xffffffffffffffffffffffffffffffffffffffffffffffffffffffffffffffff\n        /* \"#utility.yul\":21201:21275   */\n      sub\n        /* \"#utility.yul\":21198:21199   */\n      dup3\n        /* \"#utility.yul\":21195:21276   */\n      gt\n        /* \"#utility.yul\":21192:21299   */\n      iszero\n      tag_472\n      jumpi\n        /* \"#utility.yul\":21279:21297   */\n      tag_473\n      tag_474\n      jump\t// in\n    tag_473:\n        /* \"#utility.yul\":21192:21299   */\n    tag_472:\n        /* \"#utility.yul\":21323:21324   */\n      dup3\n        /* \"#utility.yul\":21320:21321   */\n      dup3\n        /* \"#utility.yul\":21316:21325   */\n      add\n        /* \"#utility.yul\":21309:21325   */\n      swap1\n      pop\n        /* \"#utility.yul\":21026:21331   */\n      swap3\n      swap2\n      pop\n      pop\n      jump\t// out\n        /* \"#utility.yul\":21337:21522   */\n    tag_198:\n        /* \"#utility.yul\":21377:21378   */\n      0x00\n        /* \"#utility.yul\":21394:21414   */\n      tag_476\n        /* \"#utility.yul\":21412:21413   */\n      dup3\n        /* \"#utility.yul\":21394:21414   */\n      tag_411\n      jump\t// in\n    tag_476:\n        /* \"#utility.yul\":21389:21414   */\n      swap2\n      pop\n        /* \"#utility.yul\":21428:21448   */\n      tag_477\n        /* \"#utility.yul\":21446:21447   */\n      dup4\n        /* \"#utility.yul\":21428:21448   */\n      tag_411\n      jump\t// in\n    tag_477:\n        /* \"#utility.yul\":21423:21448   */\n      swap3\n      pop\n        /* \"#utility.yul\":21467:21468   */\n      dup3\n        /* \"#utility.yul\":21457:21492   */\n      tag_478\n      jumpi\n        /* \"#utility.yul\":21472:21490   */\n      tag_479\n      tag_480\n      jump\t// in\n    tag_479:\n        /* \"#utility.yul\":21457:21492   */\n    tag_478:\n        /* \"#utility.yul\":21514:21515   */\n      dup3\n        /* \"#utility.yul\":21511:21512   */\n      dup3\n        /* \"#utility.yul\":21507:21516   */\n      div\n        /* \"#utility.yul\":21502:21516   */\n      swap1\n      pop\n        /* \"#utility.yul\":21337:21522   */\n      swap3\n      swap2\n      pop\n      pop\n      jump\t// out\n        /* \"#utility.yul\":21528:21719   */\n    tag_172:\n        /* \"#utility.yul\":21568:21572   */\n      0x00\n        /* \"#utility.yul\":21588:21608   */\n      tag_482\n        /* \"#utility.yul\":21606:21607   */\n      dup3\n        /* \"#utility.yul\":21588:21608   */\n      tag_411\n      jump\t// in\n    tag_482:\n        /* \"#utility.yul\":21583:21608   */\n      swap2\n      pop\n        /* \"#utility.yul\":21622:21642   */\n      tag_483\n        /* \"#utility.yul\":21640:21641   */\n      dup4\n        /* \"#utility.yul\":21622:21642   */\n      tag_411\n      jump\t// in\n    tag_483:\n        /* \"#utility.yul\":21617:21642   */\n      swap3\n      pop\n        /* \"#utility.yul\":21661:21662   */\n      dup3\n        /* \"#utility.yul\":21658:21659   */\n      dup3\n        /* \"#utility.yul\":21655:21663   */\n      lt\n        /* \"#utility.yul\":21652:21686   */\n      iszero\n      tag_484\n      jumpi\n        /* \"#utility.yul\":21666:21684   */\n      tag_485\n      tag_474\n      jump\t// in\n    tag_485:\n        /* \"#utility.yul\":21652:21686   */\n    tag_484:\n        /* \"#utility.yul\":21711:21712   */\n      dup3\n        /* \"#utility.yul\":21708:21709   */\n      dup3\n        /* \"#utility.yul\":21704:21713   */\n      sub\n        /* \"#utility.yul\":21696:21713   */\n      swap1\n      pop\n        /* \"#utility.yul\":21528:21719   */\n      swap3\n      swap2\n      pop\n      pop\n      jump\t// out\n        /* \"#utility.yul\":21725:21821   */\n    tag_314:\n        /* \"#utility.yul\":21762:21769   */\n      0x00\n        /* \"#utility.yul\":21791:21815   */\n      tag_487\n        /* \"#utility.yul\":21809:21814   */\n      dup3\n        /* \"#utility.yul\":21791:21815   */\n      tag_488\n      jump\t// in\n    tag_487:\n        /* \"#utility.yul\":21780:21815   */\n      swap1\n      pop\n        /* \"#utility.yul\":21725:21821   */\n      swap2\n      swap1\n      pop\n      jump\t// out\n        /* \"#utility.yul\":21827:21917   */\n    tag_318:\n        /* \"#utility.yul\":21861:21868   */\n      0x00\n        /* \"#utility.yul\":21904:21909   */\n      dup2\n        /* \"#utility.yul\":21897:21910   */\n      iszero\n        /* \"#utility.yul\":21890:21911   */\n      iszero\n        /* \"#utility.yul\":21879:21911   */\n      swap1\n      pop\n        /* \"#utility.yul\":21827:21917   */\n      swap2\n      swap1\n      pop\n      jump\t// out\n        /* \"#utility.yul\":21923:22072   */\n    tag_490:\n        /* \"#utility.yul\":21959:21966   */\n      0x00\n        /* \"#utility.yul\":21999:22065   */\n      0xffffffff00000000000000000000000000000000000000000000000000000000\n        /* \"#utility.yul\":21992:21997   */\n      dup3\n        /* \"#utility.yul\":21988:22066   */\n      and\n        /* \"#utility.yul\":21977:22066   */\n      swap1\n      pop\n        /* \"#utility.yul\":21923:22072   */\n      swap2\n      swap1\n      pop\n      jump\t// out\n        /* \"#utility.yul\":22078:22204   */\n    tag_488:\n        /* \"#utility.yul\":22115:22122   */\n      0x00\n        /* \"#utility.yul\":22155:22197   */\n      0xffffffffffffffffffffffffffffffffffffffff\n        /* \"#utility.yul\":22148:22153   */\n      dup3\n        /* \"#utility.yul\":22144:22198   */\n      and\n        /* \"#utility.yul\":22133:22198   */\n      swap1\n      pop\n        /* \"#utility.yul\":22078:22204   */\n      swap2\n      swap1\n      pop\n      jump\t// out\n        /* \"#utility.yul\":22210:22287   */\n    tag_411:\n        /* \"#utility.yul\":22247:22254   */\n      0x00\n        /* \"#utility.yul\":22276:22281   */\n      dup2\n        /* \"#utility.yul\":22265:22281   */\n      swap1\n      pop\n        /* \"#utility.yul\":22210:22287   */\n      swap2\n      swap1\n      pop\n      jump\t// out\n        /* \"#utility.yul\":22293:22447   */\n    tag_237:\n        /* \"#utility.yul\":22377:22383   */\n      dup3\n        /* \"#utility.yul\":22372:22375   */\n      dup2\n        /* \"#utility.yul\":22367:22370   */\n      dup4\n        /* \"#utility.yul\":22354:22384   */\n      calldatacopy\n        /* \"#utility.yul\":22439:22440   */\n      0x00\n        /* \"#utility.yul\":22430:22436   */\n      dup4\n        /* \"#utility.yul\":22425:22428   */\n      dup4\n        /* \"#utility.yul\":22421:22437   */\n      add\n        /* \"#utility.yul\":22414:22441   */\n      mstore\n        /* \"#utility.yul\":22293:22447   */\n      pop\n      pop\n      pop\n      jump\t// out\n        /* \"#utility.yul\":22453:22760   */\n    tag_326:\n        /* \"#utility.yul\":22521:22522   */\n      0x00\n        /* \"#utility.yul\":22531:22644   */\n    tag_496:\n        /* \"#utility.yul\":22545:22551   */\n      dup4\n        /* \"#utility.yul\":22542:22543   */\n      dup2\n        /* \"#utility.yul\":22539:22552   */\n      lt\n        /* \"#utility.yul\":22531:22644   */\n      iszero\n      tag_498\n      jumpi\n        /* \"#utility.yul\":22630:22631   */\n      dup1\n        /* \"#utility.yul\":22625:22628   */\n      dup3\n        /* \"#utility.yul\":22621:22632   */\n      add\n        /* \"#utility.yul\":22615:22633   */\n      mload\n        /* \"#utility.yul\":22611:22612   */\n      dup2\n        /* \"#utility.yul\":22606:22609   */\n      dup5\n        /* \"#utility.yul\":22602:22613   */\n      add\n        /* \"#utility.yul\":22595:22634   */\n      mstore\n        /* \"#utility.yul\":22567:22569   */\n      0x20\n        /* \"#utility.yul\":22564:22565   */\n      dup2\n        /* \"#utility.yul\":22560:22570   */\n      add\n        /* \"#utility.yul\":22555:22570   */\n      swap1\n      pop\n        /* \"#utility.yul\":22531:22644   */\n      jump(tag_496)\n    tag_498:\n        /* \"#utility.yul\":22662:22668   */\n      dup4\n        /* \"#utility.yul\":22659:22660   */\n      dup2\n        /* \"#utility.yul\":22656:22669   */\n      gt\n        /* \"#utility.yul\":22653:22754   */\n      iszero\n      tag_499\n      jumpi\n        /* \"#utility.yul\":22742:22743   */\n      0x00\n        /* \"#utility.yul\":22733:22739   */\n      dup5\n        /* \"#utility.yul\":22728:22731   */\n      dup5\n        /* \"#utility.yul\":22724:22740   */\n      add\n        /* \"#utility.yul\":22717:22744   */\n      mstore\n        /* \"#utility.yul\":22653:22754   */\n    tag_499:\n        /* \"#utility.yul\":22502:22760   */\n      pop\n        /* \"#utility.yul\":22453:22760   */\n      pop\n      pop\n      pop\n      jump\t// out\n        /* \"#utility.yul\":22766:23086   */\n    tag_88:\n        /* \"#utility.yul\":22810:22816   */\n      0x00\n        /* \"#utility.yul\":22847:22848   */\n      0x02\n        /* \"#utility.yul\":22841:22845   */\n      dup3\n        /* \"#utility.yul\":22837:22849   */\n      div\n        /* \"#utility.yul\":22827:22849   */\n      swap1\n      pop\n        /* \"#utility.yul\":22894:22895   */\n      0x01\n        /* \"#utility.yul\":22888:22892   */\n      dup3\n        /* \"#utility.yul\":22884:22896   */\n      and\n        /* \"#utility.yul\":22915:22933   */\n      dup1\n        /* \"#utility.yul\":22905:22986   */\n      tag_501\n      jumpi\n        /* \"#utility.yul\":22971:22975   */\n      0x7f\n        /* \"#utility.yul\":22963:22969   */\n      dup3\n        /* \"#utility.yul\":22959:22976   */\n      and\n        /* \"#utility.yul\":22949:22976   */\n      swap2\n      pop\n        /* \"#utility.yul\":22905:22986   */\n    tag_501:\n        /* \"#utility.yul\":23033:23035   */\n      0x20\n        /* \"#utility.yul\":23025:23031   */\n      dup3\n        /* \"#utility.yul\":23022:23036   */\n      lt\n        /* \"#utility.yul\":23002:23020   */\n      dup2\n        /* \"#utility.yul\":22999:23037   */\n      eq\n        /* \"#utility.yul\":22996:23080   */\n      iszero\n      tag_502\n      jumpi\n        /* \"#utility.yul\":23052:23070   */\n      tag_503\n      tag_504\n      jump\t// in\n    tag_503:\n        /* \"#utility.yul\":22996:23080   */\n    tag_502:\n        /* \"#utility.yul\":22817:23086   */\n      pop\n        /* \"#utility.yul\":22766:23086   */\n      swap2\n      swap1\n      pop\n      jump\t// out\n        /* \"#utility.yul\":23092:23373   */\n    tag_458:\n        /* \"#utility.yul\":23175:23202   */\n      tag_506\n        /* \"#utility.yul\":23197:23201   */\n      dup3\n        /* \"#utility.yul\":23175:23202   */\n      tag_328\n      jump\t// in\n    tag_506:\n        /* \"#utility.yul\":23167:23173   */\n      dup2\n        /* \"#utility.yul\":23163:23203   */\n      add\n        /* \"#utility.yul\":23305:23311   */\n      dup2\n        /* \"#utility.yul\":23293:23303   */\n      dup2\n        /* \"#utility.yul\":23290:23312   */\n      lt\n        /* \"#utility.yul\":23269:23287   */\n      0xffffffffffffffff\n        /* \"#utility.yul\":23257:23267   */\n      dup3\n        /* \"#utility.yul\":23254:23288   */\n      gt\n        /* \"#utility.yul\":23251:23313   */\n      or\n        /* \"#utility.yul\":23248:23336   */\n      iszero\n      tag_507\n      jumpi\n        /* \"#utility.yul\":23316:23334   */\n      tag_508\n      tag_201\n      jump\t// in\n    tag_508:\n        /* \"#utility.yul\":23248:23336   */\n    tag_507:\n        /* \"#utility.yul\":23356:23366   */\n      dup1\n        /* \"#utility.yul\":23352:23354   */\n      0x40\n        /* \"#utility.yul\":23345:23367   */\n      mstore\n        /* \"#utility.yul\":23135:23373   */\n      pop\n        /* \"#utility.yul\":23092:23373   */\n      pop\n      pop\n      jump\t// out\n        /* \"#utility.yul\":23379:23612   */\n    tag_196:\n        /* \"#utility.yul\":23418:23421   */\n      0x00\n        /* \"#utility.yul\":23441:23465   */\n      tag_510\n        /* \"#utility.yul\":23459:23464   */\n      dup3\n        /* \"#utility.yul\":23441:23465   */\n      tag_411\n      jump\t// in\n    tag_510:\n        /* \"#utility.yul\":23432:23465   */\n      swap2\n      pop\n        /* \"#utility.yul\":23487:23553   */\n      0xffffffffffffffffffffffffffffffffffffffffffffffffffffffffffffffff\n        /* \"#utility.yul\":23480:23485   */\n      dup3\n        /* \"#utility.yul\":23477:23554   */\n      eq\n        /* \"#utility.yul\":23474:23577   */\n      iszero\n      tag_511\n      jumpi\n        /* \"#utility.yul\":23557:23575   */\n      tag_512\n      tag_474\n      jump\t// in\n    tag_512:\n        /* \"#utility.yul\":23474:23577   */\n    tag_511:\n        /* \"#utility.yul\":23604:23605   */\n      0x01\n        /* \"#utility.yul\":23597:23602   */\n      dup3\n        /* \"#utility.yul\":23593:23606   */\n      add\n        /* \"#utility.yul\":23586:23606   */\n      swap1\n      pop\n        /* \"#utility.yul\":23379:23612   */\n      swap2\n      swap1\n      pop\n      jump\t// out\n        /* \"#utility.yul\":23618:23794   */\n    tag_207:\n        /* \"#utility.yul\":23650:23651   */\n      0x00\n        /* \"#utility.yul\":23667:23687   */\n      tag_514\n        /* \"#utility.yul\":23685:23686   */\n      dup3\n        /* \"#utility.yul\":23667:23687   */\n      tag_411\n      jump\t// in\n    tag_514:\n        /* \"#utility.yul\":23662:23687   */\n      swap2\n      pop\n        /* \"#utility.yul\":23701:23721   */\n      tag_515\n        /* \"#utility.yul\":23719:23720   */\n      dup4\n        /* \"#utility.yul\":23701:23721   */\n      tag_411\n      jump\t// in\n    tag_515:\n        /* \"#utility.yul\":23696:23721   */\n      swap3\n      pop\n        /* \"#utility.yul\":23740:23741   */\n      dup3\n        /* \"#utility.yul\":23730:23765   */\n      tag_516\n      jumpi\n        /* \"#utility.yul\":23745:23763   */\n      tag_517\n      tag_480\n      jump\t// in\n    tag_517:\n        /* \"#utility.yul\":23730:23765   */\n    tag_516:\n        /* \"#utility.yul\":23786:23787   */\n      dup3\n        /* \"#utility.yul\":23783:23784   */\n      dup3\n        /* \"#utility.yul\":23779:23788   */\n      mod\n        /* \"#utility.yul\":23774:23788   */\n      swap1\n      pop\n        /* \"#utility.yul\":23618:23794   */\n      swap3\n      swap2\n      pop\n      pop\n      jump\t// out\n        /* \"#utility.yul\":23800:23980   */\n    tag_474:\n        /* \"#utility.yul\":23848:23925   */\n      0x4e487b7100000000000000000000000000000000000000000000000000000000\n        /* \"#utility.yul\":23845:23846   */\n      0x00\n        /* \"#utility.yul\":23838:23926   */\n      mstore\n        /* \"#utility.yul\":23945:23949   */\n      0x11\n        /* \"#utility.yul\":23942:23943   */\n      0x04\n        /* \"#utility.yul\":23935:23950   */\n      mstore\n        /* \"#utility.yul\":23969:23973   */\n      0x24\n        /* \"#utility.yul\":23966:23967   */\n      0x00\n        /* \"#utility.yul\":23959:23974   */\n      revert\n        /* \"#utility.yul\":23986:24166   */\n    tag_480:\n        /* \"#utility.yul\":24034:24111   */\n      0x4e487b7100000000000000000000000000000000000000000000000000000000\n        /* \"#utility.yul\":24031:24032   */\n      0x00\n        /* \"#utility.yul\":24024:24112   */\n      mstore\n        /* \"#utility.yul\":24131:24135   */\n      0x12\n        /* \"#utility.yul\":24128:24129   */\n      0x04\n        /* \"#utility.yul\":24121:24136   */\n      mstore\n        /* \"#utility.yul\":24155:24159   */\n      0x24\n        /* \"#utility.yul\":24152:24153   */\n      0x00\n        /* \"#utility.yul\":24145:24160   */\n      revert\n        /* \"#utility.yul\":24172:24352   */\n    tag_504:\n        /* \"#utility.yul\":24220:24297   */\n      0x4e487b7100000000000000000000000000000000000000000000000000000000\n        /* \"#utility.yul\":24217:24218   */\n      0x00\n        /* \"#utility.yul\":24210:24298   */\n      mstore\n        /* \"#utility.yul\":24317:24321   */\n      0x22\n        /* \"#utility.yul\":24314:24315   */\n      0x04\n        /* \"#utility.yul\":24307:24322   */\n      mstore\n        /* \"#utility.yul\":24341:24345   */\n      0x24\n        /* \"#utility.yul\":24338:24339   */\n      0x00\n        /* \"#utility.yul\":24331:24346   */\n      revert\n        /* \"#utility.yul\":24358:24538   */\n    tag_211:\n        /* \"#utility.yul\":24406:24483   */\n      0x4e487b7100000000000000000000000000000000000000000000000000000000\n        /* \"#utility.yul\":24403:24404   */\n      0x00\n        /* \"#utility.yul\":24396:24484   */\n      mstore\n        /* \"#utility.yul\":24503:24507   */\n      0x32\n        /* \"#utility.yul\":24500:24501   */\n      0x04\n        /* \"#utility.yul\":24493:24508   */\n      mstore\n        /* \"#utility.yul\":24527:24531   */\n      0x24\n        /* \"#utility.yul\":24524:24525   */\n      0x00\n        /* \"#utility.yul\":24517:24532   */\n      revert\n        /* \"#utility.yul\":24544:24724   */\n    tag_201:\n        /* \"#utility.yul\":24592:24669   */\n      0x4e487b7100000000000000000000000000000000000000000000000000000000\n        /* \"#utility.yul\":24589:24590   */\n      0x00\n        /* \"#utility.yul\":24582:24670   */\n      mstore\n        /* \"#utility.yul\":24689:24693   */\n      0x41\n        /* \"#utility.yul\":24686:24687   */\n      0x04\n        /* \"#utility.yul\":24679:24694   */\n      mstore\n        /* \"#utility.yul\":24713:24717   */\n      0x24\n        /* \"#utility.yul\":24710:24711   */\n      0x00\n        /* \"#utility.yul\":24703:24718   */\n      revert\n        /* \"#utility.yul\":24730:24847   */\n    tag_257:\n        /* \"#utility.yul\":24839:24840   */\n      0x00\n        /* \"#utility.yul\":24836:24837   */\n      dup1\n        /* \"#utility.yul\":24829:24841   */\n      revert\n        /* \"#utility.yul\":24853:24970   */\n    tag_235:\n        /* \"#utility.yul\":24962:24963   */\n      0x00\n        /* \"#utility.yul\":24959:24960   */\n      dup1\n        /* \"#utility.yul\":24952:24964   */\n      revert\n        /* \"#utility.yul\":24976:25093   */\n    tag_287:\n        /* \"#utility.yul\":25085:25086   */\n      0x00\n        /* \"#utility.yul\":25082:25083   */\n      dup1\n        /* \"#utility.yul\":25075:25087   */\n      revert\n        /* \"#utility.yul\":25099:25216   */\n    tag_266:\n        /* \"#utility.yul\":25208:25209   */\n      0x00\n        /* \"#utility.yul\":25205:25206   */\n      dup1\n        /* \"#utility.yul\":25198:25210   */\n      revert\n        /* \"#utility.yul\":25222:25324   */\n    tag_328:\n        /* \"#utility.yul\":25263:25269   */\n      0x00\n        /* \"#utility.yul\":25314:25316   */\n      0x1f\n        /* \"#utility.yul\":25310:25317   */\n      not\n        /* \"#utility.yul\":25305:25307   */\n      0x1f\n        /* \"#utility.yul\":25298:25303   */\n      dup4\n        /* \"#utility.yul\":25294:25308   */\n      add\n        /* \"#utility.yul\":25290:25318   */\n      and\n        /* \"#utility.yul\":25280:25318   */\n      swap1\n      pop\n        /* \"#utility.yul\":25222:25324   */\n      swap2\n      swap1\n      pop\n      jump\t// out\n        /* \"#utility.yul\":25330:25500   */\n    tag_347:\n        /* \"#utility.yul\":25470:25492   */\n      0x746f6b656e4964206f7574206f662072616e6765000000000000000000000000\n        /* \"#utility.yul\":25466:25467   */\n      0x00\n        /* \"#utility.yul\":25458:25464   */\n      dup3\n        /* \"#utility.yul\":25454:25468   */\n      add\n        /* \"#utility.yul\":25447:25493   */\n      mstore\n        /* \"#utility.yul\":25330:25500   */\n      pop\n      jump\t// out\n        /* \"#utility.yul\":25506:25677   */\n    tag_352:\n        /* \"#utility.yul\":25646:25669   */\n      0x6e6f74206f776e6572206f7220617070726f7665640000000000000000000000\n        /* \"#utility.yul\":25642:25643   */\n      0x00\n        /* \"#utility.yul\":25634:25640   */\n      dup3\n        /* \"#utility.yul\":25630:25644   */\n      add\n        /* \"#utility.yul\":25623:25670   */\n      mstore\n        /* \"#utility.yul\":25506:25677   */\n      pop\n      jump\t// out\n        /* \"#utility.yul\":25683:25861   */\n    tag_357:\n        /* \"#utility.yul\":25823:25853   */\n      0x7472616e7366657220746f20746865207a65726f206164647265737300000000\n        /* \"#utility.yul\":25819:25820   */\n      0x00\n        /* \"#utility.yul\":25811:25817   */\n      dup3\n        /* \"#utility.yul\":25807:25821   */\n      add\n        /* \"#utility.yul\":25800:25854   */\n      mstore\n        /* \"#utility.yul\":25683:25861   */\n      pop\n      jump\t// out\n        /* \"#utility.yul\":25867:26047   */\n    tag_362:\n        /* \"#utility.yul\":26007:26039   */\n      0x616464726573732063616e2774206265207a65726f2061646472657373210000\n        /* \"#utility.yul\":26003:26004   */\n      0x00\n        /* \"#utility.yul\":25995:26001   */\n      dup3\n        /* \"#utility.yul\":25991:26005   */\n      add\n        /* \"#utility.yul\":25984:26040   */\n      mstore\n        /* \"#utility.yul\":25867:26047   */\n      pop\n      jump\t// out\n        /* \"#utility.yul\":26053:26224   */\n    tag_367:\n        /* \"#utility.yul\":26193:26216   */\n      0x6f776e6572206973207a65726f20616464726573730000000000000000000000\n        /* \"#utility.yul\":26189:26190   */\n      0x00\n        /* \"#utility.yul\":26181:26187   */\n      dup3\n        /* \"#utility.yul\":26177:26191   */\n      add\n        /* \"#utility.yul\":26170:26217   */\n      mstore\n        /* \"#utility.yul\":26053:26224   */\n      pop\n      jump\t// out\n        /* \"#utility.yul\":26230:26401   */\n    tag_372:\n        /* \"#utility.yul\":26370:26393   */\n      0x746f6b656e2020646f65736e2774206578697374210000000000000000000000\n        /* \"#utility.yul\":26366:26367   */\n      0x00\n        /* \"#utility.yul\":26358:26364   */\n      dup3\n        /* \"#utility.yul\":26354:26368   */\n      add\n        /* \"#utility.yul\":26347:26394   */\n      mstore\n        /* \"#utility.yul\":26230:26401   */\n      pop\n      jump\t// out\n        /* \"#utility.yul\":26407:26587   */\n    tag_377:\n        /* \"#utility.yul\":26547:26579   */\n      0x6e6f74206f776e6572206e6f7220617070726f76656420666f7220616c6c0000\n        /* \"#utility.yul\":26543:26544   */\n      0x00\n        /* \"#utility.yul\":26535:26541   */\n      dup3\n        /* \"#utility.yul\":26531:26545   */\n      add\n        /* \"#utility.yul\":26524:26580   */\n      mstore\n        /* \"#utility.yul\":26407:26587   */\n      pop\n      jump\t// out\n        /* \"#utility.yul\":26593:26762   */\n    tag_382:\n        /* \"#utility.yul\":26733:26754   */\n      0x746f6b656e20646f65736e277420657869737400000000000000000000000000\n        /* \"#utility.yul\":26729:26730   */\n      0x00\n        /* \"#utility.yul\":26721:26727   */\n      dup3\n        /* \"#utility.yul\":26717:26731   */\n      add\n        /* \"#utility.yul\":26710:26755   */\n      mstore\n        /* \"#utility.yul\":26593:26762   */\n      pop\n      jump\t// out\n        /* \"#utility.yul\":26768:26939   */\n    tag_387:\n        /* \"#utility.yul\":26908:26931   */\n      0x746f6b656e20646f65736e277420617070726f76650000000000000000000000\n        /* \"#utility.yul\":26904:26905   */\n      0x00\n        /* \"#utility.yul\":26896:26902   */\n      dup3\n        /* \"#utility.yul\":26892:26906   */\n      add\n        /* \"#utility.yul\":26885:26932   */\n      mstore\n        /* \"#utility.yul\":26768:26939   */\n      pop\n      jump\t// out\n        /* \"#utility.yul\":26945:27110   */\n    tag_392:\n        /* \"#utility.yul\":27085:27102   */\n      0x546f6b656e204e6f742045786973740000000000000000000000000000000000\n        /* \"#utility.yul\":27081:27082   */\n      0x00\n        /* \"#utility.yul\":27073:27079   */\n      dup3\n        /* \"#utility.yul\":27069:27083   */\n      add\n        /* \"#utility.yul\":27062:27103   */\n      mstore\n        /* \"#utility.yul\":26945:27110   */\n      pop\n      jump\t// out\n        /* \"#utility.yul\":27116:27286   */\n    tag_397:\n        /* \"#utility.yul\":27256:27278   */\n      0x746f6b656e20616c7265616479206d696e746564000000000000000000000000\n        /* \"#utility.yul\":27252:27253   */\n      0x00\n        /* \"#utility.yul\":27244:27250   */\n      dup3\n        /* \"#utility.yul\":27240:27254   */\n      add\n        /* \"#utility.yul\":27233:27279   */\n      mstore\n        /* \"#utility.yul\":27116:27286   */\n      pop\n      jump\t// out\n        /* \"#utility.yul\":27292:27460   */\n    tag_402:\n        /* \"#utility.yul\":27432:27452   */\n      0x6e6f742045524337323152656365697665720000000000000000000000000000\n        /* \"#utility.yul\":27428:27429   */\n      0x00\n        /* \"#utility.yul\":27420:27426   */\n      dup3\n        /* \"#utility.yul\":27416:27430   */\n      add\n        /* \"#utility.yul\":27409:27453   */\n      mstore\n        /* \"#utility.yul\":27292:27460   */\n      pop\n      jump\t// out\n        /* \"#utility.yul\":27466:27625   */\n    tag_407:\n        /* \"#utility.yul\":27606:27617   */\n      0x6e6f74206f776e65720000000000000000000000000000000000000000000000\n        /* \"#utility.yul\":27602:27603   */\n      0x00\n        /* \"#utility.yul\":27594:27600   */\n      dup3\n        /* \"#utility.yul\":27590:27604   */\n      add\n        /* \"#utility.yul\":27583:27618   */\n      mstore\n        /* \"#utility.yul\":27466:27625   */\n      pop\n      jump\t// out\n        /* \"#utility.yul\":27631:27753   */\n    tag_241:\n        /* \"#utility.yul\":27704:27728   */\n      tag_542\n        /* \"#utility.yul\":27722:27727   */\n      dup2\n        /* \"#utility.yul\":27704:27728   */\n      tag_314\n      jump\t// in\n    tag_542:\n        /* \"#utility.yul\":27697:27702   */\n      dup2\n        /* \"#utility.yul\":27694:27729   */\n      eq\n        /* \"#utility.yul\":27684:27747   */\n      tag_543\n      jumpi\n        /* \"#utility.yul\":27743:27744   */\n      0x00\n        /* \"#utility.yul\":27740:27741   */\n      dup1\n        /* \"#utility.yul\":27733:27745   */\n      revert\n        /* \"#utility.yul\":27684:27747   */\n    tag_543:\n        /* \"#utility.yul\":27631:27753   */\n      pop\n      jump\t// out\n        /* \"#utility.yul\":27759:27875   */\n    tag_245:\n        /* \"#utility.yul\":27829:27850   */\n      tag_545\n        /* \"#utility.yul\":27844:27849   */\n      dup2\n        /* \"#utility.yul\":27829:27850   */\n      tag_318\n      jump\t// in\n    tag_545:\n        /* \"#utility.yul\":27822:27827   */\n      dup2\n        /* \"#utility.yul\":27819:27851   */\n      eq\n        /* \"#utility.yul\":27809:27869   */\n      tag_546\n      jumpi\n        /* \"#utility.yul\":27865:27866   */\n      0x00\n        /* \"#utility.yul\":27862:27863   */\n      dup1\n        /* \"#utility.yul\":27855:27867   */\n      revert\n        /* \"#utility.yul\":27809:27869   */\n    tag_546:\n        /* \"#utility.yul\":27759:27875   */\n      pop\n      jump\t// out\n        /* \"#utility.yul\":27881:28001   */\n    tag_249:\n        /* \"#utility.yul\":27953:27976   */\n      tag_548\n        /* \"#utility.yul\":27970:27975   */\n      dup2\n        /* \"#utility.yul\":27953:27976   */\n      tag_490\n      jump\t// in\n    tag_548:\n        /* \"#utility.yul\":27946:27951   */\n      dup2\n        /* \"#utility.yul\":27943:27977   */\n      eq\n        /* \"#utility.yul\":27933:27995   */\n      tag_549\n      jumpi\n        /* \"#utility.yul\":27991:27992   */\n      0x00\n        /* \"#utility.yul\":27988:27989   */\n      dup1\n        /* \"#utility.yul\":27981:27993   */\n      revert\n        /* \"#utility.yul\":27933:27995   */\n    tag_549:\n        /* \"#utility.yul\":27881:28001   */\n      pop\n      jump\t// out\n        /* \"#utility.yul\":28007:28129   */\n    tag_262:\n        /* \"#utility.yul\":28080:28104   */\n      tag_551\n        /* \"#utility.yul\":28098:28103   */\n      dup2\n        /* \"#utility.yul\":28080:28104   */\n      tag_411\n      jump\t// in\n    tag_551:\n        /* \"#utility.yul\":28073:28078   */\n      dup2\n        /* \"#utility.yul\":28070:28105   */\n      eq\n        /* \"#utility.yul\":28060:28123   */\n      tag_552\n      jumpi\n        /* \"#utility.yul\":28119:28120   */\n      0x00\n        /* \"#utility.yul\":28116:28117   */\n      dup1\n        /* \"#utility.yul\":28109:28121   */\n      revert\n        /* \"#utility.yul\":28060:28123   */\n    tag_552:\n        /* \"#utility.yul\":28007:28129   */\n      pop\n      jump\t// out\n    stop\n    data_8382b382247cd07401a2ef2f394137c3f3b0972798bae0a9c78b0c261acbb56b 697066733a2f2f516d65536a53696e4870506e6d586d73704d6a776958794e367a533445397a63636172694752336a7863615774712f\n\n    auxdata: 0xa2646970667358221220bd1aa578d6fda54844ac5f3e84e7f9ef3c3efe67c72342db089781f79f5939e464736f6c63430008070033\n}\n",
				"bytecode": {
					"linkReferences": {},
					"object": "60806040526127106006553480156200001757600080fd5b50604051620029da380380620029da83398181016040528101906200003d9190620001a9565b81818160009080519060200190620000579291906200007b565b508060019080519060200190620000709291906200007b565b5050505050620003b2565b8280546200008990620002c3565b90600052602060002090601f016020900481019282620000ad5760008555620000f9565b82601f10620000c857805160ff1916838001178555620000f9565b82800160010185558215620000f9579182015b82811115620000f8578251825591602001919060010190620000db565b5b5090506200010891906200010c565b5090565b5b80821115620001275760008160009055506001016200010d565b5090565b6000620001426200013c8462000257565b6200022e565b90508281526020810184848401111562000161576200016062000392565b5b6200016e8482856200028d565b509392505050565b600082601f8301126200018e576200018d6200038d565b5b8151620001a08482602086016200012b565b91505092915050565b60008060408385031215620001c357620001c26200039c565b5b600083015167ffffffffffffffff811115620001e457620001e362000397565b5b620001f28582860162000176565b925050602083015167ffffffffffffffff81111562000216576200021562000397565b5b620002248582860162000176565b9150509250929050565b60006200023a6200024d565b9050620002488282620002f9565b919050565b6000604051905090565b600067ffffffffffffffff8211156200027557620002746200035e565b5b6200028082620003a1565b9050602081019050919050565b60005b83811015620002ad57808201518184015260208101905062000290565b83811115620002bd576000848401525b50505050565b60006002820490506001821680620002dc57607f821691505b60208210811415620002f357620002f26200032f565b5b50919050565b6200030482620003a1565b810181811067ffffffffffffffff821117156200032657620003256200035e565b5b80604052505050565b7f4e487b7100000000000000000000000000000000000000000000000000000000600052602260045260246000fd5b7f4e487b7100000000000000000000000000000000000000000000000000000000600052604160045260246000fd5b600080fd5b600080fd5b600080fd5b600080fd5b6000601f19601f8301169050919050565b61261880620003c26000396000f3fe608060405234801561001057600080fd5b50600436106100f55760003560e01c80636352211e11610097578063b88d4fde11610066578063b88d4fde14610282578063bb8a16bd1461029e578063c87b56dd146102bc578063e985e9c5146102ec576100f5565b80636352211e146101e857806370a082311461021857806395d89b4114610248578063a22cb46514610266576100f5565b8063095ea7b3116100d3578063095ea7b31461017857806323b872dd1461019457806340c10f19146101b057806342842e0e146101cc576100f5565b806301ffc9a7146100fa57806306fdde031461012a578063081812fc14610148575b600080fd5b610114600480360381019061010f91906119a3565b61031c565b6040516101219190611d4c565b60405180910390f35b610132610456565b60405161013f9190611d67565b60405180910390f35b610162600480360381019061015d91906119fd565b6104e4565b60405161016f9190611ce5565b60405180910390f35b610192600480360381019061018d9190611963565b610666565b005b6101ae60048036038101906101a9919061184d565b6107ad565b005b6101ca60048036038101906101c59190611963565b610841565b005b6101e660048036038101906101e1919061184d565b6108a0565b005b61020260048036038101906101fd91906119fd565b6108c0565b60405161020f9190611ce5565b60405180910390f35b610232600480360381019061022d91906117e0565b61096d565b60405161023f9190611f29565b60405180910390f35b610250610a25565b60405161025d9190611d67565b60405180910390f35b610280600480360381019061027b9190611923565b610ab3565b005b61029c600480360381019061029791906118a0565b610bb0565b005b6102a6610c1b565b6040516102b39190611f29565b60405180910390f35b6102d660048036038101906102d191906119fd565b610c21565b6040516102e39190611d67565b60405180910390f35b6103066004803603810190610301919061180d565b610d23565b6040516103139190611d4c565b60405180910390f35b60007f80ac58cd000000000000000000000000000000000000000000000000000000007bffffffffffffffffffffffffffffffffffffffffffffffffffffffff1916827bffffffffffffffffffffffffffffffffffffffffffffffffffffffff191614806103e757507f01ffc9a7000000000000000000000000000000000000000000000000000000007bffffffffffffffffffffffffffffffffffffffffffffffffffffffff1916827bffffffffffffffffffffffffffffffffffffffffffffffffffffffff1916145b8061044f57507f5b5e139f000000000000000000000000000000000000000000000000000000007bffffffffffffffffffffffffffffffffffffffffffffffffffffffff1916827bffffffffffffffffffffffffffffffffffffffffffffffffffffffff1916145b9050919050565b600080546104639061214e565b80601f016020809104026020016040519081016040528092919081815260200182805461048f9061214e565b80156104dc5780601f106104b1576101008083540402835291602001916104dc565b820191906000526020600020905b8154815290600101906020018083116104bf57829003601f168201915b505050505081565b60008073ffffffffffffffffffffffffffffffffffffffff166002600084815260200190815260200160002060009054906101000a900473ffffffffffffffffffffffffffffffffffffffff1673ffffffffffffffffffffffffffffffffffffffff161415610588576040517f08c379a000000000000000000000000000000000000000000000000000000000815260040161057f90611e29565b60405180910390fd5b600073ffffffffffffffffffffffffffffffffffffffff166004600084815260200190815260200160002060009054906101000a900473ffffffffffffffffffffffffffffffffffffffff1673ffffffffffffffffffffffffffffffffffffffff16141561062b576040517f08c379a000000000000000000000000000000000000000000000000000000000815260040161062290611e89565b60405180910390fd5b6004600083815260200190815260200160002060009054906101000a900473ffffffffffffffffffffffffffffffffffffffff169050919050565b60006002600083815260200190815260200160002060009054906101000a900473ffffffffffffffffffffffffffffffffffffffff1690508073ffffffffffffffffffffffffffffffffffffffff163373ffffffffffffffffffffffffffffffffffffffff16148061075e5750600560008273ffffffffffffffffffffffffffffffffffffffff1673ffffffffffffffffffffffffffffffffffffffff16815260200190815260200160002060003373ffffffffffffffffffffffffffffffffffffffff1673ffffffffffffffffffffffffffffffffffffffff16815260200190815260200160002060009054906101000a900460ff165b61079d576040517f08c379a000000000000000000000000000000000000000000000000000000000815260040161079490611e49565b60405180910390fd5b6107a8818484610db7565b505050565b60006002600083815260200190815260200160002060009054906101000a900473ffffffffffffffffffffffffffffffffffffffff1690506107f0813384610e69565b61082f576040517f08c379a000000000000000000000000000000000000000000000000000000000815260040161082690611da9565b60405180910390fd5b61083b81858585610f9d565b50505050565b60008110158015610853575060065481105b610892576040517f08c379a000000000000000000000000000000000000000000000000000000000815260040161088990611d89565b60405180910390fd5b61089c82826111e8565b5050565b6108bb83838360405180602001604052806000815250610bb0565b505050565b60006002600083815260200190815260200160002060009054906101000a900473ffffffffffffffffffffffffffffffffffffffff169050600073ffffffffffffffffffffffffffffffffffffffff168173ffffffffffffffffffffffffffffffffffffffff161415610968576040517f08c379a000000000000000000000000000000000000000000000000000000000815260040161095f90611e69565b60405180910390fd5b919050565b60008073ffffffffffffffffffffffffffffffffffffffff168273ffffffffffffffffffffffffffffffffffffffff1614156109de576040517f08c379a00000000000000000000000000000000000000000000000000000000081526004016109d590611e09565b60405180910390fd5b600360008373ffffffffffffffffffffffffffffffffffffffff1673ffffffffffffffffffffffffffffffffffffffff168152602001908152602001600020549050919050565b60018054610a329061214e565b80601f0160208091040260200160405190810160405280929190818152602001828054610a5e9061214e565b8015610aab5780601f10610a8057610100808354040283529160200191610aab565b820191906000526020600020905b815481529060010190602001808311610a8e57829003601f168201915b505050505081565b80600560003373ffffffffffffffffffffffffffffffffffffffff1673ffffffffffffffffffffffffffffffffffffffff16815260200190815260200160002060008473ffffffffffffffffffffffffffffffffffffffff1673ffffffffffffffffffffffffffffffffffffffff16815260200190815260200160002060006101000a81548160ff0219169083151502179055508173ffffffffffffffffffffffffffffffffffffffff163373ffffffffffffffffffffffffffffffffffffffff167f17307eab39ab6107e8899845ad3d59bd9653f200f220920489ca2b5937696c3183604051610ba49190611d4c565b60405180910390a35050565b6000610bbb836108c0565b9050610bc8818685610e69565b610c07576040517f08c379a0000000000000000000000000000000000000000000000000000000008152600401610bfe90611da9565b60405180910390fd5b610c148186868686611403565b5050505050565b60065481565b6060600073ffffffffffffffffffffffffffffffffffffffff166002600084815260200190815260200160002060009054906101000a900473ffffffffffffffffffffffffffffffffffffffff1673ffffffffffffffffffffffffffffffffffffffff161415610cc6576040517f08c379a0000000000000000000000000000000000000000000000000000000008152600401610cbd90611ea9565b60405180910390fd5b6000610cd0611461565b90506000815111610cf05760405180602001604052806000815250610d1b565b80610cfa84611481565b604051602001610d0b929190611cc1565b6040516020818303038152906040525b915050919050565b6000600560008473ffffffffffffffffffffffffffffffffffffffff1673ffffffffffffffffffffffffffffffffffffffff16815260200190815260200160002060008373ffffffffffffffffffffffffffffffffffffffff1673ffffffffffffffffffffffffffffffffffffffff16815260200190815260200160002060009054906101000a900460ff16905092915050565b816004600083815260200190815260200160002060006101000a81548173ffffffffffffffffffffffffffffffffffffffff021916908373ffffffffffffffffffffffffffffffffffffffff160217905550808273ffffffffffffffffffffffffffffffffffffffff168473ffffffffffffffffffffffffffffffffffffffff167f8c5be1e5ebec7d5bd14f71427d1e84f3dd0314c0f7b2291e5b200ac8c7c3b92560405160405180910390a4505050565b60008373ffffffffffffffffffffffffffffffffffffffff168373ffffffffffffffffffffffffffffffffffffffff161480610f0357508273ffffffffffffffffffffffffffffffffffffffff166004600084815260200190815260200160002060009054906101000a900473ffffffffffffffffffffffffffffffffffffffff1673ffffffffffffffffffffffffffffffffffffffff16145b80610f945750600560008573ffffffffffffffffffffffffffffffffffffffff1673ffffffffffffffffffffffffffffffffffffffff16815260200190815260200160002060008473ffffffffffffffffffffffffffffffffffffffff1673ffffffffffffffffffffffffffffffffffffffff16815260200190815260200160002060009054906101000a900460ff165b90509392505050565b8373ffffffffffffffffffffffffffffffffffffffff168373ffffffffffffffffffffffffffffffffffffffff161461100b576040517f08c379a000000000000000000000000000000000000000000000000000000000815260040161100290611f09565b60405180910390fd5b600073ffffffffffffffffffffffffffffffffffffffff168273ffffffffffffffffffffffffffffffffffffffff16141561107b576040517f08c379a000000000000000000000000000000000000000000000000000000000815260040161107290611dc9565b60405180910390fd5b61108784600083610db7565b6001600360008673ffffffffffffffffffffffffffffffffffffffff1673ffffffffffffffffffffffffffffffffffffffff16815260200190815260200160002060008282546110d79190612064565b925050819055506001600360008473ffffffffffffffffffffffffffffffffffffffff1673ffffffffffffffffffffffffffffffffffffffff168152602001908152602001600020600082825461112e9190611fdd565b92505081905550816002600083815260200190815260200160002060006101000a81548173ffffffffffffffffffffffffffffffffffffffff021916908373ffffffffffffffffffffffffffffffffffffffff160217905550808273ffffffffffffffffffffffffffffffffffffffff168473ffffffffffffffffffffffffffffffffffffffff167fddf252ad1be2c89b69c2b068fc378daa952ba7f163c4a11628f55a4df523b3ef60405160405180910390a450505050565b600073ffffffffffffffffffffffffffffffffffffffff168273ffffffffffffffffffffffffffffffffffffffff161415611258576040517f08c379a000000000000000000000000000000000000000000000000000000000815260040161124f90611de9565b60405180910390fd5b600073ffffffffffffffffffffffffffffffffffffffff166002600083815260200190815260200160002060009054906101000a900473ffffffffffffffffffffffffffffffffffffffff1673ffffffffffffffffffffffffffffffffffffffff16146112fa576040517f08c379a00000000000000000000000000000000000000000000000000000000081526004016112f190611ec9565b60405180910390fd5b6001600360008473ffffffffffffffffffffffffffffffffffffffff1673ffffffffffffffffffffffffffffffffffffffff168152602001908152602001600020600082825461134a9190611fdd565b92505081905550816002600083815260200190815260200160002060006101000a81548173ffffffffffffffffffffffffffffffffffffffff021916908373ffffffffffffffffffffffffffffffffffffffff160217905550808273ffffffffffffffffffffffffffffffffffffffff16600073ffffffffffffffffffffffffffffffffffffffff167fddf252ad1be2c89b69c2b068fc378daa952ba7f163c4a11628f55a4df523b3ef60405160405180910390a45050565b61140f85858585610f9d565b61141b848484846115e2565b61145a576040517f08c379a000000000000000000000000000000000000000000000000000000000815260040161145190611ee9565b60405180910390fd5b5050505050565b60606040518060600160405280603681526020016125ad60369139905090565b606060008214156114c9576040518060400160405280600181526020017f300000000000000000000000000000000000000000000000000000000000000081525090506115dd565b600082905060005b600082146114fb5780806114e4906121b1565b915050600a826114f49190612033565b91506114d1565b60008167ffffffffffffffff811115611517576115166122e7565b5b6040519080825280601f01601f1916602001820160405280156115495781602001600182028036833780820191505090505b5090505b600085146115d6576001826115629190612064565b9150600a8561157191906121fa565b603061157d9190611fdd565b60f81b818381518110611593576115926122b8565b5b60200101907effffffffffffffffffffffffffffffffffffffffffffffffffffffffffffff1916908160001a905350600a856115cf9190612033565b945061154d565b8093505050505b919050565b60006116038473ffffffffffffffffffffffffffffffffffffffff166116f4565b156116e75763150b7a0260e01b7bffffffffffffffffffffffffffffffffffffffffffffffffffffffff19168473ffffffffffffffffffffffffffffffffffffffff1663150b7a02338887876040518563ffffffff1660e01b815260040161166e9493929190611d00565b602060405180830381600087803b15801561168857600080fd5b505af115801561169c573d6000803e3d6000fd5b505050506040513d601f19601f820116820180604052508101906116c091906119d0565b7bffffffffffffffffffffffffffffffffffffffffffffffffffffffff19161490506116ec565b600190505b949350505050565b600080823b905060008111915050919050565b600061171a61171584611f69565b611f44565b9050828152602081018484840111156117365761173561231b565b5b61174184828561210c565b509392505050565b60008135905061175881612550565b92915050565b60008135905061176d81612567565b92915050565b6000813590506117828161257e565b92915050565b6000815190506117978161257e565b92915050565b600082601f8301126117b2576117b1612316565b5b81356117c2848260208601611707565b91505092915050565b6000813590506117da81612595565b92915050565b6000602082840312156117f6576117f5612325565b5b600061180484828501611749565b91505092915050565b6000806040838503121561182457611823612325565b5b600061183285828601611749565b925050602061184385828601611749565b9150509250929050565b60008060006060848603121561186657611865612325565b5b600061187486828701611749565b935050602061188586828701611749565b9250506040611896868287016117cb565b9150509250925092565b600080600080608085870312156118ba576118b9612325565b5b60006118c887828801611749565b94505060206118d987828801611749565b93505060406118ea878288016117cb565b925050606085013567ffffffffffffffff81111561190b5761190a612320565b5b6119178782880161179d565b91505092959194509250565b6000806040838503121561193a57611939612325565b5b600061194885828601611749565b92505060206119598582860161175e565b9150509250929050565b6000806040838503121561197a57611979612325565b5b600061198885828601611749565b9250506020611999858286016117cb565b9150509250929050565b6000602082840312156119b9576119b8612325565b5b60006119c784828501611773565b91505092915050565b6000602082840312156119e6576119e5612325565b5b60006119f484828501611788565b91505092915050565b600060208284031215611a1357611a12612325565b5b6000611a21848285016117cb565b91505092915050565b611a3381612098565b82525050565b611a42816120aa565b82525050565b6000611a5382611f9a565b611a5d8185611fb0565b9350611a6d81856020860161211b565b611a768161232a565b840191505092915050565b6000611a8c82611fa5565b611a968185611fc1565b9350611aa681856020860161211b565b611aaf8161232a565b840191505092915050565b6000611ac582611fa5565b611acf8185611fd2565b9350611adf81856020860161211b565b80840191505092915050565b6000611af8601483611fc1565b9150611b038261233b565b602082019050919050565b6000611b1b601583611fc1565b9150611b2682612364565b602082019050919050565b6000611b3e601c83611fc1565b9150611b498261238d565b602082019050919050565b6000611b61601e83611fc1565b9150611b6c826123b6565b602082019050919050565b6000611b84601583611fc1565b9150611b8f826123df565b602082019050919050565b6000611ba7601583611fc1565b9150611bb282612408565b602082019050919050565b6000611bca601e83611fc1565b9150611bd582612431565b602082019050919050565b6000611bed601383611fc1565b9150611bf88261245a565b602082019050919050565b6000611c10601583611fc1565b9150611c1b82612483565b602082019050919050565b6000611c33600f83611fc1565b9150611c3e826124ac565b602082019050919050565b6000611c56601483611fc1565b9150611c61826124d5565b602082019050919050565b6000611c79601283611fc1565b9150611c84826124fe565b602082019050919050565b6000611c9c600983611fc1565b9150611ca782612527565b602082019050919050565b611cbb81612102565b82525050565b6000611ccd8285611aba565b9150611cd98284611aba565b91508190509392505050565b6000602082019050611cfa6000830184611a2a565b92915050565b6000608082019050611d156000830187611a2a565b611d226020830186611a2a565b611d2f6040830185611cb2565b8181036060830152611d418184611a48565b905095945050505050565b6000602082019050611d616000830184611a39565b92915050565b60006020820190508181036000830152611d818184611a81565b905092915050565b60006020820190508181036000830152611da281611aeb565b9050919050565b60006020820190508181036000830152611dc281611b0e565b9050919050565b60006020820190508181036000830152611de281611b31565b9050919050565b60006020820190508181036000830152611e0281611b54565b9050919050565b60006020820190508181036000830152611e2281611b77565b9050919050565b60006020820190508181036000830152611e4281611b9a565b9050919050565b60006020820190508181036000830152611e6281611bbd565b9050919050565b60006020820190508181036000830152611e8281611be0565b9050919050565b60006020820190508181036000830152611ea281611c03565b9050919050565b60006020820190508181036000830152611ec281611c26565b9050919050565b60006020820190508181036000830152611ee281611c49565b9050919050565b60006020820190508181036000830152611f0281611c6c565b9050919050565b60006020820190508181036000830152611f2281611c8f565b9050919050565b6000602082019050611f3e6000830184611cb2565b92915050565b6000611f4e611f5f565b9050611f5a8282612180565b919050565b6000604051905090565b600067ffffffffffffffff821115611f8457611f836122e7565b5b611f8d8261232a565b9050602081019050919050565b600081519050919050565b600081519050919050565b600082825260208201905092915050565b600082825260208201905092915050565b600081905092915050565b6000611fe882612102565b9150611ff383612102565b9250827fffffffffffffffffffffffffffffffffffffffffffffffffffffffffffffffff038211156120285761202761222b565b5b828201905092915050565b600061203e82612102565b915061204983612102565b9250826120595761205861225a565b5b828204905092915050565b600061206f82612102565b915061207a83612102565b92508282101561208d5761208c61222b565b5b828203905092915050565b60006120a3826120e2565b9050919050565b60008115159050919050565b60007fffffffff0000000000000000000000000000000000000000000000000000000082169050919050565b600073ffffffffffffffffffffffffffffffffffffffff82169050919050565b6000819050919050565b82818337600083830152505050565b60005b8381101561213957808201518184015260208101905061211e565b83811115612148576000848401525b50505050565b6000600282049050600182168061216657607f821691505b6020821081141561217a57612179612289565b5b50919050565b6121898261232a565b810181811067ffffffffffffffff821117156121a8576121a76122e7565b5b80604052505050565b60006121bc82612102565b91507fffffffffffffffffffffffffffffffffffffffffffffffffffffffffffffffff8214156121ef576121ee61222b565b5b600182019050919050565b600061220582612102565b915061221083612102565b9250826122205761221f61225a565b5b828206905092915050565b7f4e487b7100000000000000000000000000000000000000000000000000000000600052601160045260246000fd5b7f4e487b7100000000000000000000000000000000000000000000000000000000600052601260045260246000fd5b7f4e487b7100000000000000000000000000000000000000000000000000000000600052602260045260246000fd5b7f4e487b7100000000000000000000000000000000000000000000000000000000600052603260045260246000fd5b7f4e487b7100000000000000000000000000000000000000000000000000000000600052604160045260246000fd5b600080fd5b600080fd5b600080fd5b600080fd5b6000601f19601f8301169050919050565b7f746f6b656e4964206f7574206f662072616e6765000000000000000000000000600082015250565b7f6e6f74206f776e6572206f7220617070726f7665640000000000000000000000600082015250565b7f7472616e7366657220746f20746865207a65726f206164647265737300000000600082015250565b7f616464726573732063616e2774206265207a65726f2061646472657373210000600082015250565b7f6f776e6572206973207a65726f20616464726573730000000000000000000000600082015250565b7f746f6b656e2020646f65736e2774206578697374210000000000000000000000600082015250565b7f6e6f74206f776e6572206e6f7220617070726f76656420666f7220616c6c0000600082015250565b7f746f6b656e20646f65736e277420657869737400000000000000000000000000600082015250565b7f746f6b656e20646f65736e277420617070726f76650000000000000000000000600082015250565b7f546f6b656e204e6f742045786973740000000000000000000000000000000000600082015250565b7f746f6b656e20616c7265616479206d696e746564000000000000000000000000600082015250565b7f6e6f742045524337323152656365697665720000000000000000000000000000600082015250565b7f6e6f74206f776e65720000000000000000000000000000000000000000000000600082015250565b61255981612098565b811461256457600080fd5b50565b612570816120aa565b811461257b57600080fd5b50565b612587816120b6565b811461259257600080fd5b50565b61259e81612102565b81146125a957600080fd5b5056fe697066733a2f2f516d65536a53696e4870506e6d586d73704d6a776958794e367a533445397a63636172694752336a7863615774712fa2646970667358221220bd1aa578d6fda54844ac5f3e84e7f9ef3c3efe67c72342db089781f79f5939e464736f6c63430008070033",
					"opcodes": "PUSH1 0x80 PUSH1 0x40 MSTORE PUSH2 0x2710 PUSH1 0x6 SSTORE CALLVALUE DUP1 ISZERO PUSH3 0x17 JUMPI PUSH1 0x0 DUP1 REVERT JUMPDEST POP PUSH1 0x40 MLOAD PUSH3 0x29DA CODESIZE SUB DUP1 PUSH3 0x29DA DUP4 CODECOPY DUP2 DUP2 ADD PUSH1 0x40 MSTORE DUP2 ADD SWAP1 PUSH3 0x3D SWAP2 SWAP1 PUSH3 0x1A9 JUMP JUMPDEST DUP2 DUP2 DUP2 PUSH1 0x0 SWAP1 DUP1 MLOAD SWAP1 PUSH1 0x20 ADD SWAP1 PUSH3 0x57 SWAP3 SWAP2 SWAP1 PUSH3 0x7B JUMP JUMPDEST POP DUP1 PUSH1 0x1 SWAP1 DUP1 MLOAD SWAP1 PUSH1 0x20 ADD SWAP1 PUSH3 0x70 SWAP3 SWAP2 SWAP1 PUSH3 0x7B JUMP JUMPDEST POP POP POP POP POP PUSH3 0x3B2 JUMP JUMPDEST DUP3 DUP1 SLOAD PUSH3 0x89 SWAP1 PUSH3 0x2C3 JUMP JUMPDEST SWAP1 PUSH1 0x0 MSTORE PUSH1 0x20 PUSH1 0x0 KECCAK256 SWAP1 PUSH1 0x1F ADD PUSH1 0x20 SWAP1 DIV DUP2 ADD SWAP3 DUP3 PUSH3 0xAD JUMPI PUSH1 0x0 DUP6 SSTORE PUSH3 0xF9 JUMP JUMPDEST DUP3 PUSH1 0x1F LT PUSH3 0xC8 JUMPI DUP1 MLOAD PUSH1 0xFF NOT AND DUP4 DUP1 ADD OR DUP6 SSTORE PUSH3 0xF9 JUMP JUMPDEST DUP3 DUP1 ADD PUSH1 0x1 ADD DUP6 SSTORE DUP3 ISZERO PUSH3 0xF9 JUMPI SWAP2 DUP3 ADD JUMPDEST DUP3 DUP2 GT ISZERO PUSH3 0xF8 JUMPI DUP3 MLOAD DUP3 SSTORE SWAP2 PUSH1 0x20 ADD SWAP2 SWAP1 PUSH1 0x1 ADD SWAP1 PUSH3 0xDB JUMP JUMPDEST JUMPDEST POP SWAP1 POP PUSH3 0x108 SWAP2 SWAP1 PUSH3 0x10C JUMP JUMPDEST POP SWAP1 JUMP JUMPDEST JUMPDEST DUP1 DUP3 GT ISZERO PUSH3 0x127 JUMPI PUSH1 0x0 DUP2 PUSH1 0x0 SWAP1 SSTORE POP PUSH1 0x1 ADD PUSH3 0x10D JUMP JUMPDEST POP SWAP1 JUMP JUMPDEST PUSH1 0x0 PUSH3 0x142 PUSH3 0x13C DUP5 PUSH3 0x257 JUMP JUMPDEST PUSH3 0x22E JUMP JUMPDEST SWAP1 POP DUP3 DUP2 MSTORE PUSH1 0x20 DUP2 ADD DUP5 DUP5 DUP5 ADD GT ISZERO PUSH3 0x161 JUMPI PUSH3 0x160 PUSH3 0x392 JUMP JUMPDEST JUMPDEST PUSH3 0x16E DUP5 DUP3 DUP6 PUSH3 0x28D JUMP JUMPDEST POP SWAP4 SWAP3 POP POP POP JUMP JUMPDEST PUSH1 0x0 DUP3 PUSH1 0x1F DUP4 ADD SLT PUSH3 0x18E JUMPI PUSH3 0x18D PUSH3 0x38D JUMP JUMPDEST JUMPDEST DUP2 MLOAD PUSH3 0x1A0 DUP5 DUP3 PUSH1 0x20 DUP7 ADD PUSH3 0x12B JUMP JUMPDEST SWAP2 POP POP SWAP3 SWAP2 POP POP JUMP JUMPDEST PUSH1 0x0 DUP1 PUSH1 0x40 DUP4 DUP6 SUB SLT ISZERO PUSH3 0x1C3 JUMPI PUSH3 0x1C2 PUSH3 0x39C JUMP JUMPDEST JUMPDEST PUSH1 0x0 DUP4 ADD MLOAD PUSH8 0xFFFFFFFFFFFFFFFF DUP2 GT ISZERO PUSH3 0x1E4 JUMPI PUSH3 0x1E3 PUSH3 0x397 JUMP JUMPDEST JUMPDEST PUSH3 0x1F2 DUP6 DUP3 DUP7 ADD PUSH3 0x176 JUMP JUMPDEST SWAP3 POP POP PUSH1 0x20 DUP4 ADD MLOAD PUSH8 0xFFFFFFFFFFFFFFFF DUP2 GT ISZERO PUSH3 0x216 JUMPI PUSH3 0x215 PUSH3 0x397 JUMP JUMPDEST JUMPDEST PUSH3 0x224 DUP6 DUP3 DUP7 ADD PUSH3 0x176 JUMP JUMPDEST SWAP2 POP POP SWAP3 POP SWAP3 SWAP1 POP JUMP JUMPDEST PUSH1 0x0 PUSH3 0x23A PUSH3 0x24D JUMP JUMPDEST SWAP1 POP PUSH3 0x248 DUP3 DUP3 PUSH3 0x2F9 JUMP JUMPDEST SWAP2 SWAP1 POP JUMP JUMPDEST PUSH1 0x0 PUSH1 0x40 MLOAD SWAP1 POP SWAP1 JUMP JUMPDEST PUSH1 0x0 PUSH8 0xFFFFFFFFFFFFFFFF DUP3 GT ISZERO PUSH3 0x275 JUMPI PUSH3 0x274 PUSH3 0x35E JUMP JUMPDEST JUMPDEST PUSH3 0x280 DUP3 PUSH3 0x3A1 JUMP JUMPDEST SWAP1 POP PUSH1 0x20 DUP2 ADD SWAP1 POP SWAP2 SWAP1 POP JUMP JUMPDEST PUSH1 0x0 JUMPDEST DUP4 DUP2 LT ISZERO PUSH3 0x2AD JUMPI DUP1 DUP3 ADD MLOAD DUP2 DUP5 ADD MSTORE PUSH1 0x20 DUP2 ADD SWAP1 POP PUSH3 0x290 JUMP JUMPDEST DUP4 DUP2 GT ISZERO PUSH3 0x2BD JUMPI PUSH1 0x0 DUP5 DUP5 ADD MSTORE JUMPDEST POP POP POP POP JUMP JUMPDEST PUSH1 0x0 PUSH1 0x2 DUP3 DIV SWAP1 POP PUSH1 0x1 DUP3 AND DUP1 PUSH3 0x2DC JUMPI PUSH1 0x7F DUP3 AND SWAP2 POP JUMPDEST PUSH1 0x20 DUP3 LT DUP2 EQ ISZERO PUSH3 0x2F3 JUMPI PUSH3 0x2F2 PUSH3 0x32F JUMP JUMPDEST JUMPDEST POP SWAP2 SWAP1 POP JUMP JUMPDEST PUSH3 0x304 DUP3 PUSH3 0x3A1 JUMP JUMPDEST DUP2 ADD DUP2 DUP2 LT PUSH8 0xFFFFFFFFFFFFFFFF DUP3 GT OR ISZERO PUSH3 0x326 JUMPI PUSH3 0x325 PUSH3 0x35E JUMP JUMPDEST JUMPDEST DUP1 PUSH1 0x40 MSTORE POP POP POP JUMP JUMPDEST PUSH32 0x4E487B7100000000000000000000000000000000000000000000000000000000 PUSH1 0x0 MSTORE PUSH1 0x22 PUSH1 0x4 MSTORE PUSH1 0x24 PUSH1 0x0 REVERT JUMPDEST PUSH32 0x4E487B7100000000000000000000000000000000000000000000000000000000 PUSH1 0x0 MSTORE PUSH1 0x41 PUSH1 0x4 MSTORE PUSH1 0x24 PUSH1 0x0 REVERT JUMPDEST PUSH1 0x0 DUP1 REVERT JUMPDEST PUSH1 0x0 DUP1 REVERT JUMPDEST PUSH1 0x0 DUP1 REVERT JUMPDEST PUSH1 0x0 DUP1 REVERT JUMPDEST PUSH1 0x0 PUSH1 0x1F NOT PUSH1 0x1F DUP4 ADD AND SWAP1 POP SWAP2 SWAP1 POP JUMP JUMPDEST PUSH2 0x2618 DUP1 PUSH3 0x3C2 PUSH1 0x0 CODECOPY PUSH1 0x0 RETURN INVALID PUSH1 0x80 PUSH1 0x40 MSTORE CALLVALUE DUP1 ISZERO PUSH2 0x10 JUMPI PUSH1 0x0 DUP1 REVERT JUMPDEST POP PUSH1 0x4 CALLDATASIZE LT PUSH2 0xF5 JUMPI PUSH1 0x0 CALLDATALOAD PUSH1 0xE0 SHR DUP1 PUSH4 0x6352211E GT PUSH2 0x97 JUMPI DUP1 PUSH4 0xB88D4FDE GT PUSH2 0x66 JUMPI DUP1 PUSH4 0xB88D4FDE EQ PUSH2 0x282 JUMPI DUP1 PUSH4 0xBB8A16BD EQ PUSH2 0x29E JUMPI DUP1 PUSH4 0xC87B56DD EQ PUSH2 0x2BC JUMPI DUP1 PUSH4 0xE985E9C5 EQ PUSH2 0x2EC JUMPI PUSH2 0xF5 JUMP JUMPDEST DUP1 PUSH4 0x6352211E EQ PUSH2 0x1E8 JUMPI DUP1 PUSH4 0x70A08231 EQ PUSH2 0x218 JUMPI DUP1 PUSH4 0x95D89B41 EQ PUSH2 0x248 JUMPI DUP1 PUSH4 0xA22CB465 EQ PUSH2 0x266 JUMPI PUSH2 0xF5 JUMP JUMPDEST DUP1 PUSH4 0x95EA7B3 GT PUSH2 0xD3 JUMPI DUP1 PUSH4 0x95EA7B3 EQ PUSH2 0x178 JUMPI DUP1 PUSH4 0x23B872DD EQ PUSH2 0x194 JUMPI DUP1 PUSH4 0x40C10F19 EQ PUSH2 0x1B0 JUMPI DUP1 PUSH4 0x42842E0E EQ PUSH2 0x1CC JUMPI PUSH2 0xF5 JUMP JUMPDEST DUP1 PUSH4 0x1FFC9A7 EQ PUSH2 0xFA JUMPI DUP1 PUSH4 0x6FDDE03 EQ PUSH2 0x12A JUMPI DUP1 PUSH4 0x81812FC EQ PUSH2 0x148 JUMPI JUMPDEST PUSH1 0x0 DUP1 REVERT JUMPDEST PUSH2 0x114 PUSH1 0x4 DUP1 CALLDATASIZE SUB DUP2 ADD SWAP1 PUSH2 0x10F SWAP2 SWAP1 PUSH2 0x19A3 JUMP JUMPDEST PUSH2 0x31C JUMP JUMPDEST PUSH1 0x40 MLOAD PUSH2 0x121 SWAP2 SWAP1 PUSH2 0x1D4C JUMP JUMPDEST PUSH1 0x40 MLOAD DUP1 SWAP2 SUB SWAP1 RETURN JUMPDEST PUSH2 0x132 PUSH2 0x456 JUMP JUMPDEST PUSH1 0x40 MLOAD PUSH2 0x13F SWAP2 SWAP1 PUSH2 0x1D67 JUMP JUMPDEST PUSH1 0x40 MLOAD DUP1 SWAP2 SUB SWAP1 RETURN JUMPDEST PUSH2 0x162 PUSH1 0x4 DUP1 CALLDATASIZE SUB DUP2 ADD SWAP1 PUSH2 0x15D SWAP2 SWAP1 PUSH2 0x19FD JUMP JUMPDEST PUSH2 0x4E4 JUMP JUMPDEST PUSH1 0x40 MLOAD PUSH2 0x16F SWAP2 SWAP1 PUSH2 0x1CE5 JUMP JUMPDEST PUSH1 0x40 MLOAD DUP1 SWAP2 SUB SWAP1 RETURN JUMPDEST PUSH2 0x192 PUSH1 0x4 DUP1 CALLDATASIZE SUB DUP2 ADD SWAP1 PUSH2 0x18D SWAP2 SWAP1 PUSH2 0x1963 JUMP JUMPDEST PUSH2 0x666 JUMP JUMPDEST STOP JUMPDEST PUSH2 0x1AE PUSH1 0x4 DUP1 CALLDATASIZE SUB DUP2 ADD SWAP1 PUSH2 0x1A9 SWAP2 SWAP1 PUSH2 0x184D JUMP JUMPDEST PUSH2 0x7AD JUMP JUMPDEST STOP JUMPDEST PUSH2 0x1CA PUSH1 0x4 DUP1 CALLDATASIZE SUB DUP2 ADD SWAP1 PUSH2 0x1C5 SWAP2 SWAP1 PUSH2 0x1963 JUMP JUMPDEST PUSH2 0x841 JUMP JUMPDEST STOP JUMPDEST PUSH2 0x1E6 PUSH1 0x4 DUP1 CALLDATASIZE SUB DUP2 ADD SWAP1 PUSH2 0x1E1 SWAP2 SWAP1 PUSH2 0x184D JUMP JUMPDEST PUSH2 0x8A0 JUMP JUMPDEST STOP JUMPDEST PUSH2 0x202 PUSH1 0x4 DUP1 CALLDATASIZE SUB DUP2 ADD SWAP1 PUSH2 0x1FD SWAP2 SWAP1 PUSH2 0x19FD JUMP JUMPDEST PUSH2 0x8C0 JUMP JUMPDEST PUSH1 0x40 MLOAD PUSH2 0x20F SWAP2 SWAP1 PUSH2 0x1CE5 JUMP JUMPDEST PUSH1 0x40 MLOAD DUP1 SWAP2 SUB SWAP1 RETURN JUMPDEST PUSH2 0x232 PUSH1 0x4 DUP1 CALLDATASIZE SUB DUP2 ADD SWAP1 PUSH2 0x22D SWAP2 SWAP1 PUSH2 0x17E0 JUMP JUMPDEST PUSH2 0x96D JUMP JUMPDEST PUSH1 0x40 MLOAD PUSH2 0x23F SWAP2 SWAP1 PUSH2 0x1F29 JUMP JUMPDEST PUSH1 0x40 MLOAD DUP1 SWAP2 SUB SWAP1 RETURN JUMPDEST PUSH2 0x250 PUSH2 0xA25 JUMP JUMPDEST PUSH1 0x40 MLOAD PUSH2 0x25D SWAP2 SWAP1 PUSH2 0x1D67 JUMP JUMPDEST PUSH1 0x40 MLOAD DUP1 SWAP2 SUB SWAP1 RETURN JUMPDEST PUSH2 0x280 PUSH1 0x4 DUP1 CALLDATASIZE SUB DUP2 ADD SWAP1 PUSH2 0x27B SWAP2 SWAP1 PUSH2 0x1923 JUMP JUMPDEST PUSH2 0xAB3 JUMP JUMPDEST STOP JUMPDEST PUSH2 0x29C PUSH1 0x4 DUP1 CALLDATASIZE SUB DUP2 ADD SWAP1 PUSH2 0x297 SWAP2 SWAP1 PUSH2 0x18A0 JUMP JUMPDEST PUSH2 0xBB0 JUMP JUMPDEST STOP JUMPDEST PUSH2 0x2A6 PUSH2 0xC1B JUMP JUMPDEST PUSH1 0x40 MLOAD PUSH2 0x2B3 SWAP2 SWAP1 PUSH2 0x1F29 JUMP JUMPDEST PUSH1 0x40 MLOAD DUP1 SWAP2 SUB SWAP1 RETURN JUMPDEST PUSH2 0x2D6 PUSH1 0x4 DUP1 CALLDATASIZE SUB DUP2 ADD SWAP1 PUSH2 0x2D1 SWAP2 SWAP1 PUSH2 0x19FD JUMP JUMPDEST PUSH2 0xC21 JUMP JUMPDEST PUSH1 0x40 MLOAD PUSH2 0x2E3 SWAP2 SWAP1 PUSH2 0x1D67 JUMP JUMPDEST PUSH1 0x40 MLOAD DUP1 SWAP2 SUB SWAP1 RETURN JUMPDEST PUSH2 0x306 PUSH1 0x4 DUP1 CALLDATASIZE SUB DUP2 ADD SWAP1 PUSH2 0x301 SWAP2 SWAP1 PUSH2 0x180D JUMP JUMPDEST PUSH2 0xD23 JUMP JUMPDEST PUSH1 0x40 MLOAD PUSH2 0x313 SWAP2 SWAP1 PUSH2 0x1D4C JUMP JUMPDEST PUSH1 0x40 MLOAD DUP1 SWAP2 SUB SWAP1 RETURN JUMPDEST PUSH1 0x0 PUSH32 0x80AC58CD00000000000000000000000000000000000000000000000000000000 PUSH28 0xFFFFFFFFFFFFFFFFFFFFFFFFFFFFFFFFFFFFFFFFFFFFFFFFFFFFFFFF NOT AND DUP3 PUSH28 0xFFFFFFFFFFFFFFFFFFFFFFFFFFFFFFFFFFFFFFFFFFFFFFFFFFFFFFFF NOT AND EQ DUP1 PUSH2 0x3E7 JUMPI POP PUSH32 0x1FFC9A700000000000000000000000000000000000000000000000000000000 PUSH28 0xFFFFFFFFFFFFFFFFFFFFFFFFFFFFFFFFFFFFFFFFFFFFFFFFFFFFFFFF NOT AND DUP3 PUSH28 0xFFFFFFFFFFFFFFFFFFFFFFFFFFFFFFFFFFFFFFFFFFFFFFFFFFFFFFFF NOT AND EQ JUMPDEST DUP1 PUSH2 0x44F JUMPI POP PUSH32 0x5B5E139F00000000000000000000000000000000000000000000000000000000 PUSH28 0xFFFFFFFFFFFFFFFFFFFFFFFFFFFFFFFFFFFFFFFFFFFFFFFFFFFFFFFF NOT AND DUP3 PUSH28 0xFFFFFFFFFFFFFFFFFFFFFFFFFFFFFFFFFFFFFFFFFFFFFFFFFFFFFFFF NOT AND EQ JUMPDEST SWAP1 POP SWAP2 SWAP1 POP JUMP JUMPDEST PUSH1 0x0 DUP1 SLOAD PUSH2 0x463 SWAP1 PUSH2 0x214E JUMP JUMPDEST DUP1 PUSH1 0x1F ADD PUSH1 0x20 DUP1 SWAP2 DIV MUL PUSH1 0x20 ADD PUSH1 0x40 MLOAD SWAP1 DUP2 ADD PUSH1 0x40 MSTORE DUP1 SWAP3 SWAP2 SWAP1 DUP2 DUP2 MSTORE PUSH1 0x20 ADD DUP3 DUP1 SLOAD PUSH2 0x48F SWAP1 PUSH2 0x214E JUMP JUMPDEST DUP1 ISZERO PUSH2 0x4DC JUMPI DUP1 PUSH1 0x1F LT PUSH2 0x4B1 JUMPI PUSH2 0x100 DUP1 DUP4 SLOAD DIV MUL DUP4 MSTORE SWAP2 PUSH1 0x20 ADD SWAP2 PUSH2 0x4DC JUMP JUMPDEST DUP3 ADD SWAP2 SWAP1 PUSH1 0x0 MSTORE PUSH1 0x20 PUSH1 0x0 KECCAK256 SWAP1 JUMPDEST DUP2 SLOAD DUP2 MSTORE SWAP1 PUSH1 0x1 ADD SWAP1 PUSH1 0x20 ADD DUP1 DUP4 GT PUSH2 0x4BF JUMPI DUP3 SWAP1 SUB PUSH1 0x1F AND DUP3 ADD SWAP2 JUMPDEST POP POP POP POP POP DUP2 JUMP JUMPDEST PUSH1 0x0 DUP1 PUSH20 0xFFFFFFFFFFFFFFFFFFFFFFFFFFFFFFFFFFFFFFFF AND PUSH1 0x2 PUSH1 0x0 DUP5 DUP2 MSTORE PUSH1 0x20 ADD SWAP1 DUP2 MSTORE PUSH1 0x20 ADD PUSH1 0x0 KECCAK256 PUSH1 0x0 SWAP1 SLOAD SWAP1 PUSH2 0x100 EXP SWAP1 DIV PUSH20 0xFFFFFFFFFFFFFFFFFFFFFFFFFFFFFFFFFFFFFFFF AND PUSH20 0xFFFFFFFFFFFFFFFFFFFFFFFFFFFFFFFFFFFFFFFF AND EQ ISZERO PUSH2 0x588 JUMPI PUSH1 0x40 MLOAD PUSH32 0x8C379A000000000000000000000000000000000000000000000000000000000 DUP2 MSTORE PUSH1 0x4 ADD PUSH2 0x57F SWAP1 PUSH2 0x1E29 JUMP JUMPDEST PUSH1 0x40 MLOAD DUP1 SWAP2 SUB SWAP1 REVERT JUMPDEST PUSH1 0x0 PUSH20 0xFFFFFFFFFFFFFFFFFFFFFFFFFFFFFFFFFFFFFFFF AND PUSH1 0x4 PUSH1 0x0 DUP5 DUP2 MSTORE PUSH1 0x20 ADD SWAP1 DUP2 MSTORE PUSH1 0x20 ADD PUSH1 0x0 KECCAK256 PUSH1 0x0 SWAP1 SLOAD SWAP1 PUSH2 0x100 EXP SWAP1 DIV PUSH20 0xFFFFFFFFFFFFFFFFFFFFFFFFFFFFFFFFFFFFFFFF AND PUSH20 0xFFFFFFFFFFFFFFFFFFFFFFFFFFFFFFFFFFFFFFFF AND EQ ISZERO PUSH2 0x62B JUMPI PUSH1 0x40 MLOAD PUSH32 0x8C379A000000000000000000000000000000000000000000000000000000000 DUP2 MSTORE PUSH1 0x4 ADD PUSH2 0x622 SWAP1 PUSH2 0x1E89 JUMP JUMPDEST PUSH1 0x40 MLOAD DUP1 SWAP2 SUB SWAP1 REVERT JUMPDEST PUSH1 0x4 PUSH1 0x0 DUP4 DUP2 MSTORE PUSH1 0x20 ADD SWAP1 DUP2 MSTORE PUSH1 0x20 ADD PUSH1 0x0 KECCAK256 PUSH1 0x0 SWAP1 SLOAD SWAP1 PUSH2 0x100 EXP SWAP1 DIV PUSH20 0xFFFFFFFFFFFFFFFFFFFFFFFFFFFFFFFFFFFFFFFF AND SWAP1 POP SWAP2 SWAP1 POP JUMP JUMPDEST PUSH1 0x0 PUSH1 0x2 PUSH1 0x0 DUP4 DUP2 MSTORE PUSH1 0x20 ADD SWAP1 DUP2 MSTORE PUSH1 0x20 ADD PUSH1 0x0 KECCAK256 PUSH1 0x0 SWAP1 SLOAD SWAP1 PUSH2 0x100 EXP SWAP1 DIV PUSH20 0xFFFFFFFFFFFFFFFFFFFFFFFFFFFFFFFFFFFFFFFF AND SWAP1 POP DUP1 PUSH20 0xFFFFFFFFFFFFFFFFFFFFFFFFFFFFFFFFFFFFFFFF AND CALLER PUSH20 0xFFFFFFFFFFFFFFFFFFFFFFFFFFFFFFFFFFFFFFFF AND EQ DUP1 PUSH2 0x75E JUMPI POP PUSH1 0x5 PUSH1 0x0 DUP3 PUSH20 0xFFFFFFFFFFFFFFFFFFFFFFFFFFFFFFFFFFFFFFFF AND PUSH20 0xFFFFFFFFFFFFFFFFFFFFFFFFFFFFFFFFFFFFFFFF AND DUP2 MSTORE PUSH1 0x20 ADD SWAP1 DUP2 MSTORE PUSH1 0x20 ADD PUSH1 0x0 KECCAK256 PUSH1 0x0 CALLER PUSH20 0xFFFFFFFFFFFFFFFFFFFFFFFFFFFFFFFFFFFFFFFF AND PUSH20 0xFFFFFFFFFFFFFFFFFFFFFFFFFFFFFFFFFFFFFFFF AND DUP2 MSTORE PUSH1 0x20 ADD SWAP1 DUP2 MSTORE PUSH1 0x20 ADD PUSH1 0x0 KECCAK256 PUSH1 0x0 SWAP1 SLOAD SWAP1 PUSH2 0x100 EXP SWAP1 DIV PUSH1 0xFF AND JUMPDEST PUSH2 0x79D JUMPI PUSH1 0x40 MLOAD PUSH32 0x8C379A000000000000000000000000000000000000000000000000000000000 DUP2 MSTORE PUSH1 0x4 ADD PUSH2 0x794 SWAP1 PUSH2 0x1E49 JUMP JUMPDEST PUSH1 0x40 MLOAD DUP1 SWAP2 SUB SWAP1 REVERT JUMPDEST PUSH2 0x7A8 DUP2 DUP5 DUP5 PUSH2 0xDB7 JUMP JUMPDEST POP POP POP JUMP JUMPDEST PUSH1 0x0 PUSH1 0x2 PUSH1 0x0 DUP4 DUP2 MSTORE PUSH1 0x20 ADD SWAP1 DUP2 MSTORE PUSH1 0x20 ADD PUSH1 0x0 KECCAK256 PUSH1 0x0 SWAP1 SLOAD SWAP1 PUSH2 0x100 EXP SWAP1 DIV PUSH20 0xFFFFFFFFFFFFFFFFFFFFFFFFFFFFFFFFFFFFFFFF AND SWAP1 POP PUSH2 0x7F0 DUP2 CALLER DUP5 PUSH2 0xE69 JUMP JUMPDEST PUSH2 0x82F JUMPI PUSH1 0x40 MLOAD PUSH32 0x8C379A000000000000000000000000000000000000000000000000000000000 DUP2 MSTORE PUSH1 0x4 ADD PUSH2 0x826 SWAP1 PUSH2 0x1DA9 JUMP JUMPDEST PUSH1 0x40 MLOAD DUP1 SWAP2 SUB SWAP1 REVERT JUMPDEST PUSH2 0x83B DUP2 DUP6 DUP6 DUP6 PUSH2 0xF9D JUMP JUMPDEST POP POP POP POP JUMP JUMPDEST PUSH1 0x0 DUP2 LT ISZERO DUP1 ISZERO PUSH2 0x853 JUMPI POP PUSH1 0x6 SLOAD DUP2 LT JUMPDEST PUSH2 0x892 JUMPI PUSH1 0x40 MLOAD PUSH32 0x8C379A000000000000000000000000000000000000000000000000000000000 DUP2 MSTORE PUSH1 0x4 ADD PUSH2 0x889 SWAP1 PUSH2 0x1D89 JUMP JUMPDEST PUSH1 0x40 MLOAD DUP1 SWAP2 SUB SWAP1 REVERT JUMPDEST PUSH2 0x89C DUP3 DUP3 PUSH2 0x11E8 JUMP JUMPDEST POP POP JUMP JUMPDEST PUSH2 0x8BB DUP4 DUP4 DUP4 PUSH1 0x40 MLOAD DUP1 PUSH1 0x20 ADD PUSH1 0x40 MSTORE DUP1 PUSH1 0x0 DUP2 MSTORE POP PUSH2 0xBB0 JUMP JUMPDEST POP POP POP JUMP JUMPDEST PUSH1 0x0 PUSH1 0x2 PUSH1 0x0 DUP4 DUP2 MSTORE PUSH1 0x20 ADD SWAP1 DUP2 MSTORE PUSH1 0x20 ADD PUSH1 0x0 KECCAK256 PUSH1 0x0 SWAP1 SLOAD SWAP1 PUSH2 0x100 EXP SWAP1 DIV PUSH20 0xFFFFFFFFFFFFFFFFFFFFFFFFFFFFFFFFFFFFFFFF AND SWAP1 POP PUSH1 0x0 PUSH20 0xFFFFFFFFFFFFFFFFFFFFFFFFFFFFFFFFFFFFFFFF AND DUP2 PUSH20 0xFFFFFFFFFFFFFFFFFFFFFFFFFFFFFFFFFFFFFFFF AND EQ ISZERO PUSH2 0x968 JUMPI PUSH1 0x40 MLOAD PUSH32 0x8C379A000000000000000000000000000000000000000000000000000000000 DUP2 MSTORE PUSH1 0x4 ADD PUSH2 0x95F SWAP1 PUSH2 0x1E69 JUMP JUMPDEST PUSH1 0x40 MLOAD DUP1 SWAP2 SUB SWAP1 REVERT JUMPDEST SWAP2 SWAP1 POP JUMP JUMPDEST PUSH1 0x0 DUP1 PUSH20 0xFFFFFFFFFFFFFFFFFFFFFFFFFFFFFFFFFFFFFFFF AND DUP3 PUSH20 0xFFFFFFFFFFFFFFFFFFFFFFFFFFFFFFFFFFFFFFFF AND EQ ISZERO PUSH2 0x9DE JUMPI PUSH1 0x40 MLOAD PUSH32 0x8C379A000000000000000000000000000000000000000000000000000000000 DUP2 MSTORE PUSH1 0x4 ADD PUSH2 0x9D5 SWAP1 PUSH2 0x1E09 JUMP JUMPDEST PUSH1 0x40 MLOAD DUP1 SWAP2 SUB SWAP1 REVERT JUMPDEST PUSH1 0x3 PUSH1 0x0 DUP4 PUSH20 0xFFFFFFFFFFFFFFFFFFFFFFFFFFFFFFFFFFFFFFFF AND PUSH20 0xFFFFFFFFFFFFFFFFFFFFFFFFFFFFFFFFFFFFFFFF AND DUP2 MSTORE PUSH1 0x20 ADD SWAP1 DUP2 MSTORE PUSH1 0x20 ADD PUSH1 0x0 KECCAK256 SLOAD SWAP1 POP SWAP2 SWAP1 POP JUMP JUMPDEST PUSH1 0x1 DUP1 SLOAD PUSH2 0xA32 SWAP1 PUSH2 0x214E JUMP JUMPDEST DUP1 PUSH1 0x1F ADD PUSH1 0x20 DUP1 SWAP2 DIV MUL PUSH1 0x20 ADD PUSH1 0x40 MLOAD SWAP1 DUP2 ADD PUSH1 0x40 MSTORE DUP1 SWAP3 SWAP2 SWAP1 DUP2 DUP2 MSTORE PUSH1 0x20 ADD DUP3 DUP1 SLOAD PUSH2 0xA5E SWAP1 PUSH2 0x214E JUMP JUMPDEST DUP1 ISZERO PUSH2 0xAAB JUMPI DUP1 PUSH1 0x1F LT PUSH2 0xA80 JUMPI PUSH2 0x100 DUP1 DUP4 SLOAD DIV MUL DUP4 MSTORE SWAP2 PUSH1 0x20 ADD SWAP2 PUSH2 0xAAB JUMP JUMPDEST DUP3 ADD SWAP2 SWAP1 PUSH1 0x0 MSTORE PUSH1 0x20 PUSH1 0x0 KECCAK256 SWAP1 JUMPDEST DUP2 SLOAD DUP2 MSTORE SWAP1 PUSH1 0x1 ADD SWAP1 PUSH1 0x20 ADD DUP1 DUP4 GT PUSH2 0xA8E JUMPI DUP3 SWAP1 SUB PUSH1 0x1F AND DUP3 ADD SWAP2 JUMPDEST POP POP POP POP POP DUP2 JUMP JUMPDEST DUP1 PUSH1 0x5 PUSH1 0x0 CALLER PUSH20 0xFFFFFFFFFFFFFFFFFFFFFFFFFFFFFFFFFFFFFFFF AND PUSH20 0xFFFFFFFFFFFFFFFFFFFFFFFFFFFFFFFFFFFFFFFF AND DUP2 MSTORE PUSH1 0x20 ADD SWAP1 DUP2 MSTORE PUSH1 0x20 ADD PUSH1 0x0 KECCAK256 PUSH1 0x0 DUP5 PUSH20 0xFFFFFFFFFFFFFFFFFFFFFFFFFFFFFFFFFFFFFFFF AND PUSH20 0xFFFFFFFFFFFFFFFFFFFFFFFFFFFFFFFFFFFFFFFF AND DUP2 MSTORE PUSH1 0x20 ADD SWAP1 DUP2 MSTORE PUSH1 0x20 ADD PUSH1 0x0 KECCAK256 PUSH1 0x0 PUSH2 0x100 EXP DUP2 SLOAD DUP2 PUSH1 0xFF MUL NOT AND SWAP1 DUP4 ISZERO ISZERO MUL OR SWAP1 SSTORE POP DUP2 PUSH20 0xFFFFFFFFFFFFFFFFFFFFFFFFFFFFFFFFFFFFFFFF AND CALLER PUSH20 0xFFFFFFFFFFFFFFFFFFFFFFFFFFFFFFFFFFFFFFFF AND PUSH32 0x17307EAB39AB6107E8899845AD3D59BD9653F200F220920489CA2B5937696C31 DUP4 PUSH1 0x40 MLOAD PUSH2 0xBA4 SWAP2 SWAP1 PUSH2 0x1D4C JUMP JUMPDEST PUSH1 0x40 MLOAD DUP1 SWAP2 SUB SWAP1 LOG3 POP POP JUMP JUMPDEST PUSH1 0x0 PUSH2 0xBBB DUP4 PUSH2 0x8C0 JUMP JUMPDEST SWAP1 POP PUSH2 0xBC8 DUP2 DUP7 DUP6 PUSH2 0xE69 JUMP JUMPDEST PUSH2 0xC07 JUMPI PUSH1 0x40 MLOAD PUSH32 0x8C379A000000000000000000000000000000000000000000000000000000000 DUP2 MSTORE PUSH1 0x4 ADD PUSH2 0xBFE SWAP1 PUSH2 0x1DA9 JUMP JUMPDEST PUSH1 0x40 MLOAD DUP1 SWAP2 SUB SWAP1 REVERT JUMPDEST PUSH2 0xC14 DUP2 DUP7 DUP7 DUP7 DUP7 PUSH2 0x1403 JUMP JUMPDEST POP POP POP POP POP JUMP JUMPDEST PUSH1 0x6 SLOAD DUP2 JUMP JUMPDEST PUSH1 0x60 PUSH1 0x0 PUSH20 0xFFFFFFFFFFFFFFFFFFFFFFFFFFFFFFFFFFFFFFFF AND PUSH1 0x2 PUSH1 0x0 DUP5 DUP2 MSTORE PUSH1 0x20 ADD SWAP1 DUP2 MSTORE PUSH1 0x20 ADD PUSH1 0x0 KECCAK256 PUSH1 0x0 SWAP1 SLOAD SWAP1 PUSH2 0x100 EXP SWAP1 DIV PUSH20 0xFFFFFFFFFFFFFFFFFFFFFFFFFFFFFFFFFFFFFFFF AND PUSH20 0xFFFFFFFFFFFFFFFFFFFFFFFFFFFFFFFFFFFFFFFF AND EQ ISZERO PUSH2 0xCC6 JUMPI PUSH1 0x40 MLOAD PUSH32 0x8C379A000000000000000000000000000000000000000000000000000000000 DUP2 MSTORE PUSH1 0x4 ADD PUSH2 0xCBD SWAP1 PUSH2 0x1EA9 JUMP JUMPDEST PUSH1 0x40 MLOAD DUP1 SWAP2 SUB SWAP1 REVERT JUMPDEST PUSH1 0x0 PUSH2 0xCD0 PUSH2 0x1461 JUMP JUMPDEST SWAP1 POP PUSH1 0x0 DUP2 MLOAD GT PUSH2 0xCF0 JUMPI PUSH1 0x40 MLOAD DUP1 PUSH1 0x20 ADD PUSH1 0x40 MSTORE DUP1 PUSH1 0x0 DUP2 MSTORE POP PUSH2 0xD1B JUMP JUMPDEST DUP1 PUSH2 0xCFA DUP5 PUSH2 0x1481 JUMP JUMPDEST PUSH1 0x40 MLOAD PUSH1 0x20 ADD PUSH2 0xD0B SWAP3 SWAP2 SWAP1 PUSH2 0x1CC1 JUMP JUMPDEST PUSH1 0x40 MLOAD PUSH1 0x20 DUP2 DUP4 SUB SUB DUP2 MSTORE SWAP1 PUSH1 0x40 MSTORE JUMPDEST SWAP2 POP POP SWAP2 SWAP1 POP JUMP JUMPDEST PUSH1 0x0 PUSH1 0x5 PUSH1 0x0 DUP5 PUSH20 0xFFFFFFFFFFFFFFFFFFFFFFFFFFFFFFFFFFFFFFFF AND PUSH20 0xFFFFFFFFFFFFFFFFFFFFFFFFFFFFFFFFFFFFFFFF AND DUP2 MSTORE PUSH1 0x20 ADD SWAP1 DUP2 MSTORE PUSH1 0x20 ADD PUSH1 0x0 KECCAK256 PUSH1 0x0 DUP4 PUSH20 0xFFFFFFFFFFFFFFFFFFFFFFFFFFFFFFFFFFFFFFFF AND PUSH20 0xFFFFFFFFFFFFFFFFFFFFFFFFFFFFFFFFFFFFFFFF AND DUP2 MSTORE PUSH1 0x20 ADD SWAP1 DUP2 MSTORE PUSH1 0x20 ADD PUSH1 0x0 KECCAK256 PUSH1 0x0 SWAP1 SLOAD SWAP1 PUSH2 0x100 EXP SWAP1 DIV PUSH1 0xFF AND SWAP1 POP SWAP3 SWAP2 POP POP JUMP JUMPDEST DUP2 PUSH1 0x4 PUSH1 0x0 DUP4 DUP2 MSTORE PUSH1 0x20 ADD SWAP1 DUP2 MSTORE PUSH1 0x20 ADD PUSH1 0x0 KECCAK256 PUSH1 0x0 PUSH2 0x100 EXP DUP2 SLOAD DUP2 PUSH20 0xFFFFFFFFFFFFFFFFFFFFFFFFFFFFFFFFFFFFFFFF MUL NOT AND SWAP1 DUP4 PUSH20 0xFFFFFFFFFFFFFFFFFFFFFFFFFFFFFFFFFFFFFFFF AND MUL OR SWAP1 SSTORE POP DUP1 DUP3 PUSH20 0xFFFFFFFFFFFFFFFFFFFFFFFFFFFFFFFFFFFFFFFF AND DUP5 PUSH20 0xFFFFFFFFFFFFFFFFFFFFFFFFFFFFFFFFFFFFFFFF AND PUSH32 0x8C5BE1E5EBEC7D5BD14F71427D1E84F3DD0314C0F7B2291E5B200AC8C7C3B925 PUSH1 0x40 MLOAD PUSH1 0x40 MLOAD DUP1 SWAP2 SUB SWAP1 LOG4 POP POP POP JUMP JUMPDEST PUSH1 0x0 DUP4 PUSH20 0xFFFFFFFFFFFFFFFFFFFFFFFFFFFFFFFFFFFFFFFF AND DUP4 PUSH20 0xFFFFFFFFFFFFFFFFFFFFFFFFFFFFFFFFFFFFFFFF AND EQ DUP1 PUSH2 0xF03 JUMPI POP DUP3 PUSH20 0xFFFFFFFFFFFFFFFFFFFFFFFFFFFFFFFFFFFFFFFF AND PUSH1 0x4 PUSH1 0x0 DUP5 DUP2 MSTORE PUSH1 0x20 ADD SWAP1 DUP2 MSTORE PUSH1 0x20 ADD PUSH1 0x0 KECCAK256 PUSH1 0x0 SWAP1 SLOAD SWAP1 PUSH2 0x100 EXP SWAP1 DIV PUSH20 0xFFFFFFFFFFFFFFFFFFFFFFFFFFFFFFFFFFFFFFFF AND PUSH20 0xFFFFFFFFFFFFFFFFFFFFFFFFFFFFFFFFFFFFFFFF AND EQ JUMPDEST DUP1 PUSH2 0xF94 JUMPI POP PUSH1 0x5 PUSH1 0x0 DUP6 PUSH20 0xFFFFFFFFFFFFFFFFFFFFFFFFFFFFFFFFFFFFFFFF AND PUSH20 0xFFFFFFFFFFFFFFFFFFFFFFFFFFFFFFFFFFFFFFFF AND DUP2 MSTORE PUSH1 0x20 ADD SWAP1 DUP2 MSTORE PUSH1 0x20 ADD PUSH1 0x0 KECCAK256 PUSH1 0x0 DUP5 PUSH20 0xFFFFFFFFFFFFFFFFFFFFFFFFFFFFFFFFFFFFFFFF AND PUSH20 0xFFFFFFFFFFFFFFFFFFFFFFFFFFFFFFFFFFFFFFFF AND DUP2 MSTORE PUSH1 0x20 ADD SWAP1 DUP2 MSTORE PUSH1 0x20 ADD PUSH1 0x0 KECCAK256 PUSH1 0x0 SWAP1 SLOAD SWAP1 PUSH2 0x100 EXP SWAP1 DIV PUSH1 0xFF AND JUMPDEST SWAP1 POP SWAP4 SWAP3 POP POP POP JUMP JUMPDEST DUP4 PUSH20 0xFFFFFFFFFFFFFFFFFFFFFFFFFFFFFFFFFFFFFFFF AND DUP4 PUSH20 0xFFFFFFFFFFFFFFFFFFFFFFFFFFFFFFFFFFFFFFFF AND EQ PUSH2 0x100B JUMPI PUSH1 0x40 MLOAD PUSH32 0x8C379A000000000000000000000000000000000000000000000000000000000 DUP2 MSTORE PUSH1 0x4 ADD PUSH2 0x1002 SWAP1 PUSH2 0x1F09 JUMP JUMPDEST PUSH1 0x40 MLOAD DUP1 SWAP2 SUB SWAP1 REVERT JUMPDEST PUSH1 0x0 PUSH20 0xFFFFFFFFFFFFFFFFFFFFFFFFFFFFFFFFFFFFFFFF AND DUP3 PUSH20 0xFFFFFFFFFFFFFFFFFFFFFFFFFFFFFFFFFFFFFFFF AND EQ ISZERO PUSH2 0x107B JUMPI PUSH1 0x40 MLOAD PUSH32 0x8C379A000000000000000000000000000000000000000000000000000000000 DUP2 MSTORE PUSH1 0x4 ADD PUSH2 0x1072 SWAP1 PUSH2 0x1DC9 JUMP JUMPDEST PUSH1 0x40 MLOAD DUP1 SWAP2 SUB SWAP1 REVERT JUMPDEST PUSH2 0x1087 DUP5 PUSH1 0x0 DUP4 PUSH2 0xDB7 JUMP JUMPDEST PUSH1 0x1 PUSH1 0x3 PUSH1 0x0 DUP7 PUSH20 0xFFFFFFFFFFFFFFFFFFFFFFFFFFFFFFFFFFFFFFFF AND PUSH20 0xFFFFFFFFFFFFFFFFFFFFFFFFFFFFFFFFFFFFFFFF AND DUP2 MSTORE PUSH1 0x20 ADD SWAP1 DUP2 MSTORE PUSH1 0x20 ADD PUSH1 0x0 KECCAK256 PUSH1 0x0 DUP3 DUP3 SLOAD PUSH2 0x10D7 SWAP2 SWAP1 PUSH2 0x2064 JUMP JUMPDEST SWAP3 POP POP DUP2 SWAP1 SSTORE POP PUSH1 0x1 PUSH1 0x3 PUSH1 0x0 DUP5 PUSH20 0xFFFFFFFFFFFFFFFFFFFFFFFFFFFFFFFFFFFFFFFF AND PUSH20 0xFFFFFFFFFFFFFFFFFFFFFFFFFFFFFFFFFFFFFFFF AND DUP2 MSTORE PUSH1 0x20 ADD SWAP1 DUP2 MSTORE PUSH1 0x20 ADD PUSH1 0x0 KECCAK256 PUSH1 0x0 DUP3 DUP3 SLOAD PUSH2 0x112E SWAP2 SWAP1 PUSH2 0x1FDD JUMP JUMPDEST SWAP3 POP POP DUP2 SWAP1 SSTORE POP DUP2 PUSH1 0x2 PUSH1 0x0 DUP4 DUP2 MSTORE PUSH1 0x20 ADD SWAP1 DUP2 MSTORE PUSH1 0x20 ADD PUSH1 0x0 KECCAK256 PUSH1 0x0 PUSH2 0x100 EXP DUP2 SLOAD DUP2 PUSH20 0xFFFFFFFFFFFFFFFFFFFFFFFFFFFFFFFFFFFFFFFF MUL NOT AND SWAP1 DUP4 PUSH20 0xFFFFFFFFFFFFFFFFFFFFFFFFFFFFFFFFFFFFFFFF AND MUL OR SWAP1 SSTORE POP DUP1 DUP3 PUSH20 0xFFFFFFFFFFFFFFFFFFFFFFFFFFFFFFFFFFFFFFFF AND DUP5 PUSH20 0xFFFFFFFFFFFFFFFFFFFFFFFFFFFFFFFFFFFFFFFF AND PUSH32 0xDDF252AD1BE2C89B69C2B068FC378DAA952BA7F163C4A11628F55A4DF523B3EF PUSH1 0x40 MLOAD PUSH1 0x40 MLOAD DUP1 SWAP2 SUB SWAP1 LOG4 POP POP POP POP JUMP JUMPDEST PUSH1 0x0 PUSH20 0xFFFFFFFFFFFFFFFFFFFFFFFFFFFFFFFFFFFFFFFF AND DUP3 PUSH20 0xFFFFFFFFFFFFFFFFFFFFFFFFFFFFFFFFFFFFFFFF AND EQ ISZERO PUSH2 0x1258 JUMPI PUSH1 0x40 MLOAD PUSH32 0x8C379A000000000000000000000000000000000000000000000000000000000 DUP2 MSTORE PUSH1 0x4 ADD PUSH2 0x124F SWAP1 PUSH2 0x1DE9 JUMP JUMPDEST PUSH1 0x40 MLOAD DUP1 SWAP2 SUB SWAP1 REVERT JUMPDEST PUSH1 0x0 PUSH20 0xFFFFFFFFFFFFFFFFFFFFFFFFFFFFFFFFFFFFFFFF AND PUSH1 0x2 PUSH1 0x0 DUP4 DUP2 MSTORE PUSH1 0x20 ADD SWAP1 DUP2 MSTORE PUSH1 0x20 ADD PUSH1 0x0 KECCAK256 PUSH1 0x0 SWAP1 SLOAD SWAP1 PUSH2 0x100 EXP SWAP1 DIV PUSH20 0xFFFFFFFFFFFFFFFFFFFFFFFFFFFFFFFFFFFFFFFF AND PUSH20 0xFFFFFFFFFFFFFFFFFFFFFFFFFFFFFFFFFFFFFFFF AND EQ PUSH2 0x12FA JUMPI PUSH1 0x40 MLOAD PUSH32 0x8C379A000000000000000000000000000000000000000000000000000000000 DUP2 MSTORE PUSH1 0x4 ADD PUSH2 0x12F1 SWAP1 PUSH2 0x1EC9 JUMP JUMPDEST PUSH1 0x40 MLOAD DUP1 SWAP2 SUB SWAP1 REVERT JUMPDEST PUSH1 0x1 PUSH1 0x3 PUSH1 0x0 DUP5 PUSH20 0xFFFFFFFFFFFFFFFFFFFFFFFFFFFFFFFFFFFFFFFF AND PUSH20 0xFFFFFFFFFFFFFFFFFFFFFFFFFFFFFFFFFFFFFFFF AND DUP2 MSTORE PUSH1 0x20 ADD SWAP1 DUP2 MSTORE PUSH1 0x20 ADD PUSH1 0x0 KECCAK256 PUSH1 0x0 DUP3 DUP3 SLOAD PUSH2 0x134A SWAP2 SWAP1 PUSH2 0x1FDD JUMP JUMPDEST SWAP3 POP POP DUP2 SWAP1 SSTORE POP DUP2 PUSH1 0x2 PUSH1 0x0 DUP4 DUP2 MSTORE PUSH1 0x20 ADD SWAP1 DUP2 MSTORE PUSH1 0x20 ADD PUSH1 0x0 KECCAK256 PUSH1 0x0 PUSH2 0x100 EXP DUP2 SLOAD DUP2 PUSH20 0xFFFFFFFFFFFFFFFFFFFFFFFFFFFFFFFFFFFFFFFF MUL NOT AND SWAP1 DUP4 PUSH20 0xFFFFFFFFFFFFFFFFFFFFFFFFFFFFFFFFFFFFFFFF AND MUL OR SWAP1 SSTORE POP DUP1 DUP3 PUSH20 0xFFFFFFFFFFFFFFFFFFFFFFFFFFFFFFFFFFFFFFFF AND PUSH1 0x0 PUSH20 0xFFFFFFFFFFFFFFFFFFFFFFFFFFFFFFFFFFFFFFFF AND PUSH32 0xDDF252AD1BE2C89B69C2B068FC378DAA952BA7F163C4A11628F55A4DF523B3EF PUSH1 0x40 MLOAD PUSH1 0x40 MLOAD DUP1 SWAP2 SUB SWAP1 LOG4 POP POP JUMP JUMPDEST PUSH2 0x140F DUP6 DUP6 DUP6 DUP6 PUSH2 0xF9D JUMP JUMPDEST PUSH2 0x141B DUP5 DUP5 DUP5 DUP5 PUSH2 0x15E2 JUMP JUMPDEST PUSH2 0x145A JUMPI PUSH1 0x40 MLOAD PUSH32 0x8C379A000000000000000000000000000000000000000000000000000000000 DUP2 MSTORE PUSH1 0x4 ADD PUSH2 0x1451 SWAP1 PUSH2 0x1EE9 JUMP JUMPDEST PUSH1 0x40 MLOAD DUP1 SWAP2 SUB SWAP1 REVERT JUMPDEST POP POP POP POP POP JUMP JUMPDEST PUSH1 0x60 PUSH1 0x40 MLOAD DUP1 PUSH1 0x60 ADD PUSH1 0x40 MSTORE DUP1 PUSH1 0x36 DUP2 MSTORE PUSH1 0x20 ADD PUSH2 0x25AD PUSH1 0x36 SWAP2 CODECOPY SWAP1 POP SWAP1 JUMP JUMPDEST PUSH1 0x60 PUSH1 0x0 DUP3 EQ ISZERO PUSH2 0x14C9 JUMPI PUSH1 0x40 MLOAD DUP1 PUSH1 0x40 ADD PUSH1 0x40 MSTORE DUP1 PUSH1 0x1 DUP2 MSTORE PUSH1 0x20 ADD PUSH32 0x3000000000000000000000000000000000000000000000000000000000000000 DUP2 MSTORE POP SWAP1 POP PUSH2 0x15DD JUMP JUMPDEST PUSH1 0x0 DUP3 SWAP1 POP PUSH1 0x0 JUMPDEST PUSH1 0x0 DUP3 EQ PUSH2 0x14FB JUMPI DUP1 DUP1 PUSH2 0x14E4 SWAP1 PUSH2 0x21B1 JUMP JUMPDEST SWAP2 POP POP PUSH1 0xA DUP3 PUSH2 0x14F4 SWAP2 SWAP1 PUSH2 0x2033 JUMP JUMPDEST SWAP2 POP PUSH2 0x14D1 JUMP JUMPDEST PUSH1 0x0 DUP2 PUSH8 0xFFFFFFFFFFFFFFFF DUP2 GT ISZERO PUSH2 0x1517 JUMPI PUSH2 0x1516 PUSH2 0x22E7 JUMP JUMPDEST JUMPDEST PUSH1 0x40 MLOAD SWAP1 DUP1 DUP3 MSTORE DUP1 PUSH1 0x1F ADD PUSH1 0x1F NOT AND PUSH1 0x20 ADD DUP3 ADD PUSH1 0x40 MSTORE DUP1 ISZERO PUSH2 0x1549 JUMPI DUP2 PUSH1 0x20 ADD PUSH1 0x1 DUP3 MUL DUP1 CALLDATASIZE DUP4 CALLDATACOPY DUP1 DUP3 ADD SWAP2 POP POP SWAP1 POP JUMPDEST POP SWAP1 POP JUMPDEST PUSH1 0x0 DUP6 EQ PUSH2 0x15D6 JUMPI PUSH1 0x1 DUP3 PUSH2 0x1562 SWAP2 SWAP1 PUSH2 0x2064 JUMP JUMPDEST SWAP2 POP PUSH1 0xA DUP6 PUSH2 0x1571 SWAP2 SWAP1 PUSH2 0x21FA JUMP JUMPDEST PUSH1 0x30 PUSH2 0x157D SWAP2 SWAP1 PUSH2 0x1FDD JUMP JUMPDEST PUSH1 0xF8 SHL DUP2 DUP4 DUP2 MLOAD DUP2 LT PUSH2 0x1593 JUMPI PUSH2 0x1592 PUSH2 0x22B8 JUMP JUMPDEST JUMPDEST PUSH1 0x20 ADD ADD SWAP1 PUSH31 0xFFFFFFFFFFFFFFFFFFFFFFFFFFFFFFFFFFFFFFFFFFFFFFFFFFFFFFFFFFFFFF NOT AND SWAP1 DUP2 PUSH1 0x0 BYTE SWAP1 MSTORE8 POP PUSH1 0xA DUP6 PUSH2 0x15CF SWAP2 SWAP1 PUSH2 0x2033 JUMP JUMPDEST SWAP5 POP PUSH2 0x154D JUMP JUMPDEST DUP1 SWAP4 POP POP POP POP JUMPDEST SWAP2 SWAP1 POP JUMP JUMPDEST PUSH1 0x0 PUSH2 0x1603 DUP5 PUSH20 0xFFFFFFFFFFFFFFFFFFFFFFFFFFFFFFFFFFFFFFFF AND PUSH2 0x16F4 JUMP JUMPDEST ISZERO PUSH2 0x16E7 JUMPI PUSH4 0x150B7A02 PUSH1 0xE0 SHL PUSH28 0xFFFFFFFFFFFFFFFFFFFFFFFFFFFFFFFFFFFFFFFFFFFFFFFFFFFFFFFF NOT AND DUP5 PUSH20 0xFFFFFFFFFFFFFFFFFFFFFFFFFFFFFFFFFFFFFFFF AND PUSH4 0x150B7A02 CALLER DUP9 DUP8 DUP8 PUSH1 0x40 MLOAD DUP6 PUSH4 0xFFFFFFFF AND PUSH1 0xE0 SHL DUP2 MSTORE PUSH1 0x4 ADD PUSH2 0x166E SWAP5 SWAP4 SWAP3 SWAP2 SWAP1 PUSH2 0x1D00 JUMP JUMPDEST PUSH1 0x20 PUSH1 0x40 MLOAD DUP1 DUP4 SUB DUP2 PUSH1 0x0 DUP8 DUP1 EXTCODESIZE ISZERO DUP1 ISZERO PUSH2 0x1688 JUMPI PUSH1 0x0 DUP1 REVERT JUMPDEST POP GAS CALL ISZERO DUP1 ISZERO PUSH2 0x169C JUMPI RETURNDATASIZE PUSH1 0x0 DUP1 RETURNDATACOPY RETURNDATASIZE PUSH1 0x0 REVERT JUMPDEST POP POP POP POP PUSH1 0x40 MLOAD RETURNDATASIZE PUSH1 0x1F NOT PUSH1 0x1F DUP3 ADD AND DUP3 ADD DUP1 PUSH1 0x40 MSTORE POP DUP2 ADD SWAP1 PUSH2 0x16C0 SWAP2 SWAP1 PUSH2 0x19D0 JUMP JUMPDEST PUSH28 0xFFFFFFFFFFFFFFFFFFFFFFFFFFFFFFFFFFFFFFFFFFFFFFFFFFFFFFFF NOT AND EQ SWAP1 POP PUSH2 0x16EC JUMP JUMPDEST PUSH1 0x1 SWAP1 POP JUMPDEST SWAP5 SWAP4 POP POP POP POP JUMP JUMPDEST PUSH1 0x0 DUP1 DUP3 EXTCODESIZE SWAP1 POP PUSH1 0x0 DUP2 GT SWAP2 POP POP SWAP2 SWAP1 POP JUMP JUMPDEST PUSH1 0x0 PUSH2 0x171A PUSH2 0x1715 DUP5 PUSH2 0x1F69 JUMP JUMPDEST PUSH2 0x1F44 JUMP JUMPDEST SWAP1 POP DUP3 DUP2 MSTORE PUSH1 0x20 DUP2 ADD DUP5 DUP5 DUP5 ADD GT ISZERO PUSH2 0x1736 JUMPI PUSH2 0x1735 PUSH2 0x231B JUMP JUMPDEST JUMPDEST PUSH2 0x1741 DUP5 DUP3 DUP6 PUSH2 0x210C JUMP JUMPDEST POP SWAP4 SWAP3 POP POP POP JUMP JUMPDEST PUSH1 0x0 DUP2 CALLDATALOAD SWAP1 POP PUSH2 0x1758 DUP2 PUSH2 0x2550 JUMP JUMPDEST SWAP3 SWAP2 POP POP JUMP JUMPDEST PUSH1 0x0 DUP2 CALLDATALOAD SWAP1 POP PUSH2 0x176D DUP2 PUSH2 0x2567 JUMP JUMPDEST SWAP3 SWAP2 POP POP JUMP JUMPDEST PUSH1 0x0 DUP2 CALLDATALOAD SWAP1 POP PUSH2 0x1782 DUP2 PUSH2 0x257E JUMP JUMPDEST SWAP3 SWAP2 POP POP JUMP JUMPDEST PUSH1 0x0 DUP2 MLOAD SWAP1 POP PUSH2 0x1797 DUP2 PUSH2 0x257E JUMP JUMPDEST SWAP3 SWAP2 POP POP JUMP JUMPDEST PUSH1 0x0 DUP3 PUSH1 0x1F DUP4 ADD SLT PUSH2 0x17B2 JUMPI PUSH2 0x17B1 PUSH2 0x2316 JUMP JUMPDEST JUMPDEST DUP2 CALLDATALOAD PUSH2 0x17C2 DUP5 DUP3 PUSH1 0x20 DUP7 ADD PUSH2 0x1707 JUMP JUMPDEST SWAP2 POP POP SWAP3 SWAP2 POP POP JUMP JUMPDEST PUSH1 0x0 DUP2 CALLDATALOAD SWAP1 POP PUSH2 0x17DA DUP2 PUSH2 0x2595 JUMP JUMPDEST SWAP3 SWAP2 POP POP JUMP JUMPDEST PUSH1 0x0 PUSH1 0x20 DUP3 DUP5 SUB SLT ISZERO PUSH2 0x17F6 JUMPI PUSH2 0x17F5 PUSH2 0x2325 JUMP JUMPDEST JUMPDEST PUSH1 0x0 PUSH2 0x1804 DUP5 DUP3 DUP6 ADD PUSH2 0x1749 JUMP JUMPDEST SWAP2 POP POP SWAP3 SWAP2 POP POP JUMP JUMPDEST PUSH1 0x0 DUP1 PUSH1 0x40 DUP4 DUP6 SUB SLT ISZERO PUSH2 0x1824 JUMPI PUSH2 0x1823 PUSH2 0x2325 JUMP JUMPDEST JUMPDEST PUSH1 0x0 PUSH2 0x1832 DUP6 DUP3 DUP7 ADD PUSH2 0x1749 JUMP JUMPDEST SWAP3 POP POP PUSH1 0x20 PUSH2 0x1843 DUP6 DUP3 DUP7 ADD PUSH2 0x1749 JUMP JUMPDEST SWAP2 POP POP SWAP3 POP SWAP3 SWAP1 POP JUMP JUMPDEST PUSH1 0x0 DUP1 PUSH1 0x0 PUSH1 0x60 DUP5 DUP7 SUB SLT ISZERO PUSH2 0x1866 JUMPI PUSH2 0x1865 PUSH2 0x2325 JUMP JUMPDEST JUMPDEST PUSH1 0x0 PUSH2 0x1874 DUP7 DUP3 DUP8 ADD PUSH2 0x1749 JUMP JUMPDEST SWAP4 POP POP PUSH1 0x20 PUSH2 0x1885 DUP7 DUP3 DUP8 ADD PUSH2 0x1749 JUMP JUMPDEST SWAP3 POP POP PUSH1 0x40 PUSH2 0x1896 DUP7 DUP3 DUP8 ADD PUSH2 0x17CB JUMP JUMPDEST SWAP2 POP POP SWAP3 POP SWAP3 POP SWAP3 JUMP JUMPDEST PUSH1 0x0 DUP1 PUSH1 0x0 DUP1 PUSH1 0x80 DUP6 DUP8 SUB SLT ISZERO PUSH2 0x18BA JUMPI PUSH2 0x18B9 PUSH2 0x2325 JUMP JUMPDEST JUMPDEST PUSH1 0x0 PUSH2 0x18C8 DUP8 DUP3 DUP9 ADD PUSH2 0x1749 JUMP JUMPDEST SWAP5 POP POP PUSH1 0x20 PUSH2 0x18D9 DUP8 DUP3 DUP9 ADD PUSH2 0x1749 JUMP JUMPDEST SWAP4 POP POP PUSH1 0x40 PUSH2 0x18EA DUP8 DUP3 DUP9 ADD PUSH2 0x17CB JUMP JUMPDEST SWAP3 POP POP PUSH1 0x60 DUP6 ADD CALLDATALOAD PUSH8 0xFFFFFFFFFFFFFFFF DUP2 GT ISZERO PUSH2 0x190B JUMPI PUSH2 0x190A PUSH2 0x2320 JUMP JUMPDEST JUMPDEST PUSH2 0x1917 DUP8 DUP3 DUP9 ADD PUSH2 0x179D JUMP JUMPDEST SWAP2 POP POP SWAP3 SWAP6 SWAP2 SWAP5 POP SWAP3 POP JUMP JUMPDEST PUSH1 0x0 DUP1 PUSH1 0x40 DUP4 DUP6 SUB SLT ISZERO PUSH2 0x193A JUMPI PUSH2 0x1939 PUSH2 0x2325 JUMP JUMPDEST JUMPDEST PUSH1 0x0 PUSH2 0x1948 DUP6 DUP3 DUP7 ADD PUSH2 0x1749 JUMP JUMPDEST SWAP3 POP POP PUSH1 0x20 PUSH2 0x1959 DUP6 DUP3 DUP7 ADD PUSH2 0x175E JUMP JUMPDEST SWAP2 POP POP SWAP3 POP SWAP3 SWAP1 POP JUMP JUMPDEST PUSH1 0x0 DUP1 PUSH1 0x40 DUP4 DUP6 SUB SLT ISZERO PUSH2 0x197A JUMPI PUSH2 0x1979 PUSH2 0x2325 JUMP JUMPDEST JUMPDEST PUSH1 0x0 PUSH2 0x1988 DUP6 DUP3 DUP7 ADD PUSH2 0x1749 JUMP JUMPDEST SWAP3 POP POP PUSH1 0x20 PUSH2 0x1999 DUP6 DUP3 DUP7 ADD PUSH2 0x17CB JUMP JUMPDEST SWAP2 POP POP SWAP3 POP SWAP3 SWAP1 POP JUMP JUMPDEST PUSH1 0x0 PUSH1 0x20 DUP3 DUP5 SUB SLT ISZERO PUSH2 0x19B9 JUMPI PUSH2 0x19B8 PUSH2 0x2325 JUMP JUMPDEST JUMPDEST PUSH1 0x0 PUSH2 0x19C7 DUP5 DUP3 DUP6 ADD PUSH2 0x1773 JUMP JUMPDEST SWAP2 POP POP SWAP3 SWAP2 POP POP JUMP JUMPDEST PUSH1 0x0 PUSH1 0x20 DUP3 DUP5 SUB SLT ISZERO PUSH2 0x19E6 JUMPI PUSH2 0x19E5 PUSH2 0x2325 JUMP JUMPDEST JUMPDEST PUSH1 0x0 PUSH2 0x19F4 DUP5 DUP3 DUP6 ADD PUSH2 0x1788 JUMP JUMPDEST SWAP2 POP POP SWAP3 SWAP2 POP POP JUMP JUMPDEST PUSH1 0x0 PUSH1 0x20 DUP3 DUP5 SUB SLT ISZERO PUSH2 0x1A13 JUMPI PUSH2 0x1A12 PUSH2 0x2325 JUMP JUMPDEST JUMPDEST PUSH1 0x0 PUSH2 0x1A21 DUP5 DUP3 DUP6 ADD PUSH2 0x17CB JUMP JUMPDEST SWAP2 POP POP SWAP3 SWAP2 POP POP JUMP JUMPDEST PUSH2 0x1A33 DUP2 PUSH2 0x2098 JUMP JUMPDEST DUP3 MSTORE POP POP JUMP JUMPDEST PUSH2 0x1A42 DUP2 PUSH2 0x20AA JUMP JUMPDEST DUP3 MSTORE POP POP JUMP JUMPDEST PUSH1 0x0 PUSH2 0x1A53 DUP3 PUSH2 0x1F9A JUMP JUMPDEST PUSH2 0x1A5D DUP2 DUP6 PUSH2 0x1FB0 JUMP JUMPDEST SWAP4 POP PUSH2 0x1A6D DUP2 DUP6 PUSH1 0x20 DUP7 ADD PUSH2 0x211B JUMP JUMPDEST PUSH2 0x1A76 DUP2 PUSH2 0x232A JUMP JUMPDEST DUP5 ADD SWAP2 POP POP SWAP3 SWAP2 POP POP JUMP JUMPDEST PUSH1 0x0 PUSH2 0x1A8C DUP3 PUSH2 0x1FA5 JUMP JUMPDEST PUSH2 0x1A96 DUP2 DUP6 PUSH2 0x1FC1 JUMP JUMPDEST SWAP4 POP PUSH2 0x1AA6 DUP2 DUP6 PUSH1 0x20 DUP7 ADD PUSH2 0x211B JUMP JUMPDEST PUSH2 0x1AAF DUP2 PUSH2 0x232A JUMP JUMPDEST DUP5 ADD SWAP2 POP POP SWAP3 SWAP2 POP POP JUMP JUMPDEST PUSH1 0x0 PUSH2 0x1AC5 DUP3 PUSH2 0x1FA5 JUMP JUMPDEST PUSH2 0x1ACF DUP2 DUP6 PUSH2 0x1FD2 JUMP JUMPDEST SWAP4 POP PUSH2 0x1ADF DUP2 DUP6 PUSH1 0x20 DUP7 ADD PUSH2 0x211B JUMP JUMPDEST DUP1 DUP5 ADD SWAP2 POP POP SWAP3 SWAP2 POP POP JUMP JUMPDEST PUSH1 0x0 PUSH2 0x1AF8 PUSH1 0x14 DUP4 PUSH2 0x1FC1 JUMP JUMPDEST SWAP2 POP PUSH2 0x1B03 DUP3 PUSH2 0x233B JUMP JUMPDEST PUSH1 0x20 DUP3 ADD SWAP1 POP SWAP2 SWAP1 POP JUMP JUMPDEST PUSH1 0x0 PUSH2 0x1B1B PUSH1 0x15 DUP4 PUSH2 0x1FC1 JUMP JUMPDEST SWAP2 POP PUSH2 0x1B26 DUP3 PUSH2 0x2364 JUMP JUMPDEST PUSH1 0x20 DUP3 ADD SWAP1 POP SWAP2 SWAP1 POP JUMP JUMPDEST PUSH1 0x0 PUSH2 0x1B3E PUSH1 0x1C DUP4 PUSH2 0x1FC1 JUMP JUMPDEST SWAP2 POP PUSH2 0x1B49 DUP3 PUSH2 0x238D JUMP JUMPDEST PUSH1 0x20 DUP3 ADD SWAP1 POP SWAP2 SWAP1 POP JUMP JUMPDEST PUSH1 0x0 PUSH2 0x1B61 PUSH1 0x1E DUP4 PUSH2 0x1FC1 JUMP JUMPDEST SWAP2 POP PUSH2 0x1B6C DUP3 PUSH2 0x23B6 JUMP JUMPDEST PUSH1 0x20 DUP3 ADD SWAP1 POP SWAP2 SWAP1 POP JUMP JUMPDEST PUSH1 0x0 PUSH2 0x1B84 PUSH1 0x15 DUP4 PUSH2 0x1FC1 JUMP JUMPDEST SWAP2 POP PUSH2 0x1B8F DUP3 PUSH2 0x23DF JUMP JUMPDEST PUSH1 0x20 DUP3 ADD SWAP1 POP SWAP2 SWAP1 POP JUMP JUMPDEST PUSH1 0x0 PUSH2 0x1BA7 PUSH1 0x15 DUP4 PUSH2 0x1FC1 JUMP JUMPDEST SWAP2 POP PUSH2 0x1BB2 DUP3 PUSH2 0x2408 JUMP JUMPDEST PUSH1 0x20 DUP3 ADD SWAP1 POP SWAP2 SWAP1 POP JUMP JUMPDEST PUSH1 0x0 PUSH2 0x1BCA PUSH1 0x1E DUP4 PUSH2 0x1FC1 JUMP JUMPDEST SWAP2 POP PUSH2 0x1BD5 DUP3 PUSH2 0x2431 JUMP JUMPDEST PUSH1 0x20 DUP3 ADD SWAP1 POP SWAP2 SWAP1 POP JUMP JUMPDEST PUSH1 0x0 PUSH2 0x1BED PUSH1 0x13 DUP4 PUSH2 0x1FC1 JUMP JUMPDEST SWAP2 POP PUSH2 0x1BF8 DUP3 PUSH2 0x245A JUMP JUMPDEST PUSH1 0x20 DUP3 ADD SWAP1 POP SWAP2 SWAP1 POP JUMP JUMPDEST PUSH1 0x0 PUSH2 0x1C10 PUSH1 0x15 DUP4 PUSH2 0x1FC1 JUMP JUMPDEST SWAP2 POP PUSH2 0x1C1B DUP3 PUSH2 0x2483 JUMP JUMPDEST PUSH1 0x20 DUP3 ADD SWAP1 POP SWAP2 SWAP1 POP JUMP JUMPDEST PUSH1 0x0 PUSH2 0x1C33 PUSH1 0xF DUP4 PUSH2 0x1FC1 JUMP JUMPDEST SWAP2 POP PUSH2 0x1C3E DUP3 PUSH2 0x24AC JUMP JUMPDEST PUSH1 0x20 DUP3 ADD SWAP1 POP SWAP2 SWAP1 POP JUMP JUMPDEST PUSH1 0x0 PUSH2 0x1C56 PUSH1 0x14 DUP4 PUSH2 0x1FC1 JUMP JUMPDEST SWAP2 POP PUSH2 0x1C61 DUP3 PUSH2 0x24D5 JUMP JUMPDEST PUSH1 0x20 DUP3 ADD SWAP1 POP SWAP2 SWAP1 POP JUMP JUMPDEST PUSH1 0x0 PUSH2 0x1C79 PUSH1 0x12 DUP4 PUSH2 0x1FC1 JUMP JUMPDEST SWAP2 POP PUSH2 0x1C84 DUP3 PUSH2 0x24FE JUMP JUMPDEST PUSH1 0x20 DUP3 ADD SWAP1 POP SWAP2 SWAP1 POP JUMP JUMPDEST PUSH1 0x0 PUSH2 0x1C9C PUSH1 0x9 DUP4 PUSH2 0x1FC1 JUMP JUMPDEST SWAP2 POP PUSH2 0x1CA7 DUP3 PUSH2 0x2527 JUMP JUMPDEST PUSH1 0x20 DUP3 ADD SWAP1 POP SWAP2 SWAP1 POP JUMP JUMPDEST PUSH2 0x1CBB DUP2 PUSH2 0x2102 JUMP JUMPDEST DUP3 MSTORE POP POP JUMP JUMPDEST PUSH1 0x0 PUSH2 0x1CCD DUP3 DUP6 PUSH2 0x1ABA JUMP JUMPDEST SWAP2 POP PUSH2 0x1CD9 DUP3 DUP5 PUSH2 0x1ABA JUMP JUMPDEST SWAP2 POP DUP2 SWAP1 POP SWAP4 SWAP3 POP POP POP JUMP JUMPDEST PUSH1 0x0 PUSH1 0x20 DUP3 ADD SWAP1 POP PUSH2 0x1CFA PUSH1 0x0 DUP4 ADD DUP5 PUSH2 0x1A2A JUMP JUMPDEST SWAP3 SWAP2 POP POP JUMP JUMPDEST PUSH1 0x0 PUSH1 0x80 DUP3 ADD SWAP1 POP PUSH2 0x1D15 PUSH1 0x0 DUP4 ADD DUP8 PUSH2 0x1A2A JUMP JUMPDEST PUSH2 0x1D22 PUSH1 0x20 DUP4 ADD DUP7 PUSH2 0x1A2A JUMP JUMPDEST PUSH2 0x1D2F PUSH1 0x40 DUP4 ADD DUP6 PUSH2 0x1CB2 JUMP JUMPDEST DUP2 DUP2 SUB PUSH1 0x60 DUP4 ADD MSTORE PUSH2 0x1D41 DUP2 DUP5 PUSH2 0x1A48 JUMP JUMPDEST SWAP1 POP SWAP6 SWAP5 POP POP POP POP POP JUMP JUMPDEST PUSH1 0x0 PUSH1 0x20 DUP3 ADD SWAP1 POP PUSH2 0x1D61 PUSH1 0x0 DUP4 ADD DUP5 PUSH2 0x1A39 JUMP JUMPDEST SWAP3 SWAP2 POP POP JUMP JUMPDEST PUSH1 0x0 PUSH1 0x20 DUP3 ADD SWAP1 POP DUP2 DUP2 SUB PUSH1 0x0 DUP4 ADD MSTORE PUSH2 0x1D81 DUP2 DUP5 PUSH2 0x1A81 JUMP JUMPDEST SWAP1 POP SWAP3 SWAP2 POP POP JUMP JUMPDEST PUSH1 0x0 PUSH1 0x20 DUP3 ADD SWAP1 POP DUP2 DUP2 SUB PUSH1 0x0 DUP4 ADD MSTORE PUSH2 0x1DA2 DUP2 PUSH2 0x1AEB JUMP JUMPDEST SWAP1 POP SWAP2 SWAP1 POP JUMP JUMPDEST PUSH1 0x0 PUSH1 0x20 DUP3 ADD SWAP1 POP DUP2 DUP2 SUB PUSH1 0x0 DUP4 ADD MSTORE PUSH2 0x1DC2 DUP2 PUSH2 0x1B0E JUMP JUMPDEST SWAP1 POP SWAP2 SWAP1 POP JUMP JUMPDEST PUSH1 0x0 PUSH1 0x20 DUP3 ADD SWAP1 POP DUP2 DUP2 SUB PUSH1 0x0 DUP4 ADD MSTORE PUSH2 0x1DE2 DUP2 PUSH2 0x1B31 JUMP JUMPDEST SWAP1 POP SWAP2 SWAP1 POP JUMP JUMPDEST PUSH1 0x0 PUSH1 0x20 DUP3 ADD SWAP1 POP DUP2 DUP2 SUB PUSH1 0x0 DUP4 ADD MSTORE PUSH2 0x1E02 DUP2 PUSH2 0x1B54 JUMP JUMPDEST SWAP1 POP SWAP2 SWAP1 POP JUMP JUMPDEST PUSH1 0x0 PUSH1 0x20 DUP3 ADD SWAP1 POP DUP2 DUP2 SUB PUSH1 0x0 DUP4 ADD MSTORE PUSH2 0x1E22 DUP2 PUSH2 0x1B77 JUMP JUMPDEST SWAP1 POP SWAP2 SWAP1 POP JUMP JUMPDEST PUSH1 0x0 PUSH1 0x20 DUP3 ADD SWAP1 POP DUP2 DUP2 SUB PUSH1 0x0 DUP4 ADD MSTORE PUSH2 0x1E42 DUP2 PUSH2 0x1B9A JUMP JUMPDEST SWAP1 POP SWAP2 SWAP1 POP JUMP JUMPDEST PUSH1 0x0 PUSH1 0x20 DUP3 ADD SWAP1 POP DUP2 DUP2 SUB PUSH1 0x0 DUP4 ADD MSTORE PUSH2 0x1E62 DUP2 PUSH2 0x1BBD JUMP JUMPDEST SWAP1 POP SWAP2 SWAP1 POP JUMP JUMPDEST PUSH1 0x0 PUSH1 0x20 DUP3 ADD SWAP1 POP DUP2 DUP2 SUB PUSH1 0x0 DUP4 ADD MSTORE PUSH2 0x1E82 DUP2 PUSH2 0x1BE0 JUMP JUMPDEST SWAP1 POP SWAP2 SWAP1 POP JUMP JUMPDEST PUSH1 0x0 PUSH1 0x20 DUP3 ADD SWAP1 POP DUP2 DUP2 SUB PUSH1 0x0 DUP4 ADD MSTORE PUSH2 0x1EA2 DUP2 PUSH2 0x1C03 JUMP JUMPDEST SWAP1 POP SWAP2 SWAP1 POP JUMP JUMPDEST PUSH1 0x0 PUSH1 0x20 DUP3 ADD SWAP1 POP DUP2 DUP2 SUB PUSH1 0x0 DUP4 ADD MSTORE PUSH2 0x1EC2 DUP2 PUSH2 0x1C26 JUMP JUMPDEST SWAP1 POP SWAP2 SWAP1 POP JUMP JUMPDEST PUSH1 0x0 PUSH1 0x20 DUP3 ADD SWAP1 POP DUP2 DUP2 SUB PUSH1 0x0 DUP4 ADD MSTORE PUSH2 0x1EE2 DUP2 PUSH2 0x1C49 JUMP JUMPDEST SWAP1 POP SWAP2 SWAP1 POP JUMP JUMPDEST PUSH1 0x0 PUSH1 0x20 DUP3 ADD SWAP1 POP DUP2 DUP2 SUB PUSH1 0x0 DUP4 ADD MSTORE PUSH2 0x1F02 DUP2 PUSH2 0x1C6C JUMP JUMPDEST SWAP1 POP SWAP2 SWAP1 POP JUMP JUMPDEST PUSH1 0x0 PUSH1 0x20 DUP3 ADD SWAP1 POP DUP2 DUP2 SUB PUSH1 0x0 DUP4 ADD MSTORE PUSH2 0x1F22 DUP2 PUSH2 0x1C8F JUMP JUMPDEST SWAP1 POP SWAP2 SWAP1 POP JUMP JUMPDEST PUSH1 0x0 PUSH1 0x20 DUP3 ADD SWAP1 POP PUSH2 0x1F3E PUSH1 0x0 DUP4 ADD DUP5 PUSH2 0x1CB2 JUMP JUMPDEST SWAP3 SWAP2 POP POP JUMP JUMPDEST PUSH1 0x0 PUSH2 0x1F4E PUSH2 0x1F5F JUMP JUMPDEST SWAP1 POP PUSH2 0x1F5A DUP3 DUP3 PUSH2 0x2180 JUMP JUMPDEST SWAP2 SWAP1 POP JUMP JUMPDEST PUSH1 0x0 PUSH1 0x40 MLOAD SWAP1 POP SWAP1 JUMP JUMPDEST PUSH1 0x0 PUSH8 0xFFFFFFFFFFFFFFFF DUP3 GT ISZERO PUSH2 0x1F84 JUMPI PUSH2 0x1F83 PUSH2 0x22E7 JUMP JUMPDEST JUMPDEST PUSH2 0x1F8D DUP3 PUSH2 0x232A JUMP JUMPDEST SWAP1 POP PUSH1 0x20 DUP2 ADD SWAP1 POP SWAP2 SWAP1 POP JUMP JUMPDEST PUSH1 0x0 DUP2 MLOAD SWAP1 POP SWAP2 SWAP1 POP JUMP JUMPDEST PUSH1 0x0 DUP2 MLOAD SWAP1 POP SWAP2 SWAP1 POP JUMP JUMPDEST PUSH1 0x0 DUP3 DUP3 MSTORE PUSH1 0x20 DUP3 ADD SWAP1 POP SWAP3 SWAP2 POP POP JUMP JUMPDEST PUSH1 0x0 DUP3 DUP3 MSTORE PUSH1 0x20 DUP3 ADD SWAP1 POP SWAP3 SWAP2 POP POP JUMP JUMPDEST PUSH1 0x0 DUP2 SWAP1 POP SWAP3 SWAP2 POP POP JUMP JUMPDEST PUSH1 0x0 PUSH2 0x1FE8 DUP3 PUSH2 0x2102 JUMP JUMPDEST SWAP2 POP PUSH2 0x1FF3 DUP4 PUSH2 0x2102 JUMP JUMPDEST SWAP3 POP DUP3 PUSH32 0xFFFFFFFFFFFFFFFFFFFFFFFFFFFFFFFFFFFFFFFFFFFFFFFFFFFFFFFFFFFFFFFF SUB DUP3 GT ISZERO PUSH2 0x2028 JUMPI PUSH2 0x2027 PUSH2 0x222B JUMP JUMPDEST JUMPDEST DUP3 DUP3 ADD SWAP1 POP SWAP3 SWAP2 POP POP JUMP JUMPDEST PUSH1 0x0 PUSH2 0x203E DUP3 PUSH2 0x2102 JUMP JUMPDEST SWAP2 POP PUSH2 0x2049 DUP4 PUSH2 0x2102 JUMP JUMPDEST SWAP3 POP DUP3 PUSH2 0x2059 JUMPI PUSH2 0x2058 PUSH2 0x225A JUMP JUMPDEST JUMPDEST DUP3 DUP3 DIV SWAP1 POP SWAP3 SWAP2 POP POP JUMP JUMPDEST PUSH1 0x0 PUSH2 0x206F DUP3 PUSH2 0x2102 JUMP JUMPDEST SWAP2 POP PUSH2 0x207A DUP4 PUSH2 0x2102 JUMP JUMPDEST SWAP3 POP DUP3 DUP3 LT ISZERO PUSH2 0x208D JUMPI PUSH2 0x208C PUSH2 0x222B JUMP JUMPDEST JUMPDEST DUP3 DUP3 SUB SWAP1 POP SWAP3 SWAP2 POP POP JUMP JUMPDEST PUSH1 0x0 PUSH2 0x20A3 DUP3 PUSH2 0x20E2 JUMP JUMPDEST SWAP1 POP SWAP2 SWAP1 POP JUMP JUMPDEST PUSH1 0x0 DUP2 ISZERO ISZERO SWAP1 POP SWAP2 SWAP1 POP JUMP JUMPDEST PUSH1 0x0 PUSH32 0xFFFFFFFF00000000000000000000000000000000000000000000000000000000 DUP3 AND SWAP1 POP SWAP2 SWAP1 POP JUMP JUMPDEST PUSH1 0x0 PUSH20 0xFFFFFFFFFFFFFFFFFFFFFFFFFFFFFFFFFFFFFFFF DUP3 AND SWAP1 POP SWAP2 SWAP1 POP JUMP JUMPDEST PUSH1 0x0 DUP2 SWAP1 POP SWAP2 SWAP1 POP JUMP JUMPDEST DUP3 DUP2 DUP4 CALLDATACOPY PUSH1 0x0 DUP4 DUP4 ADD MSTORE POP POP POP JUMP JUMPDEST PUSH1 0x0 JUMPDEST DUP4 DUP2 LT ISZERO PUSH2 0x2139 JUMPI DUP1 DUP3 ADD MLOAD DUP2 DUP5 ADD MSTORE PUSH1 0x20 DUP2 ADD SWAP1 POP PUSH2 0x211E JUMP JUMPDEST DUP4 DUP2 GT ISZERO PUSH2 0x2148 JUMPI PUSH1 0x0 DUP5 DUP5 ADD MSTORE JUMPDEST POP POP POP POP JUMP JUMPDEST PUSH1 0x0 PUSH1 0x2 DUP3 DIV SWAP1 POP PUSH1 0x1 DUP3 AND DUP1 PUSH2 0x2166 JUMPI PUSH1 0x7F DUP3 AND SWAP2 POP JUMPDEST PUSH1 0x20 DUP3 LT DUP2 EQ ISZERO PUSH2 0x217A JUMPI PUSH2 0x2179 PUSH2 0x2289 JUMP JUMPDEST JUMPDEST POP SWAP2 SWAP1 POP JUMP JUMPDEST PUSH2 0x2189 DUP3 PUSH2 0x232A JUMP JUMPDEST DUP2 ADD DUP2 DUP2 LT PUSH8 0xFFFFFFFFFFFFFFFF DUP3 GT OR ISZERO PUSH2 0x21A8 JUMPI PUSH2 0x21A7 PUSH2 0x22E7 JUMP JUMPDEST JUMPDEST DUP1 PUSH1 0x40 MSTORE POP POP POP JUMP JUMPDEST PUSH1 0x0 PUSH2 0x21BC DUP3 PUSH2 0x2102 JUMP JUMPDEST SWAP2 POP PUSH32 0xFFFFFFFFFFFFFFFFFFFFFFFFFFFFFFFFFFFFFFFFFFFFFFFFFFFFFFFFFFFFFFFF DUP3 EQ ISZERO PUSH2 0x21EF JUMPI PUSH2 0x21EE PUSH2 0x222B JUMP JUMPDEST JUMPDEST PUSH1 0x1 DUP3 ADD SWAP1 POP SWAP2 SWAP1 POP JUMP JUMPDEST PUSH1 0x0 PUSH2 0x2205 DUP3 PUSH2 0x2102 JUMP JUMPDEST SWAP2 POP PUSH2 0x2210 DUP4 PUSH2 0x2102 JUMP JUMPDEST SWAP3 POP DUP3 PUSH2 0x2220 JUMPI PUSH2 0x221F PUSH2 0x225A JUMP JUMPDEST JUMPDEST DUP3 DUP3 MOD SWAP1 POP SWAP3 SWAP2 POP POP JUMP JUMPDEST PUSH32 0x4E487B7100000000000000000000000000000000000000000000000000000000 PUSH1 0x0 MSTORE PUSH1 0x11 PUSH1 0x4 MSTORE PUSH1 0x24 PUSH1 0x0 REVERT JUMPDEST PUSH32 0x4E487B7100000000000000000000000000000000000000000000000000000000 PUSH1 0x0 MSTORE PUSH1 0x12 PUSH1 0x4 MSTORE PUSH1 0x24 PUSH1 0x0 REVERT JUMPDEST PUSH32 0x4E487B7100000000000000000000000000000000000000000000000000000000 PUSH1 0x0 MSTORE PUSH1 0x22 PUSH1 0x4 MSTORE PUSH1 0x24 PUSH1 0x0 REVERT JUMPDEST PUSH32 0x4E487B7100000000000000000000000000000000000000000000000000000000 PUSH1 0x0 MSTORE PUSH1 0x32 PUSH1 0x4 MSTORE PUSH1 0x24 PUSH1 0x0 REVERT JUMPDEST PUSH32 0x4E487B7100000000000000000000000000000000000000000000000000000000 PUSH1 0x0 MSTORE PUSH1 0x41 PUSH1 0x4 MSTORE PUSH1 0x24 PUSH1 0x0 REVERT JUMPDEST PUSH1 0x0 DUP1 REVERT JUMPDEST PUSH1 0x0 DUP1 REVERT JUMPDEST PUSH1 0x0 DUP1 REVERT JUMPDEST PUSH1 0x0 DUP1 REVERT JUMPDEST PUSH1 0x0 PUSH1 0x1F NOT PUSH1 0x1F DUP4 ADD AND SWAP1 POP SWAP2 SWAP1 POP JUMP JUMPDEST PUSH32 0x746F6B656E4964206F7574206F662072616E6765000000000000000000000000 PUSH1 0x0 DUP3 ADD MSTORE POP JUMP JUMPDEST PUSH32 0x6E6F74206F776E6572206F7220617070726F7665640000000000000000000000 PUSH1 0x0 DUP3 ADD MSTORE POP JUMP JUMPDEST PUSH32 0x7472616E7366657220746F20746865207A65726F206164647265737300000000 PUSH1 0x0 DUP3 ADD MSTORE POP JUMP JUMPDEST PUSH32 0x616464726573732063616E2774206265207A65726F2061646472657373210000 PUSH1 0x0 DUP3 ADD MSTORE POP JUMP JUMPDEST PUSH32 0x6F776E6572206973207A65726F20616464726573730000000000000000000000 PUSH1 0x0 DUP3 ADD MSTORE POP JUMP JUMPDEST PUSH32 0x746F6B656E2020646F65736E2774206578697374210000000000000000000000 PUSH1 0x0 DUP3 ADD MSTORE POP JUMP JUMPDEST PUSH32 0x6E6F74206F776E6572206E6F7220617070726F76656420666F7220616C6C0000 PUSH1 0x0 DUP3 ADD MSTORE POP JUMP JUMPDEST PUSH32 0x746F6B656E20646F65736E277420657869737400000000000000000000000000 PUSH1 0x0 DUP3 ADD MSTORE POP JUMP JUMPDEST PUSH32 0x746F6B656E20646F65736E277420617070726F76650000000000000000000000 PUSH1 0x0 DUP3 ADD MSTORE POP JUMP JUMPDEST PUSH32 0x546F6B656E204E6F742045786973740000000000000000000000000000000000 PUSH1 0x0 DUP3 ADD MSTORE POP JUMP JUMPDEST PUSH32 0x746F6B656E20616C7265616479206D696E746564000000000000000000000000 PUSH1 0x0 DUP3 ADD MSTORE POP JUMP JUMPDEST PUSH32 0x6E6F742045524337323152656365697665720000000000000000000000000000 PUSH1 0x0 DUP3 ADD MSTORE POP JUMP JUMPDEST PUSH32 0x6E6F74206F776E65720000000000000000000000000000000000000000000000 PUSH1 0x0 DUP3 ADD MSTORE POP JUMP JUMPDEST PUSH2 0x2559 DUP2 PUSH2 0x2098 JUMP JUMPDEST DUP2 EQ PUSH2 0x2564 JUMPI PUSH1 0x0 DUP1 REVERT JUMPDEST POP JUMP JUMPDEST PUSH2 0x2570 DUP2 PUSH2 0x20AA JUMP JUMPDEST DUP2 EQ PUSH2 0x257B JUMPI PUSH1 0x0 DUP1 REVERT JUMPDEST POP JUMP JUMPDEST PUSH2 0x2587 DUP2 PUSH2 0x20B6 JUMP JUMPDEST DUP2 EQ PUSH2 0x2592 JUMPI PUSH1 0x0 DUP1 REVERT JUMPDEST POP JUMP JUMPDEST PUSH2 0x259E DUP2 PUSH2 0x2102 JUMP JUMPDEST DUP2 EQ PUSH2 0x25A9 JUMPI PUSH1 0x0 DUP1 REVERT JUMPDEST POP JUMP INVALID PUSH10 0x7066733A2F2F516D6553 PUSH11 0x53696E4870506E6D586D73 PUSH17 0x4D6A776958794E367A533445397A636361 PUSH19 0x694752336A7863615774712FA2646970667358 0x22 SLT KECCAK256 0xBD BYTE 0xA5 PUSH25 0xD6FDA54844AC5F3E84E7F9EF3C3EFE67C72342DB089781F79F MSIZE CODECOPY 0xE4 PUSH5 0x736F6C6343 STOP ADDMOD SMOD STOP CALLER "
				},
				"gasEstimates": {
					"creation": {
						"codeDepositCost": "1950400",
						"executionCost": "infinite",
						"totalCost": "infinite"
					},
					"external": {
						"MAX_APES()": "2473",
						"approve(address,uint256)": "31556",
						"balanceOf(address)": "2924",
						"getApproved(uint256)": "7437",
						"isApprovedForAll(address,address)": "infinite",
						"mint(address,uint256)": "infinite",
						"name()": "infinite",
						"ownerOf(uint256)": "2979",
						"safeTransferFrom(address,address,uint256)": "infinite",
						"safeTransferFrom(address,address,uint256,bytes)": "infinite",
						"setApprovalForAll(address,bool)": "infinite",
						"supportsInterface(bytes4)": "754",
						"symbol()": "infinite",
						"tokenURI(uint256)": "infinite",
						"transferFrom(address,address,uint256)": "infinite"
					},
					"internal": {
						"_baseURI()": "infinite"
					}
				},
				"methodIdentifiers": {
					"MAX_APES()": "bb8a16bd",
					"approve(address,uint256)": "095ea7b3",
					"balanceOf(address)": "70a08231",
					"getApproved(uint256)": "081812fc",
					"isApprovedForAll(address,address)": "e985e9c5",
					"mint(address,uint256)": "40c10f19",
					"name()": "06fdde03",
					"ownerOf(uint256)": "6352211e",
					"safeTransferFrom(address,address,uint256)": "42842e0e",
					"safeTransferFrom(address,address,uint256,bytes)": "b88d4fde",
					"setApprovalForAll(address,bool)": "a22cb465",
					"supportsInterface(bytes4)": "01ffc9a7",
					"symbol()": "95d89b41",
					"tokenURI(uint256)": "c87b56dd",
					"transferFrom(address,address,uint256)": "23b872dd"
				}
			},
			"storageLayout": {
				"storage": [
					{
						"astId": 93,
						"contract": "ERC721/Ape.sol:WTFApe",
						"label": "name",
						"offset": 0,
						"slot": "0",
						"type": "t_string_storage"
					},
					{
						"astId": 96,
						"contract": "ERC721/Ape.sol:WTFApe",
						"label": "symbol",
						"offset": 0,
						"slot": "1",
						"type": "t_string_storage"
					},
					{
						"astId": 100,
						"contract": "ERC721/Ape.sol:WTFApe",
						"label": "_owner",
						"offset": 0,
						"slot": "2",
						"type": "t_mapping(t_uint256,t_address)"
					},
					{
						"astId": 104,
						"contract": "ERC721/Ape.sol:WTFApe",
						"label": "_balance",
						"offset": 0,
						"slot": "3",
						"type": "t_mapping(t_address,t_uint256)"
					},
					{
						"astId": 108,
						"contract": "ERC721/Ape.sol:WTFApe",
						"label": "_tokenApprovals",
						"offset": 0,
						"slot": "4",
						"type": "t_mapping(t_uint256,t_address)"
					},
					{
						"astId": 114,
						"contract": "ERC721/Ape.sol:WTFApe",
						"label": "_operatorApprovals",
						"offset": 0,
						"slot": "5",
						"type": "t_mapping(t_address,t_mapping(t_address,t_bool))"
					},
					{
						"astId": 26,
						"contract": "ERC721/Ape.sol:WTFApe",
						"label": "MAX_APES",
						"offset": 0,
						"slot": "6",
						"type": "t_uint256"
					}
				],
				"types": {
					"t_address": {
						"encoding": "inplace",
						"label": "address",
						"numberOfBytes": "20"
					},
					"t_bool": {
						"encoding": "inplace",
						"label": "bool",
						"numberOfBytes": "1"
					},
					"t_mapping(t_address,t_bool)": {
						"encoding": "mapping",
						"key": "t_address",
						"label": "mapping(address => bool)",
						"numberOfBytes": "32",
						"value": "t_bool"
					},
					"t_mapping(t_address,t_mapping(t_address,t_bool))": {
						"encoding": "mapping",
						"key": "t_address",
						"label": "mapping(address => mapping(address => bool))",
						"numberOfBytes": "32",
						"value": "t_mapping(t_address,t_bool)"
					},
					"t_mapping(t_address,t_uint256)": {
						"encoding": "mapping",
						"key": "t_address",
						"label": "mapping(address => uint256)",
						"numberOfBytes": "32",
						"value": "t_uint256"
					},
					"t_mapping(t_uint256,t_address)": {
						"encoding": "mapping",
						"key": "t_uint256",
						"label": "mapping(uint256 => address)",
						"numberOfBytes": "32",
						"value": "t_address"
					},
					"t_string_storage": {
						"encoding": "bytes",
						"label": "string",
						"numberOfBytes": "32"
					},
					"t_uint256": {
						"encoding": "inplace",
						"label": "uint256",
						"numberOfBytes": "32"
					}
				}
			},
			"userdoc": {
				"kind": "user",
				"methods": {
					"tokenURI(uint256)": {
						"notice": "实现IERC721Metadata的tokenURI函数，查询metadata。"
					}
				},
				"version": 1
			}
		}
	}
}