{
	"airport/airport.sol": {
		"airport": {
			"abi": [
				{
					"inputs": [
						{
							"internalType": "uint256[]",
							"name": "arr",
							"type": "uint256[]"
						}
					],
					"name": "getSum",
					"outputs": [
						{
							"internalType": "uint256",
							"name": "sum",
							"type": "uint256"
						}
					],
					"stateMutability": "pure",
					"type": "function"
				},
				{
					"inputs": [
						{
							"internalType": "address",
							"name": "_token",
							"type": "address"
						},
						{
							"internalType": "address[]",
							"name": "_addresses",
							"type": "address[]"
						},
						{
							"internalType": "uint256[]",
							"name": "_amounts",
							"type": "uint256[]"
						}
					],
					"name": "multiTransferToken",
					"outputs": [],
					"stateMutability": "nonpayable",
					"type": "function"
				}
			],
			"devdoc": {
				"kind": "dev",
				"methods": {},
				"version": 1
			},
			"evm": {
				"assembly": "    /* \"airport/airport.sol\":60:479  contract airport{\r... */\n  mstore(0x40, 0x80)\n  callvalue\n  dup1\n  iszero\n  tag_1\n  jumpi\n  0x00\n  dup1\n  revert\ntag_1:\n  pop\n  dataSize(sub_0)\n  dup1\n  dataOffset(sub_0)\n  0x00\n  codecopy\n  0x00\n  return\nstop\n\nsub_0: assembly {\n        /* \"airport/airport.sol\":60:479  contract airport{\r... */\n      mstore(0x40, 0x80)\n      callvalue\n      dup1\n      iszero\n      tag_1\n      jumpi\n      0x00\n      dup1\n      revert\n    tag_1:\n      pop\n      jumpi(tag_2, lt(calldatasize, 0x04))\n      shr(0xe0, calldataload(0x00))\n      dup1\n      0x41ed24a2\n      eq\n      tag_3\n      jumpi\n      dup1\n      0xccb8c1e0\n      eq\n      tag_4\n      jumpi\n    tag_2:\n      0x00\n      dup1\n      revert\n        /* \"airport/airport.sol\":242:476  function multiTransferToken(\r... */\n    tag_3:\n      tag_5\n      0x04\n      dup1\n      calldatasize\n      sub\n      dup2\n      add\n      swap1\n      tag_6\n      swap2\n      swap1\n      tag_7\n      jump\t// in\n    tag_6:\n      tag_8\n      jump\t// in\n    tag_5:\n      stop\n        /* \"airport/airport.sol\":83:234  function getSum(uint256[] calldata arr) public pure returns(uint256 sum){\r... */\n    tag_4:\n      tag_9\n      0x04\n      dup1\n      calldatasize\n      sub\n      dup2\n      add\n      swap1\n      tag_10\n      swap2\n      swap1\n      tag_11\n      jump\t// in\n    tag_10:\n      tag_12\n      jump\t// in\n    tag_9:\n      mload(0x40)\n      tag_13\n      swap2\n      swap1\n      tag_14\n      jump\t// in\n    tag_13:\n      mload(0x40)\n      dup1\n      swap2\n      sub\n      swap1\n      return\n        /* \"airport/airport.sol\":242:476  function multiTransferToken(\r... */\n    tag_8:\n        /* \"airport/airport.sol\":432:440  _amounts */\n      dup2\n      dup2\n        /* \"airport/airport.sol\":432:447  _amounts.length */\n      swap1\n      pop\n        /* \"airport/airport.sol\":411:421  _addresses */\n      dup5\n      dup5\n        /* \"airport/airport.sol\":411:428  _addresses.length */\n      swap1\n      pop\n        /* \"airport/airport.sol\":411:447  _addresses.length == _amounts.length */\n      eq\n        /* \"airport/airport.sol\":403:466  require(_addresses.length == _amounts.length,\"the length need\") */\n      tag_16\n      jumpi\n      mload(0x40)\n      0x08c379a000000000000000000000000000000000000000000000000000000000\n      dup2\n      mstore\n      0x04\n      add\n      tag_17\n      swap1\n      tag_18\n      jump\t// in\n    tag_17:\n      mload(0x40)\n      dup1\n      swap2\n      sub\n      swap1\n      revert\n    tag_16:\n        /* \"airport/airport.sol\":242:476  function multiTransferToken(\r... */\n      pop\n      pop\n      pop\n      pop\n      pop\n      jump\t// out\n        /* \"airport/airport.sol\":83:234  function getSum(uint256[] calldata arr) public pure returns(uint256 sum){\r... */\n    tag_12:\n        /* \"airport/airport.sol\":143:154  uint256 sum */\n      0x00\n        /* \"airport/airport.sol\":170:176  uint i */\n      dup1\n        /* \"airport/airport.sol\":177:178  0 */\n      0x00\n        /* \"airport/airport.sol\":170:178  uint i=0 */\n      swap1\n      pop\n        /* \"airport/airport.sol\":166:226  for(uint i=0;i<arr.length;i++)\r... */\n    tag_20:\n        /* \"airport/airport.sol\":181:184  arr */\n      dup4\n      dup4\n        /* \"airport/airport.sol\":181:191  arr.length */\n      swap1\n      pop\n        /* \"airport/airport.sol\":179:180  i */\n      dup2\n        /* \"airport/airport.sol\":179:191  i<arr.length */\n      lt\n        /* \"airport/airport.sol\":166:226  for(uint i=0;i<arr.length;i++)\r... */\n      iszero\n      tag_21\n      jumpi\n        /* \"airport/airport.sol\":220:223  arr */\n      dup4\n      dup4\n        /* \"airport/airport.sol\":224:225  i */\n      dup3\n        /* \"airport/airport.sol\":220:226  arr[i] */\n      dup2\n      dup2\n      lt\n      tag_23\n      jumpi\n      tag_24\n      tag_25\n      jump\t// in\n    tag_24:\n    tag_23:\n      swap1\n      pop\n      0x20\n      mul\n      add\n      calldataload\n        /* \"airport/airport.sol\":216:219  sum */\n      dup3\n        /* \"airport/airport.sol\":216:226  sum+arr[i] */\n      tag_26\n      swap2\n      swap1\n      tag_27\n      jump\t// in\n    tag_26:\n        /* \"airport/airport.sol\":210:226  sum = sum+arr[i] */\n      swap2\n      pop\n        /* \"airport/airport.sol\":192:195  i++ */\n      dup1\n      dup1\n      tag_28\n      swap1\n      tag_29\n      jump\t// in\n    tag_28:\n      swap2\n      pop\n      pop\n        /* \"airport/airport.sol\":166:226  for(uint i=0;i<arr.length;i++)\r... */\n      jump(tag_20)\n    tag_21:\n      pop\n        /* \"airport/airport.sol\":83:234  function getSum(uint256[] calldata arr) public pure returns(uint256 sum){\r... */\n      swap3\n      swap2\n      pop\n      pop\n      jump\t// out\n        /* \"#utility.yul\":7:146   */\n    tag_31:\n        /* \"#utility.yul\":53:58   */\n      0x00\n        /* \"#utility.yul\":91:97   */\n      dup2\n        /* \"#utility.yul\":78:98   */\n      calldataload\n        /* \"#utility.yul\":69:98   */\n      swap1\n      pop\n        /* \"#utility.yul\":107:140   */\n      tag_33\n        /* \"#utility.yul\":134:139   */\n      dup2\n        /* \"#utility.yul\":107:140   */\n      tag_34\n      jump\t// in\n    tag_33:\n        /* \"#utility.yul\":7:146   */\n      swap3\n      swap2\n      pop\n      pop\n      jump\t// out\n        /* \"#utility.yul\":169:737   */\n    tag_35:\n        /* \"#utility.yul\":242:250   */\n      0x00\n        /* \"#utility.yul\":252:258   */\n      dup1\n        /* \"#utility.yul\":302:305   */\n      dup4\n        /* \"#utility.yul\":295:299   */\n      0x1f\n        /* \"#utility.yul\":287:293   */\n      dup5\n        /* \"#utility.yul\":283:300   */\n      add\n        /* \"#utility.yul\":279:306   */\n      slt\n        /* \"#utility.yul\":269:391   */\n      tag_37\n      jumpi\n        /* \"#utility.yul\":310:389   */\n      tag_38\n      tag_39\n      jump\t// in\n    tag_38:\n        /* \"#utility.yul\":269:391   */\n    tag_37:\n        /* \"#utility.yul\":423:429   */\n      dup3\n        /* \"#utility.yul\":410:430   */\n      calldataload\n        /* \"#utility.yul\":400:430   */\n      swap1\n      pop\n        /* \"#utility.yul\":453:471   */\n      0xffffffffffffffff\n        /* \"#utility.yul\":445:451   */\n      dup2\n        /* \"#utility.yul\":442:472   */\n      gt\n        /* \"#utility.yul\":439:556   */\n      iszero\n      tag_40\n      jumpi\n        /* \"#utility.yul\":475:554   */\n      tag_41\n      tag_42\n      jump\t// in\n    tag_41:\n        /* \"#utility.yul\":439:556   */\n    tag_40:\n        /* \"#utility.yul\":589:593   */\n      0x20\n        /* \"#utility.yul\":581:587   */\n      dup4\n        /* \"#utility.yul\":577:594   */\n      add\n        /* \"#utility.yul\":565:594   */\n      swap2\n      pop\n        /* \"#utility.yul\":643:646   */\n      dup4\n        /* \"#utility.yul\":635:639   */\n      0x20\n        /* \"#utility.yul\":627:633   */\n      dup3\n        /* \"#utility.yul\":623:640   */\n      mul\n        /* \"#utility.yul\":613:621   */\n      dup4\n        /* \"#utility.yul\":609:641   */\n      add\n        /* \"#utility.yul\":606:647   */\n      gt\n        /* \"#utility.yul\":603:731   */\n      iszero\n      tag_43\n      jumpi\n        /* \"#utility.yul\":650:729   */\n      tag_44\n      tag_45\n      jump\t// in\n    tag_44:\n        /* \"#utility.yul\":603:731   */\n    tag_43:\n        /* \"#utility.yul\":169:737   */\n      swap3\n      pop\n      swap3\n      swap1\n      pop\n      jump\t// out\n        /* \"#utility.yul\":760:1328   */\n    tag_46:\n        /* \"#utility.yul\":833:841   */\n      0x00\n        /* \"#utility.yul\":843:849   */\n      dup1\n        /* \"#utility.yul\":893:896   */\n      dup4\n        /* \"#utility.yul\":886:890   */\n      0x1f\n        /* \"#utility.yul\":878:884   */\n      dup5\n        /* \"#utility.yul\":874:891   */\n      add\n        /* \"#utility.yul\":870:897   */\n      slt\n        /* \"#utility.yul\":860:982   */\n      tag_48\n      jumpi\n        /* \"#utility.yul\":901:980   */\n      tag_49\n      tag_39\n      jump\t// in\n    tag_49:\n        /* \"#utility.yul\":860:982   */\n    tag_48:\n        /* \"#utility.yul\":1014:1020   */\n      dup3\n        /* \"#utility.yul\":1001:1021   */\n      calldataload\n        /* \"#utility.yul\":991:1021   */\n      swap1\n      pop\n        /* \"#utility.yul\":1044:1062   */\n      0xffffffffffffffff\n        /* \"#utility.yul\":1036:1042   */\n      dup2\n        /* \"#utility.yul\":1033:1063   */\n      gt\n        /* \"#utility.yul\":1030:1147   */\n      iszero\n      tag_50\n      jumpi\n        /* \"#utility.yul\":1066:1145   */\n      tag_51\n      tag_42\n      jump\t// in\n    tag_51:\n        /* \"#utility.yul\":1030:1147   */\n    tag_50:\n        /* \"#utility.yul\":1180:1184   */\n      0x20\n        /* \"#utility.yul\":1172:1178   */\n      dup4\n        /* \"#utility.yul\":1168:1185   */\n      add\n        /* \"#utility.yul\":1156:1185   */\n      swap2\n      pop\n        /* \"#utility.yul\":1234:1237   */\n      dup4\n        /* \"#utility.yul\":1226:1230   */\n      0x20\n        /* \"#utility.yul\":1218:1224   */\n      dup3\n        /* \"#utility.yul\":1214:1231   */\n      mul\n        /* \"#utility.yul\":1204:1212   */\n      dup4\n        /* \"#utility.yul\":1200:1232   */\n      add\n        /* \"#utility.yul\":1197:1238   */\n      gt\n        /* \"#utility.yul\":1194:1322   */\n      iszero\n      tag_52\n      jumpi\n        /* \"#utility.yul\":1241:1320   */\n      tag_53\n      tag_45\n      jump\t// in\n    tag_53:\n        /* \"#utility.yul\":1194:1322   */\n    tag_52:\n        /* \"#utility.yul\":760:1328   */\n      swap3\n      pop\n      swap3\n      swap1\n      pop\n      jump\t// out\n        /* \"#utility.yul\":1334:2413   */\n    tag_7:\n        /* \"#utility.yul\":1465:1471   */\n      0x00\n        /* \"#utility.yul\":1473:1479   */\n      dup1\n        /* \"#utility.yul\":1481:1487   */\n      0x00\n        /* \"#utility.yul\":1489:1495   */\n      dup1\n        /* \"#utility.yul\":1497:1503   */\n      0x00\n        /* \"#utility.yul\":1546:1548   */\n      0x60\n        /* \"#utility.yul\":1534:1543   */\n      dup7\n        /* \"#utility.yul\":1525:1532   */\n      dup9\n        /* \"#utility.yul\":1521:1544   */\n      sub\n        /* \"#utility.yul\":1517:1549   */\n      slt\n        /* \"#utility.yul\":1514:1633   */\n      iszero\n      tag_55\n      jumpi\n        /* \"#utility.yul\":1552:1631   */\n      tag_56\n      tag_57\n      jump\t// in\n    tag_56:\n        /* \"#utility.yul\":1514:1633   */\n    tag_55:\n        /* \"#utility.yul\":1672:1673   */\n      0x00\n        /* \"#utility.yul\":1697:1750   */\n      tag_58\n        /* \"#utility.yul\":1742:1749   */\n      dup9\n        /* \"#utility.yul\":1733:1739   */\n      dup3\n        /* \"#utility.yul\":1722:1731   */\n      dup10\n        /* \"#utility.yul\":1718:1740   */\n      add\n        /* \"#utility.yul\":1697:1750   */\n      tag_31\n      jump\t// in\n    tag_58:\n        /* \"#utility.yul\":1687:1750   */\n      swap6\n      pop\n        /* \"#utility.yul\":1643:1760   */\n      pop\n        /* \"#utility.yul\":1827:1829   */\n      0x20\n        /* \"#utility.yul\":1816:1825   */\n      dup7\n        /* \"#utility.yul\":1812:1830   */\n      add\n        /* \"#utility.yul\":1799:1831   */\n      calldataload\n        /* \"#utility.yul\":1858:1876   */\n      0xffffffffffffffff\n        /* \"#utility.yul\":1850:1856   */\n      dup2\n        /* \"#utility.yul\":1847:1877   */\n      gt\n        /* \"#utility.yul\":1844:1961   */\n      iszero\n      tag_59\n      jumpi\n        /* \"#utility.yul\":1880:1959   */\n      tag_60\n      tag_61\n      jump\t// in\n    tag_60:\n        /* \"#utility.yul\":1844:1961   */\n    tag_59:\n        /* \"#utility.yul\":1993:2073   */\n      tag_62\n        /* \"#utility.yul\":2065:2072   */\n      dup9\n        /* \"#utility.yul\":2056:2062   */\n      dup3\n        /* \"#utility.yul\":2045:2054   */\n      dup10\n        /* \"#utility.yul\":2041:2063   */\n      add\n        /* \"#utility.yul\":1993:2073   */\n      tag_35\n      jump\t// in\n    tag_62:\n        /* \"#utility.yul\":1975:2073   */\n      swap5\n      pop\n      swap5\n      pop\n        /* \"#utility.yul\":1770:2083   */\n      pop\n        /* \"#utility.yul\":2150:2152   */\n      0x40\n        /* \"#utility.yul\":2139:2148   */\n      dup7\n        /* \"#utility.yul\":2135:2153   */\n      add\n        /* \"#utility.yul\":2122:2154   */\n      calldataload\n        /* \"#utility.yul\":2181:2199   */\n      0xffffffffffffffff\n        /* \"#utility.yul\":2173:2179   */\n      dup2\n        /* \"#utility.yul\":2170:2200   */\n      gt\n        /* \"#utility.yul\":2167:2284   */\n      iszero\n      tag_63\n      jumpi\n        /* \"#utility.yul\":2203:2282   */\n      tag_64\n      tag_61\n      jump\t// in\n    tag_64:\n        /* \"#utility.yul\":2167:2284   */\n    tag_63:\n        /* \"#utility.yul\":2316:2396   */\n      tag_65\n        /* \"#utility.yul\":2388:2395   */\n      dup9\n        /* \"#utility.yul\":2379:2385   */\n      dup3\n        /* \"#utility.yul\":2368:2377   */\n      dup10\n        /* \"#utility.yul\":2364:2386   */\n      add\n        /* \"#utility.yul\":2316:2396   */\n      tag_46\n      jump\t// in\n    tag_65:\n        /* \"#utility.yul\":2298:2396   */\n      swap3\n      pop\n      swap3\n      pop\n        /* \"#utility.yul\":2093:2406   */\n      pop\n        /* \"#utility.yul\":1334:2413   */\n      swap3\n      swap6\n      pop\n      swap3\n      swap6\n      swap1\n      swap4\n      pop\n      jump\t// out\n        /* \"#utility.yul\":2419:2978   */\n    tag_11:\n        /* \"#utility.yul\":2505:2511   */\n      0x00\n        /* \"#utility.yul\":2513:2519   */\n      dup1\n        /* \"#utility.yul\":2562:2564   */\n      0x20\n        /* \"#utility.yul\":2550:2559   */\n      dup4\n        /* \"#utility.yul\":2541:2548   */\n      dup6\n        /* \"#utility.yul\":2537:2560   */\n      sub\n        /* \"#utility.yul\":2533:2565   */\n      slt\n        /* \"#utility.yul\":2530:2649   */\n      iszero\n      tag_67\n      jumpi\n        /* \"#utility.yul\":2568:2647   */\n      tag_68\n      tag_57\n      jump\t// in\n    tag_68:\n        /* \"#utility.yul\":2530:2649   */\n    tag_67:\n        /* \"#utility.yul\":2716:2717   */\n      0x00\n        /* \"#utility.yul\":2705:2714   */\n      dup4\n        /* \"#utility.yul\":2701:2718   */\n      add\n        /* \"#utility.yul\":2688:2719   */\n      calldataload\n        /* \"#utility.yul\":2746:2764   */\n      0xffffffffffffffff\n        /* \"#utility.yul\":2738:2744   */\n      dup2\n        /* \"#utility.yul\":2735:2765   */\n      gt\n        /* \"#utility.yul\":2732:2849   */\n      iszero\n      tag_69\n      jumpi\n        /* \"#utility.yul\":2768:2847   */\n      tag_70\n      tag_61\n      jump\t// in\n    tag_70:\n        /* \"#utility.yul\":2732:2849   */\n    tag_69:\n        /* \"#utility.yul\":2881:2961   */\n      tag_71\n        /* \"#utility.yul\":2953:2960   */\n      dup6\n        /* \"#utility.yul\":2944:2950   */\n      dup3\n        /* \"#utility.yul\":2933:2942   */\n      dup7\n        /* \"#utility.yul\":2929:2951   */\n      add\n        /* \"#utility.yul\":2881:2961   */\n      tag_46\n      jump\t// in\n    tag_71:\n        /* \"#utility.yul\":2863:2961   */\n      swap3\n      pop\n      swap3\n      pop\n        /* \"#utility.yul\":2659:2971   */\n      pop\n        /* \"#utility.yul\":2419:2978   */\n      swap3\n      pop\n      swap3\n      swap1\n      pop\n      jump\t// out\n        /* \"#utility.yul\":2984:3350   */\n    tag_72:\n        /* \"#utility.yul\":3126:3129   */\n      0x00\n        /* \"#utility.yul\":3147:3214   */\n      tag_74\n        /* \"#utility.yul\":3211:3213   */\n      0x0f\n        /* \"#utility.yul\":3206:3209   */\n      dup4\n        /* \"#utility.yul\":3147:3214   */\n      tag_75\n      jump\t// in\n    tag_74:\n        /* \"#utility.yul\":3140:3214   */\n      swap2\n      pop\n        /* \"#utility.yul\":3223:3316   */\n      tag_76\n        /* \"#utility.yul\":3312:3315   */\n      dup3\n        /* \"#utility.yul\":3223:3316   */\n      tag_77\n      jump\t// in\n    tag_76:\n        /* \"#utility.yul\":3341:3343   */\n      0x20\n        /* \"#utility.yul\":3336:3339   */\n      dup3\n        /* \"#utility.yul\":3332:3344   */\n      add\n        /* \"#utility.yul\":3325:3344   */\n      swap1\n      pop\n        /* \"#utility.yul\":2984:3350   */\n      swap2\n      swap1\n      pop\n      jump\t// out\n        /* \"#utility.yul\":3356:3474   */\n    tag_78:\n        /* \"#utility.yul\":3443:3467   */\n      tag_80\n        /* \"#utility.yul\":3461:3466   */\n      dup2\n        /* \"#utility.yul\":3443:3467   */\n      tag_81\n      jump\t// in\n    tag_80:\n        /* \"#utility.yul\":3438:3441   */\n      dup3\n        /* \"#utility.yul\":3431:3468   */\n      mstore\n        /* \"#utility.yul\":3356:3474   */\n      pop\n      pop\n      jump\t// out\n        /* \"#utility.yul\":3480:3899   */\n    tag_18:\n        /* \"#utility.yul\":3646:3650   */\n      0x00\n        /* \"#utility.yul\":3684:3686   */\n      0x20\n        /* \"#utility.yul\":3673:3682   */\n      dup3\n        /* \"#utility.yul\":3669:3687   */\n      add\n        /* \"#utility.yul\":3661:3687   */\n      swap1\n      pop\n        /* \"#utility.yul\":3733:3742   */\n      dup2\n        /* \"#utility.yul\":3727:3731   */\n      dup2\n        /* \"#utility.yul\":3723:3743   */\n      sub\n        /* \"#utility.yul\":3719:3720   */\n      0x00\n        /* \"#utility.yul\":3708:3717   */\n      dup4\n        /* \"#utility.yul\":3704:3721   */\n      add\n        /* \"#utility.yul\":3697:3744   */\n      mstore\n        /* \"#utility.yul\":3761:3892   */\n      tag_83\n        /* \"#utility.yul\":3887:3891   */\n      dup2\n        /* \"#utility.yul\":3761:3892   */\n      tag_72\n      jump\t// in\n    tag_83:\n        /* \"#utility.yul\":3753:3892   */\n      swap1\n      pop\n        /* \"#utility.yul\":3480:3899   */\n      swap2\n      swap1\n      pop\n      jump\t// out\n        /* \"#utility.yul\":3905:4127   */\n    tag_14:\n        /* \"#utility.yul\":3998:4002   */\n      0x00\n        /* \"#utility.yul\":4036:4038   */\n      0x20\n        /* \"#utility.yul\":4025:4034   */\n      dup3\n        /* \"#utility.yul\":4021:4039   */\n      add\n        /* \"#utility.yul\":4013:4039   */\n      swap1\n      pop\n        /* \"#utility.yul\":4049:4120   */\n      tag_85\n        /* \"#utility.yul\":4117:4118   */\n      0x00\n        /* \"#utility.yul\":4106:4115   */\n      dup4\n        /* \"#utility.yul\":4102:4119   */\n      add\n        /* \"#utility.yul\":4093:4099   */\n      dup5\n        /* \"#utility.yul\":4049:4120   */\n      tag_78\n      jump\t// in\n    tag_85:\n        /* \"#utility.yul\":3905:4127   */\n      swap3\n      swap2\n      pop\n      pop\n      jump\t// out\n        /* \"#utility.yul\":4214:4383   */\n    tag_75:\n        /* \"#utility.yul\":4298:4309   */\n      0x00\n        /* \"#utility.yul\":4332:4338   */\n      dup3\n        /* \"#utility.yul\":4327:4330   */\n      dup3\n        /* \"#utility.yul\":4320:4339   */\n      mstore\n        /* \"#utility.yul\":4372:4376   */\n      0x20\n        /* \"#utility.yul\":4367:4370   */\n      dup3\n        /* \"#utility.yul\":4363:4377   */\n      add\n        /* \"#utility.yul\":4348:4377   */\n      swap1\n      pop\n        /* \"#utility.yul\":4214:4383   */\n      swap3\n      swap2\n      pop\n      pop\n      jump\t// out\n        /* \"#utility.yul\":4389:4694   */\n    tag_27:\n        /* \"#utility.yul\":4429:4432   */\n      0x00\n        /* \"#utility.yul\":4448:4468   */\n      tag_90\n        /* \"#utility.yul\":4466:4467   */\n      dup3\n        /* \"#utility.yul\":4448:4468   */\n      tag_81\n      jump\t// in\n    tag_90:\n        /* \"#utility.yul\":4443:4468   */\n      swap2\n      pop\n        /* \"#utility.yul\":4482:4502   */\n      tag_91\n        /* \"#utility.yul\":4500:4501   */\n      dup4\n        /* \"#utility.yul\":4482:4502   */\n      tag_81\n      jump\t// in\n    tag_91:\n        /* \"#utility.yul\":4477:4502   */\n      swap3\n      pop\n        /* \"#utility.yul\":4636:4637   */\n      dup3\n        /* \"#utility.yul\":4568:4634   */\n      0xffffffffffffffffffffffffffffffffffffffffffffffffffffffffffffffff\n        /* \"#utility.yul\":4564:4638   */\n      sub\n        /* \"#utility.yul\":4561:4562   */\n      dup3\n        /* \"#utility.yul\":4558:4639   */\n      gt\n        /* \"#utility.yul\":4555:4662   */\n      iszero\n      tag_92\n      jumpi\n        /* \"#utility.yul\":4642:4660   */\n      tag_93\n      tag_94\n      jump\t// in\n    tag_93:\n        /* \"#utility.yul\":4555:4662   */\n    tag_92:\n        /* \"#utility.yul\":4686:4687   */\n      dup3\n        /* \"#utility.yul\":4683:4684   */\n      dup3\n        /* \"#utility.yul\":4679:4688   */\n      add\n        /* \"#utility.yul\":4672:4688   */\n      swap1\n      pop\n        /* \"#utility.yul\":4389:4694   */\n      swap3\n      swap2\n      pop\n      pop\n      jump\t// out\n        /* \"#utility.yul\":4700:4796   */\n    tag_95:\n        /* \"#utility.yul\":4737:4744   */\n      0x00\n        /* \"#utility.yul\":4766:4790   */\n      tag_97\n        /* \"#utility.yul\":4784:4789   */\n      dup3\n        /* \"#utility.yul\":4766:4790   */\n      tag_98\n      jump\t// in\n    tag_97:\n        /* \"#utility.yul\":4755:4790   */\n      swap1\n      pop\n        /* \"#utility.yul\":4700:4796   */\n      swap2\n      swap1\n      pop\n      jump\t// out\n        /* \"#utility.yul\":4802:4928   */\n    tag_98:\n        /* \"#utility.yul\":4839:4846   */\n      0x00\n        /* \"#utility.yul\":4879:4921   */\n      0xffffffffffffffffffffffffffffffffffffffff\n        /* \"#utility.yul\":4872:4877   */\n      dup3\n        /* \"#utility.yul\":4868:4922   */\n      and\n        /* \"#utility.yul\":4857:4922   */\n      swap1\n      pop\n        /* \"#utility.yul\":4802:4928   */\n      swap2\n      swap1\n      pop\n      jump\t// out\n        /* \"#utility.yul\":4934:5011   */\n    tag_81:\n        /* \"#utility.yul\":4971:4978   */\n      0x00\n        /* \"#utility.yul\":5000:5005   */\n      dup2\n        /* \"#utility.yul\":4989:5005   */\n      swap1\n      pop\n        /* \"#utility.yul\":4934:5011   */\n      swap2\n      swap1\n      pop\n      jump\t// out\n        /* \"#utility.yul\":5017:5250   */\n    tag_29:\n        /* \"#utility.yul\":5056:5059   */\n      0x00\n        /* \"#utility.yul\":5079:5103   */\n      tag_102\n        /* \"#utility.yul\":5097:5102   */\n      dup3\n        /* \"#utility.yul\":5079:5103   */\n      tag_81\n      jump\t// in\n    tag_102:\n        /* \"#utility.yul\":5070:5103   */\n      swap2\n      pop\n        /* \"#utility.yul\":5125:5191   */\n      0xffffffffffffffffffffffffffffffffffffffffffffffffffffffffffffffff\n        /* \"#utility.yul\":5118:5123   */\n      dup3\n        /* \"#utility.yul\":5115:5192   */\n      eq\n        /* \"#utility.yul\":5112:5215   */\n      iszero\n      tag_103\n      jumpi\n        /* \"#utility.yul\":5195:5213   */\n      tag_104\n      tag_94\n      jump\t// in\n    tag_104:\n        /* \"#utility.yul\":5112:5215   */\n    tag_103:\n        /* \"#utility.yul\":5242:5243   */\n      0x01\n        /* \"#utility.yul\":5235:5240   */\n      dup3\n        /* \"#utility.yul\":5231:5244   */\n      add\n        /* \"#utility.yul\":5224:5244   */\n      swap1\n      pop\n        /* \"#utility.yul\":5017:5250   */\n      swap2\n      swap1\n      pop\n      jump\t// out\n        /* \"#utility.yul\":5256:5436   */\n    tag_94:\n        /* \"#utility.yul\":5304:5381   */\n      0x4e487b7100000000000000000000000000000000000000000000000000000000\n        /* \"#utility.yul\":5301:5302   */\n      0x00\n        /* \"#utility.yul\":5294:5382   */\n      mstore\n        /* \"#utility.yul\":5401:5405   */\n      0x11\n        /* \"#utility.yul\":5398:5399   */\n      0x04\n        /* \"#utility.yul\":5391:5406   */\n      mstore\n        /* \"#utility.yul\":5425:5429   */\n      0x24\n        /* \"#utility.yul\":5422:5423   */\n      0x00\n        /* \"#utility.yul\":5415:5430   */\n      revert\n        /* \"#utility.yul\":5442:5622   */\n    tag_25:\n        /* \"#utility.yul\":5490:5567   */\n      0x4e487b7100000000000000000000000000000000000000000000000000000000\n        /* \"#utility.yul\":5487:5488   */\n      0x00\n        /* \"#utility.yul\":5480:5568   */\n      mstore\n        /* \"#utility.yul\":5587:5591   */\n      0x32\n        /* \"#utility.yul\":5584:5585   */\n      0x04\n        /* \"#utility.yul\":5577:5592   */\n      mstore\n        /* \"#utility.yul\":5611:5615   */\n      0x24\n        /* \"#utility.yul\":5608:5609   */\n      0x00\n        /* \"#utility.yul\":5601:5616   */\n      revert\n        /* \"#utility.yul\":5628:5745   */\n    tag_42:\n        /* \"#utility.yul\":5737:5738   */\n      0x00\n        /* \"#utility.yul\":5734:5735   */\n      dup1\n        /* \"#utility.yul\":5727:5739   */\n      revert\n        /* \"#utility.yul\":5751:5868   */\n    tag_39:\n        /* \"#utility.yul\":5860:5861   */\n      0x00\n        /* \"#utility.yul\":5857:5858   */\n      dup1\n        /* \"#utility.yul\":5850:5862   */\n      revert\n        /* \"#utility.yul\":5874:5991   */\n    tag_45:\n        /* \"#utility.yul\":5983:5984   */\n      0x00\n        /* \"#utility.yul\":5980:5981   */\n      dup1\n        /* \"#utility.yul\":5973:5985   */\n      revert\n        /* \"#utility.yul\":5997:6114   */\n    tag_61:\n        /* \"#utility.yul\":6106:6107   */\n      0x00\n        /* \"#utility.yul\":6103:6104   */\n      dup1\n        /* \"#utility.yul\":6096:6108   */\n      revert\n        /* \"#utility.yul\":6120:6237   */\n    tag_57:\n        /* \"#utility.yul\":6229:6230   */\n      0x00\n        /* \"#utility.yul\":6226:6227   */\n      dup1\n        /* \"#utility.yul\":6219:6231   */\n      revert\n        /* \"#utility.yul\":6243:6408   */\n    tag_77:\n        /* \"#utility.yul\":6383:6400   */\n      0x746865206c656e677468206e6565640000000000000000000000000000000000\n        /* \"#utility.yul\":6379:6380   */\n      0x00\n        /* \"#utility.yul\":6371:6377   */\n      dup3\n        /* \"#utility.yul\":6367:6381   */\n      add\n        /* \"#utility.yul\":6360:6401   */\n      mstore\n        /* \"#utility.yul\":6243:6408   */\n      pop\n      jump\t// out\n        /* \"#utility.yul\":6414:6536   */\n    tag_34:\n        /* \"#utility.yul\":6487:6511   */\n      tag_114\n        /* \"#utility.yul\":6505:6510   */\n      dup2\n        /* \"#utility.yul\":6487:6511   */\n      tag_95\n      jump\t// in\n    tag_114:\n        /* \"#utility.yul\":6480:6485   */\n      dup2\n        /* \"#utility.yul\":6477:6512   */\n      eq\n        /* \"#utility.yul\":6467:6530   */\n      tag_115\n      jumpi\n        /* \"#utility.yul\":6526:6527   */\n      0x00\n        /* \"#utility.yul\":6523:6524   */\n      dup1\n        /* \"#utility.yul\":6516:6528   */\n      revert\n        /* \"#utility.yul\":6467:6530   */\n    tag_115:\n        /* \"#utility.yul\":6414:6536   */\n      pop\n      jump\t// out\n\n    auxdata: 0xa26469706673582212202ecc2defe4edf2d41e1a87a595ccad970f98fcd1350eb47fca4b761075bb05ee64736f6c63430008070033\n}\n",
				"bytecode": {
					"linkReferences": {},
					"object": "608060405234801561001057600080fd5b50610513806100206000396000f3fe608060405234801561001057600080fd5b50600436106100365760003560e01c806341ed24a21461003b578063ccb8c1e014610057575b600080fd5b610055600480360381019061005091906101eb565b610087565b005b610071600480360381019061006c9190610280565b6100d6565b60405161007e919061031f565b60405180910390f35b8181905084849050146100cf576040517f08c379a00000000000000000000000000000000000000000000000000000000081526004016100c6906102ff565b60405180910390fd5b5050505050565b600080600090505b83839050811015610123578383828181106100fc576100fb610455565b5b905060200201358261010e919061034b565b9150808061011b906103dd565b9150506100de565b5092915050565b600081359050610139816104c6565b92915050565b60008083601f84011261015557610154610489565b5b8235905067ffffffffffffffff81111561017257610171610484565b5b60208301915083602082028301111561018e5761018d61048e565b5b9250929050565b60008083601f8401126101ab576101aa610489565b5b8235905067ffffffffffffffff8111156101c8576101c7610484565b5b6020830191508360208202830111156101e4576101e361048e565b5b9250929050565b60008060008060006060868803121561020757610206610498565b5b60006102158882890161012a565b955050602086013567ffffffffffffffff81111561023657610235610493565b5b6102428882890161013f565b9450945050604086013567ffffffffffffffff81111561026557610264610493565b5b61027188828901610195565b92509250509295509295909350565b6000806020838503121561029757610296610498565b5b600083013567ffffffffffffffff8111156102b5576102b4610493565b5b6102c185828601610195565b92509250509250929050565b60006102da600f8361033a565b91506102e58261049d565b602082019050919050565b6102f9816103d3565b82525050565b60006020820190508181036000830152610318816102cd565b9050919050565b600060208201905061033460008301846102f0565b92915050565b600082825260208201905092915050565b6000610356826103d3565b9150610361836103d3565b9250827fffffffffffffffffffffffffffffffffffffffffffffffffffffffffffffffff0382111561039657610395610426565b5b828201905092915050565b60006103ac826103b3565b9050919050565b600073ffffffffffffffffffffffffffffffffffffffff82169050919050565b6000819050919050565b60006103e8826103d3565b91507fffffffffffffffffffffffffffffffffffffffffffffffffffffffffffffffff82141561041b5761041a610426565b5b600182019050919050565b7f4e487b7100000000000000000000000000000000000000000000000000000000600052601160045260246000fd5b7f4e487b7100000000000000000000000000000000000000000000000000000000600052603260045260246000fd5b600080fd5b600080fd5b600080fd5b600080fd5b600080fd5b7f746865206c656e677468206e6565640000000000000000000000000000000000600082015250565b6104cf816103a1565b81146104da57600080fd5b5056fea26469706673582212202ecc2defe4edf2d41e1a87a595ccad970f98fcd1350eb47fca4b761075bb05ee64736f6c63430008070033",
					"opcodes": "PUSH1 0x80 PUSH1 0x40 MSTORE CALLVALUE DUP1 ISZERO PUSH2 0x10 JUMPI PUSH1 0x0 DUP1 REVERT JUMPDEST POP PUSH2 0x513 DUP1 PUSH2 0x20 PUSH1 0x0 CODECOPY PUSH1 0x0 RETURN INVALID PUSH1 0x80 PUSH1 0x40 MSTORE CALLVALUE DUP1 ISZERO PUSH2 0x10 JUMPI PUSH1 0x0 DUP1 REVERT JUMPDEST POP PUSH1 0x4 CALLDATASIZE LT PUSH2 0x36 JUMPI PUSH1 0x0 CALLDATALOAD PUSH1 0xE0 SHR DUP1 PUSH4 0x41ED24A2 EQ PUSH2 0x3B JUMPI DUP1 PUSH4 0xCCB8C1E0 EQ PUSH2 0x57 JUMPI JUMPDEST PUSH1 0x0 DUP1 REVERT JUMPDEST PUSH2 0x55 PUSH1 0x4 DUP1 CALLDATASIZE SUB DUP2 ADD SWAP1 PUSH2 0x50 SWAP2 SWAP1 PUSH2 0x1EB JUMP JUMPDEST PUSH2 0x87 JUMP JUMPDEST STOP JUMPDEST PUSH2 0x71 PUSH1 0x4 DUP1 CALLDATASIZE SUB DUP2 ADD SWAP1 PUSH2 0x6C SWAP2 SWAP1 PUSH2 0x280 JUMP JUMPDEST PUSH2 0xD6 JUMP JUMPDEST PUSH1 0x40 MLOAD PUSH2 0x7E SWAP2 SWAP1 PUSH2 0x31F JUMP JUMPDEST PUSH1 0x40 MLOAD DUP1 SWAP2 SUB SWAP1 RETURN JUMPDEST DUP2 DUP2 SWAP1 POP DUP5 DUP5 SWAP1 POP EQ PUSH2 0xCF JUMPI PUSH1 0x40 MLOAD PUSH32 0x8C379A000000000000000000000000000000000000000000000000000000000 DUP2 MSTORE PUSH1 0x4 ADD PUSH2 0xC6 SWAP1 PUSH2 0x2FF JUMP JUMPDEST PUSH1 0x40 MLOAD DUP1 SWAP2 SUB SWAP1 REVERT JUMPDEST POP POP POP POP POP JUMP JUMPDEST PUSH1 0x0 DUP1 PUSH1 0x0 SWAP1 POP JUMPDEST DUP4 DUP4 SWAP1 POP DUP2 LT ISZERO PUSH2 0x123 JUMPI DUP4 DUP4 DUP3 DUP2 DUP2 LT PUSH2 0xFC JUMPI PUSH2 0xFB PUSH2 0x455 JUMP JUMPDEST JUMPDEST SWAP1 POP PUSH1 0x20 MUL ADD CALLDATALOAD DUP3 PUSH2 0x10E SWAP2 SWAP1 PUSH2 0x34B JUMP JUMPDEST SWAP2 POP DUP1 DUP1 PUSH2 0x11B SWAP1 PUSH2 0x3DD JUMP JUMPDEST SWAP2 POP POP PUSH2 0xDE JUMP JUMPDEST POP SWAP3 SWAP2 POP POP JUMP JUMPDEST PUSH1 0x0 DUP2 CALLDATALOAD SWAP1 POP PUSH2 0x139 DUP2 PUSH2 0x4C6 JUMP JUMPDEST SWAP3 SWAP2 POP POP JUMP JUMPDEST PUSH1 0x0 DUP1 DUP4 PUSH1 0x1F DUP5 ADD SLT PUSH2 0x155 JUMPI PUSH2 0x154 PUSH2 0x489 JUMP JUMPDEST JUMPDEST DUP3 CALLDATALOAD SWAP1 POP PUSH8 0xFFFFFFFFFFFFFFFF DUP2 GT ISZERO PUSH2 0x172 JUMPI PUSH2 0x171 PUSH2 0x484 JUMP JUMPDEST JUMPDEST PUSH1 0x20 DUP4 ADD SWAP2 POP DUP4 PUSH1 0x20 DUP3 MUL DUP4 ADD GT ISZERO PUSH2 0x18E JUMPI PUSH2 0x18D PUSH2 0x48E JUMP JUMPDEST JUMPDEST SWAP3 POP SWAP3 SWAP1 POP JUMP JUMPDEST PUSH1 0x0 DUP1 DUP4 PUSH1 0x1F DUP5 ADD SLT PUSH2 0x1AB JUMPI PUSH2 0x1AA PUSH2 0x489 JUMP JUMPDEST JUMPDEST DUP3 CALLDATALOAD SWAP1 POP PUSH8 0xFFFFFFFFFFFFFFFF DUP2 GT ISZERO PUSH2 0x1C8 JUMPI PUSH2 0x1C7 PUSH2 0x484 JUMP JUMPDEST JUMPDEST PUSH1 0x20 DUP4 ADD SWAP2 POP DUP4 PUSH1 0x20 DUP3 MUL DUP4 ADD GT ISZERO PUSH2 0x1E4 JUMPI PUSH2 0x1E3 PUSH2 0x48E JUMP JUMPDEST JUMPDEST SWAP3 POP SWAP3 SWAP1 POP JUMP JUMPDEST PUSH1 0x0 DUP1 PUSH1 0x0 DUP1 PUSH1 0x0 PUSH1 0x60 DUP7 DUP9 SUB SLT ISZERO PUSH2 0x207 JUMPI PUSH2 0x206 PUSH2 0x498 JUMP JUMPDEST JUMPDEST PUSH1 0x0 PUSH2 0x215 DUP9 DUP3 DUP10 ADD PUSH2 0x12A JUMP JUMPDEST SWAP6 POP POP PUSH1 0x20 DUP7 ADD CALLDATALOAD PUSH8 0xFFFFFFFFFFFFFFFF DUP2 GT ISZERO PUSH2 0x236 JUMPI PUSH2 0x235 PUSH2 0x493 JUMP JUMPDEST JUMPDEST PUSH2 0x242 DUP9 DUP3 DUP10 ADD PUSH2 0x13F JUMP JUMPDEST SWAP5 POP SWAP5 POP POP PUSH1 0x40 DUP7 ADD CALLDATALOAD PUSH8 0xFFFFFFFFFFFFFFFF DUP2 GT ISZERO PUSH2 0x265 JUMPI PUSH2 0x264 PUSH2 0x493 JUMP JUMPDEST JUMPDEST PUSH2 0x271 DUP9 DUP3 DUP10 ADD PUSH2 0x195 JUMP JUMPDEST SWAP3 POP SWAP3 POP POP SWAP3 SWAP6 POP SWAP3 SWAP6 SWAP1 SWAP4 POP JUMP JUMPDEST PUSH1 0x0 DUP1 PUSH1 0x20 DUP4 DUP6 SUB SLT ISZERO PUSH2 0x297 JUMPI PUSH2 0x296 PUSH2 0x498 JUMP JUMPDEST JUMPDEST PUSH1 0x0 DUP4 ADD CALLDATALOAD PUSH8 0xFFFFFFFFFFFFFFFF DUP2 GT ISZERO PUSH2 0x2B5 JUMPI PUSH2 0x2B4 PUSH2 0x493 JUMP JUMPDEST JUMPDEST PUSH2 0x2C1 DUP6 DUP3 DUP7 ADD PUSH2 0x195 JUMP JUMPDEST SWAP3 POP SWAP3 POP POP SWAP3 POP SWAP3 SWAP1 POP JUMP JUMPDEST PUSH1 0x0 PUSH2 0x2DA PUSH1 0xF DUP4 PUSH2 0x33A JUMP JUMPDEST SWAP2 POP PUSH2 0x2E5 DUP3 PUSH2 0x49D JUMP JUMPDEST PUSH1 0x20 DUP3 ADD SWAP1 POP SWAP2 SWAP1 POP JUMP JUMPDEST PUSH2 0x2F9 DUP2 PUSH2 0x3D3 JUMP JUMPDEST DUP3 MSTORE POP POP JUMP JUMPDEST PUSH1 0x0 PUSH1 0x20 DUP3 ADD SWAP1 POP DUP2 DUP2 SUB PUSH1 0x0 DUP4 ADD MSTORE PUSH2 0x318 DUP2 PUSH2 0x2CD JUMP JUMPDEST SWAP1 POP SWAP2 SWAP1 POP JUMP JUMPDEST PUSH1 0x0 PUSH1 0x20 DUP3 ADD SWAP1 POP PUSH2 0x334 PUSH1 0x0 DUP4 ADD DUP5 PUSH2 0x2F0 JUMP JUMPDEST SWAP3 SWAP2 POP POP JUMP JUMPDEST PUSH1 0x0 DUP3 DUP3 MSTORE PUSH1 0x20 DUP3 ADD SWAP1 POP SWAP3 SWAP2 POP POP JUMP JUMPDEST PUSH1 0x0 PUSH2 0x356 DUP3 PUSH2 0x3D3 JUMP JUMPDEST SWAP2 POP PUSH2 0x361 DUP4 PUSH2 0x3D3 JUMP JUMPDEST SWAP3 POP DUP3 PUSH32 0xFFFFFFFFFFFFFFFFFFFFFFFFFFFFFFFFFFFFFFFFFFFFFFFFFFFFFFFFFFFFFFFF SUB DUP3 GT ISZERO PUSH2 0x396 JUMPI PUSH2 0x395 PUSH2 0x426 JUMP JUMPDEST JUMPDEST DUP3 DUP3 ADD SWAP1 POP SWAP3 SWAP2 POP POP JUMP JUMPDEST PUSH1 0x0 PUSH2 0x3AC DUP3 PUSH2 0x3B3 JUMP JUMPDEST SWAP1 POP SWAP2 SWAP1 POP JUMP JUMPDEST PUSH1 0x0 PUSH20 0xFFFFFFFFFFFFFFFFFFFFFFFFFFFFFFFFFFFFFFFF DUP3 AND SWAP1 POP SWAP2 SWAP1 POP JUMP JUMPDEST PUSH1 0x0 DUP2 SWAP1 POP SWAP2 SWAP1 POP JUMP JUMPDEST PUSH1 0x0 PUSH2 0x3E8 DUP3 PUSH2 0x3D3 JUMP JUMPDEST SWAP2 POP PUSH32 0xFFFFFFFFFFFFFFFFFFFFFFFFFFFFFFFFFFFFFFFFFFFFFFFFFFFFFFFFFFFFFFFF DUP3 EQ ISZERO PUSH2 0x41B JUMPI PUSH2 0x41A PUSH2 0x426 JUMP JUMPDEST JUMPDEST PUSH1 0x1 DUP3 ADD SWAP1 POP SWAP2 SWAP1 POP JUMP JUMPDEST PUSH32 0x4E487B7100000000000000000000000000000000000000000000000000000000 PUSH1 0x0 MSTORE PUSH1 0x11 PUSH1 0x4 MSTORE PUSH1 0x24 PUSH1 0x0 REVERT JUMPDEST PUSH32 0x4E487B7100000000000000000000000000000000000000000000000000000000 PUSH1 0x0 MSTORE PUSH1 0x32 PUSH1 0x4 MSTORE PUSH1 0x24 PUSH1 0x0 REVERT JUMPDEST PUSH1 0x0 DUP1 REVERT JUMPDEST PUSH1 0x0 DUP1 REVERT JUMPDEST PUSH1 0x0 DUP1 REVERT JUMPDEST PUSH1 0x0 DUP1 REVERT JUMPDEST PUSH1 0x0 DUP1 REVERT JUMPDEST PUSH32 0x746865206C656E677468206E6565640000000000000000000000000000000000 PUSH1 0x0 DUP3 ADD MSTORE POP JUMP JUMPDEST PUSH2 0x4CF DUP2 PUSH2 0x3A1 JUMP JUMPDEST DUP2 EQ PUSH2 0x4DA JUMPI PUSH1 0x0 DUP1 REVERT JUMPDEST POP JUMP INVALID LOG2 PUSH5 0x6970667358 0x22 SLT KECCAK256 0x2E 0xCC 0x2D 0xEF 0xE4 0xED CALLCODE 0xD4 0x1E BYTE DUP8 0xA5 SWAP6 0xCC 0xAD SWAP8 0xF SWAP9 0xFC 0xD1 CALLDATALOAD 0xE 0xB4 PUSH32 0xCA4B761075BB05EE64736F6C6343000807003300000000000000000000000000 "
				},
				"gasEstimates": {
					"creation": {
						"codeDepositCost": "259800",
						"executionCost": "300",
						"totalCost": "260100"
					},
					"external": {
						"getSum(uint256[])": "infinite",
						"multiTransferToken(address,address[],uint256[])": "1233"
					}
				},
				"methodIdentifiers": {
					"getSum(uint256[])": "ccb8c1e0",
					"multiTransferToken(address,address[],uint256[])": "41ed24a2"
				}
			},
			"storageLayout": {
				"storage": [],
				"types": null
			},
			"userdoc": {
				"kind": "user",
				"methods": {},
				"version": 1
			}
		}
	}
}