{
	"airport/airport.sol": {
		"airport": {
			"abi": [
				{
					"inputs": [
						{
							"internalType": "uint256[]",
							"name": "arr",
							"type": "uint256[]"
						}
					],
					"name": "getSum",
					"outputs": [
						{
							"internalType": "uint256",
							"name": "sum",
							"type": "uint256"
						}
					],
					"stateMutability": "pure",
					"type": "function"
				}
			],
			"devdoc": {
				"kind": "dev",
				"methods": {},
				"version": 1
			},
			"evm": {
				"assembly": "    /* \"airport/airport.sol\":60:245  contract airport{\r... */\n  mstore(0x40, 0x80)\n  callvalue\n  dup1\n  iszero\n  tag_1\n  jumpi\n  0x00\n  dup1\n  revert\ntag_1:\n  pop\n  dataSize(sub_0)\n  dup1\n  dataOffset(sub_0)\n  0x00\n  codecopy\n  0x00\n  return\nstop\n\nsub_0: assembly {\n        /* \"airport/airport.sol\":60:245  contract airport{\r... */\n      mstore(0x40, 0x80)\n      callvalue\n      dup1\n      iszero\n      tag_1\n      jumpi\n      0x00\n      dup1\n      revert\n    tag_1:\n      pop\n      jumpi(tag_2, lt(calldatasize, 0x04))\n      shr(0xe0, calldataload(0x00))\n      dup1\n      0xccb8c1e0\n      eq\n      tag_3\n      jumpi\n    tag_2:\n      0x00\n      dup1\n      revert\n        /* \"airport/airport.sol\":83:234  function getSum(uint256[] calldata arr) public pure returns(uint256 sum){\r... */\n    tag_3:\n      tag_4\n      0x04\n      dup1\n      calldatasize\n      sub\n      dup2\n      add\n      swap1\n      tag_5\n      swap2\n      swap1\n      tag_6\n      jump\t// in\n    tag_5:\n      tag_7\n      jump\t// in\n    tag_4:\n      mload(0x40)\n      tag_8\n      swap2\n      swap1\n      tag_9\n      jump\t// in\n    tag_8:\n      mload(0x40)\n      dup1\n      swap2\n      sub\n      swap1\n      return\n    tag_7:\n        /* \"airport/airport.sol\":143:154  uint256 sum */\n      0x00\n        /* \"airport/airport.sol\":170:176  uint i */\n      dup1\n        /* \"airport/airport.sol\":177:178  0 */\n      0x00\n        /* \"airport/airport.sol\":170:178  uint i=0 */\n      swap1\n      pop\n        /* \"airport/airport.sol\":166:226  for(uint i=0;i<arr.length;i++)\r... */\n    tag_11:\n        /* \"airport/airport.sol\":181:184  arr */\n      dup4\n      dup4\n        /* \"airport/airport.sol\":181:191  arr.length */\n      swap1\n      pop\n        /* \"airport/airport.sol\":179:180  i */\n      dup2\n        /* \"airport/airport.sol\":179:191  i<arr.length */\n      lt\n        /* \"airport/airport.sol\":166:226  for(uint i=0;i<arr.length;i++)\r... */\n      iszero\n      tag_12\n      jumpi\n        /* \"airport/airport.sol\":220:223  arr */\n      dup4\n      dup4\n        /* \"airport/airport.sol\":224:225  i */\n      dup3\n        /* \"airport/airport.sol\":220:226  arr[i] */\n      dup2\n      dup2\n      lt\n      tag_14\n      jumpi\n      tag_15\n      tag_16\n      jump\t// in\n    tag_15:\n    tag_14:\n      swap1\n      pop\n      0x20\n      mul\n      add\n      calldataload\n        /* \"airport/airport.sol\":216:219  sum */\n      dup3\n        /* \"airport/airport.sol\":216:226  sum+arr[i] */\n      tag_17\n      swap2\n      swap1\n      tag_18\n      jump\t// in\n    tag_17:\n        /* \"airport/airport.sol\":210:226  sum = sum+arr[i] */\n      swap2\n      pop\n        /* \"airport/airport.sol\":192:195  i++ */\n      dup1\n      dup1\n      tag_19\n      swap1\n      tag_20\n      jump\t// in\n    tag_19:\n      swap2\n      pop\n      pop\n        /* \"airport/airport.sol\":166:226  for(uint i=0;i<arr.length;i++)\r... */\n      jump(tag_11)\n    tag_12:\n      pop\n        /* \"airport/airport.sol\":83:234  function getSum(uint256[] calldata arr) public pure returns(uint256 sum){\r... */\n      swap3\n      swap2\n      pop\n      pop\n      jump\t// out\n        /* \"#utility.yul\":24:592   */\n    tag_22:\n        /* \"#utility.yul\":97:105   */\n      0x00\n        /* \"#utility.yul\":107:113   */\n      dup1\n        /* \"#utility.yul\":157:160   */\n      dup4\n        /* \"#utility.yul\":150:154   */\n      0x1f\n        /* \"#utility.yul\":142:148   */\n      dup5\n        /* \"#utility.yul\":138:155   */\n      add\n        /* \"#utility.yul\":134:161   */\n      slt\n        /* \"#utility.yul\":124:246   */\n      tag_24\n      jumpi\n        /* \"#utility.yul\":165:244   */\n      tag_25\n      tag_26\n      jump\t// in\n    tag_25:\n        /* \"#utility.yul\":124:246   */\n    tag_24:\n        /* \"#utility.yul\":278:284   */\n      dup3\n        /* \"#utility.yul\":265:285   */\n      calldataload\n        /* \"#utility.yul\":255:285   */\n      swap1\n      pop\n        /* \"#utility.yul\":308:326   */\n      0xffffffffffffffff\n        /* \"#utility.yul\":300:306   */\n      dup2\n        /* \"#utility.yul\":297:327   */\n      gt\n        /* \"#utility.yul\":294:411   */\n      iszero\n      tag_27\n      jumpi\n        /* \"#utility.yul\":330:409   */\n      tag_28\n      tag_29\n      jump\t// in\n    tag_28:\n        /* \"#utility.yul\":294:411   */\n    tag_27:\n        /* \"#utility.yul\":444:448   */\n      0x20\n        /* \"#utility.yul\":436:442   */\n      dup4\n        /* \"#utility.yul\":432:449   */\n      add\n        /* \"#utility.yul\":420:449   */\n      swap2\n      pop\n        /* \"#utility.yul\":498:501   */\n      dup4\n        /* \"#utility.yul\":490:494   */\n      0x20\n        /* \"#utility.yul\":482:488   */\n      dup3\n        /* \"#utility.yul\":478:495   */\n      mul\n        /* \"#utility.yul\":468:476   */\n      dup4\n        /* \"#utility.yul\":464:496   */\n      add\n        /* \"#utility.yul\":461:502   */\n      gt\n        /* \"#utility.yul\":458:586   */\n      iszero\n      tag_30\n      jumpi\n        /* \"#utility.yul\":505:584   */\n      tag_31\n      tag_32\n      jump\t// in\n    tag_31:\n        /* \"#utility.yul\":458:586   */\n    tag_30:\n        /* \"#utility.yul\":24:592   */\n      swap3\n      pop\n      swap3\n      swap1\n      pop\n      jump\t// out\n        /* \"#utility.yul\":598:1157   */\n    tag_6:\n        /* \"#utility.yul\":684:690   */\n      0x00\n        /* \"#utility.yul\":692:698   */\n      dup1\n        /* \"#utility.yul\":741:743   */\n      0x20\n        /* \"#utility.yul\":729:738   */\n      dup4\n        /* \"#utility.yul\":720:727   */\n      dup6\n        /* \"#utility.yul\":716:739   */\n      sub\n        /* \"#utility.yul\":712:744   */\n      slt\n        /* \"#utility.yul\":709:828   */\n      iszero\n      tag_34\n      jumpi\n        /* \"#utility.yul\":747:826   */\n      tag_35\n      tag_36\n      jump\t// in\n    tag_35:\n        /* \"#utility.yul\":709:828   */\n    tag_34:\n        /* \"#utility.yul\":895:896   */\n      0x00\n        /* \"#utility.yul\":884:893   */\n      dup4\n        /* \"#utility.yul\":880:897   */\n      add\n        /* \"#utility.yul\":867:898   */\n      calldataload\n        /* \"#utility.yul\":925:943   */\n      0xffffffffffffffff\n        /* \"#utility.yul\":917:923   */\n      dup2\n        /* \"#utility.yul\":914:944   */\n      gt\n        /* \"#utility.yul\":911:1028   */\n      iszero\n      tag_37\n      jumpi\n        /* \"#utility.yul\":947:1026   */\n      tag_38\n      tag_39\n      jump\t// in\n    tag_38:\n        /* \"#utility.yul\":911:1028   */\n    tag_37:\n        /* \"#utility.yul\":1060:1140   */\n      tag_40\n        /* \"#utility.yul\":1132:1139   */\n      dup6\n        /* \"#utility.yul\":1123:1129   */\n      dup3\n        /* \"#utility.yul\":1112:1121   */\n      dup7\n        /* \"#utility.yul\":1108:1130   */\n      add\n        /* \"#utility.yul\":1060:1140   */\n      tag_22\n      jump\t// in\n    tag_40:\n        /* \"#utility.yul\":1042:1140   */\n      swap3\n      pop\n      swap3\n      pop\n        /* \"#utility.yul\":838:1150   */\n      pop\n        /* \"#utility.yul\":598:1157   */\n      swap3\n      pop\n      swap3\n      swap1\n      pop\n      jump\t// out\n        /* \"#utility.yul\":1163:1281   */\n    tag_41:\n        /* \"#utility.yul\":1250:1274   */\n      tag_43\n        /* \"#utility.yul\":1268:1273   */\n      dup2\n        /* \"#utility.yul\":1250:1274   */\n      tag_44\n      jump\t// in\n    tag_43:\n        /* \"#utility.yul\":1245:1248   */\n      dup3\n        /* \"#utility.yul\":1238:1275   */\n      mstore\n        /* \"#utility.yul\":1163:1281   */\n      pop\n      pop\n      jump\t// out\n        /* \"#utility.yul\":1287:1509   */\n    tag_9:\n        /* \"#utility.yul\":1380:1384   */\n      0x00\n        /* \"#utility.yul\":1418:1420   */\n      0x20\n        /* \"#utility.yul\":1407:1416   */\n      dup3\n        /* \"#utility.yul\":1403:1421   */\n      add\n        /* \"#utility.yul\":1395:1421   */\n      swap1\n      pop\n        /* \"#utility.yul\":1431:1502   */\n      tag_46\n        /* \"#utility.yul\":1499:1500   */\n      0x00\n        /* \"#utility.yul\":1488:1497   */\n      dup4\n        /* \"#utility.yul\":1484:1501   */\n      add\n        /* \"#utility.yul\":1475:1481   */\n      dup5\n        /* \"#utility.yul\":1431:1502   */\n      tag_41\n      jump\t// in\n    tag_46:\n        /* \"#utility.yul\":1287:1509   */\n      swap3\n      swap2\n      pop\n      pop\n      jump\t// out\n        /* \"#utility.yul\":1596:1901   */\n    tag_18:\n        /* \"#utility.yul\":1636:1639   */\n      0x00\n        /* \"#utility.yul\":1655:1675   */\n      tag_50\n        /* \"#utility.yul\":1673:1674   */\n      dup3\n        /* \"#utility.yul\":1655:1675   */\n      tag_44\n      jump\t// in\n    tag_50:\n        /* \"#utility.yul\":1650:1675   */\n      swap2\n      pop\n        /* \"#utility.yul\":1689:1709   */\n      tag_51\n        /* \"#utility.yul\":1707:1708   */\n      dup4\n        /* \"#utility.yul\":1689:1709   */\n      tag_44\n      jump\t// in\n    tag_51:\n        /* \"#utility.yul\":1684:1709   */\n      swap3\n      pop\n        /* \"#utility.yul\":1843:1844   */\n      dup3\n        /* \"#utility.yul\":1775:1841   */\n      0xffffffffffffffffffffffffffffffffffffffffffffffffffffffffffffffff\n        /* \"#utility.yul\":1771:1845   */\n      sub\n        /* \"#utility.yul\":1768:1769   */\n      dup3\n        /* \"#utility.yul\":1765:1846   */\n      gt\n        /* \"#utility.yul\":1762:1869   */\n      iszero\n      tag_52\n      jumpi\n        /* \"#utility.yul\":1849:1867   */\n      tag_53\n      tag_54\n      jump\t// in\n    tag_53:\n        /* \"#utility.yul\":1762:1869   */\n    tag_52:\n        /* \"#utility.yul\":1893:1894   */\n      dup3\n        /* \"#utility.yul\":1890:1891   */\n      dup3\n        /* \"#utility.yul\":1886:1895   */\n      add\n        /* \"#utility.yul\":1879:1895   */\n      swap1\n      pop\n        /* \"#utility.yul\":1596:1901   */\n      swap3\n      swap2\n      pop\n      pop\n      jump\t// out\n        /* \"#utility.yul\":1907:1984   */\n    tag_44:\n        /* \"#utility.yul\":1944:1951   */\n      0x00\n        /* \"#utility.yul\":1973:1978   */\n      dup2\n        /* \"#utility.yul\":1962:1978   */\n      swap1\n      pop\n        /* \"#utility.yul\":1907:1984   */\n      swap2\n      swap1\n      pop\n      jump\t// out\n        /* \"#utility.yul\":1990:2223   */\n    tag_20:\n        /* \"#utility.yul\":2029:2032   */\n      0x00\n        /* \"#utility.yul\":2052:2076   */\n      tag_57\n        /* \"#utility.yul\":2070:2075   */\n      dup3\n        /* \"#utility.yul\":2052:2076   */\n      tag_44\n      jump\t// in\n    tag_57:\n        /* \"#utility.yul\":2043:2076   */\n      swap2\n      pop\n        /* \"#utility.yul\":2098:2164   */\n      0xffffffffffffffffffffffffffffffffffffffffffffffffffffffffffffffff\n        /* \"#utility.yul\":2091:2096   */\n      dup3\n        /* \"#utility.yul\":2088:2165   */\n      eq\n        /* \"#utility.yul\":2085:2188   */\n      iszero\n      tag_58\n      jumpi\n        /* \"#utility.yul\":2168:2186   */\n      tag_59\n      tag_54\n      jump\t// in\n    tag_59:\n        /* \"#utility.yul\":2085:2188   */\n    tag_58:\n        /* \"#utility.yul\":2215:2216   */\n      0x01\n        /* \"#utility.yul\":2208:2213   */\n      dup3\n        /* \"#utility.yul\":2204:2217   */\n      add\n        /* \"#utility.yul\":2197:2217   */\n      swap1\n      pop\n        /* \"#utility.yul\":1990:2223   */\n      swap2\n      swap1\n      pop\n      jump\t// out\n        /* \"#utility.yul\":2229:2409   */\n    tag_54:\n        /* \"#utility.yul\":2277:2354   */\n      0x4e487b7100000000000000000000000000000000000000000000000000000000\n        /* \"#utility.yul\":2274:2275   */\n      0x00\n        /* \"#utility.yul\":2267:2355   */\n      mstore\n        /* \"#utility.yul\":2374:2378   */\n      0x11\n        /* \"#utility.yul\":2371:2372   */\n      0x04\n        /* \"#utility.yul\":2364:2379   */\n      mstore\n        /* \"#utility.yul\":2398:2402   */\n      0x24\n        /* \"#utility.yul\":2395:2396   */\n      0x00\n        /* \"#utility.yul\":2388:2403   */\n      revert\n        /* \"#utility.yul\":2415:2595   */\n    tag_16:\n        /* \"#utility.yul\":2463:2540   */\n      0x4e487b7100000000000000000000000000000000000000000000000000000000\n        /* \"#utility.yul\":2460:2461   */\n      0x00\n        /* \"#utility.yul\":2453:2541   */\n      mstore\n        /* \"#utility.yul\":2560:2564   */\n      0x32\n        /* \"#utility.yul\":2557:2558   */\n      0x04\n        /* \"#utility.yul\":2550:2565   */\n      mstore\n        /* \"#utility.yul\":2584:2588   */\n      0x24\n        /* \"#utility.yul\":2581:2582   */\n      0x00\n        /* \"#utility.yul\":2574:2589   */\n      revert\n        /* \"#utility.yul\":2601:2718   */\n    tag_29:\n        /* \"#utility.yul\":2710:2711   */\n      0x00\n        /* \"#utility.yul\":2707:2708   */\n      dup1\n        /* \"#utility.yul\":2700:2712   */\n      revert\n        /* \"#utility.yul\":2724:2841   */\n    tag_26:\n        /* \"#utility.yul\":2833:2834   */\n      0x00\n        /* \"#utility.yul\":2830:2831   */\n      dup1\n        /* \"#utility.yul\":2823:2835   */\n      revert\n        /* \"#utility.yul\":2847:2964   */\n    tag_32:\n        /* \"#utility.yul\":2956:2957   */\n      0x00\n        /* \"#utility.yul\":2953:2954   */\n      dup1\n        /* \"#utility.yul\":2946:2958   */\n      revert\n        /* \"#utility.yul\":2970:3087   */\n    tag_39:\n        /* \"#utility.yul\":3079:3080   */\n      0x00\n        /* \"#utility.yul\":3076:3077   */\n      dup1\n        /* \"#utility.yul\":3069:3081   */\n      revert\n        /* \"#utility.yul\":3093:3210   */\n    tag_36:\n        /* \"#utility.yul\":3202:3203   */\n      0x00\n        /* \"#utility.yul\":3199:3200   */\n      dup1\n        /* \"#utility.yul\":3192:3204   */\n      revert\n\n    auxdata: 0xa26469706673582212207add87b878b2c936f3e3b25205e3d3f0805962fc00e2e4805383677afa5f3eff64736f6c63430008070033\n}\n",
				"bytecode": {
					"linkReferences": {},
					"object": "608060405234801561001057600080fd5b506102d7806100206000396000f3fe608060405234801561001057600080fd5b506004361061002b5760003560e01c8063ccb8c1e014610030575b600080fd5b61004a6004803603810190610045919061010a565b610060565b6040516100579190610166565b60405180910390f35b600080600090505b838390508110156100ad5783838281811061008657610085610259565b5b90506020020135826100989190610181565b915080806100a5906101e1565b915050610068565b5092915050565b60008083601f8401126100ca576100c961028d565b5b8235905067ffffffffffffffff8111156100e7576100e6610288565b5b60208301915083602082028301111561010357610102610292565b5b9250929050565b600080602083850312156101215761012061029c565b5b600083013567ffffffffffffffff81111561013f5761013e610297565b5b61014b858286016100b4565b92509250509250929050565b610160816101d7565b82525050565b600060208201905061017b6000830184610157565b92915050565b600061018c826101d7565b9150610197836101d7565b9250827fffffffffffffffffffffffffffffffffffffffffffffffffffffffffffffffff038211156101cc576101cb61022a565b5b828201905092915050565b6000819050919050565b60006101ec826101d7565b91507fffffffffffffffffffffffffffffffffffffffffffffffffffffffffffffffff82141561021f5761021e61022a565b5b600182019050919050565b7f4e487b7100000000000000000000000000000000000000000000000000000000600052601160045260246000fd5b7f4e487b7100000000000000000000000000000000000000000000000000000000600052603260045260246000fd5b600080fd5b600080fd5b600080fd5b600080fd5b600080fdfea26469706673582212207add87b878b2c936f3e3b25205e3d3f0805962fc00e2e4805383677afa5f3eff64736f6c63430008070033",
					"opcodes": "PUSH1 0x80 PUSH1 0x40 MSTORE CALLVALUE DUP1 ISZERO PUSH2 0x10 JUMPI PUSH1 0x0 DUP1 REVERT JUMPDEST POP PUSH2 0x2D7 DUP1 PUSH2 0x20 PUSH1 0x0 CODECOPY PUSH1 0x0 RETURN INVALID PUSH1 0x80 PUSH1 0x40 MSTORE CALLVALUE DUP1 ISZERO PUSH2 0x10 JUMPI PUSH1 0x0 DUP1 REVERT JUMPDEST POP PUSH1 0x4 CALLDATASIZE LT PUSH2 0x2B JUMPI PUSH1 0x0 CALLDATALOAD PUSH1 0xE0 SHR DUP1 PUSH4 0xCCB8C1E0 EQ PUSH2 0x30 JUMPI JUMPDEST PUSH1 0x0 DUP1 REVERT JUMPDEST PUSH2 0x4A PUSH1 0x4 DUP1 CALLDATASIZE SUB DUP2 ADD SWAP1 PUSH2 0x45 SWAP2 SWAP1 PUSH2 0x10A JUMP JUMPDEST PUSH2 0x60 JUMP JUMPDEST PUSH1 0x40 MLOAD PUSH2 0x57 SWAP2 SWAP1 PUSH2 0x166 JUMP JUMPDEST PUSH1 0x40 MLOAD DUP1 SWAP2 SUB SWAP1 RETURN JUMPDEST PUSH1 0x0 DUP1 PUSH1 0x0 SWAP1 POP JUMPDEST DUP4 DUP4 SWAP1 POP DUP2 LT ISZERO PUSH2 0xAD JUMPI DUP4 DUP4 DUP3 DUP2 DUP2 LT PUSH2 0x86 JUMPI PUSH2 0x85 PUSH2 0x259 JUMP JUMPDEST JUMPDEST SWAP1 POP PUSH1 0x20 MUL ADD CALLDATALOAD DUP3 PUSH2 0x98 SWAP2 SWAP1 PUSH2 0x181 JUMP JUMPDEST SWAP2 POP DUP1 DUP1 PUSH2 0xA5 SWAP1 PUSH2 0x1E1 JUMP JUMPDEST SWAP2 POP POP PUSH2 0x68 JUMP JUMPDEST POP SWAP3 SWAP2 POP POP JUMP JUMPDEST PUSH1 0x0 DUP1 DUP4 PUSH1 0x1F DUP5 ADD SLT PUSH2 0xCA JUMPI PUSH2 0xC9 PUSH2 0x28D JUMP JUMPDEST JUMPDEST DUP3 CALLDATALOAD SWAP1 POP PUSH8 0xFFFFFFFFFFFFFFFF DUP2 GT ISZERO PUSH2 0xE7 JUMPI PUSH2 0xE6 PUSH2 0x288 JUMP JUMPDEST JUMPDEST PUSH1 0x20 DUP4 ADD SWAP2 POP DUP4 PUSH1 0x20 DUP3 MUL DUP4 ADD GT ISZERO PUSH2 0x103 JUMPI PUSH2 0x102 PUSH2 0x292 JUMP JUMPDEST JUMPDEST SWAP3 POP SWAP3 SWAP1 POP JUMP JUMPDEST PUSH1 0x0 DUP1 PUSH1 0x20 DUP4 DUP6 SUB SLT ISZERO PUSH2 0x121 JUMPI PUSH2 0x120 PUSH2 0x29C JUMP JUMPDEST JUMPDEST PUSH1 0x0 DUP4 ADD CALLDATALOAD PUSH8 0xFFFFFFFFFFFFFFFF DUP2 GT ISZERO PUSH2 0x13F JUMPI PUSH2 0x13E PUSH2 0x297 JUMP JUMPDEST JUMPDEST PUSH2 0x14B DUP6 DUP3 DUP7 ADD PUSH2 0xB4 JUMP JUMPDEST SWAP3 POP SWAP3 POP POP SWAP3 POP SWAP3 SWAP1 POP JUMP JUMPDEST PUSH2 0x160 DUP2 PUSH2 0x1D7 JUMP JUMPDEST DUP3 MSTORE POP POP JUMP JUMPDEST PUSH1 0x0 PUSH1 0x20 DUP3 ADD SWAP1 POP PUSH2 0x17B PUSH1 0x0 DUP4 ADD DUP5 PUSH2 0x157 JUMP JUMPDEST SWAP3 SWAP2 POP POP JUMP JUMPDEST PUSH1 0x0 PUSH2 0x18C DUP3 PUSH2 0x1D7 JUMP JUMPDEST SWAP2 POP PUSH2 0x197 DUP4 PUSH2 0x1D7 JUMP JUMPDEST SWAP3 POP DUP3 PUSH32 0xFFFFFFFFFFFFFFFFFFFFFFFFFFFFFFFFFFFFFFFFFFFFFFFFFFFFFFFFFFFFFFFF SUB DUP3 GT ISZERO PUSH2 0x1CC JUMPI PUSH2 0x1CB PUSH2 0x22A JUMP JUMPDEST JUMPDEST DUP3 DUP3 ADD SWAP1 POP SWAP3 SWAP2 POP POP JUMP JUMPDEST PUSH1 0x0 DUP2 SWAP1 POP SWAP2 SWAP1 POP JUMP JUMPDEST PUSH1 0x0 PUSH2 0x1EC DUP3 PUSH2 0x1D7 JUMP JUMPDEST SWAP2 POP PUSH32 0xFFFFFFFFFFFFFFFFFFFFFFFFFFFFFFFFFFFFFFFFFFFFFFFFFFFFFFFFFFFFFFFF DUP3 EQ ISZERO PUSH2 0x21F JUMPI PUSH2 0x21E PUSH2 0x22A JUMP JUMPDEST JUMPDEST PUSH1 0x1 DUP3 ADD SWAP1 POP SWAP2 SWAP1 POP JUMP JUMPDEST PUSH32 0x4E487B7100000000000000000000000000000000000000000000000000000000 PUSH1 0x0 MSTORE PUSH1 0x11 PUSH1 0x4 MSTORE PUSH1 0x24 PUSH1 0x0 REVERT JUMPDEST PUSH32 0x4E487B7100000000000000000000000000000000000000000000000000000000 PUSH1 0x0 MSTORE PUSH1 0x32 PUSH1 0x4 MSTORE PUSH1 0x24 PUSH1 0x0 REVERT JUMPDEST PUSH1 0x0 DUP1 REVERT JUMPDEST PUSH1 0x0 DUP1 REVERT JUMPDEST PUSH1 0x0 DUP1 REVERT JUMPDEST PUSH1 0x0 DUP1 REVERT JUMPDEST PUSH1 0x0 DUP1 REVERT INVALID LOG2 PUSH5 0x6970667358 0x22 SLT KECCAK256 PUSH27 0xDD87B878B2C936F3E3B25205E3D3F0805962FC00E2E4805383677A STATICCALL 0x5F RETURNDATACOPY SELFDESTRUCT PUSH5 0x736F6C6343 STOP ADDMOD SMOD STOP CALLER "
				},
				"gasEstimates": {
					"creation": {
						"codeDepositCost": "145400",
						"executionCost": "190",
						"totalCost": "145590"
					},
					"external": {
						"getSum(uint256[])": "infinite"
					}
				},
				"methodIdentifiers": {
					"getSum(uint256[])": "ccb8c1e0"
				}
			},
			"storageLayout": {
				"storage": [],
				"types": null
			},
			"userdoc": {
				"kind": "user",
				"methods": {},
				"version": 1
			}
		}
	}
}