{
	"airport/airport.sol": {
		"airport": {
			"abi": [
				{
					"inputs": [
						{
							"internalType": "uint256[]",
							"name": "arr",
							"type": "uint256[]"
						}
					],
					"name": "getSum",
					"outputs": [
						{
							"internalType": "uint256",
							"name": "sum",
							"type": "uint256"
						}
					],
					"stateMutability": "pure",
					"type": "function"
				},
				{
					"inputs": [
						{
							"internalType": "address",
							"name": "_token",
							"type": "address"
						},
						{
							"internalType": "address[]",
							"name": "_addresses",
							"type": "address[]"
						},
						{
							"internalType": "uint256[]",
							"name": "_amounts",
							"type": "uint256[]"
						}
					],
					"name": "multiTransferToken",
					"outputs": [],
					"stateMutability": "nonpayable",
					"type": "function"
				}
			],
			"devdoc": {
				"kind": "dev",
				"methods": {},
				"version": 1
			},
			"evm": {
				"assembly": "    /* \"airport/airport.sol\":60:365  contract airport{\r... */\n  mstore(0x40, 0x80)\n  callvalue\n  dup1\n  iszero\n  tag_1\n  jumpi\n  0x00\n  dup1\n  revert\ntag_1:\n  pop\n  dataSize(sub_0)\n  dup1\n  dataOffset(sub_0)\n  0x00\n  codecopy\n  0x00\n  return\nstop\n\nsub_0: assembly {\n        /* \"airport/airport.sol\":60:365  contract airport{\r... */\n      mstore(0x40, 0x80)\n      callvalue\n      dup1\n      iszero\n      tag_1\n      jumpi\n      0x00\n      dup1\n      revert\n    tag_1:\n      pop\n      jumpi(tag_2, lt(calldatasize, 0x04))\n      shr(0xe0, calldataload(0x00))\n      dup1\n      0x41ed24a2\n      eq\n      tag_3\n      jumpi\n      dup1\n      0xccb8c1e0\n      eq\n      tag_4\n      jumpi\n    tag_2:\n      0x00\n      dup1\n      revert\n        /* \"airport/airport.sol\":242:362  function multiTransferToken(address _token,address[] calldata _addresses,uint256[] calldata _amounts) external{\r... */\n    tag_3:\n      tag_5\n      0x04\n      dup1\n      calldatasize\n      sub\n      dup2\n      add\n      swap1\n      tag_6\n      swap2\n      swap1\n      tag_7\n      jump\t// in\n    tag_6:\n      tag_8\n      jump\t// in\n    tag_5:\n      stop\n        /* \"airport/airport.sol\":83:234  function getSum(uint256[] calldata arr) public pure returns(uint256 sum){\r... */\n    tag_4:\n      tag_9\n      0x04\n      dup1\n      calldatasize\n      sub\n      dup2\n      add\n      swap1\n      tag_10\n      swap2\n      swap1\n      tag_11\n      jump\t// in\n    tag_10:\n      tag_12\n      jump\t// in\n    tag_9:\n      mload(0x40)\n      tag_13\n      swap2\n      swap1\n      tag_14\n      jump\t// in\n    tag_13:\n      mload(0x40)\n      dup1\n      swap2\n      sub\n      swap1\n      return\n        /* \"airport/airport.sol\":242:362  function multiTransferToken(address _token,address[] calldata _addresses,uint256[] calldata _amounts) external{\r... */\n    tag_8:\n      pop\n      pop\n      pop\n      pop\n      pop\n      jump\t// out\n        /* \"airport/airport.sol\":83:234  function getSum(uint256[] calldata arr) public pure returns(uint256 sum){\r... */\n    tag_12:\n        /* \"airport/airport.sol\":143:154  uint256 sum */\n      0x00\n        /* \"airport/airport.sol\":170:176  uint i */\n      dup1\n        /* \"airport/airport.sol\":177:178  0 */\n      0x00\n        /* \"airport/airport.sol\":170:178  uint i=0 */\n      swap1\n      pop\n        /* \"airport/airport.sol\":166:226  for(uint i=0;i<arr.length;i++)\r... */\n    tag_17:\n        /* \"airport/airport.sol\":181:184  arr */\n      dup4\n      dup4\n        /* \"airport/airport.sol\":181:191  arr.length */\n      swap1\n      pop\n        /* \"airport/airport.sol\":179:180  i */\n      dup2\n        /* \"airport/airport.sol\":179:191  i<arr.length */\n      lt\n        /* \"airport/airport.sol\":166:226  for(uint i=0;i<arr.length;i++)\r... */\n      iszero\n      tag_18\n      jumpi\n        /* \"airport/airport.sol\":220:223  arr */\n      dup4\n      dup4\n        /* \"airport/airport.sol\":224:225  i */\n      dup3\n        /* \"airport/airport.sol\":220:226  arr[i] */\n      dup2\n      dup2\n      lt\n      tag_20\n      jumpi\n      tag_21\n      tag_22\n      jump\t// in\n    tag_21:\n    tag_20:\n      swap1\n      pop\n      0x20\n      mul\n      add\n      calldataload\n        /* \"airport/airport.sol\":216:219  sum */\n      dup3\n        /* \"airport/airport.sol\":216:226  sum+arr[i] */\n      tag_23\n      swap2\n      swap1\n      tag_24\n      jump\t// in\n    tag_23:\n        /* \"airport/airport.sol\":210:226  sum = sum+arr[i] */\n      swap2\n      pop\n        /* \"airport/airport.sol\":192:195  i++ */\n      dup1\n      dup1\n      tag_25\n      swap1\n      tag_26\n      jump\t// in\n    tag_25:\n      swap2\n      pop\n      pop\n        /* \"airport/airport.sol\":166:226  for(uint i=0;i<arr.length;i++)\r... */\n      jump(tag_17)\n    tag_18:\n      pop\n        /* \"airport/airport.sol\":83:234  function getSum(uint256[] calldata arr) public pure returns(uint256 sum){\r... */\n      swap3\n      swap2\n      pop\n      pop\n      jump\t// out\n        /* \"#utility.yul\":7:146   */\n    tag_28:\n        /* \"#utility.yul\":53:58   */\n      0x00\n        /* \"#utility.yul\":91:97   */\n      dup2\n        /* \"#utility.yul\":78:98   */\n      calldataload\n        /* \"#utility.yul\":69:98   */\n      swap1\n      pop\n        /* \"#utility.yul\":107:140   */\n      tag_30\n        /* \"#utility.yul\":134:139   */\n      dup2\n        /* \"#utility.yul\":107:140   */\n      tag_31\n      jump\t// in\n    tag_30:\n        /* \"#utility.yul\":7:146   */\n      swap3\n      swap2\n      pop\n      pop\n      jump\t// out\n        /* \"#utility.yul\":169:737   */\n    tag_32:\n        /* \"#utility.yul\":242:250   */\n      0x00\n        /* \"#utility.yul\":252:258   */\n      dup1\n        /* \"#utility.yul\":302:305   */\n      dup4\n        /* \"#utility.yul\":295:299   */\n      0x1f\n        /* \"#utility.yul\":287:293   */\n      dup5\n        /* \"#utility.yul\":283:300   */\n      add\n        /* \"#utility.yul\":279:306   */\n      slt\n        /* \"#utility.yul\":269:391   */\n      tag_34\n      jumpi\n        /* \"#utility.yul\":310:389   */\n      tag_35\n      tag_36\n      jump\t// in\n    tag_35:\n        /* \"#utility.yul\":269:391   */\n    tag_34:\n        /* \"#utility.yul\":423:429   */\n      dup3\n        /* \"#utility.yul\":410:430   */\n      calldataload\n        /* \"#utility.yul\":400:430   */\n      swap1\n      pop\n        /* \"#utility.yul\":453:471   */\n      0xffffffffffffffff\n        /* \"#utility.yul\":445:451   */\n      dup2\n        /* \"#utility.yul\":442:472   */\n      gt\n        /* \"#utility.yul\":439:556   */\n      iszero\n      tag_37\n      jumpi\n        /* \"#utility.yul\":475:554   */\n      tag_38\n      tag_39\n      jump\t// in\n    tag_38:\n        /* \"#utility.yul\":439:556   */\n    tag_37:\n        /* \"#utility.yul\":589:593   */\n      0x20\n        /* \"#utility.yul\":581:587   */\n      dup4\n        /* \"#utility.yul\":577:594   */\n      add\n        /* \"#utility.yul\":565:594   */\n      swap2\n      pop\n        /* \"#utility.yul\":643:646   */\n      dup4\n        /* \"#utility.yul\":635:639   */\n      0x20\n        /* \"#utility.yul\":627:633   */\n      dup3\n        /* \"#utility.yul\":623:640   */\n      mul\n        /* \"#utility.yul\":613:621   */\n      dup4\n        /* \"#utility.yul\":609:641   */\n      add\n        /* \"#utility.yul\":606:647   */\n      gt\n        /* \"#utility.yul\":603:731   */\n      iszero\n      tag_40\n      jumpi\n        /* \"#utility.yul\":650:729   */\n      tag_41\n      tag_42\n      jump\t// in\n    tag_41:\n        /* \"#utility.yul\":603:731   */\n    tag_40:\n        /* \"#utility.yul\":169:737   */\n      swap3\n      pop\n      swap3\n      swap1\n      pop\n      jump\t// out\n        /* \"#utility.yul\":760:1328   */\n    tag_43:\n        /* \"#utility.yul\":833:841   */\n      0x00\n        /* \"#utility.yul\":843:849   */\n      dup1\n        /* \"#utility.yul\":893:896   */\n      dup4\n        /* \"#utility.yul\":886:890   */\n      0x1f\n        /* \"#utility.yul\":878:884   */\n      dup5\n        /* \"#utility.yul\":874:891   */\n      add\n        /* \"#utility.yul\":870:897   */\n      slt\n        /* \"#utility.yul\":860:982   */\n      tag_45\n      jumpi\n        /* \"#utility.yul\":901:980   */\n      tag_46\n      tag_36\n      jump\t// in\n    tag_46:\n        /* \"#utility.yul\":860:982   */\n    tag_45:\n        /* \"#utility.yul\":1014:1020   */\n      dup3\n        /* \"#utility.yul\":1001:1021   */\n      calldataload\n        /* \"#utility.yul\":991:1021   */\n      swap1\n      pop\n        /* \"#utility.yul\":1044:1062   */\n      0xffffffffffffffff\n        /* \"#utility.yul\":1036:1042   */\n      dup2\n        /* \"#utility.yul\":1033:1063   */\n      gt\n        /* \"#utility.yul\":1030:1147   */\n      iszero\n      tag_47\n      jumpi\n        /* \"#utility.yul\":1066:1145   */\n      tag_48\n      tag_39\n      jump\t// in\n    tag_48:\n        /* \"#utility.yul\":1030:1147   */\n    tag_47:\n        /* \"#utility.yul\":1180:1184   */\n      0x20\n        /* \"#utility.yul\":1172:1178   */\n      dup4\n        /* \"#utility.yul\":1168:1185   */\n      add\n        /* \"#utility.yul\":1156:1185   */\n      swap2\n      pop\n        /* \"#utility.yul\":1234:1237   */\n      dup4\n        /* \"#utility.yul\":1226:1230   */\n      0x20\n        /* \"#utility.yul\":1218:1224   */\n      dup3\n        /* \"#utility.yul\":1214:1231   */\n      mul\n        /* \"#utility.yul\":1204:1212   */\n      dup4\n        /* \"#utility.yul\":1200:1232   */\n      add\n        /* \"#utility.yul\":1197:1238   */\n      gt\n        /* \"#utility.yul\":1194:1322   */\n      iszero\n      tag_49\n      jumpi\n        /* \"#utility.yul\":1241:1320   */\n      tag_50\n      tag_42\n      jump\t// in\n    tag_50:\n        /* \"#utility.yul\":1194:1322   */\n    tag_49:\n        /* \"#utility.yul\":760:1328   */\n      swap3\n      pop\n      swap3\n      swap1\n      pop\n      jump\t// out\n        /* \"#utility.yul\":1334:2413   */\n    tag_7:\n        /* \"#utility.yul\":1465:1471   */\n      0x00\n        /* \"#utility.yul\":1473:1479   */\n      dup1\n        /* \"#utility.yul\":1481:1487   */\n      0x00\n        /* \"#utility.yul\":1489:1495   */\n      dup1\n        /* \"#utility.yul\":1497:1503   */\n      0x00\n        /* \"#utility.yul\":1546:1548   */\n      0x60\n        /* \"#utility.yul\":1534:1543   */\n      dup7\n        /* \"#utility.yul\":1525:1532   */\n      dup9\n        /* \"#utility.yul\":1521:1544   */\n      sub\n        /* \"#utility.yul\":1517:1549   */\n      slt\n        /* \"#utility.yul\":1514:1633   */\n      iszero\n      tag_52\n      jumpi\n        /* \"#utility.yul\":1552:1631   */\n      tag_53\n      tag_54\n      jump\t// in\n    tag_53:\n        /* \"#utility.yul\":1514:1633   */\n    tag_52:\n        /* \"#utility.yul\":1672:1673   */\n      0x00\n        /* \"#utility.yul\":1697:1750   */\n      tag_55\n        /* \"#utility.yul\":1742:1749   */\n      dup9\n        /* \"#utility.yul\":1733:1739   */\n      dup3\n        /* \"#utility.yul\":1722:1731   */\n      dup10\n        /* \"#utility.yul\":1718:1740   */\n      add\n        /* \"#utility.yul\":1697:1750   */\n      tag_28\n      jump\t// in\n    tag_55:\n        /* \"#utility.yul\":1687:1750   */\n      swap6\n      pop\n        /* \"#utility.yul\":1643:1760   */\n      pop\n        /* \"#utility.yul\":1827:1829   */\n      0x20\n        /* \"#utility.yul\":1816:1825   */\n      dup7\n        /* \"#utility.yul\":1812:1830   */\n      add\n        /* \"#utility.yul\":1799:1831   */\n      calldataload\n        /* \"#utility.yul\":1858:1876   */\n      0xffffffffffffffff\n        /* \"#utility.yul\":1850:1856   */\n      dup2\n        /* \"#utility.yul\":1847:1877   */\n      gt\n        /* \"#utility.yul\":1844:1961   */\n      iszero\n      tag_56\n      jumpi\n        /* \"#utility.yul\":1880:1959   */\n      tag_57\n      tag_58\n      jump\t// in\n    tag_57:\n        /* \"#utility.yul\":1844:1961   */\n    tag_56:\n        /* \"#utility.yul\":1993:2073   */\n      tag_59\n        /* \"#utility.yul\":2065:2072   */\n      dup9\n        /* \"#utility.yul\":2056:2062   */\n      dup3\n        /* \"#utility.yul\":2045:2054   */\n      dup10\n        /* \"#utility.yul\":2041:2063   */\n      add\n        /* \"#utility.yul\":1993:2073   */\n      tag_32\n      jump\t// in\n    tag_59:\n        /* \"#utility.yul\":1975:2073   */\n      swap5\n      pop\n      swap5\n      pop\n        /* \"#utility.yul\":1770:2083   */\n      pop\n        /* \"#utility.yul\":2150:2152   */\n      0x40\n        /* \"#utility.yul\":2139:2148   */\n      dup7\n        /* \"#utility.yul\":2135:2153   */\n      add\n        /* \"#utility.yul\":2122:2154   */\n      calldataload\n        /* \"#utility.yul\":2181:2199   */\n      0xffffffffffffffff\n        /* \"#utility.yul\":2173:2179   */\n      dup2\n        /* \"#utility.yul\":2170:2200   */\n      gt\n        /* \"#utility.yul\":2167:2284   */\n      iszero\n      tag_60\n      jumpi\n        /* \"#utility.yul\":2203:2282   */\n      tag_61\n      tag_58\n      jump\t// in\n    tag_61:\n        /* \"#utility.yul\":2167:2284   */\n    tag_60:\n        /* \"#utility.yul\":2316:2396   */\n      tag_62\n        /* \"#utility.yul\":2388:2395   */\n      dup9\n        /* \"#utility.yul\":2379:2385   */\n      dup3\n        /* \"#utility.yul\":2368:2377   */\n      dup10\n        /* \"#utility.yul\":2364:2386   */\n      add\n        /* \"#utility.yul\":2316:2396   */\n      tag_43\n      jump\t// in\n    tag_62:\n        /* \"#utility.yul\":2298:2396   */\n      swap3\n      pop\n      swap3\n      pop\n        /* \"#utility.yul\":2093:2406   */\n      pop\n        /* \"#utility.yul\":1334:2413   */\n      swap3\n      swap6\n      pop\n      swap3\n      swap6\n      swap1\n      swap4\n      pop\n      jump\t// out\n        /* \"#utility.yul\":2419:2978   */\n    tag_11:\n        /* \"#utility.yul\":2505:2511   */\n      0x00\n        /* \"#utility.yul\":2513:2519   */\n      dup1\n        /* \"#utility.yul\":2562:2564   */\n      0x20\n        /* \"#utility.yul\":2550:2559   */\n      dup4\n        /* \"#utility.yul\":2541:2548   */\n      dup6\n        /* \"#utility.yul\":2537:2560   */\n      sub\n        /* \"#utility.yul\":2533:2565   */\n      slt\n        /* \"#utility.yul\":2530:2649   */\n      iszero\n      tag_64\n      jumpi\n        /* \"#utility.yul\":2568:2647   */\n      tag_65\n      tag_54\n      jump\t// in\n    tag_65:\n        /* \"#utility.yul\":2530:2649   */\n    tag_64:\n        /* \"#utility.yul\":2716:2717   */\n      0x00\n        /* \"#utility.yul\":2705:2714   */\n      dup4\n        /* \"#utility.yul\":2701:2718   */\n      add\n        /* \"#utility.yul\":2688:2719   */\n      calldataload\n        /* \"#utility.yul\":2746:2764   */\n      0xffffffffffffffff\n        /* \"#utility.yul\":2738:2744   */\n      dup2\n        /* \"#utility.yul\":2735:2765   */\n      gt\n        /* \"#utility.yul\":2732:2849   */\n      iszero\n      tag_66\n      jumpi\n        /* \"#utility.yul\":2768:2847   */\n      tag_67\n      tag_58\n      jump\t// in\n    tag_67:\n        /* \"#utility.yul\":2732:2849   */\n    tag_66:\n        /* \"#utility.yul\":2881:2961   */\n      tag_68\n        /* \"#utility.yul\":2953:2960   */\n      dup6\n        /* \"#utility.yul\":2944:2950   */\n      dup3\n        /* \"#utility.yul\":2933:2942   */\n      dup7\n        /* \"#utility.yul\":2929:2951   */\n      add\n        /* \"#utility.yul\":2881:2961   */\n      tag_43\n      jump\t// in\n    tag_68:\n        /* \"#utility.yul\":2863:2961   */\n      swap3\n      pop\n      swap3\n      pop\n        /* \"#utility.yul\":2659:2971   */\n      pop\n        /* \"#utility.yul\":2419:2978   */\n      swap3\n      pop\n      swap3\n      swap1\n      pop\n      jump\t// out\n        /* \"#utility.yul\":2984:3102   */\n    tag_69:\n        /* \"#utility.yul\":3071:3095   */\n      tag_71\n        /* \"#utility.yul\":3089:3094   */\n      dup2\n        /* \"#utility.yul\":3071:3095   */\n      tag_72\n      jump\t// in\n    tag_71:\n        /* \"#utility.yul\":3066:3069   */\n      dup3\n        /* \"#utility.yul\":3059:3096   */\n      mstore\n        /* \"#utility.yul\":2984:3102   */\n      pop\n      pop\n      jump\t// out\n        /* \"#utility.yul\":3108:3330   */\n    tag_14:\n        /* \"#utility.yul\":3201:3205   */\n      0x00\n        /* \"#utility.yul\":3239:3241   */\n      0x20\n        /* \"#utility.yul\":3228:3237   */\n      dup3\n        /* \"#utility.yul\":3224:3242   */\n      add\n        /* \"#utility.yul\":3216:3242   */\n      swap1\n      pop\n        /* \"#utility.yul\":3252:3323   */\n      tag_74\n        /* \"#utility.yul\":3320:3321   */\n      0x00\n        /* \"#utility.yul\":3309:3318   */\n      dup4\n        /* \"#utility.yul\":3305:3322   */\n      add\n        /* \"#utility.yul\":3296:3302   */\n      dup5\n        /* \"#utility.yul\":3252:3323   */\n      tag_69\n      jump\t// in\n    tag_74:\n        /* \"#utility.yul\":3108:3330   */\n      swap3\n      swap2\n      pop\n      pop\n      jump\t// out\n        /* \"#utility.yul\":3417:3722   */\n    tag_24:\n        /* \"#utility.yul\":3457:3460   */\n      0x00\n        /* \"#utility.yul\":3476:3496   */\n      tag_78\n        /* \"#utility.yul\":3494:3495   */\n      dup3\n        /* \"#utility.yul\":3476:3496   */\n      tag_72\n      jump\t// in\n    tag_78:\n        /* \"#utility.yul\":3471:3496   */\n      swap2\n      pop\n        /* \"#utility.yul\":3510:3530   */\n      tag_79\n        /* \"#utility.yul\":3528:3529   */\n      dup4\n        /* \"#utility.yul\":3510:3530   */\n      tag_72\n      jump\t// in\n    tag_79:\n        /* \"#utility.yul\":3505:3530   */\n      swap3\n      pop\n        /* \"#utility.yul\":3664:3665   */\n      dup3\n        /* \"#utility.yul\":3596:3662   */\n      0xffffffffffffffffffffffffffffffffffffffffffffffffffffffffffffffff\n        /* \"#utility.yul\":3592:3666   */\n      sub\n        /* \"#utility.yul\":3589:3590   */\n      dup3\n        /* \"#utility.yul\":3586:3667   */\n      gt\n        /* \"#utility.yul\":3583:3690   */\n      iszero\n      tag_80\n      jumpi\n        /* \"#utility.yul\":3670:3688   */\n      tag_81\n      tag_82\n      jump\t// in\n    tag_81:\n        /* \"#utility.yul\":3583:3690   */\n    tag_80:\n        /* \"#utility.yul\":3714:3715   */\n      dup3\n        /* \"#utility.yul\":3711:3712   */\n      dup3\n        /* \"#utility.yul\":3707:3716   */\n      add\n        /* \"#utility.yul\":3700:3716   */\n      swap1\n      pop\n        /* \"#utility.yul\":3417:3722   */\n      swap3\n      swap2\n      pop\n      pop\n      jump\t// out\n        /* \"#utility.yul\":3728:3824   */\n    tag_83:\n        /* \"#utility.yul\":3765:3772   */\n      0x00\n        /* \"#utility.yul\":3794:3818   */\n      tag_85\n        /* \"#utility.yul\":3812:3817   */\n      dup3\n        /* \"#utility.yul\":3794:3818   */\n      tag_86\n      jump\t// in\n    tag_85:\n        /* \"#utility.yul\":3783:3818   */\n      swap1\n      pop\n        /* \"#utility.yul\":3728:3824   */\n      swap2\n      swap1\n      pop\n      jump\t// out\n        /* \"#utility.yul\":3830:3956   */\n    tag_86:\n        /* \"#utility.yul\":3867:3874   */\n      0x00\n        /* \"#utility.yul\":3907:3949   */\n      0xffffffffffffffffffffffffffffffffffffffff\n        /* \"#utility.yul\":3900:3905   */\n      dup3\n        /* \"#utility.yul\":3896:3950   */\n      and\n        /* \"#utility.yul\":3885:3950   */\n      swap1\n      pop\n        /* \"#utility.yul\":3830:3956   */\n      swap2\n      swap1\n      pop\n      jump\t// out\n        /* \"#utility.yul\":3962:4039   */\n    tag_72:\n        /* \"#utility.yul\":3999:4006   */\n      0x00\n        /* \"#utility.yul\":4028:4033   */\n      dup2\n        /* \"#utility.yul\":4017:4033   */\n      swap1\n      pop\n        /* \"#utility.yul\":3962:4039   */\n      swap2\n      swap1\n      pop\n      jump\t// out\n        /* \"#utility.yul\":4045:4278   */\n    tag_26:\n        /* \"#utility.yul\":4084:4087   */\n      0x00\n        /* \"#utility.yul\":4107:4131   */\n      tag_90\n        /* \"#utility.yul\":4125:4130   */\n      dup3\n        /* \"#utility.yul\":4107:4131   */\n      tag_72\n      jump\t// in\n    tag_90:\n        /* \"#utility.yul\":4098:4131   */\n      swap2\n      pop\n        /* \"#utility.yul\":4153:4219   */\n      0xffffffffffffffffffffffffffffffffffffffffffffffffffffffffffffffff\n        /* \"#utility.yul\":4146:4151   */\n      dup3\n        /* \"#utility.yul\":4143:4220   */\n      eq\n        /* \"#utility.yul\":4140:4243   */\n      iszero\n      tag_91\n      jumpi\n        /* \"#utility.yul\":4223:4241   */\n      tag_92\n      tag_82\n      jump\t// in\n    tag_92:\n        /* \"#utility.yul\":4140:4243   */\n    tag_91:\n        /* \"#utility.yul\":4270:4271   */\n      0x01\n        /* \"#utility.yul\":4263:4268   */\n      dup3\n        /* \"#utility.yul\":4259:4272   */\n      add\n        /* \"#utility.yul\":4252:4272   */\n      swap1\n      pop\n        /* \"#utility.yul\":4045:4278   */\n      swap2\n      swap1\n      pop\n      jump\t// out\n        /* \"#utility.yul\":4284:4464   */\n    tag_82:\n        /* \"#utility.yul\":4332:4409   */\n      0x4e487b7100000000000000000000000000000000000000000000000000000000\n        /* \"#utility.yul\":4329:4330   */\n      0x00\n        /* \"#utility.yul\":4322:4410   */\n      mstore\n        /* \"#utility.yul\":4429:4433   */\n      0x11\n        /* \"#utility.yul\":4426:4427   */\n      0x04\n        /* \"#utility.yul\":4419:4434   */\n      mstore\n        /* \"#utility.yul\":4453:4457   */\n      0x24\n        /* \"#utility.yul\":4450:4451   */\n      0x00\n        /* \"#utility.yul\":4443:4458   */\n      revert\n        /* \"#utility.yul\":4470:4650   */\n    tag_22:\n        /* \"#utility.yul\":4518:4595   */\n      0x4e487b7100000000000000000000000000000000000000000000000000000000\n        /* \"#utility.yul\":4515:4516   */\n      0x00\n        /* \"#utility.yul\":4508:4596   */\n      mstore\n        /* \"#utility.yul\":4615:4619   */\n      0x32\n        /* \"#utility.yul\":4612:4613   */\n      0x04\n        /* \"#utility.yul\":4605:4620   */\n      mstore\n        /* \"#utility.yul\":4639:4643   */\n      0x24\n        /* \"#utility.yul\":4636:4637   */\n      0x00\n        /* \"#utility.yul\":4629:4644   */\n      revert\n        /* \"#utility.yul\":4656:4773   */\n    tag_39:\n        /* \"#utility.yul\":4765:4766   */\n      0x00\n        /* \"#utility.yul\":4762:4763   */\n      dup1\n        /* \"#utility.yul\":4755:4767   */\n      revert\n        /* \"#utility.yul\":4779:4896   */\n    tag_36:\n        /* \"#utility.yul\":4888:4889   */\n      0x00\n        /* \"#utility.yul\":4885:4886   */\n      dup1\n        /* \"#utility.yul\":4878:4890   */\n      revert\n        /* \"#utility.yul\":4902:5019   */\n    tag_42:\n        /* \"#utility.yul\":5011:5012   */\n      0x00\n        /* \"#utility.yul\":5008:5009   */\n      dup1\n        /* \"#utility.yul\":5001:5013   */\n      revert\n        /* \"#utility.yul\":5025:5142   */\n    tag_58:\n        /* \"#utility.yul\":5134:5135   */\n      0x00\n        /* \"#utility.yul\":5131:5132   */\n      dup1\n        /* \"#utility.yul\":5124:5136   */\n      revert\n        /* \"#utility.yul\":5148:5265   */\n    tag_54:\n        /* \"#utility.yul\":5257:5258   */\n      0x00\n        /* \"#utility.yul\":5254:5255   */\n      dup1\n        /* \"#utility.yul\":5247:5259   */\n      revert\n        /* \"#utility.yul\":5271:5393   */\n    tag_31:\n        /* \"#utility.yul\":5344:5368   */\n      tag_101\n        /* \"#utility.yul\":5362:5367   */\n      dup2\n        /* \"#utility.yul\":5344:5368   */\n      tag_83\n      jump\t// in\n    tag_101:\n        /* \"#utility.yul\":5337:5342   */\n      dup2\n        /* \"#utility.yul\":5334:5369   */\n      eq\n        /* \"#utility.yul\":5324:5387   */\n      tag_102\n      jumpi\n        /* \"#utility.yul\":5383:5384   */\n      0x00\n        /* \"#utility.yul\":5380:5381   */\n      dup1\n        /* \"#utility.yul\":5373:5385   */\n      revert\n        /* \"#utility.yul\":5324:5387   */\n    tag_102:\n        /* \"#utility.yul\":5271:5393   */\n      pop\n      jump\t// out\n\n    auxdata: 0xa2646970667358221220b55b4b5dd2a9cd0bde44040f1b4c6b69d29ed51a30e75930e402132e82bc393464736f6c63430008070033\n}\n",
				"bytecode": {
					"linkReferences": {},
					"object": "608060405234801561001057600080fd5b5061044e806100206000396000f3fe608060405234801561001057600080fd5b50600436106100365760003560e01c806341ed24a21461003b578063ccb8c1e014610057575b600080fd5b610055600480360381019061005091906101a3565b610087565b005b610071600480360381019061006c9190610238565b61008e565b60405161007e9190610294565b60405180910390f35b5050505050565b600080600090505b838390508110156100db578383828181106100b4576100b36103b9565b5b90506020020135826100c691906102af565b915080806100d390610341565b915050610096565b5092915050565b6000813590506100f181610401565b92915050565b60008083601f84011261010d5761010c6103ed565b5b8235905067ffffffffffffffff81111561012a576101296103e8565b5b602083019150836020820283011115610146576101456103f2565b5b9250929050565b60008083601f840112610163576101626103ed565b5b8235905067ffffffffffffffff8111156101805761017f6103e8565b5b60208301915083602082028301111561019c5761019b6103f2565b5b9250929050565b6000806000806000606086880312156101bf576101be6103fc565b5b60006101cd888289016100e2565b955050602086013567ffffffffffffffff8111156101ee576101ed6103f7565b5b6101fa888289016100f7565b9450945050604086013567ffffffffffffffff81111561021d5761021c6103f7565b5b6102298882890161014d565b92509250509295509295909350565b6000806020838503121561024f5761024e6103fc565b5b600083013567ffffffffffffffff81111561026d5761026c6103f7565b5b6102798582860161014d565b92509250509250929050565b61028e81610337565b82525050565b60006020820190506102a96000830184610285565b92915050565b60006102ba82610337565b91506102c583610337565b9250827fffffffffffffffffffffffffffffffffffffffffffffffffffffffffffffffff038211156102fa576102f961038a565b5b828201905092915050565b600061031082610317565b9050919050565b600073ffffffffffffffffffffffffffffffffffffffff82169050919050565b6000819050919050565b600061034c82610337565b91507fffffffffffffffffffffffffffffffffffffffffffffffffffffffffffffffff82141561037f5761037e61038a565b5b600182019050919050565b7f4e487b7100000000000000000000000000000000000000000000000000000000600052601160045260246000fd5b7f4e487b7100000000000000000000000000000000000000000000000000000000600052603260045260246000fd5b600080fd5b600080fd5b600080fd5b600080fd5b600080fd5b61040a81610305565b811461041557600080fd5b5056fea2646970667358221220b55b4b5dd2a9cd0bde44040f1b4c6b69d29ed51a30e75930e402132e82bc393464736f6c63430008070033",
					"opcodes": "PUSH1 0x80 PUSH1 0x40 MSTORE CALLVALUE DUP1 ISZERO PUSH2 0x10 JUMPI PUSH1 0x0 DUP1 REVERT JUMPDEST POP PUSH2 0x44E DUP1 PUSH2 0x20 PUSH1 0x0 CODECOPY PUSH1 0x0 RETURN INVALID PUSH1 0x80 PUSH1 0x40 MSTORE CALLVALUE DUP1 ISZERO PUSH2 0x10 JUMPI PUSH1 0x0 DUP1 REVERT JUMPDEST POP PUSH1 0x4 CALLDATASIZE LT PUSH2 0x36 JUMPI PUSH1 0x0 CALLDATALOAD PUSH1 0xE0 SHR DUP1 PUSH4 0x41ED24A2 EQ PUSH2 0x3B JUMPI DUP1 PUSH4 0xCCB8C1E0 EQ PUSH2 0x57 JUMPI JUMPDEST PUSH1 0x0 DUP1 REVERT JUMPDEST PUSH2 0x55 PUSH1 0x4 DUP1 CALLDATASIZE SUB DUP2 ADD SWAP1 PUSH2 0x50 SWAP2 SWAP1 PUSH2 0x1A3 JUMP JUMPDEST PUSH2 0x87 JUMP JUMPDEST STOP JUMPDEST PUSH2 0x71 PUSH1 0x4 DUP1 CALLDATASIZE SUB DUP2 ADD SWAP1 PUSH2 0x6C SWAP2 SWAP1 PUSH2 0x238 JUMP JUMPDEST PUSH2 0x8E JUMP JUMPDEST PUSH1 0x40 MLOAD PUSH2 0x7E SWAP2 SWAP1 PUSH2 0x294 JUMP JUMPDEST PUSH1 0x40 MLOAD DUP1 SWAP2 SUB SWAP1 RETURN JUMPDEST POP POP POP POP POP JUMP JUMPDEST PUSH1 0x0 DUP1 PUSH1 0x0 SWAP1 POP JUMPDEST DUP4 DUP4 SWAP1 POP DUP2 LT ISZERO PUSH2 0xDB JUMPI DUP4 DUP4 DUP3 DUP2 DUP2 LT PUSH2 0xB4 JUMPI PUSH2 0xB3 PUSH2 0x3B9 JUMP JUMPDEST JUMPDEST SWAP1 POP PUSH1 0x20 MUL ADD CALLDATALOAD DUP3 PUSH2 0xC6 SWAP2 SWAP1 PUSH2 0x2AF JUMP JUMPDEST SWAP2 POP DUP1 DUP1 PUSH2 0xD3 SWAP1 PUSH2 0x341 JUMP JUMPDEST SWAP2 POP POP PUSH2 0x96 JUMP JUMPDEST POP SWAP3 SWAP2 POP POP JUMP JUMPDEST PUSH1 0x0 DUP2 CALLDATALOAD SWAP1 POP PUSH2 0xF1 DUP2 PUSH2 0x401 JUMP JUMPDEST SWAP3 SWAP2 POP POP JUMP JUMPDEST PUSH1 0x0 DUP1 DUP4 PUSH1 0x1F DUP5 ADD SLT PUSH2 0x10D JUMPI PUSH2 0x10C PUSH2 0x3ED JUMP JUMPDEST JUMPDEST DUP3 CALLDATALOAD SWAP1 POP PUSH8 0xFFFFFFFFFFFFFFFF DUP2 GT ISZERO PUSH2 0x12A JUMPI PUSH2 0x129 PUSH2 0x3E8 JUMP JUMPDEST JUMPDEST PUSH1 0x20 DUP4 ADD SWAP2 POP DUP4 PUSH1 0x20 DUP3 MUL DUP4 ADD GT ISZERO PUSH2 0x146 JUMPI PUSH2 0x145 PUSH2 0x3F2 JUMP JUMPDEST JUMPDEST SWAP3 POP SWAP3 SWAP1 POP JUMP JUMPDEST PUSH1 0x0 DUP1 DUP4 PUSH1 0x1F DUP5 ADD SLT PUSH2 0x163 JUMPI PUSH2 0x162 PUSH2 0x3ED JUMP JUMPDEST JUMPDEST DUP3 CALLDATALOAD SWAP1 POP PUSH8 0xFFFFFFFFFFFFFFFF DUP2 GT ISZERO PUSH2 0x180 JUMPI PUSH2 0x17F PUSH2 0x3E8 JUMP JUMPDEST JUMPDEST PUSH1 0x20 DUP4 ADD SWAP2 POP DUP4 PUSH1 0x20 DUP3 MUL DUP4 ADD GT ISZERO PUSH2 0x19C JUMPI PUSH2 0x19B PUSH2 0x3F2 JUMP JUMPDEST JUMPDEST SWAP3 POP SWAP3 SWAP1 POP JUMP JUMPDEST PUSH1 0x0 DUP1 PUSH1 0x0 DUP1 PUSH1 0x0 PUSH1 0x60 DUP7 DUP9 SUB SLT ISZERO PUSH2 0x1BF JUMPI PUSH2 0x1BE PUSH2 0x3FC JUMP JUMPDEST JUMPDEST PUSH1 0x0 PUSH2 0x1CD DUP9 DUP3 DUP10 ADD PUSH2 0xE2 JUMP JUMPDEST SWAP6 POP POP PUSH1 0x20 DUP7 ADD CALLDATALOAD PUSH8 0xFFFFFFFFFFFFFFFF DUP2 GT ISZERO PUSH2 0x1EE JUMPI PUSH2 0x1ED PUSH2 0x3F7 JUMP JUMPDEST JUMPDEST PUSH2 0x1FA DUP9 DUP3 DUP10 ADD PUSH2 0xF7 JUMP JUMPDEST SWAP5 POP SWAP5 POP POP PUSH1 0x40 DUP7 ADD CALLDATALOAD PUSH8 0xFFFFFFFFFFFFFFFF DUP2 GT ISZERO PUSH2 0x21D JUMPI PUSH2 0x21C PUSH2 0x3F7 JUMP JUMPDEST JUMPDEST PUSH2 0x229 DUP9 DUP3 DUP10 ADD PUSH2 0x14D JUMP JUMPDEST SWAP3 POP SWAP3 POP POP SWAP3 SWAP6 POP SWAP3 SWAP6 SWAP1 SWAP4 POP JUMP JUMPDEST PUSH1 0x0 DUP1 PUSH1 0x20 DUP4 DUP6 SUB SLT ISZERO PUSH2 0x24F JUMPI PUSH2 0x24E PUSH2 0x3FC JUMP JUMPDEST JUMPDEST PUSH1 0x0 DUP4 ADD CALLDATALOAD PUSH8 0xFFFFFFFFFFFFFFFF DUP2 GT ISZERO PUSH2 0x26D JUMPI PUSH2 0x26C PUSH2 0x3F7 JUMP JUMPDEST JUMPDEST PUSH2 0x279 DUP6 DUP3 DUP7 ADD PUSH2 0x14D JUMP JUMPDEST SWAP3 POP SWAP3 POP POP SWAP3 POP SWAP3 SWAP1 POP JUMP JUMPDEST PUSH2 0x28E DUP2 PUSH2 0x337 JUMP JUMPDEST DUP3 MSTORE POP POP JUMP JUMPDEST PUSH1 0x0 PUSH1 0x20 DUP3 ADD SWAP1 POP PUSH2 0x2A9 PUSH1 0x0 DUP4 ADD DUP5 PUSH2 0x285 JUMP JUMPDEST SWAP3 SWAP2 POP POP JUMP JUMPDEST PUSH1 0x0 PUSH2 0x2BA DUP3 PUSH2 0x337 JUMP JUMPDEST SWAP2 POP PUSH2 0x2C5 DUP4 PUSH2 0x337 JUMP JUMPDEST SWAP3 POP DUP3 PUSH32 0xFFFFFFFFFFFFFFFFFFFFFFFFFFFFFFFFFFFFFFFFFFFFFFFFFFFFFFFFFFFFFFFF SUB DUP3 GT ISZERO PUSH2 0x2FA JUMPI PUSH2 0x2F9 PUSH2 0x38A JUMP JUMPDEST JUMPDEST DUP3 DUP3 ADD SWAP1 POP SWAP3 SWAP2 POP POP JUMP JUMPDEST PUSH1 0x0 PUSH2 0x310 DUP3 PUSH2 0x317 JUMP JUMPDEST SWAP1 POP SWAP2 SWAP1 POP JUMP JUMPDEST PUSH1 0x0 PUSH20 0xFFFFFFFFFFFFFFFFFFFFFFFFFFFFFFFFFFFFFFFF DUP3 AND SWAP1 POP SWAP2 SWAP1 POP JUMP JUMPDEST PUSH1 0x0 DUP2 SWAP1 POP SWAP2 SWAP1 POP JUMP JUMPDEST PUSH1 0x0 PUSH2 0x34C DUP3 PUSH2 0x337 JUMP JUMPDEST SWAP2 POP PUSH32 0xFFFFFFFFFFFFFFFFFFFFFFFFFFFFFFFFFFFFFFFFFFFFFFFFFFFFFFFFFFFFFFFF DUP3 EQ ISZERO PUSH2 0x37F JUMPI PUSH2 0x37E PUSH2 0x38A JUMP JUMPDEST JUMPDEST PUSH1 0x1 DUP3 ADD SWAP1 POP SWAP2 SWAP1 POP JUMP JUMPDEST PUSH32 0x4E487B7100000000000000000000000000000000000000000000000000000000 PUSH1 0x0 MSTORE PUSH1 0x11 PUSH1 0x4 MSTORE PUSH1 0x24 PUSH1 0x0 REVERT JUMPDEST PUSH32 0x4E487B7100000000000000000000000000000000000000000000000000000000 PUSH1 0x0 MSTORE PUSH1 0x32 PUSH1 0x4 MSTORE PUSH1 0x24 PUSH1 0x0 REVERT JUMPDEST PUSH1 0x0 DUP1 REVERT JUMPDEST PUSH1 0x0 DUP1 REVERT JUMPDEST PUSH1 0x0 DUP1 REVERT JUMPDEST PUSH1 0x0 DUP1 REVERT JUMPDEST PUSH1 0x0 DUP1 REVERT JUMPDEST PUSH2 0x40A DUP2 PUSH2 0x305 JUMP JUMPDEST DUP2 EQ PUSH2 0x415 JUMPI PUSH1 0x0 DUP1 REVERT JUMPDEST POP JUMP INVALID LOG2 PUSH5 0x6970667358 0x22 SLT KECCAK256 0xB5 JUMPDEST 0x4B 0x5D 0xD2 0xA9 0xCD SIGNEXTEND 0xDE DIFFICULTY DIV 0xF SHL 0x4C PUSH12 0x69D29ED51A30E75930E40213 0x2E DUP3 0xBC CODECOPY CALLVALUE PUSH5 0x736F6C6343 STOP ADDMOD SMOD STOP CALLER "
				},
				"gasEstimates": {
					"creation": {
						"codeDepositCost": "220400",
						"executionCost": "263",
						"totalCost": "220663"
					},
					"external": {
						"getSum(uint256[])": "infinite",
						"multiTransferToken(address,address[],uint256[])": "915"
					}
				},
				"methodIdentifiers": {
					"getSum(uint256[])": "ccb8c1e0",
					"multiTransferToken(address,address[],uint256[])": "41ed24a2"
				}
			},
			"storageLayout": {
				"storage": [],
				"types": null
			},
			"userdoc": {
				"kind": "user",
				"methods": {},
				"version": 1
			}
		}
	}
}