{
	"水龙头/Faucet.sol": {
		"Faucet": {
			"abi": [
				{
					"inputs": [
						{
							"internalType": "address",
							"name": "_tokenContract",
							"type": "address"
						}
					],
					"stateMutability": "nonpayable",
					"type": "constructor"
				},
				{
					"anonymous": false,
					"inputs": [
						{
							"indexed": true,
							"internalType": "address",
							"name": "Receiver",
							"type": "address"
						},
						{
							"indexed": true,
							"internalType": "uint256",
							"name": "Amount",
							"type": "uint256"
						}
					],
					"name": "SendToken",
					"type": "event"
				},
				{
					"inputs": [],
					"name": "allowanceA",
					"outputs": [
						{
							"internalType": "uint256",
							"name": "",
							"type": "uint256"
						}
					],
					"stateMutability": "view",
					"type": "function"
				},
				{
					"inputs": [
						{
							"internalType": "address",
							"name": "",
							"type": "address"
						}
					],
					"name": "requestAddress",
					"outputs": [
						{
							"internalType": "bool",
							"name": "",
							"type": "bool"
						}
					],
					"stateMutability": "view",
					"type": "function"
				},
				{
					"inputs": [],
					"name": "send",
					"outputs": [],
					"stateMutability": "view",
					"type": "function"
				},
				{
					"inputs": [],
					"name": "tokenContract",
					"outputs": [
						{
							"internalType": "address",
							"name": "",
							"type": "address"
						}
					],
					"stateMutability": "view",
					"type": "function"
				}
			],
			"devdoc": {
				"kind": "dev",
				"methods": {},
				"version": 1
			},
			"evm": {
				"assembly": "    /* \"\\xe6\\xb0\\xb4\\xe9\\xbe\\x99\\xe5\\xa4\\xb4/Faucet.sol\":85:536  contract Faucet{\r... */\n  mstore(0x40, 0x80)\n    /* \"\\xe6\\xb0\\xb4\\xe9\\xbe\\x99\\xe5\\xa4\\xb4/Faucet.sol\":135:138  100 */\n  0x64\n    /* \"\\xe6\\xb0\\xb4\\xe9\\xbe\\x99\\xe5\\xa4\\xb4/Faucet.sol\":107:138  uint256 public allowanceA = 100 */\n  0x00\n  sstore\n    /* \"\\xe6\\xb0\\xb4\\xe9\\xbe\\x99\\xe5\\xa4\\xb4/Faucet.sol\":313:397  constructor(address _tokenContract){\r... */\n  callvalue\n  dup1\n  iszero\n  tag_1\n  jumpi\n  0x00\n  dup1\n  revert\ntag_1:\n  pop\n  mload(0x40)\n  sub(codesize, bytecodeSize)\n  dup1\n  bytecodeSize\n  dup4\n  codecopy\n  dup2\n  dup2\n  add\n  0x40\n  mstore\n  dup2\n  add\n  swap1\n  tag_2\n  swap2\n  swap1\n  tag_3\n  jump\t// in\ntag_2:\n    /* \"\\xe6\\xb0\\xb4\\xe9\\xbe\\x99\\xe5\\xa4\\xb4/Faucet.sol\":375:389  _tokenContract */\n  dup1\n    /* \"\\xe6\\xb0\\xb4\\xe9\\xbe\\x99\\xe5\\xa4\\xb4/Faucet.sol\":359:372  tokenContract */\n  0x01\n  0x00\n    /* \"\\xe6\\xb0\\xb4\\xe9\\xbe\\x99\\xe5\\xa4\\xb4/Faucet.sol\":359:389  tokenContract = _tokenContract */\n  0x0100\n  exp\n  dup2\n  sload\n  dup2\n  0xffffffffffffffffffffffffffffffffffffffff\n  mul\n  not\n  and\n  swap1\n  dup4\n  0xffffffffffffffffffffffffffffffffffffffff\n  and\n  mul\n  or\n  swap1\n  sstore\n  pop\n    /* \"\\xe6\\xb0\\xb4\\xe9\\xbe\\x99\\xe5\\xa4\\xb4/Faucet.sol\":313:397  constructor(address _tokenContract){\r... */\n  pop\n    /* \"\\xe6\\xb0\\xb4\\xe9\\xbe\\x99\\xe5\\xa4\\xb4/Faucet.sol\":85:536  contract Faucet{\r... */\n  jump(tag_6)\n    /* \"#utility.yul\":7:150   */\ntag_8:\n    /* \"#utility.yul\":64:69   */\n  0x00\n    /* \"#utility.yul\":95:101   */\n  dup2\n    /* \"#utility.yul\":89:102   */\n  mload\n    /* \"#utility.yul\":80:102   */\n  swap1\n  pop\n    /* \"#utility.yul\":111:144   */\n  tag_10\n    /* \"#utility.yul\":138:143   */\n  dup2\n    /* \"#utility.yul\":111:144   */\n  tag_11\n  jump\t// in\ntag_10:\n    /* \"#utility.yul\":7:150   */\n  swap3\n  swap2\n  pop\n  pop\n  jump\t// out\n    /* \"#utility.yul\":156:507   */\ntag_3:\n    /* \"#utility.yul\":226:232   */\n  0x00\n    /* \"#utility.yul\":275:277   */\n  0x20\n    /* \"#utility.yul\":263:272   */\n  dup3\n    /* \"#utility.yul\":254:261   */\n  dup5\n    /* \"#utility.yul\":250:273   */\n  sub\n    /* \"#utility.yul\":246:278   */\n  slt\n    /* \"#utility.yul\":243:362   */\n  iszero\n  tag_13\n  jumpi\n    /* \"#utility.yul\":281:360   */\n  tag_14\n  tag_15\n  jump\t// in\ntag_14:\n    /* \"#utility.yul\":243:362   */\ntag_13:\n    /* \"#utility.yul\":401:402   */\n  0x00\n    /* \"#utility.yul\":426:490   */\n  tag_16\n    /* \"#utility.yul\":482:489   */\n  dup5\n    /* \"#utility.yul\":473:479   */\n  dup3\n    /* \"#utility.yul\":462:471   */\n  dup6\n    /* \"#utility.yul\":458:480   */\n  add\n    /* \"#utility.yul\":426:490   */\n  tag_8\n  jump\t// in\ntag_16:\n    /* \"#utility.yul\":416:490   */\n  swap2\n  pop\n    /* \"#utility.yul\":372:500   */\n  pop\n    /* \"#utility.yul\":156:507   */\n  swap3\n  swap2\n  pop\n  pop\n  jump\t// out\n    /* \"#utility.yul\":594:690   */\ntag_19:\n    /* \"#utility.yul\":631:638   */\n  0x00\n    /* \"#utility.yul\":660:684   */\n  tag_21\n    /* \"#utility.yul\":678:683   */\n  dup3\n    /* \"#utility.yul\":660:684   */\n  tag_22\n  jump\t// in\ntag_21:\n    /* \"#utility.yul\":649:684   */\n  swap1\n  pop\n    /* \"#utility.yul\":594:690   */\n  swap2\n  swap1\n  pop\n  jump\t// out\n    /* \"#utility.yul\":696:822   */\ntag_22:\n    /* \"#utility.yul\":733:740   */\n  0x00\n    /* \"#utility.yul\":773:815   */\n  0xffffffffffffffffffffffffffffffffffffffff\n    /* \"#utility.yul\":766:771   */\n  dup3\n    /* \"#utility.yul\":762:816   */\n  and\n    /* \"#utility.yul\":751:816   */\n  swap1\n  pop\n    /* \"#utility.yul\":696:822   */\n  swap2\n  swap1\n  pop\n  jump\t// out\n    /* \"#utility.yul\":951:1068   */\ntag_15:\n    /* \"#utility.yul\":1060:1061   */\n  0x00\n    /* \"#utility.yul\":1057:1058   */\n  dup1\n    /* \"#utility.yul\":1050:1062   */\n  revert\n    /* \"#utility.yul\":1074:1196   */\ntag_11:\n    /* \"#utility.yul\":1147:1171   */\n  tag_28\n    /* \"#utility.yul\":1165:1170   */\n  dup2\n    /* \"#utility.yul\":1147:1171   */\n  tag_19\n  jump\t// in\ntag_28:\n    /* \"#utility.yul\":1140:1145   */\n  dup2\n    /* \"#utility.yul\":1137:1172   */\n  eq\n    /* \"#utility.yul\":1127:1190   */\n  tag_29\n  jumpi\n    /* \"#utility.yul\":1186:1187   */\n  0x00\n    /* \"#utility.yul\":1183:1184   */\n  dup1\n    /* \"#utility.yul\":1176:1188   */\n  revert\n    /* \"#utility.yul\":1127:1190   */\ntag_29:\n    /* \"#utility.yul\":1074:1196   */\n  pop\n  jump\t// out\n    /* \"\\xe6\\xb0\\xb4\\xe9\\xbe\\x99\\xe5\\xa4\\xb4/Faucet.sol\":85:536  contract Faucet{\r... */\ntag_6:\n  dataSize(sub_0)\n  dup1\n  dataOffset(sub_0)\n  0x00\n  codecopy\n  0x00\n  return\nstop\n\nsub_0: assembly {\n        /* \"\\xe6\\xb0\\xb4\\xe9\\xbe\\x99\\xe5\\xa4\\xb4/Faucet.sol\":85:536  contract Faucet{\r... */\n      mstore(0x40, 0x80)\n      callvalue\n      dup1\n      iszero\n      tag_1\n      jumpi\n      0x00\n      dup1\n      revert\n    tag_1:\n      pop\n      jumpi(tag_2, lt(calldatasize, 0x04))\n      shr(0xe0, calldataload(0x00))\n      dup1\n      0x54b1f84f\n      eq\n      tag_3\n      jumpi\n      dup1\n      0x55a373d6\n      eq\n      tag_4\n      jumpi\n      dup1\n      0xb46300ec\n      eq\n      tag_5\n      jumpi\n      dup1\n      0xc44d5ddc\n      eq\n      tag_6\n      jumpi\n    tag_2:\n      0x00\n      dup1\n      revert\n        /* \"\\xe6\\xb0\\xb4\\xe9\\xbe\\x99\\xe5\\xa4\\xb4/Faucet.sol\":107:138  uint256 public allowanceA = 100 */\n    tag_3:\n      tag_7\n      tag_8\n      jump\t// in\n    tag_7:\n      mload(0x40)\n      tag_9\n      swap2\n      swap1\n      tag_10\n      jump\t// in\n    tag_9:\n      mload(0x40)\n      dup1\n      swap2\n      sub\n      swap1\n      return\n        /* \"\\xe6\\xb0\\xb4\\xe9\\xbe\\x99\\xe5\\xa4\\xb4/Faucet.sol\":145:173  address public tokenContract */\n    tag_4:\n      tag_11\n      tag_12\n      jump\t// in\n    tag_11:\n      mload(0x40)\n      tag_13\n      swap2\n      swap1\n      tag_14\n      jump\t// in\n    tag_13:\n      mload(0x40)\n      dup1\n      swap2\n      sub\n      swap1\n      return\n        /* \"\\xe6\\xb0\\xb4\\xe9\\xbe\\x99\\xe5\\xa4\\xb4/Faucet.sol\":405:533  function send() external view{\r... */\n    tag_5:\n      tag_15\n      tag_16\n      jump\t// in\n    tag_15:\n      stop\n        /* \"\\xe6\\xb0\\xb4\\xe9\\xbe\\x99\\xe5\\xa4\\xb4/Faucet.sol\":180:226  mapping(address => bool) public requestAddress */\n    tag_6:\n      tag_17\n      0x04\n      dup1\n      calldatasize\n      sub\n      dup2\n      add\n      swap1\n      tag_18\n      swap2\n      swap1\n      tag_19\n      jump\t// in\n    tag_18:\n      tag_20\n      jump\t// in\n    tag_17:\n      mload(0x40)\n      tag_21\n      swap2\n      swap1\n      tag_22\n      jump\t// in\n    tag_21:\n      mload(0x40)\n      dup1\n      swap2\n      sub\n      swap1\n      return\n        /* \"\\xe6\\xb0\\xb4\\xe9\\xbe\\x99\\xe5\\xa4\\xb4/Faucet.sol\":107:138  uint256 public allowanceA = 100 */\n    tag_8:\n      sload(0x00)\n      dup2\n      jump\t// out\n        /* \"\\xe6\\xb0\\xb4\\xe9\\xbe\\x99\\xe5\\xa4\\xb4/Faucet.sol\":145:173  address public tokenContract */\n    tag_12:\n      0x01\n      0x00\n      swap1\n      sload\n      swap1\n      0x0100\n      exp\n      swap1\n      div\n      0xffffffffffffffffffffffffffffffffffffffff\n      and\n      dup2\n      jump\t// out\n        /* \"\\xe6\\xb0\\xb4\\xe9\\xbe\\x99\\xe5\\xa4\\xb4/Faucet.sol\":405:533  function send() external view{\r... */\n    tag_16:\n        /* \"\\xe6\\xb0\\xb4\\xe9\\xbe\\x99\\xe5\\xa4\\xb4/Faucet.sol\":484:488  true */\n      0x01\n        /* \"\\xe6\\xb0\\xb4\\xe9\\xbe\\x99\\xe5\\xa4\\xb4/Faucet.sol\":454:488  requestAddress[msg.sender] == true */\n      iszero\n      iszero\n        /* \"\\xe6\\xb0\\xb4\\xe9\\xbe\\x99\\xe5\\xa4\\xb4/Faucet.sol\":454:468  requestAddress */\n      0x02\n        /* \"\\xe6\\xb0\\xb4\\xe9\\xbe\\x99\\xe5\\xa4\\xb4/Faucet.sol\":454:480  requestAddress[msg.sender] */\n      0x00\n        /* \"\\xe6\\xb0\\xb4\\xe9\\xbe\\x99\\xe5\\xa4\\xb4/Faucet.sol\":469:479  msg.sender */\n      caller\n        /* \"\\xe6\\xb0\\xb4\\xe9\\xbe\\x99\\xe5\\xa4\\xb4/Faucet.sol\":454:480  requestAddress[msg.sender] */\n      0xffffffffffffffffffffffffffffffffffffffff\n      and\n      0xffffffffffffffffffffffffffffffffffffffff\n      and\n      dup2\n      mstore\n      0x20\n      add\n      swap1\n      dup2\n      mstore\n      0x20\n      add\n      0x00\n      keccak256\n      0x00\n      swap1\n      sload\n      swap1\n      0x0100\n      exp\n      swap1\n      div\n      0xff\n      and\n        /* \"\\xe6\\xb0\\xb4\\xe9\\xbe\\x99\\xe5\\xa4\\xb4/Faucet.sol\":454:488  requestAddress[msg.sender] == true */\n      iszero\n      iszero\n      eq\n        /* \"\\xe6\\xb0\\xb4\\xe9\\xbe\\x99\\xe5\\xa4\\xb4/Faucet.sol\":445:513  require( requestAddress[msg.sender] == true ,\"The address has get!\") */\n      tag_24\n      jumpi\n      mload(0x40)\n      0x08c379a000000000000000000000000000000000000000000000000000000000\n      dup2\n      mstore\n      0x04\n      add\n      tag_25\n      swap1\n      tag_26\n      jump\t// in\n    tag_25:\n      mload(0x40)\n      dup1\n      swap2\n      sub\n      swap1\n      revert\n    tag_24:\n        /* \"\\xe6\\xb0\\xb4\\xe9\\xbe\\x99\\xe5\\xa4\\xb4/Faucet.sol\":405:533  function send() external view{\r... */\n      jump\t// out\n        /* \"\\xe6\\xb0\\xb4\\xe9\\xbe\\x99\\xe5\\xa4\\xb4/Faucet.sol\":180:226  mapping(address => bool) public requestAddress */\n    tag_20:\n      mstore(0x20, 0x02)\n      dup1\n      0x00\n      mstore\n      keccak256(0x00, 0x40)\n      0x00\n      swap2\n      pop\n      sload\n      swap1\n      0x0100\n      exp\n      swap1\n      div\n      0xff\n      and\n      dup2\n      jump\t// out\n        /* \"#utility.yul\":7:146   */\n    tag_28:\n        /* \"#utility.yul\":53:58   */\n      0x00\n        /* \"#utility.yul\":91:97   */\n      dup2\n        /* \"#utility.yul\":78:98   */\n      calldataload\n        /* \"#utility.yul\":69:98   */\n      swap1\n      pop\n        /* \"#utility.yul\":107:140   */\n      tag_30\n        /* \"#utility.yul\":134:139   */\n      dup2\n        /* \"#utility.yul\":107:140   */\n      tag_31\n      jump\t// in\n    tag_30:\n        /* \"#utility.yul\":7:146   */\n      swap3\n      swap2\n      pop\n      pop\n      jump\t// out\n        /* \"#utility.yul\":152:481   */\n    tag_19:\n        /* \"#utility.yul\":211:217   */\n      0x00\n        /* \"#utility.yul\":260:262   */\n      0x20\n        /* \"#utility.yul\":248:257   */\n      dup3\n        /* \"#utility.yul\":239:246   */\n      dup5\n        /* \"#utility.yul\":235:258   */\n      sub\n        /* \"#utility.yul\":231:263   */\n      slt\n        /* \"#utility.yul\":228:347   */\n      iszero\n      tag_33\n      jumpi\n        /* \"#utility.yul\":266:345   */\n      tag_34\n      tag_35\n      jump\t// in\n    tag_34:\n        /* \"#utility.yul\":228:347   */\n    tag_33:\n        /* \"#utility.yul\":386:387   */\n      0x00\n        /* \"#utility.yul\":411:464   */\n      tag_36\n        /* \"#utility.yul\":456:463   */\n      dup5\n        /* \"#utility.yul\":447:453   */\n      dup3\n        /* \"#utility.yul\":436:445   */\n      dup6\n        /* \"#utility.yul\":432:454   */\n      add\n        /* \"#utility.yul\":411:464   */\n      tag_28\n      jump\t// in\n    tag_36:\n        /* \"#utility.yul\":401:464   */\n      swap2\n      pop\n        /* \"#utility.yul\":357:474   */\n      pop\n        /* \"#utility.yul\":152:481   */\n      swap3\n      swap2\n      pop\n      pop\n      jump\t// out\n        /* \"#utility.yul\":487:605   */\n    tag_37:\n        /* \"#utility.yul\":574:598   */\n      tag_39\n        /* \"#utility.yul\":592:597   */\n      dup2\n        /* \"#utility.yul\":574:598   */\n      tag_40\n      jump\t// in\n    tag_39:\n        /* \"#utility.yul\":569:572   */\n      dup3\n        /* \"#utility.yul\":562:599   */\n      mstore\n        /* \"#utility.yul\":487:605   */\n      pop\n      pop\n      jump\t// out\n        /* \"#utility.yul\":611:720   */\n    tag_41:\n        /* \"#utility.yul\":692:713   */\n      tag_43\n        /* \"#utility.yul\":707:712   */\n      dup2\n        /* \"#utility.yul\":692:713   */\n      tag_44\n      jump\t// in\n    tag_43:\n        /* \"#utility.yul\":687:690   */\n      dup3\n        /* \"#utility.yul\":680:714   */\n      mstore\n        /* \"#utility.yul\":611:720   */\n      pop\n      pop\n      jump\t// out\n        /* \"#utility.yul\":726:1092   */\n    tag_45:\n        /* \"#utility.yul\":868:871   */\n      0x00\n        /* \"#utility.yul\":889:956   */\n      tag_47\n        /* \"#utility.yul\":953:955   */\n      0x14\n        /* \"#utility.yul\":948:951   */\n      dup4\n        /* \"#utility.yul\":889:956   */\n      tag_48\n      jump\t// in\n    tag_47:\n        /* \"#utility.yul\":882:956   */\n      swap2\n      pop\n        /* \"#utility.yul\":965:1058   */\n      tag_49\n        /* \"#utility.yul\":1054:1057   */\n      dup3\n        /* \"#utility.yul\":965:1058   */\n      tag_50\n      jump\t// in\n    tag_49:\n        /* \"#utility.yul\":1083:1085   */\n      0x20\n        /* \"#utility.yul\":1078:1081   */\n      dup3\n        /* \"#utility.yul\":1074:1086   */\n      add\n        /* \"#utility.yul\":1067:1086   */\n      swap1\n      pop\n        /* \"#utility.yul\":726:1092   */\n      swap2\n      swap1\n      pop\n      jump\t// out\n        /* \"#utility.yul\":1098:1216   */\n    tag_51:\n        /* \"#utility.yul\":1185:1209   */\n      tag_53\n        /* \"#utility.yul\":1203:1208   */\n      dup2\n        /* \"#utility.yul\":1185:1209   */\n      tag_54\n      jump\t// in\n    tag_53:\n        /* \"#utility.yul\":1180:1183   */\n      dup3\n        /* \"#utility.yul\":1173:1210   */\n      mstore\n        /* \"#utility.yul\":1098:1216   */\n      pop\n      pop\n      jump\t// out\n        /* \"#utility.yul\":1222:1444   */\n    tag_14:\n        /* \"#utility.yul\":1315:1319   */\n      0x00\n        /* \"#utility.yul\":1353:1355   */\n      0x20\n        /* \"#utility.yul\":1342:1351   */\n      dup3\n        /* \"#utility.yul\":1338:1356   */\n      add\n        /* \"#utility.yul\":1330:1356   */\n      swap1\n      pop\n        /* \"#utility.yul\":1366:1437   */\n      tag_56\n        /* \"#utility.yul\":1434:1435   */\n      0x00\n        /* \"#utility.yul\":1423:1432   */\n      dup4\n        /* \"#utility.yul\":1419:1436   */\n      add\n        /* \"#utility.yul\":1410:1416   */\n      dup5\n        /* \"#utility.yul\":1366:1437   */\n      tag_37\n      jump\t// in\n    tag_56:\n        /* \"#utility.yul\":1222:1444   */\n      swap3\n      swap2\n      pop\n      pop\n      jump\t// out\n        /* \"#utility.yul\":1450:1660   */\n    tag_22:\n        /* \"#utility.yul\":1537:1541   */\n      0x00\n        /* \"#utility.yul\":1575:1577   */\n      0x20\n        /* \"#utility.yul\":1564:1573   */\n      dup3\n        /* \"#utility.yul\":1560:1578   */\n      add\n        /* \"#utility.yul\":1552:1578   */\n      swap1\n      pop\n        /* \"#utility.yul\":1588:1653   */\n      tag_58\n        /* \"#utility.yul\":1650:1651   */\n      0x00\n        /* \"#utility.yul\":1639:1648   */\n      dup4\n        /* \"#utility.yul\":1635:1652   */\n      add\n        /* \"#utility.yul\":1626:1632   */\n      dup5\n        /* \"#utility.yul\":1588:1653   */\n      tag_41\n      jump\t// in\n    tag_58:\n        /* \"#utility.yul\":1450:1660   */\n      swap3\n      swap2\n      pop\n      pop\n      jump\t// out\n        /* \"#utility.yul\":1666:2085   */\n    tag_26:\n        /* \"#utility.yul\":1832:1836   */\n      0x00\n        /* \"#utility.yul\":1870:1872   */\n      0x20\n        /* \"#utility.yul\":1859:1868   */\n      dup3\n        /* \"#utility.yul\":1855:1873   */\n      add\n        /* \"#utility.yul\":1847:1873   */\n      swap1\n      pop\n        /* \"#utility.yul\":1919:1928   */\n      dup2\n        /* \"#utility.yul\":1913:1917   */\n      dup2\n        /* \"#utility.yul\":1909:1929   */\n      sub\n        /* \"#utility.yul\":1905:1906   */\n      0x00\n        /* \"#utility.yul\":1894:1903   */\n      dup4\n        /* \"#utility.yul\":1890:1907   */\n      add\n        /* \"#utility.yul\":1883:1930   */\n      mstore\n        /* \"#utility.yul\":1947:2078   */\n      tag_60\n        /* \"#utility.yul\":2073:2077   */\n      dup2\n        /* \"#utility.yul\":1947:2078   */\n      tag_45\n      jump\t// in\n    tag_60:\n        /* \"#utility.yul\":1939:2078   */\n      swap1\n      pop\n        /* \"#utility.yul\":1666:2085   */\n      swap2\n      swap1\n      pop\n      jump\t// out\n        /* \"#utility.yul\":2091:2313   */\n    tag_10:\n        /* \"#utility.yul\":2184:2188   */\n      0x00\n        /* \"#utility.yul\":2222:2224   */\n      0x20\n        /* \"#utility.yul\":2211:2220   */\n      dup3\n        /* \"#utility.yul\":2207:2225   */\n      add\n        /* \"#utility.yul\":2199:2225   */\n      swap1\n      pop\n        /* \"#utility.yul\":2235:2306   */\n      tag_62\n        /* \"#utility.yul\":2303:2304   */\n      0x00\n        /* \"#utility.yul\":2292:2301   */\n      dup4\n        /* \"#utility.yul\":2288:2305   */\n      add\n        /* \"#utility.yul\":2279:2285   */\n      dup5\n        /* \"#utility.yul\":2235:2306   */\n      tag_51\n      jump\t// in\n    tag_62:\n        /* \"#utility.yul\":2091:2313   */\n      swap3\n      swap2\n      pop\n      pop\n      jump\t// out\n        /* \"#utility.yul\":2400:2569   */\n    tag_48:\n        /* \"#utility.yul\":2484:2495   */\n      0x00\n        /* \"#utility.yul\":2518:2524   */\n      dup3\n        /* \"#utility.yul\":2513:2516   */\n      dup3\n        /* \"#utility.yul\":2506:2525   */\n      mstore\n        /* \"#utility.yul\":2558:2562   */\n      0x20\n        /* \"#utility.yul\":2553:2556   */\n      dup3\n        /* \"#utility.yul\":2549:2563   */\n      add\n        /* \"#utility.yul\":2534:2563   */\n      swap1\n      pop\n        /* \"#utility.yul\":2400:2569   */\n      swap3\n      swap2\n      pop\n      pop\n      jump\t// out\n        /* \"#utility.yul\":2575:2671   */\n    tag_40:\n        /* \"#utility.yul\":2612:2619   */\n      0x00\n        /* \"#utility.yul\":2641:2665   */\n      tag_67\n        /* \"#utility.yul\":2659:2664   */\n      dup3\n        /* \"#utility.yul\":2641:2665   */\n      tag_68\n      jump\t// in\n    tag_67:\n        /* \"#utility.yul\":2630:2665   */\n      swap1\n      pop\n        /* \"#utility.yul\":2575:2671   */\n      swap2\n      swap1\n      pop\n      jump\t// out\n        /* \"#utility.yul\":2677:2767   */\n    tag_44:\n        /* \"#utility.yul\":2711:2718   */\n      0x00\n        /* \"#utility.yul\":2754:2759   */\n      dup2\n        /* \"#utility.yul\":2747:2760   */\n      iszero\n        /* \"#utility.yul\":2740:2761   */\n      iszero\n        /* \"#utility.yul\":2729:2761   */\n      swap1\n      pop\n        /* \"#utility.yul\":2677:2767   */\n      swap2\n      swap1\n      pop\n      jump\t// out\n        /* \"#utility.yul\":2773:2899   */\n    tag_68:\n        /* \"#utility.yul\":2810:2817   */\n      0x00\n        /* \"#utility.yul\":2850:2892   */\n      0xffffffffffffffffffffffffffffffffffffffff\n        /* \"#utility.yul\":2843:2848   */\n      dup3\n        /* \"#utility.yul\":2839:2893   */\n      and\n        /* \"#utility.yul\":2828:2893   */\n      swap1\n      pop\n        /* \"#utility.yul\":2773:2899   */\n      swap2\n      swap1\n      pop\n      jump\t// out\n        /* \"#utility.yul\":2905:2982   */\n    tag_54:\n        /* \"#utility.yul\":2942:2949   */\n      0x00\n        /* \"#utility.yul\":2971:2976   */\n      dup2\n        /* \"#utility.yul\":2960:2976   */\n      swap1\n      pop\n        /* \"#utility.yul\":2905:2982   */\n      swap2\n      swap1\n      pop\n      jump\t// out\n        /* \"#utility.yul\":3111:3228   */\n    tag_35:\n        /* \"#utility.yul\":3220:3221   */\n      0x00\n        /* \"#utility.yul\":3217:3218   */\n      dup1\n        /* \"#utility.yul\":3210:3222   */\n      revert\n        /* \"#utility.yul\":3234:3404   */\n    tag_50:\n        /* \"#utility.yul\":3374:3396   */\n      0x5468652061646472657373206861732067657421000000000000000000000000\n        /* \"#utility.yul\":3370:3371   */\n      0x00\n        /* \"#utility.yul\":3362:3368   */\n      dup3\n        /* \"#utility.yul\":3358:3372   */\n      add\n        /* \"#utility.yul\":3351:3397   */\n      mstore\n        /* \"#utility.yul\":3234:3404   */\n      pop\n      jump\t// out\n        /* \"#utility.yul\":3410:3532   */\n    tag_31:\n        /* \"#utility.yul\":3483:3507   */\n      tag_77\n        /* \"#utility.yul\":3501:3506   */\n      dup2\n        /* \"#utility.yul\":3483:3507   */\n      tag_40\n      jump\t// in\n    tag_77:\n        /* \"#utility.yul\":3476:3481   */\n      dup2\n        /* \"#utility.yul\":3473:3508   */\n      eq\n        /* \"#utility.yul\":3463:3526   */\n      tag_78\n      jumpi\n        /* \"#utility.yul\":3522:3523   */\n      0x00\n        /* \"#utility.yul\":3519:3520   */\n      dup1\n        /* \"#utility.yul\":3512:3524   */\n      revert\n        /* \"#utility.yul\":3463:3526   */\n    tag_78:\n        /* \"#utility.yul\":3410:3532   */\n      pop\n      jump\t// out\n\n    auxdata: 0xa2646970667358221220b4098312f72098bec9cad8731283c46ccc274ef6abecd6ecabd4d49043d5019b64736f6c63430008070033\n}\n",
				"bytecode": {
					"linkReferences": {},
					"object": "6080604052606460005534801561001557600080fd5b5060405161049c38038061049c83398181016040528101906100379190610093565b80600160006101000a81548173ffffffffffffffffffffffffffffffffffffffff021916908373ffffffffffffffffffffffffffffffffffffffff1602179055505061010e565b60008151905061008d816100f7565b92915050565b6000602082840312156100a9576100a86100f2565b5b60006100b78482850161007e565b91505092915050565b60006100cb826100d2565b9050919050565b600073ffffffffffffffffffffffffffffffffffffffff82169050919050565b600080fd5b610100816100c0565b811461010b57600080fd5b50565b61037f8061011d6000396000f3fe608060405234801561001057600080fd5b506004361061004c5760003560e01c806354b1f84f1461005157806355a373d61461006f578063b46300ec1461008d578063c44d5ddc14610097575b600080fd5b6100596100c7565b6040516100669190610290565b60405180910390f35b6100776100cd565b604051610084919061023a565b60405180910390f35b6100956100f3565b005b6100b160048036038101906100ac91906101bd565b610188565b6040516100be9190610255565b60405180910390f35b60005481565b600160009054906101000a900473ffffffffffffffffffffffffffffffffffffffff1681565b60011515600260003373ffffffffffffffffffffffffffffffffffffffff1673ffffffffffffffffffffffffffffffffffffffff16815260200190815260200160002060009054906101000a900460ff16151514610186576040517f08c379a000000000000000000000000000000000000000000000000000000000815260040161017d90610270565b60405180910390fd5b565b60026020528060005260406000206000915054906101000a900460ff1681565b6000813590506101b781610332565b92915050565b6000602082840312156101d3576101d2610304565b5b60006101e1848285016101a8565b91505092915050565b6101f3816102bc565b82525050565b610202816102ce565b82525050565b60006102156014836102ab565b915061022082610309565b602082019050919050565b610234816102fa565b82525050565b600060208201905061024f60008301846101ea565b92915050565b600060208201905061026a60008301846101f9565b92915050565b6000602082019050818103600083015261028981610208565b9050919050565b60006020820190506102a5600083018461022b565b92915050565b600082825260208201905092915050565b60006102c7826102da565b9050919050565b60008115159050919050565b600073ffffffffffffffffffffffffffffffffffffffff82169050919050565b6000819050919050565b600080fd5b7f5468652061646472657373206861732067657421000000000000000000000000600082015250565b61033b816102bc565b811461034657600080fd5b5056fea2646970667358221220b4098312f72098bec9cad8731283c46ccc274ef6abecd6ecabd4d49043d5019b64736f6c63430008070033",
					"opcodes": "PUSH1 0x80 PUSH1 0x40 MSTORE PUSH1 0x64 PUSH1 0x0 SSTORE CALLVALUE DUP1 ISZERO PUSH2 0x15 JUMPI PUSH1 0x0 DUP1 REVERT JUMPDEST POP PUSH1 0x40 MLOAD PUSH2 0x49C CODESIZE SUB DUP1 PUSH2 0x49C DUP4 CODECOPY DUP2 DUP2 ADD PUSH1 0x40 MSTORE DUP2 ADD SWAP1 PUSH2 0x37 SWAP2 SWAP1 PUSH2 0x93 JUMP JUMPDEST DUP1 PUSH1 0x1 PUSH1 0x0 PUSH2 0x100 EXP DUP2 SLOAD DUP2 PUSH20 0xFFFFFFFFFFFFFFFFFFFFFFFFFFFFFFFFFFFFFFFF MUL NOT AND SWAP1 DUP4 PUSH20 0xFFFFFFFFFFFFFFFFFFFFFFFFFFFFFFFFFFFFFFFF AND MUL OR SWAP1 SSTORE POP POP PUSH2 0x10E JUMP JUMPDEST PUSH1 0x0 DUP2 MLOAD SWAP1 POP PUSH2 0x8D DUP2 PUSH2 0xF7 JUMP JUMPDEST SWAP3 SWAP2 POP POP JUMP JUMPDEST PUSH1 0x0 PUSH1 0x20 DUP3 DUP5 SUB SLT ISZERO PUSH2 0xA9 JUMPI PUSH2 0xA8 PUSH2 0xF2 JUMP JUMPDEST JUMPDEST PUSH1 0x0 PUSH2 0xB7 DUP5 DUP3 DUP6 ADD PUSH2 0x7E JUMP JUMPDEST SWAP2 POP POP SWAP3 SWAP2 POP POP JUMP JUMPDEST PUSH1 0x0 PUSH2 0xCB DUP3 PUSH2 0xD2 JUMP JUMPDEST SWAP1 POP SWAP2 SWAP1 POP JUMP JUMPDEST PUSH1 0x0 PUSH20 0xFFFFFFFFFFFFFFFFFFFFFFFFFFFFFFFFFFFFFFFF DUP3 AND SWAP1 POP SWAP2 SWAP1 POP JUMP JUMPDEST PUSH1 0x0 DUP1 REVERT JUMPDEST PUSH2 0x100 DUP2 PUSH2 0xC0 JUMP JUMPDEST DUP2 EQ PUSH2 0x10B JUMPI PUSH1 0x0 DUP1 REVERT JUMPDEST POP JUMP JUMPDEST PUSH2 0x37F DUP1 PUSH2 0x11D PUSH1 0x0 CODECOPY PUSH1 0x0 RETURN INVALID PUSH1 0x80 PUSH1 0x40 MSTORE CALLVALUE DUP1 ISZERO PUSH2 0x10 JUMPI PUSH1 0x0 DUP1 REVERT JUMPDEST POP PUSH1 0x4 CALLDATASIZE LT PUSH2 0x4C JUMPI PUSH1 0x0 CALLDATALOAD PUSH1 0xE0 SHR DUP1 PUSH4 0x54B1F84F EQ PUSH2 0x51 JUMPI DUP1 PUSH4 0x55A373D6 EQ PUSH2 0x6F JUMPI DUP1 PUSH4 0xB46300EC EQ PUSH2 0x8D JUMPI DUP1 PUSH4 0xC44D5DDC EQ PUSH2 0x97 JUMPI JUMPDEST PUSH1 0x0 DUP1 REVERT JUMPDEST PUSH2 0x59 PUSH2 0xC7 JUMP JUMPDEST PUSH1 0x40 MLOAD PUSH2 0x66 SWAP2 SWAP1 PUSH2 0x290 JUMP JUMPDEST PUSH1 0x40 MLOAD DUP1 SWAP2 SUB SWAP1 RETURN JUMPDEST PUSH2 0x77 PUSH2 0xCD JUMP JUMPDEST PUSH1 0x40 MLOAD PUSH2 0x84 SWAP2 SWAP1 PUSH2 0x23A JUMP JUMPDEST PUSH1 0x40 MLOAD DUP1 SWAP2 SUB SWAP1 RETURN JUMPDEST PUSH2 0x95 PUSH2 0xF3 JUMP JUMPDEST STOP JUMPDEST PUSH2 0xB1 PUSH1 0x4 DUP1 CALLDATASIZE SUB DUP2 ADD SWAP1 PUSH2 0xAC SWAP2 SWAP1 PUSH2 0x1BD JUMP JUMPDEST PUSH2 0x188 JUMP JUMPDEST PUSH1 0x40 MLOAD PUSH2 0xBE SWAP2 SWAP1 PUSH2 0x255 JUMP JUMPDEST PUSH1 0x40 MLOAD DUP1 SWAP2 SUB SWAP1 RETURN JUMPDEST PUSH1 0x0 SLOAD DUP2 JUMP JUMPDEST PUSH1 0x1 PUSH1 0x0 SWAP1 SLOAD SWAP1 PUSH2 0x100 EXP SWAP1 DIV PUSH20 0xFFFFFFFFFFFFFFFFFFFFFFFFFFFFFFFFFFFFFFFF AND DUP2 JUMP JUMPDEST PUSH1 0x1 ISZERO ISZERO PUSH1 0x2 PUSH1 0x0 CALLER PUSH20 0xFFFFFFFFFFFFFFFFFFFFFFFFFFFFFFFFFFFFFFFF AND PUSH20 0xFFFFFFFFFFFFFFFFFFFFFFFFFFFFFFFFFFFFFFFF AND DUP2 MSTORE PUSH1 0x20 ADD SWAP1 DUP2 MSTORE PUSH1 0x20 ADD PUSH1 0x0 KECCAK256 PUSH1 0x0 SWAP1 SLOAD SWAP1 PUSH2 0x100 EXP SWAP1 DIV PUSH1 0xFF AND ISZERO ISZERO EQ PUSH2 0x186 JUMPI PUSH1 0x40 MLOAD PUSH32 0x8C379A000000000000000000000000000000000000000000000000000000000 DUP2 MSTORE PUSH1 0x4 ADD PUSH2 0x17D SWAP1 PUSH2 0x270 JUMP JUMPDEST PUSH1 0x40 MLOAD DUP1 SWAP2 SUB SWAP1 REVERT JUMPDEST JUMP JUMPDEST PUSH1 0x2 PUSH1 0x20 MSTORE DUP1 PUSH1 0x0 MSTORE PUSH1 0x40 PUSH1 0x0 KECCAK256 PUSH1 0x0 SWAP2 POP SLOAD SWAP1 PUSH2 0x100 EXP SWAP1 DIV PUSH1 0xFF AND DUP2 JUMP JUMPDEST PUSH1 0x0 DUP2 CALLDATALOAD SWAP1 POP PUSH2 0x1B7 DUP2 PUSH2 0x332 JUMP JUMPDEST SWAP3 SWAP2 POP POP JUMP JUMPDEST PUSH1 0x0 PUSH1 0x20 DUP3 DUP5 SUB SLT ISZERO PUSH2 0x1D3 JUMPI PUSH2 0x1D2 PUSH2 0x304 JUMP JUMPDEST JUMPDEST PUSH1 0x0 PUSH2 0x1E1 DUP5 DUP3 DUP6 ADD PUSH2 0x1A8 JUMP JUMPDEST SWAP2 POP POP SWAP3 SWAP2 POP POP JUMP JUMPDEST PUSH2 0x1F3 DUP2 PUSH2 0x2BC JUMP JUMPDEST DUP3 MSTORE POP POP JUMP JUMPDEST PUSH2 0x202 DUP2 PUSH2 0x2CE JUMP JUMPDEST DUP3 MSTORE POP POP JUMP JUMPDEST PUSH1 0x0 PUSH2 0x215 PUSH1 0x14 DUP4 PUSH2 0x2AB JUMP JUMPDEST SWAP2 POP PUSH2 0x220 DUP3 PUSH2 0x309 JUMP JUMPDEST PUSH1 0x20 DUP3 ADD SWAP1 POP SWAP2 SWAP1 POP JUMP JUMPDEST PUSH2 0x234 DUP2 PUSH2 0x2FA JUMP JUMPDEST DUP3 MSTORE POP POP JUMP JUMPDEST PUSH1 0x0 PUSH1 0x20 DUP3 ADD SWAP1 POP PUSH2 0x24F PUSH1 0x0 DUP4 ADD DUP5 PUSH2 0x1EA JUMP JUMPDEST SWAP3 SWAP2 POP POP JUMP JUMPDEST PUSH1 0x0 PUSH1 0x20 DUP3 ADD SWAP1 POP PUSH2 0x26A PUSH1 0x0 DUP4 ADD DUP5 PUSH2 0x1F9 JUMP JUMPDEST SWAP3 SWAP2 POP POP JUMP JUMPDEST PUSH1 0x0 PUSH1 0x20 DUP3 ADD SWAP1 POP DUP2 DUP2 SUB PUSH1 0x0 DUP4 ADD MSTORE PUSH2 0x289 DUP2 PUSH2 0x208 JUMP JUMPDEST SWAP1 POP SWAP2 SWAP1 POP JUMP JUMPDEST PUSH1 0x0 PUSH1 0x20 DUP3 ADD SWAP1 POP PUSH2 0x2A5 PUSH1 0x0 DUP4 ADD DUP5 PUSH2 0x22B JUMP JUMPDEST SWAP3 SWAP2 POP POP JUMP JUMPDEST PUSH1 0x0 DUP3 DUP3 MSTORE PUSH1 0x20 DUP3 ADD SWAP1 POP SWAP3 SWAP2 POP POP JUMP JUMPDEST PUSH1 0x0 PUSH2 0x2C7 DUP3 PUSH2 0x2DA JUMP JUMPDEST SWAP1 POP SWAP2 SWAP1 POP JUMP JUMPDEST PUSH1 0x0 DUP2 ISZERO ISZERO SWAP1 POP SWAP2 SWAP1 POP JUMP JUMPDEST PUSH1 0x0 PUSH20 0xFFFFFFFFFFFFFFFFFFFFFFFFFFFFFFFFFFFFFFFF DUP3 AND SWAP1 POP SWAP2 SWAP1 POP JUMP JUMPDEST PUSH1 0x0 DUP2 SWAP1 POP SWAP2 SWAP1 POP JUMP JUMPDEST PUSH1 0x0 DUP1 REVERT JUMPDEST PUSH32 0x5468652061646472657373206861732067657421000000000000000000000000 PUSH1 0x0 DUP3 ADD MSTORE POP JUMP JUMPDEST PUSH2 0x33B DUP2 PUSH2 0x2BC JUMP JUMPDEST DUP2 EQ PUSH2 0x346 JUMPI PUSH1 0x0 DUP1 REVERT JUMPDEST POP JUMP INVALID LOG2 PUSH5 0x6970667358 0x22 SLT KECCAK256 0xB4 MULMOD DUP4 SLT 0xF7 KECCAK256 SWAP9 0xBE 0xC9 0xCA 0xD8 PUSH20 0x1283C46CCC274EF6ABECD6ECABD4D49043D5019B PUSH5 0x736F6C6343 STOP ADDMOD SMOD STOP CALLER "
				},
				"gasEstimates": {
					"creation": {
						"codeDepositCost": "179000",
						"executionCost": "infinite",
						"totalCost": "infinite"
					},
					"external": {
						"allowanceA()": "2407",
						"requestAddress(address)": "2889",
						"send()": "2715",
						"tokenContract()": "2514"
					}
				},
				"methodIdentifiers": {
					"allowanceA()": "54b1f84f",
					"requestAddress(address)": "c44d5ddc",
					"send()": "b46300ec",
					"tokenContract()": "55a373d6"
				}
			},
			"storageLayout": {
				"storage": [
					{
						"astId": 4,
						"contract": "水龙头/Faucet.sol:Faucet",
						"label": "allowanceA",
						"offset": 0,
						"slot": "0",
						"type": "t_uint256"
					},
					{
						"astId": 6,
						"contract": "水龙头/Faucet.sol:Faucet",
						"label": "tokenContract",
						"offset": 0,
						"slot": "1",
						"type": "t_address"
					},
					{
						"astId": 10,
						"contract": "水龙头/Faucet.sol:Faucet",
						"label": "requestAddress",
						"offset": 0,
						"slot": "2",
						"type": "t_mapping(t_address,t_bool)"
					}
				],
				"types": {
					"t_address": {
						"encoding": "inplace",
						"label": "address",
						"numberOfBytes": "20"
					},
					"t_bool": {
						"encoding": "inplace",
						"label": "bool",
						"numberOfBytes": "1"
					},
					"t_mapping(t_address,t_bool)": {
						"encoding": "mapping",
						"key": "t_address",
						"label": "mapping(address => bool)",
						"numberOfBytes": "32",
						"value": "t_bool"
					},
					"t_uint256": {
						"encoding": "inplace",
						"label": "uint256",
						"numberOfBytes": "32"
					}
				}
			},
			"userdoc": {
				"kind": "user",
				"methods": {},
				"version": 1
			}
		}
	}
}