{
	"水龙头/Faucet.sol": {
		"Faucet": {
			"abi": [
				{
					"inputs": [
						{
							"internalType": "address",
							"name": "_tokenContract",
							"type": "address"
						}
					],
					"stateMutability": "nonpayable",
					"type": "constructor"
				},
				{
					"anonymous": false,
					"inputs": [
						{
							"indexed": true,
							"internalType": "address",
							"name": "Receiver",
							"type": "address"
						},
						{
							"indexed": true,
							"internalType": "uint256",
							"name": "Amount",
							"type": "uint256"
						}
					],
					"name": "SendToken",
					"type": "event"
				},
				{
					"inputs": [],
					"name": "allowanceA",
					"outputs": [
						{
							"internalType": "uint256",
							"name": "",
							"type": "uint256"
						}
					],
					"stateMutability": "view",
					"type": "function"
				},
				{
					"inputs": [
						{
							"internalType": "address",
							"name": "",
							"type": "address"
						}
					],
					"name": "requestAddress",
					"outputs": [
						{
							"internalType": "bool",
							"name": "",
							"type": "bool"
						}
					],
					"stateMutability": "view",
					"type": "function"
				},
				{
					"inputs": [],
					"name": "tokenContract",
					"outputs": [
						{
							"internalType": "address",
							"name": "",
							"type": "address"
						}
					],
					"stateMutability": "view",
					"type": "function"
				}
			],
			"devdoc": {
				"kind": "dev",
				"methods": {},
				"version": 1
			},
			"evm": {
				"assembly": "    /* \"\\xe6\\xb0\\xb4\\xe9\\xbe\\x99\\xe5\\xa4\\xb4/Faucet.sol\":85:400  contract Faucet{\r... */\n  mstore(0x40, 0x80)\n    /* \"\\xe6\\xb0\\xb4\\xe9\\xbe\\x99\\xe5\\xa4\\xb4/Faucet.sol\":135:138  100 */\n  0x64\n    /* \"\\xe6\\xb0\\xb4\\xe9\\xbe\\x99\\xe5\\xa4\\xb4/Faucet.sol\":107:138  uint256 public allowanceA = 100 */\n  0x00\n  sstore\n    /* \"\\xe6\\xb0\\xb4\\xe9\\xbe\\x99\\xe5\\xa4\\xb4/Faucet.sol\":313:397  constructor(address _tokenContract){\r... */\n  callvalue\n  dup1\n  iszero\n  tag_1\n  jumpi\n  0x00\n  dup1\n  revert\ntag_1:\n  pop\n  mload(0x40)\n  sub(codesize, bytecodeSize)\n  dup1\n  bytecodeSize\n  dup4\n  codecopy\n  dup2\n  dup2\n  add\n  0x40\n  mstore\n  dup2\n  add\n  swap1\n  tag_2\n  swap2\n  swap1\n  tag_3\n  jump\t// in\ntag_2:\n    /* \"\\xe6\\xb0\\xb4\\xe9\\xbe\\x99\\xe5\\xa4\\xb4/Faucet.sol\":375:389  _tokenContract */\n  dup1\n    /* \"\\xe6\\xb0\\xb4\\xe9\\xbe\\x99\\xe5\\xa4\\xb4/Faucet.sol\":359:372  tokenContract */\n  0x01\n  0x00\n    /* \"\\xe6\\xb0\\xb4\\xe9\\xbe\\x99\\xe5\\xa4\\xb4/Faucet.sol\":359:389  tokenContract = _tokenContract */\n  0x0100\n  exp\n  dup2\n  sload\n  dup2\n  0xffffffffffffffffffffffffffffffffffffffff\n  mul\n  not\n  and\n  swap1\n  dup4\n  0xffffffffffffffffffffffffffffffffffffffff\n  and\n  mul\n  or\n  swap1\n  sstore\n  pop\n    /* \"\\xe6\\xb0\\xb4\\xe9\\xbe\\x99\\xe5\\xa4\\xb4/Faucet.sol\":313:397  constructor(address _tokenContract){\r... */\n  pop\n    /* \"\\xe6\\xb0\\xb4\\xe9\\xbe\\x99\\xe5\\xa4\\xb4/Faucet.sol\":85:400  contract Faucet{\r... */\n  jump(tag_6)\n    /* \"#utility.yul\":7:150   */\ntag_8:\n    /* \"#utility.yul\":64:69   */\n  0x00\n    /* \"#utility.yul\":95:101   */\n  dup2\n    /* \"#utility.yul\":89:102   */\n  mload\n    /* \"#utility.yul\":80:102   */\n  swap1\n  pop\n    /* \"#utility.yul\":111:144   */\n  tag_10\n    /* \"#utility.yul\":138:143   */\n  dup2\n    /* \"#utility.yul\":111:144   */\n  tag_11\n  jump\t// in\ntag_10:\n    /* \"#utility.yul\":7:150   */\n  swap3\n  swap2\n  pop\n  pop\n  jump\t// out\n    /* \"#utility.yul\":156:507   */\ntag_3:\n    /* \"#utility.yul\":226:232   */\n  0x00\n    /* \"#utility.yul\":275:277   */\n  0x20\n    /* \"#utility.yul\":263:272   */\n  dup3\n    /* \"#utility.yul\":254:261   */\n  dup5\n    /* \"#utility.yul\":250:273   */\n  sub\n    /* \"#utility.yul\":246:278   */\n  slt\n    /* \"#utility.yul\":243:362   */\n  iszero\n  tag_13\n  jumpi\n    /* \"#utility.yul\":281:360   */\n  tag_14\n  tag_15\n  jump\t// in\ntag_14:\n    /* \"#utility.yul\":243:362   */\ntag_13:\n    /* \"#utility.yul\":401:402   */\n  0x00\n    /* \"#utility.yul\":426:490   */\n  tag_16\n    /* \"#utility.yul\":482:489   */\n  dup5\n    /* \"#utility.yul\":473:479   */\n  dup3\n    /* \"#utility.yul\":462:471   */\n  dup6\n    /* \"#utility.yul\":458:480   */\n  add\n    /* \"#utility.yul\":426:490   */\n  tag_8\n  jump\t// in\ntag_16:\n    /* \"#utility.yul\":416:490   */\n  swap2\n  pop\n    /* \"#utility.yul\":372:500   */\n  pop\n    /* \"#utility.yul\":156:507   */\n  swap3\n  swap2\n  pop\n  pop\n  jump\t// out\n    /* \"#utility.yul\":594:690   */\ntag_19:\n    /* \"#utility.yul\":631:638   */\n  0x00\n    /* \"#utility.yul\":660:684   */\n  tag_21\n    /* \"#utility.yul\":678:683   */\n  dup3\n    /* \"#utility.yul\":660:684   */\n  tag_22\n  jump\t// in\ntag_21:\n    /* \"#utility.yul\":649:684   */\n  swap1\n  pop\n    /* \"#utility.yul\":594:690   */\n  swap2\n  swap1\n  pop\n  jump\t// out\n    /* \"#utility.yul\":696:822   */\ntag_22:\n    /* \"#utility.yul\":733:740   */\n  0x00\n    /* \"#utility.yul\":773:815   */\n  0xffffffffffffffffffffffffffffffffffffffff\n    /* \"#utility.yul\":766:771   */\n  dup3\n    /* \"#utility.yul\":762:816   */\n  and\n    /* \"#utility.yul\":751:816   */\n  swap1\n  pop\n    /* \"#utility.yul\":696:822   */\n  swap2\n  swap1\n  pop\n  jump\t// out\n    /* \"#utility.yul\":951:1068   */\ntag_15:\n    /* \"#utility.yul\":1060:1061   */\n  0x00\n    /* \"#utility.yul\":1057:1058   */\n  dup1\n    /* \"#utility.yul\":1050:1062   */\n  revert\n    /* \"#utility.yul\":1074:1196   */\ntag_11:\n    /* \"#utility.yul\":1147:1171   */\n  tag_28\n    /* \"#utility.yul\":1165:1170   */\n  dup2\n    /* \"#utility.yul\":1147:1171   */\n  tag_19\n  jump\t// in\ntag_28:\n    /* \"#utility.yul\":1140:1145   */\n  dup2\n    /* \"#utility.yul\":1137:1172   */\n  eq\n    /* \"#utility.yul\":1127:1190   */\n  tag_29\n  jumpi\n    /* \"#utility.yul\":1186:1187   */\n  0x00\n    /* \"#utility.yul\":1183:1184   */\n  dup1\n    /* \"#utility.yul\":1176:1188   */\n  revert\n    /* \"#utility.yul\":1127:1190   */\ntag_29:\n    /* \"#utility.yul\":1074:1196   */\n  pop\n  jump\t// out\n    /* \"\\xe6\\xb0\\xb4\\xe9\\xbe\\x99\\xe5\\xa4\\xb4/Faucet.sol\":85:400  contract Faucet{\r... */\ntag_6:\n  dataSize(sub_0)\n  dup1\n  dataOffset(sub_0)\n  0x00\n  codecopy\n  0x00\n  return\nstop\n\nsub_0: assembly {\n        /* \"\\xe6\\xb0\\xb4\\xe9\\xbe\\x99\\xe5\\xa4\\xb4/Faucet.sol\":85:400  contract Faucet{\r... */\n      mstore(0x40, 0x80)\n      callvalue\n      dup1\n      iszero\n      tag_1\n      jumpi\n      0x00\n      dup1\n      revert\n    tag_1:\n      pop\n      jumpi(tag_2, lt(calldatasize, 0x04))\n      shr(0xe0, calldataload(0x00))\n      dup1\n      0x54b1f84f\n      eq\n      tag_3\n      jumpi\n      dup1\n      0x55a373d6\n      eq\n      tag_4\n      jumpi\n      dup1\n      0xc44d5ddc\n      eq\n      tag_5\n      jumpi\n    tag_2:\n      0x00\n      dup1\n      revert\n        /* \"\\xe6\\xb0\\xb4\\xe9\\xbe\\x99\\xe5\\xa4\\xb4/Faucet.sol\":107:138  uint256 public allowanceA = 100 */\n    tag_3:\n      tag_6\n      tag_7\n      jump\t// in\n    tag_6:\n      mload(0x40)\n      tag_8\n      swap2\n      swap1\n      tag_9\n      jump\t// in\n    tag_8:\n      mload(0x40)\n      dup1\n      swap2\n      sub\n      swap1\n      return\n        /* \"\\xe6\\xb0\\xb4\\xe9\\xbe\\x99\\xe5\\xa4\\xb4/Faucet.sol\":145:173  address public tokenContract */\n    tag_4:\n      tag_10\n      tag_11\n      jump\t// in\n    tag_10:\n      mload(0x40)\n      tag_12\n      swap2\n      swap1\n      tag_13\n      jump\t// in\n    tag_12:\n      mload(0x40)\n      dup1\n      swap2\n      sub\n      swap1\n      return\n        /* \"\\xe6\\xb0\\xb4\\xe9\\xbe\\x99\\xe5\\xa4\\xb4/Faucet.sol\":180:226  mapping(address => bool) public requestAddress */\n    tag_5:\n      tag_14\n      0x04\n      dup1\n      calldatasize\n      sub\n      dup2\n      add\n      swap1\n      tag_15\n      swap2\n      swap1\n      tag_16\n      jump\t// in\n    tag_15:\n      tag_17\n      jump\t// in\n    tag_14:\n      mload(0x40)\n      tag_18\n      swap2\n      swap1\n      tag_19\n      jump\t// in\n    tag_18:\n      mload(0x40)\n      dup1\n      swap2\n      sub\n      swap1\n      return\n        /* \"\\xe6\\xb0\\xb4\\xe9\\xbe\\x99\\xe5\\xa4\\xb4/Faucet.sol\":107:138  uint256 public allowanceA = 100 */\n    tag_7:\n      sload(0x00)\n      dup2\n      jump\t// out\n        /* \"\\xe6\\xb0\\xb4\\xe9\\xbe\\x99\\xe5\\xa4\\xb4/Faucet.sol\":145:173  address public tokenContract */\n    tag_11:\n      0x01\n      0x00\n      swap1\n      sload\n      swap1\n      0x0100\n      exp\n      swap1\n      div\n      0xffffffffffffffffffffffffffffffffffffffff\n      and\n      dup2\n      jump\t// out\n        /* \"\\xe6\\xb0\\xb4\\xe9\\xbe\\x99\\xe5\\xa4\\xb4/Faucet.sol\":180:226  mapping(address => bool) public requestAddress */\n    tag_17:\n      mstore(0x20, 0x02)\n      dup1\n      0x00\n      mstore\n      keccak256(0x00, 0x40)\n      0x00\n      swap2\n      pop\n      sload\n      swap1\n      0x0100\n      exp\n      swap1\n      div\n      0xff\n      and\n      dup2\n      jump\t// out\n        /* \"#utility.yul\":7:146   */\n    tag_21:\n        /* \"#utility.yul\":53:58   */\n      0x00\n        /* \"#utility.yul\":91:97   */\n      dup2\n        /* \"#utility.yul\":78:98   */\n      calldataload\n        /* \"#utility.yul\":69:98   */\n      swap1\n      pop\n        /* \"#utility.yul\":107:140   */\n      tag_23\n        /* \"#utility.yul\":134:139   */\n      dup2\n        /* \"#utility.yul\":107:140   */\n      tag_24\n      jump\t// in\n    tag_23:\n        /* \"#utility.yul\":7:146   */\n      swap3\n      swap2\n      pop\n      pop\n      jump\t// out\n        /* \"#utility.yul\":152:481   */\n    tag_16:\n        /* \"#utility.yul\":211:217   */\n      0x00\n        /* \"#utility.yul\":260:262   */\n      0x20\n        /* \"#utility.yul\":248:257   */\n      dup3\n        /* \"#utility.yul\":239:246   */\n      dup5\n        /* \"#utility.yul\":235:258   */\n      sub\n        /* \"#utility.yul\":231:263   */\n      slt\n        /* \"#utility.yul\":228:347   */\n      iszero\n      tag_26\n      jumpi\n        /* \"#utility.yul\":266:345   */\n      tag_27\n      tag_28\n      jump\t// in\n    tag_27:\n        /* \"#utility.yul\":228:347   */\n    tag_26:\n        /* \"#utility.yul\":386:387   */\n      0x00\n        /* \"#utility.yul\":411:464   */\n      tag_29\n        /* \"#utility.yul\":456:463   */\n      dup5\n        /* \"#utility.yul\":447:453   */\n      dup3\n        /* \"#utility.yul\":436:445   */\n      dup6\n        /* \"#utility.yul\":432:454   */\n      add\n        /* \"#utility.yul\":411:464   */\n      tag_21\n      jump\t// in\n    tag_29:\n        /* \"#utility.yul\":401:464   */\n      swap2\n      pop\n        /* \"#utility.yul\":357:474   */\n      pop\n        /* \"#utility.yul\":152:481   */\n      swap3\n      swap2\n      pop\n      pop\n      jump\t// out\n        /* \"#utility.yul\":487:605   */\n    tag_30:\n        /* \"#utility.yul\":574:598   */\n      tag_32\n        /* \"#utility.yul\":592:597   */\n      dup2\n        /* \"#utility.yul\":574:598   */\n      tag_33\n      jump\t// in\n    tag_32:\n        /* \"#utility.yul\":569:572   */\n      dup3\n        /* \"#utility.yul\":562:599   */\n      mstore\n        /* \"#utility.yul\":487:605   */\n      pop\n      pop\n      jump\t// out\n        /* \"#utility.yul\":611:720   */\n    tag_34:\n        /* \"#utility.yul\":692:713   */\n      tag_36\n        /* \"#utility.yul\":707:712   */\n      dup2\n        /* \"#utility.yul\":692:713   */\n      tag_37\n      jump\t// in\n    tag_36:\n        /* \"#utility.yul\":687:690   */\n      dup3\n        /* \"#utility.yul\":680:714   */\n      mstore\n        /* \"#utility.yul\":611:720   */\n      pop\n      pop\n      jump\t// out\n        /* \"#utility.yul\":726:844   */\n    tag_38:\n        /* \"#utility.yul\":813:837   */\n      tag_40\n        /* \"#utility.yul\":831:836   */\n      dup2\n        /* \"#utility.yul\":813:837   */\n      tag_41\n      jump\t// in\n    tag_40:\n        /* \"#utility.yul\":808:811   */\n      dup3\n        /* \"#utility.yul\":801:838   */\n      mstore\n        /* \"#utility.yul\":726:844   */\n      pop\n      pop\n      jump\t// out\n        /* \"#utility.yul\":850:1072   */\n    tag_13:\n        /* \"#utility.yul\":943:947   */\n      0x00\n        /* \"#utility.yul\":981:983   */\n      0x20\n        /* \"#utility.yul\":970:979   */\n      dup3\n        /* \"#utility.yul\":966:984   */\n      add\n        /* \"#utility.yul\":958:984   */\n      swap1\n      pop\n        /* \"#utility.yul\":994:1065   */\n      tag_43\n        /* \"#utility.yul\":1062:1063   */\n      0x00\n        /* \"#utility.yul\":1051:1060   */\n      dup4\n        /* \"#utility.yul\":1047:1064   */\n      add\n        /* \"#utility.yul\":1038:1044   */\n      dup5\n        /* \"#utility.yul\":994:1065   */\n      tag_30\n      jump\t// in\n    tag_43:\n        /* \"#utility.yul\":850:1072   */\n      swap3\n      swap2\n      pop\n      pop\n      jump\t// out\n        /* \"#utility.yul\":1078:1288   */\n    tag_19:\n        /* \"#utility.yul\":1165:1169   */\n      0x00\n        /* \"#utility.yul\":1203:1205   */\n      0x20\n        /* \"#utility.yul\":1192:1201   */\n      dup3\n        /* \"#utility.yul\":1188:1206   */\n      add\n        /* \"#utility.yul\":1180:1206   */\n      swap1\n      pop\n        /* \"#utility.yul\":1216:1281   */\n      tag_45\n        /* \"#utility.yul\":1278:1279   */\n      0x00\n        /* \"#utility.yul\":1267:1276   */\n      dup4\n        /* \"#utility.yul\":1263:1280   */\n      add\n        /* \"#utility.yul\":1254:1260   */\n      dup5\n        /* \"#utility.yul\":1216:1281   */\n      tag_34\n      jump\t// in\n    tag_45:\n        /* \"#utility.yul\":1078:1288   */\n      swap3\n      swap2\n      pop\n      pop\n      jump\t// out\n        /* \"#utility.yul\":1294:1516   */\n    tag_9:\n        /* \"#utility.yul\":1387:1391   */\n      0x00\n        /* \"#utility.yul\":1425:1427   */\n      0x20\n        /* \"#utility.yul\":1414:1423   */\n      dup3\n        /* \"#utility.yul\":1410:1428   */\n      add\n        /* \"#utility.yul\":1402:1428   */\n      swap1\n      pop\n        /* \"#utility.yul\":1438:1509   */\n      tag_47\n        /* \"#utility.yul\":1506:1507   */\n      0x00\n        /* \"#utility.yul\":1495:1504   */\n      dup4\n        /* \"#utility.yul\":1491:1508   */\n      add\n        /* \"#utility.yul\":1482:1488   */\n      dup5\n        /* \"#utility.yul\":1438:1509   */\n      tag_38\n      jump\t// in\n    tag_47:\n        /* \"#utility.yul\":1294:1516   */\n      swap3\n      swap2\n      pop\n      pop\n      jump\t// out\n        /* \"#utility.yul\":1603:1699   */\n    tag_33:\n        /* \"#utility.yul\":1640:1647   */\n      0x00\n        /* \"#utility.yul\":1669:1693   */\n      tag_51\n        /* \"#utility.yul\":1687:1692   */\n      dup3\n        /* \"#utility.yul\":1669:1693   */\n      tag_52\n      jump\t// in\n    tag_51:\n        /* \"#utility.yul\":1658:1693   */\n      swap1\n      pop\n        /* \"#utility.yul\":1603:1699   */\n      swap2\n      swap1\n      pop\n      jump\t// out\n        /* \"#utility.yul\":1705:1795   */\n    tag_37:\n        /* \"#utility.yul\":1739:1746   */\n      0x00\n        /* \"#utility.yul\":1782:1787   */\n      dup2\n        /* \"#utility.yul\":1775:1788   */\n      iszero\n        /* \"#utility.yul\":1768:1789   */\n      iszero\n        /* \"#utility.yul\":1757:1789   */\n      swap1\n      pop\n        /* \"#utility.yul\":1705:1795   */\n      swap2\n      swap1\n      pop\n      jump\t// out\n        /* \"#utility.yul\":1801:1927   */\n    tag_52:\n        /* \"#utility.yul\":1838:1845   */\n      0x00\n        /* \"#utility.yul\":1878:1920   */\n      0xffffffffffffffffffffffffffffffffffffffff\n        /* \"#utility.yul\":1871:1876   */\n      dup3\n        /* \"#utility.yul\":1867:1921   */\n      and\n        /* \"#utility.yul\":1856:1921   */\n      swap1\n      pop\n        /* \"#utility.yul\":1801:1927   */\n      swap2\n      swap1\n      pop\n      jump\t// out\n        /* \"#utility.yul\":1933:2010   */\n    tag_41:\n        /* \"#utility.yul\":1970:1977   */\n      0x00\n        /* \"#utility.yul\":1999:2004   */\n      dup2\n        /* \"#utility.yul\":1988:2004   */\n      swap1\n      pop\n        /* \"#utility.yul\":1933:2010   */\n      swap2\n      swap1\n      pop\n      jump\t// out\n        /* \"#utility.yul\":2139:2256   */\n    tag_28:\n        /* \"#utility.yul\":2248:2249   */\n      0x00\n        /* \"#utility.yul\":2245:2246   */\n      dup1\n        /* \"#utility.yul\":2238:2250   */\n      revert\n        /* \"#utility.yul\":2262:2384   */\n    tag_24:\n        /* \"#utility.yul\":2335:2359   */\n      tag_60\n        /* \"#utility.yul\":2353:2358   */\n      dup2\n        /* \"#utility.yul\":2335:2359   */\n      tag_33\n      jump\t// in\n    tag_60:\n        /* \"#utility.yul\":2328:2333   */\n      dup2\n        /* \"#utility.yul\":2325:2360   */\n      eq\n        /* \"#utility.yul\":2315:2378   */\n      tag_61\n      jumpi\n        /* \"#utility.yul\":2374:2375   */\n      0x00\n        /* \"#utility.yul\":2371:2372   */\n      dup1\n        /* \"#utility.yul\":2364:2376   */\n      revert\n        /* \"#utility.yul\":2315:2378   */\n    tag_61:\n        /* \"#utility.yul\":2262:2384   */\n      pop\n      jump\t// out\n\n    auxdata: 0xa2646970667358221220478bf95336cbf9d771676ec7e80aabe5a929e8f3cd37258ce294f6731c78f1d164736f6c63430008070033\n}\n",
				"bytecode": {
					"linkReferences": {},
					"object": "6080604052606460005534801561001557600080fd5b5060405161037538038061037583398181016040528101906100379190610093565b80600160006101000a81548173ffffffffffffffffffffffffffffffffffffffff021916908373ffffffffffffffffffffffffffffffffffffffff1602179055505061010e565b60008151905061008d816100f7565b92915050565b6000602082840312156100a9576100a86100f2565b5b60006100b78482850161007e565b91505092915050565b60006100cb826100d2565b9050919050565b600073ffffffffffffffffffffffffffffffffffffffff82169050919050565b600080fd5b610100816100c0565b811461010b57600080fd5b50565b6102588061011d6000396000f3fe608060405234801561001057600080fd5b50600436106100415760003560e01c806354b1f84f1461004657806355a373d614610064578063c44d5ddc14610082575b600080fd5b61004e6100b2565b60405161005b91906101a3565b60405180910390f35b61006c6100b8565b604051610079919061016d565b60405180910390f35b61009c60048036038101906100979190610113565b6100de565b6040516100a99190610188565b60405180910390f35b60005481565b600160009054906101000a900473ffffffffffffffffffffffffffffffffffffffff1681565b60026020528060005260406000206000915054906101000a900460ff1681565b60008135905061010d8161020b565b92915050565b60006020828403121561012957610128610206565b5b6000610137848285016100fe565b91505092915050565b610149816101be565b82525050565b610158816101d0565b82525050565b610167816101fc565b82525050565b60006020820190506101826000830184610140565b92915050565b600060208201905061019d600083018461014f565b92915050565b60006020820190506101b8600083018461015e565b92915050565b60006101c9826101dc565b9050919050565b60008115159050919050565b600073ffffffffffffffffffffffffffffffffffffffff82169050919050565b6000819050919050565b600080fd5b610214816101be565b811461021f57600080fd5b5056fea2646970667358221220478bf95336cbf9d771676ec7e80aabe5a929e8f3cd37258ce294f6731c78f1d164736f6c63430008070033",
					"opcodes": "PUSH1 0x80 PUSH1 0x40 MSTORE PUSH1 0x64 PUSH1 0x0 SSTORE CALLVALUE DUP1 ISZERO PUSH2 0x15 JUMPI PUSH1 0x0 DUP1 REVERT JUMPDEST POP PUSH1 0x40 MLOAD PUSH2 0x375 CODESIZE SUB DUP1 PUSH2 0x375 DUP4 CODECOPY DUP2 DUP2 ADD PUSH1 0x40 MSTORE DUP2 ADD SWAP1 PUSH2 0x37 SWAP2 SWAP1 PUSH2 0x93 JUMP JUMPDEST DUP1 PUSH1 0x1 PUSH1 0x0 PUSH2 0x100 EXP DUP2 SLOAD DUP2 PUSH20 0xFFFFFFFFFFFFFFFFFFFFFFFFFFFFFFFFFFFFFFFF MUL NOT AND SWAP1 DUP4 PUSH20 0xFFFFFFFFFFFFFFFFFFFFFFFFFFFFFFFFFFFFFFFF AND MUL OR SWAP1 SSTORE POP POP PUSH2 0x10E JUMP JUMPDEST PUSH1 0x0 DUP2 MLOAD SWAP1 POP PUSH2 0x8D DUP2 PUSH2 0xF7 JUMP JUMPDEST SWAP3 SWAP2 POP POP JUMP JUMPDEST PUSH1 0x0 PUSH1 0x20 DUP3 DUP5 SUB SLT ISZERO PUSH2 0xA9 JUMPI PUSH2 0xA8 PUSH2 0xF2 JUMP JUMPDEST JUMPDEST PUSH1 0x0 PUSH2 0xB7 DUP5 DUP3 DUP6 ADD PUSH2 0x7E JUMP JUMPDEST SWAP2 POP POP SWAP3 SWAP2 POP POP JUMP JUMPDEST PUSH1 0x0 PUSH2 0xCB DUP3 PUSH2 0xD2 JUMP JUMPDEST SWAP1 POP SWAP2 SWAP1 POP JUMP JUMPDEST PUSH1 0x0 PUSH20 0xFFFFFFFFFFFFFFFFFFFFFFFFFFFFFFFFFFFFFFFF DUP3 AND SWAP1 POP SWAP2 SWAP1 POP JUMP JUMPDEST PUSH1 0x0 DUP1 REVERT JUMPDEST PUSH2 0x100 DUP2 PUSH2 0xC0 JUMP JUMPDEST DUP2 EQ PUSH2 0x10B JUMPI PUSH1 0x0 DUP1 REVERT JUMPDEST POP JUMP JUMPDEST PUSH2 0x258 DUP1 PUSH2 0x11D PUSH1 0x0 CODECOPY PUSH1 0x0 RETURN INVALID PUSH1 0x80 PUSH1 0x40 MSTORE CALLVALUE DUP1 ISZERO PUSH2 0x10 JUMPI PUSH1 0x0 DUP1 REVERT JUMPDEST POP PUSH1 0x4 CALLDATASIZE LT PUSH2 0x41 JUMPI PUSH1 0x0 CALLDATALOAD PUSH1 0xE0 SHR DUP1 PUSH4 0x54B1F84F EQ PUSH2 0x46 JUMPI DUP1 PUSH4 0x55A373D6 EQ PUSH2 0x64 JUMPI DUP1 PUSH4 0xC44D5DDC EQ PUSH2 0x82 JUMPI JUMPDEST PUSH1 0x0 DUP1 REVERT JUMPDEST PUSH2 0x4E PUSH2 0xB2 JUMP JUMPDEST PUSH1 0x40 MLOAD PUSH2 0x5B SWAP2 SWAP1 PUSH2 0x1A3 JUMP JUMPDEST PUSH1 0x40 MLOAD DUP1 SWAP2 SUB SWAP1 RETURN JUMPDEST PUSH2 0x6C PUSH2 0xB8 JUMP JUMPDEST PUSH1 0x40 MLOAD PUSH2 0x79 SWAP2 SWAP1 PUSH2 0x16D JUMP JUMPDEST PUSH1 0x40 MLOAD DUP1 SWAP2 SUB SWAP1 RETURN JUMPDEST PUSH2 0x9C PUSH1 0x4 DUP1 CALLDATASIZE SUB DUP2 ADD SWAP1 PUSH2 0x97 SWAP2 SWAP1 PUSH2 0x113 JUMP JUMPDEST PUSH2 0xDE JUMP JUMPDEST PUSH1 0x40 MLOAD PUSH2 0xA9 SWAP2 SWAP1 PUSH2 0x188 JUMP JUMPDEST PUSH1 0x40 MLOAD DUP1 SWAP2 SUB SWAP1 RETURN JUMPDEST PUSH1 0x0 SLOAD DUP2 JUMP JUMPDEST PUSH1 0x1 PUSH1 0x0 SWAP1 SLOAD SWAP1 PUSH2 0x100 EXP SWAP1 DIV PUSH20 0xFFFFFFFFFFFFFFFFFFFFFFFFFFFFFFFFFFFFFFFF AND DUP2 JUMP JUMPDEST PUSH1 0x2 PUSH1 0x20 MSTORE DUP1 PUSH1 0x0 MSTORE PUSH1 0x40 PUSH1 0x0 KECCAK256 PUSH1 0x0 SWAP2 POP SLOAD SWAP1 PUSH2 0x100 EXP SWAP1 DIV PUSH1 0xFF AND DUP2 JUMP JUMPDEST PUSH1 0x0 DUP2 CALLDATALOAD SWAP1 POP PUSH2 0x10D DUP2 PUSH2 0x20B JUMP JUMPDEST SWAP3 SWAP2 POP POP JUMP JUMPDEST PUSH1 0x0 PUSH1 0x20 DUP3 DUP5 SUB SLT ISZERO PUSH2 0x129 JUMPI PUSH2 0x128 PUSH2 0x206 JUMP JUMPDEST JUMPDEST PUSH1 0x0 PUSH2 0x137 DUP5 DUP3 DUP6 ADD PUSH2 0xFE JUMP JUMPDEST SWAP2 POP POP SWAP3 SWAP2 POP POP JUMP JUMPDEST PUSH2 0x149 DUP2 PUSH2 0x1BE JUMP JUMPDEST DUP3 MSTORE POP POP JUMP JUMPDEST PUSH2 0x158 DUP2 PUSH2 0x1D0 JUMP JUMPDEST DUP3 MSTORE POP POP JUMP JUMPDEST PUSH2 0x167 DUP2 PUSH2 0x1FC JUMP JUMPDEST DUP3 MSTORE POP POP JUMP JUMPDEST PUSH1 0x0 PUSH1 0x20 DUP3 ADD SWAP1 POP PUSH2 0x182 PUSH1 0x0 DUP4 ADD DUP5 PUSH2 0x140 JUMP JUMPDEST SWAP3 SWAP2 POP POP JUMP JUMPDEST PUSH1 0x0 PUSH1 0x20 DUP3 ADD SWAP1 POP PUSH2 0x19D PUSH1 0x0 DUP4 ADD DUP5 PUSH2 0x14F JUMP JUMPDEST SWAP3 SWAP2 POP POP JUMP JUMPDEST PUSH1 0x0 PUSH1 0x20 DUP3 ADD SWAP1 POP PUSH2 0x1B8 PUSH1 0x0 DUP4 ADD DUP5 PUSH2 0x15E JUMP JUMPDEST SWAP3 SWAP2 POP POP JUMP JUMPDEST PUSH1 0x0 PUSH2 0x1C9 DUP3 PUSH2 0x1DC JUMP JUMPDEST SWAP1 POP SWAP2 SWAP1 POP JUMP JUMPDEST PUSH1 0x0 DUP2 ISZERO ISZERO SWAP1 POP SWAP2 SWAP1 POP JUMP JUMPDEST PUSH1 0x0 PUSH20 0xFFFFFFFFFFFFFFFFFFFFFFFFFFFFFFFFFFFFFFFF DUP3 AND SWAP1 POP SWAP2 SWAP1 POP JUMP JUMPDEST PUSH1 0x0 DUP2 SWAP1 POP SWAP2 SWAP1 POP JUMP JUMPDEST PUSH1 0x0 DUP1 REVERT JUMPDEST PUSH2 0x214 DUP2 PUSH2 0x1BE JUMP JUMPDEST DUP2 EQ PUSH2 0x21F JUMPI PUSH1 0x0 DUP1 REVERT JUMPDEST POP JUMP INVALID LOG2 PUSH5 0x6970667358 0x22 SLT KECCAK256 SELFBALANCE DUP12 0xF9 MSTORE8 CALLDATASIZE 0xCB 0xF9 0xD7 PUSH18 0x676EC7E80AABE5A929E8F3CD37258CE294F6 PUSH20 0x1C78F1D164736F6C634300080700330000000000 "
				},
				"gasEstimates": {
					"creation": {
						"codeDepositCost": "120000",
						"executionCost": "infinite",
						"totalCost": "infinite"
					},
					"external": {
						"allowanceA()": "2407",
						"requestAddress(address)": "2867",
						"tokenContract()": "2514"
					}
				},
				"methodIdentifiers": {
					"allowanceA()": "54b1f84f",
					"requestAddress(address)": "c44d5ddc",
					"tokenContract()": "55a373d6"
				}
			},
			"storageLayout": {
				"storage": [
					{
						"astId": 4,
						"contract": "水龙头/Faucet.sol:Faucet",
						"label": "allowanceA",
						"offset": 0,
						"slot": "0",
						"type": "t_uint256"
					},
					{
						"astId": 6,
						"contract": "水龙头/Faucet.sol:Faucet",
						"label": "tokenContract",
						"offset": 0,
						"slot": "1",
						"type": "t_address"
					},
					{
						"astId": 10,
						"contract": "水龙头/Faucet.sol:Faucet",
						"label": "requestAddress",
						"offset": 0,
						"slot": "2",
						"type": "t_mapping(t_address,t_bool)"
					}
				],
				"types": {
					"t_address": {
						"encoding": "inplace",
						"label": "address",
						"numberOfBytes": "20"
					},
					"t_bool": {
						"encoding": "inplace",
						"label": "bool",
						"numberOfBytes": "1"
					},
					"t_mapping(t_address,t_bool)": {
						"encoding": "mapping",
						"key": "t_address",
						"label": "mapping(address => bool)",
						"numberOfBytes": "32",
						"value": "t_bool"
					},
					"t_uint256": {
						"encoding": "inplace",
						"label": "uint256",
						"numberOfBytes": "32"
					}
				}
			},
			"userdoc": {
				"kind": "user",
				"methods": {},
				"version": 1
			}
		}
	}
}