{
	"delegatecall/B.sol": {
		"B": {
			"abi": [
				{
					"inputs": [
						{
							"internalType": "address",
							"name": "_addr",
							"type": "address"
						},
						{
							"internalType": "uint256",
							"name": "_num",
							"type": "uint256"
						}
					],
					"name": "callSetVars",
					"outputs": [],
					"stateMutability": "payable",
					"type": "function"
				},
				{
					"inputs": [],
					"name": "num",
					"outputs": [
						{
							"internalType": "uint256",
							"name": "",
							"type": "uint256"
						}
					],
					"stateMutability": "view",
					"type": "function"
				},
				{
					"inputs": [],
					"name": "sender",
					"outputs": [
						{
							"internalType": "address",
							"name": "",
							"type": "address"
						}
					],
					"stateMutability": "view",
					"type": "function"
				}
			],
			"devdoc": {
				"kind": "dev",
				"methods": {},
				"version": 1
			},
			"evm": {
				"assembly": "    /* \"delegatecall/B.sol\":58:204  contract B{\r... */\n  mstore(0x40, 0x80)\n  callvalue\n  dup1\n  iszero\n  tag_1\n  jumpi\n  0x00\n  dup1\n  revert\ntag_1:\n  pop\n  dataSize(sub_0)\n  dup1\n  dataOffset(sub_0)\n  0x00\n  codecopy\n  0x00\n  return\nstop\n\nsub_0: assembly {\n        /* \"delegatecall/B.sol\":58:204  contract B{\r... */\n      mstore(0x40, 0x80)\n      jumpi(tag_1, lt(calldatasize, 0x04))\n      shr(0xe0, calldataload(0x00))\n      dup1\n      0x4e70b1dc\n      eq\n      tag_2\n      jumpi\n      dup1\n      0x67e404ce\n      eq\n      tag_3\n      jumpi\n      dup1\n      0xb39a9641\n      eq\n      tag_4\n      jumpi\n    tag_1:\n      0x00\n      dup1\n      revert\n        /* \"delegatecall/B.sol\":75:90  uint public num */\n    tag_2:\n      callvalue\n      dup1\n      iszero\n      tag_5\n      jumpi\n      0x00\n      dup1\n      revert\n    tag_5:\n      pop\n      tag_6\n      tag_7\n      jump\t// in\n    tag_6:\n      mload(0x40)\n      tag_8\n      swap2\n      swap1\n      tag_9\n      jump\t// in\n    tag_8:\n      mload(0x40)\n      dup1\n      swap2\n      sub\n      swap1\n      return\n        /* \"delegatecall/B.sol\":97:118  address public sender */\n    tag_3:\n      callvalue\n      dup1\n      iszero\n      tag_10\n      jumpi\n      0x00\n      dup1\n      revert\n    tag_10:\n      pop\n      tag_11\n      tag_12\n      jump\t// in\n    tag_11:\n      mload(0x40)\n      tag_13\n      swap2\n      swap1\n      tag_14\n      jump\t// in\n    tag_13:\n      mload(0x40)\n      dup1\n      swap2\n      sub\n      swap1\n      return\n        /* \"delegatecall/B.sol\":127:199  function callSetVars(address _addr,uint _num) external payable{\r... */\n    tag_4:\n      tag_15\n      0x04\n      dup1\n      calldatasize\n      sub\n      dup2\n      add\n      swap1\n      tag_16\n      swap2\n      swap1\n      tag_17\n      jump\t// in\n    tag_16:\n      tag_18\n      jump\t// in\n    tag_15:\n      stop\n        /* \"delegatecall/B.sol\":75:90  uint public num */\n    tag_7:\n      sload(0x00)\n      dup2\n      jump\t// out\n        /* \"delegatecall/B.sol\":97:118  address public sender */\n    tag_12:\n      0x01\n      0x00\n      swap1\n      sload\n      swap1\n      0x0100\n      exp\n      swap1\n      div\n      0xffffffffffffffffffffffffffffffffffffffff\n      and\n      dup2\n      jump\t// out\n        /* \"delegatecall/B.sol\":127:199  function callSetVars(address _addr,uint _num) external payable{\r... */\n    tag_18:\n      pop\n      pop\n      jump\t// out\n        /* \"#utility.yul\":7:146   */\n    tag_21:\n        /* \"#utility.yul\":53:58   */\n      0x00\n        /* \"#utility.yul\":91:97   */\n      dup2\n        /* \"#utility.yul\":78:98   */\n      calldataload\n        /* \"#utility.yul\":69:98   */\n      swap1\n      pop\n        /* \"#utility.yul\":107:140   */\n      tag_23\n        /* \"#utility.yul\":134:139   */\n      dup2\n        /* \"#utility.yul\":107:140   */\n      tag_24\n      jump\t// in\n    tag_23:\n        /* \"#utility.yul\":7:146   */\n      swap3\n      swap2\n      pop\n      pop\n      jump\t// out\n        /* \"#utility.yul\":152:291   */\n    tag_25:\n        /* \"#utility.yul\":198:203   */\n      0x00\n        /* \"#utility.yul\":236:242   */\n      dup2\n        /* \"#utility.yul\":223:243   */\n      calldataload\n        /* \"#utility.yul\":214:243   */\n      swap1\n      pop\n        /* \"#utility.yul\":252:285   */\n      tag_27\n        /* \"#utility.yul\":279:284   */\n      dup2\n        /* \"#utility.yul\":252:285   */\n      tag_28\n      jump\t// in\n    tag_27:\n        /* \"#utility.yul\":152:291   */\n      swap3\n      swap2\n      pop\n      pop\n      jump\t// out\n        /* \"#utility.yul\":297:771   */\n    tag_17:\n        /* \"#utility.yul\":365:371   */\n      0x00\n        /* \"#utility.yul\":373:379   */\n      dup1\n        /* \"#utility.yul\":422:424   */\n      0x40\n        /* \"#utility.yul\":410:419   */\n      dup4\n        /* \"#utility.yul\":401:408   */\n      dup6\n        /* \"#utility.yul\":397:420   */\n      sub\n        /* \"#utility.yul\":393:425   */\n      slt\n        /* \"#utility.yul\":390:509   */\n      iszero\n      tag_30\n      jumpi\n        /* \"#utility.yul\":428:507   */\n      tag_31\n      tag_32\n      jump\t// in\n    tag_31:\n        /* \"#utility.yul\":390:509   */\n    tag_30:\n        /* \"#utility.yul\":548:549   */\n      0x00\n        /* \"#utility.yul\":573:626   */\n      tag_33\n        /* \"#utility.yul\":618:625   */\n      dup6\n        /* \"#utility.yul\":609:615   */\n      dup3\n        /* \"#utility.yul\":598:607   */\n      dup7\n        /* \"#utility.yul\":594:616   */\n      add\n        /* \"#utility.yul\":573:626   */\n      tag_21\n      jump\t// in\n    tag_33:\n        /* \"#utility.yul\":563:626   */\n      swap3\n      pop\n        /* \"#utility.yul\":519:636   */\n      pop\n        /* \"#utility.yul\":675:677   */\n      0x20\n        /* \"#utility.yul\":701:754   */\n      tag_34\n        /* \"#utility.yul\":746:753   */\n      dup6\n        /* \"#utility.yul\":737:743   */\n      dup3\n        /* \"#utility.yul\":726:735   */\n      dup7\n        /* \"#utility.yul\":722:744   */\n      add\n        /* \"#utility.yul\":701:754   */\n      tag_25\n      jump\t// in\n    tag_34:\n        /* \"#utility.yul\":691:754   */\n      swap2\n      pop\n        /* \"#utility.yul\":646:764   */\n      pop\n        /* \"#utility.yul\":297:771   */\n      swap3\n      pop\n      swap3\n      swap1\n      pop\n      jump\t// out\n        /* \"#utility.yul\":777:895   */\n    tag_35:\n        /* \"#utility.yul\":864:888   */\n      tag_37\n        /* \"#utility.yul\":882:887   */\n      dup2\n        /* \"#utility.yul\":864:888   */\n      tag_38\n      jump\t// in\n    tag_37:\n        /* \"#utility.yul\":859:862   */\n      dup3\n        /* \"#utility.yul\":852:889   */\n      mstore\n        /* \"#utility.yul\":777:895   */\n      pop\n      pop\n      jump\t// out\n        /* \"#utility.yul\":901:1019   */\n    tag_39:\n        /* \"#utility.yul\":988:1012   */\n      tag_41\n        /* \"#utility.yul\":1006:1011   */\n      dup2\n        /* \"#utility.yul\":988:1012   */\n      tag_42\n      jump\t// in\n    tag_41:\n        /* \"#utility.yul\":983:986   */\n      dup3\n        /* \"#utility.yul\":976:1013   */\n      mstore\n        /* \"#utility.yul\":901:1019   */\n      pop\n      pop\n      jump\t// out\n        /* \"#utility.yul\":1025:1247   */\n    tag_14:\n        /* \"#utility.yul\":1118:1122   */\n      0x00\n        /* \"#utility.yul\":1156:1158   */\n      0x20\n        /* \"#utility.yul\":1145:1154   */\n      dup3\n        /* \"#utility.yul\":1141:1159   */\n      add\n        /* \"#utility.yul\":1133:1159   */\n      swap1\n      pop\n        /* \"#utility.yul\":1169:1240   */\n      tag_44\n        /* \"#utility.yul\":1237:1238   */\n      0x00\n        /* \"#utility.yul\":1226:1235   */\n      dup4\n        /* \"#utility.yul\":1222:1239   */\n      add\n        /* \"#utility.yul\":1213:1219   */\n      dup5\n        /* \"#utility.yul\":1169:1240   */\n      tag_35\n      jump\t// in\n    tag_44:\n        /* \"#utility.yul\":1025:1247   */\n      swap3\n      swap2\n      pop\n      pop\n      jump\t// out\n        /* \"#utility.yul\":1253:1475   */\n    tag_9:\n        /* \"#utility.yul\":1346:1350   */\n      0x00\n        /* \"#utility.yul\":1384:1386   */\n      0x20\n        /* \"#utility.yul\":1373:1382   */\n      dup3\n        /* \"#utility.yul\":1369:1387   */\n      add\n        /* \"#utility.yul\":1361:1387   */\n      swap1\n      pop\n        /* \"#utility.yul\":1397:1468   */\n      tag_46\n        /* \"#utility.yul\":1465:1466   */\n      0x00\n        /* \"#utility.yul\":1454:1463   */\n      dup4\n        /* \"#utility.yul\":1450:1467   */\n      add\n        /* \"#utility.yul\":1441:1447   */\n      dup5\n        /* \"#utility.yul\":1397:1468   */\n      tag_39\n      jump\t// in\n    tag_46:\n        /* \"#utility.yul\":1253:1475   */\n      swap3\n      swap2\n      pop\n      pop\n      jump\t// out\n        /* \"#utility.yul\":1562:1658   */\n    tag_38:\n        /* \"#utility.yul\":1599:1606   */\n      0x00\n        /* \"#utility.yul\":1628:1652   */\n      tag_50\n        /* \"#utility.yul\":1646:1651   */\n      dup3\n        /* \"#utility.yul\":1628:1652   */\n      tag_51\n      jump\t// in\n    tag_50:\n        /* \"#utility.yul\":1617:1652   */\n      swap1\n      pop\n        /* \"#utility.yul\":1562:1658   */\n      swap2\n      swap1\n      pop\n      jump\t// out\n        /* \"#utility.yul\":1664:1790   */\n    tag_51:\n        /* \"#utility.yul\":1701:1708   */\n      0x00\n        /* \"#utility.yul\":1741:1783   */\n      0xffffffffffffffffffffffffffffffffffffffff\n        /* \"#utility.yul\":1734:1739   */\n      dup3\n        /* \"#utility.yul\":1730:1784   */\n      and\n        /* \"#utility.yul\":1719:1784   */\n      swap1\n      pop\n        /* \"#utility.yul\":1664:1790   */\n      swap2\n      swap1\n      pop\n      jump\t// out\n        /* \"#utility.yul\":1796:1873   */\n    tag_42:\n        /* \"#utility.yul\":1833:1840   */\n      0x00\n        /* \"#utility.yul\":1862:1867   */\n      dup2\n        /* \"#utility.yul\":1851:1867   */\n      swap1\n      pop\n        /* \"#utility.yul\":1796:1873   */\n      swap2\n      swap1\n      pop\n      jump\t// out\n        /* \"#utility.yul\":2002:2119   */\n    tag_32:\n        /* \"#utility.yul\":2111:2112   */\n      0x00\n        /* \"#utility.yul\":2108:2109   */\n      dup1\n        /* \"#utility.yul\":2101:2113   */\n      revert\n        /* \"#utility.yul\":2125:2247   */\n    tag_24:\n        /* \"#utility.yul\":2198:2222   */\n      tag_58\n        /* \"#utility.yul\":2216:2221   */\n      dup2\n        /* \"#utility.yul\":2198:2222   */\n      tag_38\n      jump\t// in\n    tag_58:\n        /* \"#utility.yul\":2191:2196   */\n      dup2\n        /* \"#utility.yul\":2188:2223   */\n      eq\n        /* \"#utility.yul\":2178:2241   */\n      tag_59\n      jumpi\n        /* \"#utility.yul\":2237:2238   */\n      0x00\n        /* \"#utility.yul\":2234:2235   */\n      dup1\n        /* \"#utility.yul\":2227:2239   */\n      revert\n        /* \"#utility.yul\":2178:2241   */\n    tag_59:\n        /* \"#utility.yul\":2125:2247   */\n      pop\n      jump\t// out\n        /* \"#utility.yul\":2253:2375   */\n    tag_28:\n        /* \"#utility.yul\":2326:2350   */\n      tag_61\n        /* \"#utility.yul\":2344:2349   */\n      dup2\n        /* \"#utility.yul\":2326:2350   */\n      tag_42\n      jump\t// in\n    tag_61:\n        /* \"#utility.yul\":2319:2324   */\n      dup2\n        /* \"#utility.yul\":2316:2351   */\n      eq\n        /* \"#utility.yul\":2306:2369   */\n      tag_62\n      jumpi\n        /* \"#utility.yul\":2365:2366   */\n      0x00\n        /* \"#utility.yul\":2362:2363   */\n      dup1\n        /* \"#utility.yul\":2355:2367   */\n      revert\n        /* \"#utility.yul\":2306:2369   */\n    tag_62:\n        /* \"#utility.yul\":2253:2375   */\n      pop\n      jump\t// out\n\n    auxdata: 0xa26469706673582212208011a653be690006e7ab6af6c312434ca921647aa9a3751f6c2280e33531f8ed64736f6c63430008070033\n}\n",
				"bytecode": {
					"linkReferences": {},
					"object": "608060405234801561001057600080fd5b5061023e806100206000396000f3fe6080604052600436106100345760003560e01c80634e70b1dc1461003957806367e404ce14610064578063b39a96411461008f575b600080fd5b34801561004557600080fd5b5061004e6100ab565b60405161005b919061017e565b60405180910390f35b34801561007057600080fd5b506100796100b1565b6040516100869190610163565b60405180910390f35b6100a960048036038101906100a49190610105565b6100d7565b005b60005481565b600160009054906101000a900473ffffffffffffffffffffffffffffffffffffffff1681565b5050565b6000813590506100ea816101da565b92915050565b6000813590506100ff816101f1565b92915050565b6000806040838503121561011c5761011b6101d5565b5b600061012a858286016100db565b925050602061013b858286016100f0565b9150509250929050565b61014e81610199565b82525050565b61015d816101cb565b82525050565b60006020820190506101786000830184610145565b92915050565b60006020820190506101936000830184610154565b92915050565b60006101a4826101ab565b9050919050565b600073ffffffffffffffffffffffffffffffffffffffff82169050919050565b6000819050919050565b600080fd5b6101e381610199565b81146101ee57600080fd5b50565b6101fa816101cb565b811461020557600080fd5b5056fea26469706673582212208011a653be690006e7ab6af6c312434ca921647aa9a3751f6c2280e33531f8ed64736f6c63430008070033",
					"opcodes": "PUSH1 0x80 PUSH1 0x40 MSTORE CALLVALUE DUP1 ISZERO PUSH2 0x10 JUMPI PUSH1 0x0 DUP1 REVERT JUMPDEST POP PUSH2 0x23E DUP1 PUSH2 0x20 PUSH1 0x0 CODECOPY PUSH1 0x0 RETURN INVALID PUSH1 0x80 PUSH1 0x40 MSTORE PUSH1 0x4 CALLDATASIZE LT PUSH2 0x34 JUMPI PUSH1 0x0 CALLDATALOAD PUSH1 0xE0 SHR DUP1 PUSH4 0x4E70B1DC EQ PUSH2 0x39 JUMPI DUP1 PUSH4 0x67E404CE EQ PUSH2 0x64 JUMPI DUP1 PUSH4 0xB39A9641 EQ PUSH2 0x8F JUMPI JUMPDEST PUSH1 0x0 DUP1 REVERT JUMPDEST CALLVALUE DUP1 ISZERO PUSH2 0x45 JUMPI PUSH1 0x0 DUP1 REVERT JUMPDEST POP PUSH2 0x4E PUSH2 0xAB JUMP JUMPDEST PUSH1 0x40 MLOAD PUSH2 0x5B SWAP2 SWAP1 PUSH2 0x17E JUMP JUMPDEST PUSH1 0x40 MLOAD DUP1 SWAP2 SUB SWAP1 RETURN JUMPDEST CALLVALUE DUP1 ISZERO PUSH2 0x70 JUMPI PUSH1 0x0 DUP1 REVERT JUMPDEST POP PUSH2 0x79 PUSH2 0xB1 JUMP JUMPDEST PUSH1 0x40 MLOAD PUSH2 0x86 SWAP2 SWAP1 PUSH2 0x163 JUMP JUMPDEST PUSH1 0x40 MLOAD DUP1 SWAP2 SUB SWAP1 RETURN JUMPDEST PUSH2 0xA9 PUSH1 0x4 DUP1 CALLDATASIZE SUB DUP2 ADD SWAP1 PUSH2 0xA4 SWAP2 SWAP1 PUSH2 0x105 JUMP JUMPDEST PUSH2 0xD7 JUMP JUMPDEST STOP JUMPDEST PUSH1 0x0 SLOAD DUP2 JUMP JUMPDEST PUSH1 0x1 PUSH1 0x0 SWAP1 SLOAD SWAP1 PUSH2 0x100 EXP SWAP1 DIV PUSH20 0xFFFFFFFFFFFFFFFFFFFFFFFFFFFFFFFFFFFFFFFF AND DUP2 JUMP JUMPDEST POP POP JUMP JUMPDEST PUSH1 0x0 DUP2 CALLDATALOAD SWAP1 POP PUSH2 0xEA DUP2 PUSH2 0x1DA JUMP JUMPDEST SWAP3 SWAP2 POP POP JUMP JUMPDEST PUSH1 0x0 DUP2 CALLDATALOAD SWAP1 POP PUSH2 0xFF DUP2 PUSH2 0x1F1 JUMP JUMPDEST SWAP3 SWAP2 POP POP JUMP JUMPDEST PUSH1 0x0 DUP1 PUSH1 0x40 DUP4 DUP6 SUB SLT ISZERO PUSH2 0x11C JUMPI PUSH2 0x11B PUSH2 0x1D5 JUMP JUMPDEST JUMPDEST PUSH1 0x0 PUSH2 0x12A DUP6 DUP3 DUP7 ADD PUSH2 0xDB JUMP JUMPDEST SWAP3 POP POP PUSH1 0x20 PUSH2 0x13B DUP6 DUP3 DUP7 ADD PUSH2 0xF0 JUMP JUMPDEST SWAP2 POP POP SWAP3 POP SWAP3 SWAP1 POP JUMP JUMPDEST PUSH2 0x14E DUP2 PUSH2 0x199 JUMP JUMPDEST DUP3 MSTORE POP POP JUMP JUMPDEST PUSH2 0x15D DUP2 PUSH2 0x1CB JUMP JUMPDEST DUP3 MSTORE POP POP JUMP JUMPDEST PUSH1 0x0 PUSH1 0x20 DUP3 ADD SWAP1 POP PUSH2 0x178 PUSH1 0x0 DUP4 ADD DUP5 PUSH2 0x145 JUMP JUMPDEST SWAP3 SWAP2 POP POP JUMP JUMPDEST PUSH1 0x0 PUSH1 0x20 DUP3 ADD SWAP1 POP PUSH2 0x193 PUSH1 0x0 DUP4 ADD DUP5 PUSH2 0x154 JUMP JUMPDEST SWAP3 SWAP2 POP POP JUMP JUMPDEST PUSH1 0x0 PUSH2 0x1A4 DUP3 PUSH2 0x1AB JUMP JUMPDEST SWAP1 POP SWAP2 SWAP1 POP JUMP JUMPDEST PUSH1 0x0 PUSH20 0xFFFFFFFFFFFFFFFFFFFFFFFFFFFFFFFFFFFFFFFF DUP3 AND SWAP1 POP SWAP2 SWAP1 POP JUMP JUMPDEST PUSH1 0x0 DUP2 SWAP1 POP SWAP2 SWAP1 POP JUMP JUMPDEST PUSH1 0x0 DUP1 REVERT JUMPDEST PUSH2 0x1E3 DUP2 PUSH2 0x199 JUMP JUMPDEST DUP2 EQ PUSH2 0x1EE JUMPI PUSH1 0x0 DUP1 REVERT JUMPDEST POP JUMP JUMPDEST PUSH2 0x1FA DUP2 PUSH2 0x1CB JUMP JUMPDEST DUP2 EQ PUSH2 0x205 JUMPI PUSH1 0x0 DUP1 REVERT JUMPDEST POP JUMP INVALID LOG2 PUSH5 0x6970667358 0x22 SLT KECCAK256 DUP1 GT 0xA6 MSTORE8 0xBE PUSH10 0x6E7AB6AF6C312434C 0xA9 0x21 PUSH5 0x7AA9A3751F PUSH13 0x2280E33531F8ED64736F6C6343 STOP ADDMOD SMOD STOP CALLER "
				},
				"gasEstimates": {
					"creation": {
						"codeDepositCost": "114800",
						"executionCost": "159",
						"totalCost": "114959"
					},
					"external": {
						"callSetVars(address,uint256)": "626",
						"num()": "2407",
						"sender()": "2514"
					}
				},
				"methodIdentifiers": {
					"callSetVars(address,uint256)": "b39a9641",
					"num()": "4e70b1dc",
					"sender()": "67e404ce"
				}
			},
			"storageLayout": {
				"storage": [
					{
						"astId": 3,
						"contract": "delegatecall/B.sol:B",
						"label": "num",
						"offset": 0,
						"slot": "0",
						"type": "t_uint256"
					},
					{
						"astId": 5,
						"contract": "delegatecall/B.sol:B",
						"label": "sender",
						"offset": 0,
						"slot": "1",
						"type": "t_address"
					}
				],
				"types": {
					"t_address": {
						"encoding": "inplace",
						"label": "address",
						"numberOfBytes": "20"
					},
					"t_uint256": {
						"encoding": "inplace",
						"label": "uint256",
						"numberOfBytes": "32"
					}
				}
			},
			"userdoc": {
				"kind": "user",
				"methods": {},
				"version": 1
			}
		}
	}
}