{
	"call/Call.sol": {
		"Call": {
			"abi": [
				{
					"anonymous": false,
					"inputs": [
						{
							"indexed": false,
							"internalType": "bool",
							"name": "success",
							"type": "bool"
						},
						{
							"indexed": false,
							"internalType": "bytes",
							"name": "data",
							"type": "bytes"
						}
					],
					"name": "Response",
					"type": "event"
				},
				{
					"inputs": [
						{
							"internalType": "address",
							"name": "_addr",
							"type": "address"
						}
					],
					"name": "callGetX",
					"outputs": [
						{
							"internalType": "uint256",
							"name": "",
							"type": "uint256"
						}
					],
					"stateMutability": "nonpayable",
					"type": "function"
				},
				{
					"inputs": [
						{
							"internalType": "address payable",
							"name": "_addr",
							"type": "address"
						},
						{
							"internalType": "uint256",
							"name": "x",
							"type": "uint256"
						}
					],
					"name": "callSetX",
					"outputs": [],
					"stateMutability": "payable",
					"type": "function"
				}
			],
			"devdoc": {
				"kind": "dev",
				"methods": {},
				"version": 1
			},
			"evm": {
				"assembly": "    /* \"call/Call.sol\":58:419  contract Call{\r... */\n  mstore(0x40, 0x80)\n  callvalue\n  dup1\n  iszero\n  tag_1\n  jumpi\n  0x00\n  dup1\n  revert\ntag_1:\n  pop\n  dataSize(sub_0)\n  dup1\n  dataOffset(sub_0)\n  0x00\n  codecopy\n  0x00\n  return\nstop\n\nsub_0: assembly {\n        /* \"call/Call.sol\":58:419  contract Call{\r... */\n      mstore(0x40, 0x80)\n      jumpi(tag_1, lt(calldatasize, 0x04))\n      shr(0xe0, calldataload(0x00))\n      dup1\n      0x3ca065bb\n      eq\n      tag_2\n      jumpi\n      dup1\n      0x66563e69\n      eq\n      tag_3\n      jumpi\n    tag_1:\n      0x00\n      dup1\n      revert\n        /* \"call/Call.sol\":126:335  function callSetX(address payable _addr,uint x) public payable{\r... */\n    tag_2:\n      tag_4\n      0x04\n      dup1\n      calldatasize\n      sub\n      dup2\n      add\n      swap1\n      tag_5\n      swap2\n      swap1\n      tag_6\n      jump\t// in\n    tag_5:\n      tag_7\n      jump\t// in\n    tag_4:\n      stop\n        /* \"call/Call.sol\":343:416  function callGetX(address _addr) external returns(uint){\r... */\n    tag_3:\n      callvalue\n      dup1\n      iszero\n      tag_8\n      jumpi\n      0x00\n      dup1\n      revert\n    tag_8:\n      pop\n      tag_9\n      0x04\n      dup1\n      calldatasize\n      sub\n      dup2\n      add\n      swap1\n      tag_10\n      swap2\n      swap1\n      tag_11\n      jump\t// in\n    tag_10:\n      tag_12\n      jump\t// in\n    tag_9:\n      mload(0x40)\n      tag_13\n      swap2\n      swap1\n      tag_14\n      jump\t// in\n    tag_13:\n      mload(0x40)\n      dup1\n      swap2\n      sub\n      swap1\n      return\n        /* \"call/Call.sol\":126:335  function callSetX(address payable _addr,uint x) public payable{\r... */\n    tag_7:\n        /* \"call/Call.sol\":200:212  bool success */\n      0x00\n        /* \"call/Call.sol\":213:230  bytes memory data */\n      dup1\n        /* \"call/Call.sol\":234:239  _addr */\n      dup4\n        /* \"call/Call.sol\":234:244  _addr.call */\n      0xffffffffffffffffffffffffffffffffffffffff\n      and\n        /* \"call/Call.sol\":251:260  msg.value */\n      callvalue\n        /* \"call/Call.sol\":314:315  x */\n      dup5\n        /* \"call/Call.sol\":276:316  abi.encodeWithSignature(\"set_X(uint)\",x) */\n      add(0x24, mload(0x40))\n      tag_16\n      swap2\n      swap1\n      tag_14\n      jump\t// in\n    tag_16:\n      mload(0x40)\n      0x20\n      dup2\n      dup4\n      sub\n      sub\n      dup2\n      mstore\n      swap1\n      0x40\n      mstore\n      and(not(0xffffffffffffffffffffffffffffffffffffffffffffffffffffffff), 0x33a0899e00000000000000000000000000000000000000000000000000000000)\n      0x20\n      dup3\n      add\n      dup1\n      mload\n      0xffffffffffffffffffffffffffffffffffffffffffffffffffffffff\n      dup4\n      dup2\n      dup4\n      and\n      or\n      dup4\n      mstore\n      pop\n      pop\n      pop\n      pop\n        /* \"call/Call.sol\":234:327  _addr.call{value:msg.value}(\r... */\n      mload(0x40)\n      tag_17\n      swap2\n      swap1\n      tag_18\n      jump\t// in\n    tag_17:\n      0x00\n      mload(0x40)\n      dup1\n      dup4\n      sub\n      dup2\n      dup6\n      dup8\n      gas\n      call\n      swap3\n      pop\n      pop\n      pop\n      returndatasize\n      dup1\n      0x00\n      dup2\n      eq\n      tag_21\n      jumpi\n      mload(0x40)\n      swap2\n      pop\n      and(add(returndatasize, 0x3f), not(0x1f))\n      dup3\n      add\n      0x40\n      mstore\n      returndatasize\n      dup3\n      mstore\n      returndatasize\n      0x00\n      0x20\n      dup5\n      add\n      returndatacopy\n      jump(tag_20)\n    tag_21:\n      0x60\n      swap2\n      pop\n    tag_20:\n      pop\n        /* \"call/Call.sol\":199:327  (bool success,bytes memory data) = _addr.call{value:msg.value}(\r... */\n      swap2\n      pop\n      swap2\n      pop\n        /* \"call/Call.sol\":188:335  {\r... */\n      pop\n      pop\n        /* \"call/Call.sol\":126:335  function callSetX(address payable _addr,uint x) public payable{\r... */\n      pop\n      pop\n      jump\t// out\n        /* \"call/Call.sol\":343:416  function callGetX(address _addr) external returns(uint){\r... */\n    tag_12:\n        /* \"call/Call.sol\":393:397  uint */\n      0x00\n        /* \"call/Call.sol\":343:416  function callGetX(address _addr) external returns(uint){\r... */\n      swap2\n      swap1\n      pop\n      jump\t// out\n        /* \"#utility.yul\":7:146   */\n    tag_24:\n        /* \"#utility.yul\":53:58   */\n      0x00\n        /* \"#utility.yul\":91:97   */\n      dup2\n        /* \"#utility.yul\":78:98   */\n      calldataload\n        /* \"#utility.yul\":69:98   */\n      swap1\n      pop\n        /* \"#utility.yul\":107:140   */\n      tag_26\n        /* \"#utility.yul\":134:139   */\n      dup2\n        /* \"#utility.yul\":107:140   */\n      tag_27\n      jump\t// in\n    tag_26:\n        /* \"#utility.yul\":7:146   */\n      swap3\n      swap2\n      pop\n      pop\n      jump\t// out\n        /* \"#utility.yul\":152:307   */\n    tag_28:\n        /* \"#utility.yul\":206:211   */\n      0x00\n        /* \"#utility.yul\":244:250   */\n      dup2\n        /* \"#utility.yul\":231:251   */\n      calldataload\n        /* \"#utility.yul\":222:251   */\n      swap1\n      pop\n        /* \"#utility.yul\":260:301   */\n      tag_30\n        /* \"#utility.yul\":295:300   */\n      dup2\n        /* \"#utility.yul\":260:301   */\n      tag_31\n      jump\t// in\n    tag_30:\n        /* \"#utility.yul\":152:307   */\n      swap3\n      swap2\n      pop\n      pop\n      jump\t// out\n        /* \"#utility.yul\":313:452   */\n    tag_32:\n        /* \"#utility.yul\":359:364   */\n      0x00\n        /* \"#utility.yul\":397:403   */\n      dup2\n        /* \"#utility.yul\":384:404   */\n      calldataload\n        /* \"#utility.yul\":375:404   */\n      swap1\n      pop\n        /* \"#utility.yul\":413:446   */\n      tag_34\n        /* \"#utility.yul\":440:445   */\n      dup2\n        /* \"#utility.yul\":413:446   */\n      tag_35\n      jump\t// in\n    tag_34:\n        /* \"#utility.yul\":313:452   */\n      swap3\n      swap2\n      pop\n      pop\n      jump\t// out\n        /* \"#utility.yul\":458:787   */\n    tag_11:\n        /* \"#utility.yul\":517:523   */\n      0x00\n        /* \"#utility.yul\":566:568   */\n      0x20\n        /* \"#utility.yul\":554:563   */\n      dup3\n        /* \"#utility.yul\":545:552   */\n      dup5\n        /* \"#utility.yul\":541:564   */\n      sub\n        /* \"#utility.yul\":537:569   */\n      slt\n        /* \"#utility.yul\":534:653   */\n      iszero\n      tag_37\n      jumpi\n        /* \"#utility.yul\":572:651   */\n      tag_38\n      tag_39\n      jump\t// in\n    tag_38:\n        /* \"#utility.yul\":534:653   */\n    tag_37:\n        /* \"#utility.yul\":692:693   */\n      0x00\n        /* \"#utility.yul\":717:770   */\n      tag_40\n        /* \"#utility.yul\":762:769   */\n      dup5\n        /* \"#utility.yul\":753:759   */\n      dup3\n        /* \"#utility.yul\":742:751   */\n      dup6\n        /* \"#utility.yul\":738:760   */\n      add\n        /* \"#utility.yul\":717:770   */\n      tag_24\n      jump\t// in\n    tag_40:\n        /* \"#utility.yul\":707:770   */\n      swap2\n      pop\n        /* \"#utility.yul\":663:780   */\n      pop\n        /* \"#utility.yul\":458:787   */\n      swap3\n      swap2\n      pop\n      pop\n      jump\t// out\n        /* \"#utility.yul\":793:1283   */\n    tag_6:\n        /* \"#utility.yul\":869:875   */\n      0x00\n        /* \"#utility.yul\":877:883   */\n      dup1\n        /* \"#utility.yul\":926:928   */\n      0x40\n        /* \"#utility.yul\":914:923   */\n      dup4\n        /* \"#utility.yul\":905:912   */\n      dup6\n        /* \"#utility.yul\":901:924   */\n      sub\n        /* \"#utility.yul\":897:929   */\n      slt\n        /* \"#utility.yul\":894:1013   */\n      iszero\n      tag_42\n      jumpi\n        /* \"#utility.yul\":932:1011   */\n      tag_43\n      tag_39\n      jump\t// in\n    tag_43:\n        /* \"#utility.yul\":894:1013   */\n    tag_42:\n        /* \"#utility.yul\":1052:1053   */\n      0x00\n        /* \"#utility.yul\":1077:1138   */\n      tag_44\n        /* \"#utility.yul\":1130:1137   */\n      dup6\n        /* \"#utility.yul\":1121:1127   */\n      dup3\n        /* \"#utility.yul\":1110:1119   */\n      dup7\n        /* \"#utility.yul\":1106:1128   */\n      add\n        /* \"#utility.yul\":1077:1138   */\n      tag_28\n      jump\t// in\n    tag_44:\n        /* \"#utility.yul\":1067:1138   */\n      swap3\n      pop\n        /* \"#utility.yul\":1023:1148   */\n      pop\n        /* \"#utility.yul\":1187:1189   */\n      0x20\n        /* \"#utility.yul\":1213:1266   */\n      tag_45\n        /* \"#utility.yul\":1258:1265   */\n      dup6\n        /* \"#utility.yul\":1249:1255   */\n      dup3\n        /* \"#utility.yul\":1238:1247   */\n      dup7\n        /* \"#utility.yul\":1234:1256   */\n      add\n        /* \"#utility.yul\":1213:1266   */\n      tag_32\n      jump\t// in\n    tag_45:\n        /* \"#utility.yul\":1203:1266   */\n      swap2\n      pop\n        /* \"#utility.yul\":1158:1276   */\n      pop\n        /* \"#utility.yul\":793:1283   */\n      swap3\n      pop\n      swap3\n      swap1\n      pop\n      jump\t// out\n        /* \"#utility.yul\":1289:1662   */\n    tag_46:\n        /* \"#utility.yul\":1393:1396   */\n      0x00\n        /* \"#utility.yul\":1421:1459   */\n      tag_48\n        /* \"#utility.yul\":1453:1458   */\n      dup3\n        /* \"#utility.yul\":1421:1459   */\n      tag_49\n      jump\t// in\n    tag_48:\n        /* \"#utility.yul\":1475:1563   */\n      tag_50\n        /* \"#utility.yul\":1556:1562   */\n      dup2\n        /* \"#utility.yul\":1551:1554   */\n      dup6\n        /* \"#utility.yul\":1475:1563   */\n      tag_51\n      jump\t// in\n    tag_50:\n        /* \"#utility.yul\":1468:1563   */\n      swap4\n      pop\n        /* \"#utility.yul\":1572:1624   */\n      tag_52\n        /* \"#utility.yul\":1617:1623   */\n      dup2\n        /* \"#utility.yul\":1612:1615   */\n      dup6\n        /* \"#utility.yul\":1605:1609   */\n      0x20\n        /* \"#utility.yul\":1598:1603   */\n      dup7\n        /* \"#utility.yul\":1594:1610   */\n      add\n        /* \"#utility.yul\":1572:1624   */\n      tag_53\n      jump\t// in\n    tag_52:\n        /* \"#utility.yul\":1649:1655   */\n      dup1\n        /* \"#utility.yul\":1644:1647   */\n      dup5\n        /* \"#utility.yul\":1640:1656   */\n      add\n        /* \"#utility.yul\":1633:1656   */\n      swap2\n      pop\n        /* \"#utility.yul\":1397:1662   */\n      pop\n        /* \"#utility.yul\":1289:1662   */\n      swap3\n      swap2\n      pop\n      pop\n      jump\t// out\n        /* \"#utility.yul\":1668:1786   */\n    tag_54:\n        /* \"#utility.yul\":1755:1779   */\n      tag_56\n        /* \"#utility.yul\":1773:1778   */\n      dup2\n        /* \"#utility.yul\":1755:1779   */\n      tag_57\n      jump\t// in\n    tag_56:\n        /* \"#utility.yul\":1750:1753   */\n      dup3\n        /* \"#utility.yul\":1743:1780   */\n      mstore\n        /* \"#utility.yul\":1668:1786   */\n      pop\n      pop\n      jump\t// out\n        /* \"#utility.yul\":1792:2063   */\n    tag_18:\n        /* \"#utility.yul\":1922:1925   */\n      0x00\n        /* \"#utility.yul\":1944:2037   */\n      tag_59\n        /* \"#utility.yul\":2033:2036   */\n      dup3\n        /* \"#utility.yul\":2024:2030   */\n      dup5\n        /* \"#utility.yul\":1944:2037   */\n      tag_46\n      jump\t// in\n    tag_59:\n        /* \"#utility.yul\":1937:2037   */\n      swap2\n      pop\n        /* \"#utility.yul\":2054:2057   */\n      dup2\n        /* \"#utility.yul\":2047:2057   */\n      swap1\n      pop\n        /* \"#utility.yul\":1792:2063   */\n      swap3\n      swap2\n      pop\n      pop\n      jump\t// out\n        /* \"#utility.yul\":2069:2291   */\n    tag_14:\n        /* \"#utility.yul\":2162:2166   */\n      0x00\n        /* \"#utility.yul\":2200:2202   */\n      0x20\n        /* \"#utility.yul\":2189:2198   */\n      dup3\n        /* \"#utility.yul\":2185:2203   */\n      add\n        /* \"#utility.yul\":2177:2203   */\n      swap1\n      pop\n        /* \"#utility.yul\":2213:2284   */\n      tag_61\n        /* \"#utility.yul\":2281:2282   */\n      0x00\n        /* \"#utility.yul\":2270:2279   */\n      dup4\n        /* \"#utility.yul\":2266:2283   */\n      add\n        /* \"#utility.yul\":2257:2263   */\n      dup5\n        /* \"#utility.yul\":2213:2284   */\n      tag_54\n      jump\t// in\n    tag_61:\n        /* \"#utility.yul\":2069:2291   */\n      swap3\n      swap2\n      pop\n      pop\n      jump\t// out\n        /* \"#utility.yul\":2378:2476   */\n    tag_49:\n        /* \"#utility.yul\":2429:2435   */\n      0x00\n        /* \"#utility.yul\":2463:2468   */\n      dup2\n        /* \"#utility.yul\":2457:2469   */\n      mload\n        /* \"#utility.yul\":2447:2469   */\n      swap1\n      pop\n        /* \"#utility.yul\":2378:2476   */\n      swap2\n      swap1\n      pop\n      jump\t// out\n        /* \"#utility.yul\":2482:2629   */\n    tag_51:\n        /* \"#utility.yul\":2583:2594   */\n      0x00\n        /* \"#utility.yul\":2620:2623   */\n      dup2\n        /* \"#utility.yul\":2605:2623   */\n      swap1\n      pop\n        /* \"#utility.yul\":2482:2629   */\n      swap3\n      swap2\n      pop\n      pop\n      jump\t// out\n        /* \"#utility.yul\":2635:2731   */\n    tag_66:\n        /* \"#utility.yul\":2672:2679   */\n      0x00\n        /* \"#utility.yul\":2701:2725   */\n      tag_68\n        /* \"#utility.yul\":2719:2724   */\n      dup3\n        /* \"#utility.yul\":2701:2725   */\n      tag_69\n      jump\t// in\n    tag_68:\n        /* \"#utility.yul\":2690:2725   */\n      swap1\n      pop\n        /* \"#utility.yul\":2635:2731   */\n      swap2\n      swap1\n      pop\n      jump\t// out\n        /* \"#utility.yul\":2737:2841   */\n    tag_70:\n        /* \"#utility.yul\":2782:2789   */\n      0x00\n        /* \"#utility.yul\":2811:2835   */\n      tag_72\n        /* \"#utility.yul\":2829:2834   */\n      dup3\n        /* \"#utility.yul\":2811:2835   */\n      tag_69\n      jump\t// in\n    tag_72:\n        /* \"#utility.yul\":2800:2835   */\n      swap1\n      pop\n        /* \"#utility.yul\":2737:2841   */\n      swap2\n      swap1\n      pop\n      jump\t// out\n        /* \"#utility.yul\":2847:2973   */\n    tag_69:\n        /* \"#utility.yul\":2884:2891   */\n      0x00\n        /* \"#utility.yul\":2924:2966   */\n      0xffffffffffffffffffffffffffffffffffffffff\n        /* \"#utility.yul\":2917:2922   */\n      dup3\n        /* \"#utility.yul\":2913:2967   */\n      and\n        /* \"#utility.yul\":2902:2967   */\n      swap1\n      pop\n        /* \"#utility.yul\":2847:2973   */\n      swap2\n      swap1\n      pop\n      jump\t// out\n        /* \"#utility.yul\":2979:3056   */\n    tag_57:\n        /* \"#utility.yul\":3016:3023   */\n      0x00\n        /* \"#utility.yul\":3045:3050   */\n      dup2\n        /* \"#utility.yul\":3034:3050   */\n      swap1\n      pop\n        /* \"#utility.yul\":2979:3056   */\n      swap2\n      swap1\n      pop\n      jump\t// out\n        /* \"#utility.yul\":3062:3369   */\n    tag_53:\n        /* \"#utility.yul\":3130:3131   */\n      0x00\n        /* \"#utility.yul\":3140:3253   */\n    tag_76:\n        /* \"#utility.yul\":3154:3160   */\n      dup4\n        /* \"#utility.yul\":3151:3152   */\n      dup2\n        /* \"#utility.yul\":3148:3161   */\n      lt\n        /* \"#utility.yul\":3140:3253   */\n      iszero\n      tag_78\n      jumpi\n        /* \"#utility.yul\":3239:3240   */\n      dup1\n        /* \"#utility.yul\":3234:3237   */\n      dup3\n        /* \"#utility.yul\":3230:3241   */\n      add\n        /* \"#utility.yul\":3224:3242   */\n      mload\n        /* \"#utility.yul\":3220:3221   */\n      dup2\n        /* \"#utility.yul\":3215:3218   */\n      dup5\n        /* \"#utility.yul\":3211:3222   */\n      add\n        /* \"#utility.yul\":3204:3243   */\n      mstore\n        /* \"#utility.yul\":3176:3178   */\n      0x20\n        /* \"#utility.yul\":3173:3174   */\n      dup2\n        /* \"#utility.yul\":3169:3179   */\n      add\n        /* \"#utility.yul\":3164:3179   */\n      swap1\n      pop\n        /* \"#utility.yul\":3140:3253   */\n      jump(tag_76)\n    tag_78:\n        /* \"#utility.yul\":3271:3277   */\n      dup4\n        /* \"#utility.yul\":3268:3269   */\n      dup2\n        /* \"#utility.yul\":3265:3278   */\n      gt\n        /* \"#utility.yul\":3262:3363   */\n      iszero\n      tag_79\n      jumpi\n        /* \"#utility.yul\":3351:3352   */\n      0x00\n        /* \"#utility.yul\":3342:3348   */\n      dup5\n        /* \"#utility.yul\":3337:3340   */\n      dup5\n        /* \"#utility.yul\":3333:3349   */\n      add\n        /* \"#utility.yul\":3326:3353   */\n      mstore\n        /* \"#utility.yul\":3262:3363   */\n    tag_79:\n        /* \"#utility.yul\":3111:3369   */\n      pop\n        /* \"#utility.yul\":3062:3369   */\n      pop\n      pop\n      pop\n      jump\t// out\n        /* \"#utility.yul\":3498:3615   */\n    tag_39:\n        /* \"#utility.yul\":3607:3608   */\n      0x00\n        /* \"#utility.yul\":3604:3605   */\n      dup1\n        /* \"#utility.yul\":3597:3609   */\n      revert\n        /* \"#utility.yul\":3621:3743   */\n    tag_27:\n        /* \"#utility.yul\":3694:3718   */\n      tag_84\n        /* \"#utility.yul\":3712:3717   */\n      dup2\n        /* \"#utility.yul\":3694:3718   */\n      tag_66\n      jump\t// in\n    tag_84:\n        /* \"#utility.yul\":3687:3692   */\n      dup2\n        /* \"#utility.yul\":3684:3719   */\n      eq\n        /* \"#utility.yul\":3674:3737   */\n      tag_85\n      jumpi\n        /* \"#utility.yul\":3733:3734   */\n      0x00\n        /* \"#utility.yul\":3730:3731   */\n      dup1\n        /* \"#utility.yul\":3723:3735   */\n      revert\n        /* \"#utility.yul\":3674:3737   */\n    tag_85:\n        /* \"#utility.yul\":3621:3743   */\n      pop\n      jump\t// out\n        /* \"#utility.yul\":3749:3887   */\n    tag_31:\n        /* \"#utility.yul\":3830:3862   */\n      tag_87\n        /* \"#utility.yul\":3856:3861   */\n      dup2\n        /* \"#utility.yul\":3830:3862   */\n      tag_70\n      jump\t// in\n    tag_87:\n        /* \"#utility.yul\":3823:3828   */\n      dup2\n        /* \"#utility.yul\":3820:3863   */\n      eq\n        /* \"#utility.yul\":3810:3881   */\n      tag_88\n      jumpi\n        /* \"#utility.yul\":3877:3878   */\n      0x00\n        /* \"#utility.yul\":3874:3875   */\n      dup1\n        /* \"#utility.yul\":3867:3879   */\n      revert\n        /* \"#utility.yul\":3810:3881   */\n    tag_88:\n        /* \"#utility.yul\":3749:3887   */\n      pop\n      jump\t// out\n        /* \"#utility.yul\":3893:4015   */\n    tag_35:\n        /* \"#utility.yul\":3966:3990   */\n      tag_90\n        /* \"#utility.yul\":3984:3989   */\n      dup2\n        /* \"#utility.yul\":3966:3990   */\n      tag_57\n      jump\t// in\n    tag_90:\n        /* \"#utility.yul\":3959:3964   */\n      dup2\n        /* \"#utility.yul\":3956:3991   */\n      eq\n        /* \"#utility.yul\":3946:4009   */\n      tag_91\n      jumpi\n        /* \"#utility.yul\":4005:4006   */\n      0x00\n        /* \"#utility.yul\":4002:4003   */\n      dup1\n        /* \"#utility.yul\":3995:4007   */\n      revert\n        /* \"#utility.yul\":3946:4009   */\n    tag_91:\n        /* \"#utility.yul\":3893:4015   */\n      pop\n      jump\t// out\n\n    auxdata: 0xa2646970667358221220fd19036bd334af1764946ce1d133b373ca37d68f6d1605c6816e9418123fc34464736f6c63430008070033\n}\n",
				"bytecode": {
					"linkReferences": {},
					"object": "608060405234801561001057600080fd5b506103c6806100206000396000f3fe6080604052600436106100295760003560e01c80633ca065bb1461002e57806366563e691461004a575b600080fd5b610048600480360381019061004391906101fd565b610087565b005b34801561005657600080fd5b50610071600480360381019061006c91906101d0565b61018a565b60405161007e9190610294565b60405180910390f35b6000808373ffffffffffffffffffffffffffffffffffffffff1634846040516024016100b39190610294565b6040516020818303038152906040527f33a0899e000000000000000000000000000000000000000000000000000000007bffffffffffffffffffffffffffffffffffffffffffffffffffffffff19166020820180517bffffffffffffffffffffffffffffffffffffffffffffffffffffffff838183161783525050505060405161013d919061027d565b60006040518083038185875af1925050503d806000811461017a576040519150601f19603f3d011682016040523d82523d6000602084013e61017f565b606091505b509150915050505050565b6000919050565b6000813590506101a08161034b565b92915050565b6000813590506101b581610362565b92915050565b6000813590506101ca81610379565b92915050565b6000602082840312156101e6576101e5610346565b5b60006101f484828501610191565b91505092915050565b6000806040838503121561021457610213610346565b5b6000610222858286016101a6565b9250506020610233858286016101bb565b9150509250929050565b6000610248826102af565b61025281856102ba565b9350610262818560208601610313565b80840191505092915050565b61027781610309565b82525050565b6000610289828461023d565b915081905092915050565b60006020820190506102a9600083018461026e565b92915050565b600081519050919050565b600081905092915050565b60006102d0826102e9565b9050919050565b60006102e2826102e9565b9050919050565b600073ffffffffffffffffffffffffffffffffffffffff82169050919050565b6000819050919050565b60005b83811015610331578082015181840152602081019050610316565b83811115610340576000848401525b50505050565b600080fd5b610354816102c5565b811461035f57600080fd5b50565b61036b816102d7565b811461037657600080fd5b50565b61038281610309565b811461038d57600080fd5b5056fea2646970667358221220fd19036bd334af1764946ce1d133b373ca37d68f6d1605c6816e9418123fc34464736f6c63430008070033",
					"opcodes": "PUSH1 0x80 PUSH1 0x40 MSTORE CALLVALUE DUP1 ISZERO PUSH2 0x10 JUMPI PUSH1 0x0 DUP1 REVERT JUMPDEST POP PUSH2 0x3C6 DUP1 PUSH2 0x20 PUSH1 0x0 CODECOPY PUSH1 0x0 RETURN INVALID PUSH1 0x80 PUSH1 0x40 MSTORE PUSH1 0x4 CALLDATASIZE LT PUSH2 0x29 JUMPI PUSH1 0x0 CALLDATALOAD PUSH1 0xE0 SHR DUP1 PUSH4 0x3CA065BB EQ PUSH2 0x2E JUMPI DUP1 PUSH4 0x66563E69 EQ PUSH2 0x4A JUMPI JUMPDEST PUSH1 0x0 DUP1 REVERT JUMPDEST PUSH2 0x48 PUSH1 0x4 DUP1 CALLDATASIZE SUB DUP2 ADD SWAP1 PUSH2 0x43 SWAP2 SWAP1 PUSH2 0x1FD JUMP JUMPDEST PUSH2 0x87 JUMP JUMPDEST STOP JUMPDEST CALLVALUE DUP1 ISZERO PUSH2 0x56 JUMPI PUSH1 0x0 DUP1 REVERT JUMPDEST POP PUSH2 0x71 PUSH1 0x4 DUP1 CALLDATASIZE SUB DUP2 ADD SWAP1 PUSH2 0x6C SWAP2 SWAP1 PUSH2 0x1D0 JUMP JUMPDEST PUSH2 0x18A JUMP JUMPDEST PUSH1 0x40 MLOAD PUSH2 0x7E SWAP2 SWAP1 PUSH2 0x294 JUMP JUMPDEST PUSH1 0x40 MLOAD DUP1 SWAP2 SUB SWAP1 RETURN JUMPDEST PUSH1 0x0 DUP1 DUP4 PUSH20 0xFFFFFFFFFFFFFFFFFFFFFFFFFFFFFFFFFFFFFFFF AND CALLVALUE DUP5 PUSH1 0x40 MLOAD PUSH1 0x24 ADD PUSH2 0xB3 SWAP2 SWAP1 PUSH2 0x294 JUMP JUMPDEST PUSH1 0x40 MLOAD PUSH1 0x20 DUP2 DUP4 SUB SUB DUP2 MSTORE SWAP1 PUSH1 0x40 MSTORE PUSH32 0x33A0899E00000000000000000000000000000000000000000000000000000000 PUSH28 0xFFFFFFFFFFFFFFFFFFFFFFFFFFFFFFFFFFFFFFFFFFFFFFFFFFFFFFFF NOT AND PUSH1 0x20 DUP3 ADD DUP1 MLOAD PUSH28 0xFFFFFFFFFFFFFFFFFFFFFFFFFFFFFFFFFFFFFFFFFFFFFFFFFFFFFFFF DUP4 DUP2 DUP4 AND OR DUP4 MSTORE POP POP POP POP PUSH1 0x40 MLOAD PUSH2 0x13D SWAP2 SWAP1 PUSH2 0x27D JUMP JUMPDEST PUSH1 0x0 PUSH1 0x40 MLOAD DUP1 DUP4 SUB DUP2 DUP6 DUP8 GAS CALL SWAP3 POP POP POP RETURNDATASIZE DUP1 PUSH1 0x0 DUP2 EQ PUSH2 0x17A JUMPI PUSH1 0x40 MLOAD SWAP2 POP PUSH1 0x1F NOT PUSH1 0x3F RETURNDATASIZE ADD AND DUP3 ADD PUSH1 0x40 MSTORE RETURNDATASIZE DUP3 MSTORE RETURNDATASIZE PUSH1 0x0 PUSH1 0x20 DUP5 ADD RETURNDATACOPY PUSH2 0x17F JUMP JUMPDEST PUSH1 0x60 SWAP2 POP JUMPDEST POP SWAP2 POP SWAP2 POP POP POP POP POP JUMP JUMPDEST PUSH1 0x0 SWAP2 SWAP1 POP JUMP JUMPDEST PUSH1 0x0 DUP2 CALLDATALOAD SWAP1 POP PUSH2 0x1A0 DUP2 PUSH2 0x34B JUMP JUMPDEST SWAP3 SWAP2 POP POP JUMP JUMPDEST PUSH1 0x0 DUP2 CALLDATALOAD SWAP1 POP PUSH2 0x1B5 DUP2 PUSH2 0x362 JUMP JUMPDEST SWAP3 SWAP2 POP POP JUMP JUMPDEST PUSH1 0x0 DUP2 CALLDATALOAD SWAP1 POP PUSH2 0x1CA DUP2 PUSH2 0x379 JUMP JUMPDEST SWAP3 SWAP2 POP POP JUMP JUMPDEST PUSH1 0x0 PUSH1 0x20 DUP3 DUP5 SUB SLT ISZERO PUSH2 0x1E6 JUMPI PUSH2 0x1E5 PUSH2 0x346 JUMP JUMPDEST JUMPDEST PUSH1 0x0 PUSH2 0x1F4 DUP5 DUP3 DUP6 ADD PUSH2 0x191 JUMP JUMPDEST SWAP2 POP POP SWAP3 SWAP2 POP POP JUMP JUMPDEST PUSH1 0x0 DUP1 PUSH1 0x40 DUP4 DUP6 SUB SLT ISZERO PUSH2 0x214 JUMPI PUSH2 0x213 PUSH2 0x346 JUMP JUMPDEST JUMPDEST PUSH1 0x0 PUSH2 0x222 DUP6 DUP3 DUP7 ADD PUSH2 0x1A6 JUMP JUMPDEST SWAP3 POP POP PUSH1 0x20 PUSH2 0x233 DUP6 DUP3 DUP7 ADD PUSH2 0x1BB JUMP JUMPDEST SWAP2 POP POP SWAP3 POP SWAP3 SWAP1 POP JUMP JUMPDEST PUSH1 0x0 PUSH2 0x248 DUP3 PUSH2 0x2AF JUMP JUMPDEST PUSH2 0x252 DUP2 DUP6 PUSH2 0x2BA JUMP JUMPDEST SWAP4 POP PUSH2 0x262 DUP2 DUP6 PUSH1 0x20 DUP7 ADD PUSH2 0x313 JUMP JUMPDEST DUP1 DUP5 ADD SWAP2 POP POP SWAP3 SWAP2 POP POP JUMP JUMPDEST PUSH2 0x277 DUP2 PUSH2 0x309 JUMP JUMPDEST DUP3 MSTORE POP POP JUMP JUMPDEST PUSH1 0x0 PUSH2 0x289 DUP3 DUP5 PUSH2 0x23D JUMP JUMPDEST SWAP2 POP DUP2 SWAP1 POP SWAP3 SWAP2 POP POP JUMP JUMPDEST PUSH1 0x0 PUSH1 0x20 DUP3 ADD SWAP1 POP PUSH2 0x2A9 PUSH1 0x0 DUP4 ADD DUP5 PUSH2 0x26E JUMP JUMPDEST SWAP3 SWAP2 POP POP JUMP JUMPDEST PUSH1 0x0 DUP2 MLOAD SWAP1 POP SWAP2 SWAP1 POP JUMP JUMPDEST PUSH1 0x0 DUP2 SWAP1 POP SWAP3 SWAP2 POP POP JUMP JUMPDEST PUSH1 0x0 PUSH2 0x2D0 DUP3 PUSH2 0x2E9 JUMP JUMPDEST SWAP1 POP SWAP2 SWAP1 POP JUMP JUMPDEST PUSH1 0x0 PUSH2 0x2E2 DUP3 PUSH2 0x2E9 JUMP JUMPDEST SWAP1 POP SWAP2 SWAP1 POP JUMP JUMPDEST PUSH1 0x0 PUSH20 0xFFFFFFFFFFFFFFFFFFFFFFFFFFFFFFFFFFFFFFFF DUP3 AND SWAP1 POP SWAP2 SWAP1 POP JUMP JUMPDEST PUSH1 0x0 DUP2 SWAP1 POP SWAP2 SWAP1 POP JUMP JUMPDEST PUSH1 0x0 JUMPDEST DUP4 DUP2 LT ISZERO PUSH2 0x331 JUMPI DUP1 DUP3 ADD MLOAD DUP2 DUP5 ADD MSTORE PUSH1 0x20 DUP2 ADD SWAP1 POP PUSH2 0x316 JUMP JUMPDEST DUP4 DUP2 GT ISZERO PUSH2 0x340 JUMPI PUSH1 0x0 DUP5 DUP5 ADD MSTORE JUMPDEST POP POP POP POP JUMP JUMPDEST PUSH1 0x0 DUP1 REVERT JUMPDEST PUSH2 0x354 DUP2 PUSH2 0x2C5 JUMP JUMPDEST DUP2 EQ PUSH2 0x35F JUMPI PUSH1 0x0 DUP1 REVERT JUMPDEST POP JUMP JUMPDEST PUSH2 0x36B DUP2 PUSH2 0x2D7 JUMP JUMPDEST DUP2 EQ PUSH2 0x376 JUMPI PUSH1 0x0 DUP1 REVERT JUMPDEST POP JUMP JUMPDEST PUSH2 0x382 DUP2 PUSH2 0x309 JUMP JUMPDEST DUP2 EQ PUSH2 0x38D JUMPI PUSH1 0x0 DUP1 REVERT JUMPDEST POP JUMP INVALID LOG2 PUSH5 0x6970667358 0x22 SLT KECCAK256 REVERT NOT SUB PUSH12 0xD334AF1764946CE1D133B373 0xCA CALLDATACOPY 0xD6 DUP16 PUSH14 0x1605C6816E9418123FC34464736F PUSH13 0x63430008070033000000000000 "
				},
				"gasEstimates": {
					"creation": {
						"codeDepositCost": "193200",
						"executionCost": "238",
						"totalCost": "193438"
					},
					"external": {
						"callGetX(address)": "643",
						"callSetX(address,uint256)": "infinite"
					}
				},
				"methodIdentifiers": {
					"callGetX(address)": "66563e69",
					"callSetX(address,uint256)": "3ca065bb"
				}
			},
			"storageLayout": {
				"storage": [],
				"types": null
			},
			"userdoc": {
				"kind": "user",
				"methods": {},
				"version": 1
			}
		}
	}
}