{
	"call/Call.sol": {
		"Call": {
			"abi": [
				{
					"anonymous": false,
					"inputs": [
						{
							"indexed": false,
							"internalType": "bool",
							"name": "success",
							"type": "bool"
						},
						{
							"indexed": false,
							"internalType": "bytes",
							"name": "data",
							"type": "bytes"
						}
					],
					"name": "Response",
					"type": "event"
				},
				{
					"inputs": [
						{
							"internalType": "address",
							"name": "_addr",
							"type": "address"
						}
					],
					"name": "callGetX",
					"outputs": [
						{
							"internalType": "uint256",
							"name": "",
							"type": "uint256"
						}
					],
					"stateMutability": "nonpayable",
					"type": "function"
				},
				{
					"inputs": [
						{
							"internalType": "address",
							"name": "_addr",
							"type": "address"
						}
					],
					"name": "callNone",
					"outputs": [],
					"stateMutability": "nonpayable",
					"type": "function"
				},
				{
					"inputs": [
						{
							"internalType": "address payable",
							"name": "_addr",
							"type": "address"
						},
						{
							"internalType": "uint256",
							"name": "x",
							"type": "uint256"
						}
					],
					"name": "callSetX",
					"outputs": [],
					"stateMutability": "payable",
					"type": "function"
				}
			],
			"devdoc": {
				"kind": "dev",
				"methods": {},
				"version": 1
			},
			"evm": {
				"assembly": "    /* \"call/Call.sol\":58:798  contract Call{\r... */\n  mstore(0x40, 0x80)\n  callvalue\n  dup1\n  iszero\n  tag_1\n  jumpi\n  0x00\n  dup1\n  revert\ntag_1:\n  pop\n  dataSize(sub_0)\n  dup1\n  dataOffset(sub_0)\n  0x00\n  codecopy\n  0x00\n  return\nstop\n\nsub_0: assembly {\n        /* \"call/Call.sol\":58:798  contract Call{\r... */\n      mstore(0x40, 0x80)\n      jumpi(tag_1, lt(calldatasize, 0x04))\n      shr(0xe0, calldataload(0x00))\n      dup1\n      0x3ca065bb\n      eq\n      tag_2\n      jumpi\n      dup1\n      0x66563e69\n      eq\n      tag_3\n      jumpi\n      dup1\n      0x7e260ffd\n      eq\n      tag_4\n      jumpi\n    tag_1:\n      0x00\n      dup1\n      revert\n        /* \"call/Call.sol\":126:335  function callSetX(address payable _addr,uint x) public payable{\r... */\n    tag_2:\n      tag_5\n      0x04\n      dup1\n      calldatasize\n      sub\n      dup2\n      add\n      swap1\n      tag_6\n      swap2\n      swap1\n      tag_7\n      jump\t// in\n    tag_6:\n      tag_8\n      jump\t// in\n    tag_5:\n      stop\n        /* \"call/Call.sol\":343:610  function callGetX(address _addr) external returns(uint){\r... */\n    tag_3:\n      callvalue\n      dup1\n      iszero\n      tag_9\n      jumpi\n      0x00\n      dup1\n      revert\n    tag_9:\n      pop\n      tag_10\n      0x04\n      dup1\n      calldatasize\n      sub\n      dup2\n      add\n      swap1\n      tag_11\n      swap2\n      swap1\n      tag_12\n      jump\t// in\n    tag_11:\n      tag_13\n      jump\t// in\n    tag_10:\n      mload(0x40)\n      tag_14\n      swap2\n      swap1\n      tag_15\n      jump\t// in\n    tag_14:\n      mload(0x40)\n      dup1\n      swap2\n      sub\n      swap1\n      return\n        /* \"call/Call.sol\":620:795  function callNone(address _addr) external{\r... */\n    tag_4:\n      callvalue\n      dup1\n      iszero\n      tag_16\n      jumpi\n      0x00\n      dup1\n      revert\n    tag_16:\n      pop\n      tag_17\n      0x04\n      dup1\n      calldatasize\n      sub\n      dup2\n      add\n      swap1\n      tag_18\n      swap2\n      swap1\n      tag_12\n      jump\t// in\n    tag_18:\n      tag_19\n      jump\t// in\n    tag_17:\n      stop\n        /* \"call/Call.sol\":126:335  function callSetX(address payable _addr,uint x) public payable{\r... */\n    tag_8:\n        /* \"call/Call.sol\":200:212  bool success */\n      0x00\n        /* \"call/Call.sol\":213:230  bytes memory data */\n      dup1\n        /* \"call/Call.sol\":234:239  _addr */\n      dup4\n        /* \"call/Call.sol\":234:244  _addr.call */\n      0xffffffffffffffffffffffffffffffffffffffff\n      and\n        /* \"call/Call.sol\":251:260  msg.value */\n      callvalue\n        /* \"call/Call.sol\":314:315  x */\n      dup5\n        /* \"call/Call.sol\":276:316  abi.encodeWithSignature(\"set_X(uint)\",x) */\n      add(0x24, mload(0x40))\n      tag_21\n      swap2\n      swap1\n      tag_15\n      jump\t// in\n    tag_21:\n      mload(0x40)\n      0x20\n      dup2\n      dup4\n      sub\n      sub\n      dup2\n      mstore\n      swap1\n      0x40\n      mstore\n      and(not(0xffffffffffffffffffffffffffffffffffffffffffffffffffffffff), 0x33a0899e00000000000000000000000000000000000000000000000000000000)\n      0x20\n      dup3\n      add\n      dup1\n      mload\n      0xffffffffffffffffffffffffffffffffffffffffffffffffffffffff\n      dup4\n      dup2\n      dup4\n      and\n      or\n      dup4\n      mstore\n      pop\n      pop\n      pop\n      pop\n        /* \"call/Call.sol\":234:327  _addr.call{value:msg.value}(\r... */\n      mload(0x40)\n      tag_22\n      swap2\n      swap1\n      tag_23\n      jump\t// in\n    tag_22:\n      0x00\n      mload(0x40)\n      dup1\n      dup4\n      sub\n      dup2\n      dup6\n      dup8\n      gas\n      call\n      swap3\n      pop\n      pop\n      pop\n      returndatasize\n      dup1\n      0x00\n      dup2\n      eq\n      tag_26\n      jumpi\n      mload(0x40)\n      swap2\n      pop\n      and(add(returndatasize, 0x3f), not(0x1f))\n      dup3\n      add\n      0x40\n      mstore\n      returndatasize\n      dup3\n      mstore\n      returndatasize\n      0x00\n      0x20\n      dup5\n      add\n      returndatacopy\n      jump(tag_25)\n    tag_26:\n      0x60\n      swap2\n      pop\n    tag_25:\n      pop\n        /* \"call/Call.sol\":199:327  (bool success,bytes memory data) = _addr.call{value:msg.value}(\r... */\n      swap2\n      pop\n      swap2\n      pop\n        /* \"call/Call.sol\":188:335  {\r... */\n      pop\n      pop\n        /* \"call/Call.sol\":126:335  function callSetX(address payable _addr,uint x) public payable{\r... */\n      pop\n      pop\n      jump\t// out\n        /* \"call/Call.sol\":343:610  function callGetX(address _addr) external returns(uint){\r... */\n    tag_13:\n        /* \"call/Call.sol\":393:397  uint */\n      0x00\n        /* \"call/Call.sol\":410:422  bool success */\n      dup1\n        /* \"call/Call.sol\":423:440  bytes memory data */\n      0x00\n        /* \"call/Call.sol\":444:449  _addr */\n      dup4\n        /* \"call/Call.sol\":444:454  _addr.call */\n      0xffffffffffffffffffffffffffffffffffffffff\n      and\n        /* \"call/Call.sol\":469:502  abi.encodeWithSignature(\"getX()\") */\n      add(0x24, mload(0x40))\n      mload(0x40)\n      0x20\n      dup2\n      dup4\n      sub\n      sub\n      dup2\n      mstore\n      swap1\n      0x40\n      mstore\n      and(not(0xffffffffffffffffffffffffffffffffffffffffffffffffffffffff), 0x5197c7aa00000000000000000000000000000000000000000000000000000000)\n      0x20\n      dup3\n      add\n      dup1\n      mload\n      0xffffffffffffffffffffffffffffffffffffffffffffffffffffffff\n      dup4\n      dup2\n      dup4\n      and\n      or\n      dup4\n      mstore\n      pop\n      pop\n      pop\n      pop\n        /* \"call/Call.sol\":444:513  _addr.call(\r... */\n      mload(0x40)\n      tag_28\n      swap2\n      swap1\n      tag_23\n      jump\t// in\n    tag_28:\n      0x00\n      mload(0x40)\n      dup1\n      dup4\n      sub\n      dup2\n      0x00\n      dup7\n      gas\n      call\n      swap2\n      pop\n      pop\n      returndatasize\n      dup1\n      0x00\n      dup2\n      eq\n      tag_31\n      jumpi\n      mload(0x40)\n      swap2\n      pop\n      and(add(returndatasize, 0x3f), not(0x1f))\n      dup3\n      add\n      0x40\n      mstore\n      returndatasize\n      dup3\n      mstore\n      returndatasize\n      0x00\n      0x20\n      dup5\n      add\n      returndatacopy\n      jump(tag_30)\n    tag_31:\n      0x60\n      swap2\n      pop\n    tag_30:\n      pop\n        /* \"call/Call.sol\":409:513  (bool success,bytes memory data) = _addr.call(\r... */\n      swap2\n      pop\n      swap2\n      pop\n        /* \"call/Call.sol\":539:561  Response(success,data) */\n      0x13848c3e38f8886f3f5d2ad9dff80d8092c2bbb8efd5b887a99c2c6cfc09ac2a\n        /* \"call/Call.sol\":548:555  success */\n      dup3\n        /* \"call/Call.sol\":556:560  data */\n      dup3\n        /* \"call/Call.sol\":539:561  Response(success,data) */\n      mload(0x40)\n      tag_32\n      swap3\n      swap2\n      swap1\n      tag_33\n      jump\t// in\n    tag_32:\n      mload(0x40)\n      dup1\n      swap2\n      sub\n      swap1\n      log1\n        /* \"call/Call.sol\":590:594  data */\n      dup1\n        /* \"call/Call.sol\":579:602  abi.decode(data,(uint)) */\n      dup1\n      0x20\n      add\n      swap1\n      mload\n      dup2\n      add\n      swap1\n      tag_34\n      swap2\n      swap1\n      tag_35\n      jump\t// in\n    tag_34:\n        /* \"call/Call.sol\":572:602  return abi.decode(data,(uint)) */\n      swap3\n      pop\n      pop\n      pop\n        /* \"call/Call.sol\":343:610  function callGetX(address _addr) external returns(uint){\r... */\n      swap2\n      swap1\n      pop\n      jump\t// out\n        /* \"call/Call.sol\":620:795  function callNone(address _addr) external{\r... */\n    tag_19:\n        /* \"call/Call.sol\":673:685  bool success */\n      0x00\n        /* \"call/Call.sol\":686:703  bytes memory data */\n      dup1\n        /* \"call/Call.sol\":707:712  _addr */\n      dup3\n        /* \"call/Call.sol\":707:717  _addr.call */\n      0xffffffffffffffffffffffffffffffffffffffff\n      and\n        /* \"call/Call.sol\":732:764  abi.encodeWithSignature(\"FOO()\") */\n      add(0x24, mload(0x40))\n      mload(0x40)\n      0x20\n      dup2\n      dup4\n      sub\n      sub\n      dup2\n      mstore\n      swap1\n      0x40\n      mstore\n      and(not(0xffffffffffffffffffffffffffffffffffffffffffffffffffffffff), 0xbe82b41f00000000000000000000000000000000000000000000000000000000)\n      0x20\n      dup3\n      add\n      dup1\n      mload\n      0xffffffffffffffffffffffffffffffffffffffffffffffffffffffff\n      dup4\n      dup2\n      dup4\n      and\n      or\n      dup4\n      mstore\n      pop\n      pop\n      pop\n      pop\n        /* \"call/Call.sol\":707:775  _addr.call(\r... */\n      mload(0x40)\n      tag_37\n      swap2\n      swap1\n      tag_23\n      jump\t// in\n    tag_37:\n      0x00\n      mload(0x40)\n      dup1\n      dup4\n      sub\n      dup2\n      0x00\n      dup7\n      gas\n      call\n      swap2\n      pop\n      pop\n      returndatasize\n      dup1\n      0x00\n      dup2\n      eq\n      tag_40\n      jumpi\n      mload(0x40)\n      swap2\n      pop\n      and(add(returndatasize, 0x3f), not(0x1f))\n      dup3\n      add\n      0x40\n      mstore\n      returndatasize\n      dup3\n      mstore\n      returndatasize\n      0x00\n      0x20\n      dup5\n      add\n      returndatacopy\n      jump(tag_39)\n    tag_40:\n      0x60\n      swap2\n      pop\n    tag_39:\n      pop\n        /* \"call/Call.sol\":672:775  (bool success,bytes memory data) = _addr.call(\r... */\n      swap2\n      pop\n      swap2\n      pop\n        /* \"call/Call.sol\":661:795  {\r... */\n      pop\n      pop\n        /* \"call/Call.sol\":620:795  function callNone(address _addr) external{\r... */\n      pop\n      jump\t// out\n        /* \"#utility.yul\":7:146   */\n    tag_42:\n        /* \"#utility.yul\":53:58   */\n      0x00\n        /* \"#utility.yul\":91:97   */\n      dup2\n        /* \"#utility.yul\":78:98   */\n      calldataload\n        /* \"#utility.yul\":69:98   */\n      swap1\n      pop\n        /* \"#utility.yul\":107:140   */\n      tag_44\n        /* \"#utility.yul\":134:139   */\n      dup2\n        /* \"#utility.yul\":107:140   */\n      tag_45\n      jump\t// in\n    tag_44:\n        /* \"#utility.yul\":7:146   */\n      swap3\n      swap2\n      pop\n      pop\n      jump\t// out\n        /* \"#utility.yul\":152:307   */\n    tag_46:\n        /* \"#utility.yul\":206:211   */\n      0x00\n        /* \"#utility.yul\":244:250   */\n      dup2\n        /* \"#utility.yul\":231:251   */\n      calldataload\n        /* \"#utility.yul\":222:251   */\n      swap1\n      pop\n        /* \"#utility.yul\":260:301   */\n      tag_48\n        /* \"#utility.yul\":295:300   */\n      dup2\n        /* \"#utility.yul\":260:301   */\n      tag_49\n      jump\t// in\n    tag_48:\n        /* \"#utility.yul\":152:307   */\n      swap3\n      swap2\n      pop\n      pop\n      jump\t// out\n        /* \"#utility.yul\":313:452   */\n    tag_50:\n        /* \"#utility.yul\":359:364   */\n      0x00\n        /* \"#utility.yul\":397:403   */\n      dup2\n        /* \"#utility.yul\":384:404   */\n      calldataload\n        /* \"#utility.yul\":375:404   */\n      swap1\n      pop\n        /* \"#utility.yul\":413:446   */\n      tag_52\n        /* \"#utility.yul\":440:445   */\n      dup2\n        /* \"#utility.yul\":413:446   */\n      tag_53\n      jump\t// in\n    tag_52:\n        /* \"#utility.yul\":313:452   */\n      swap3\n      swap2\n      pop\n      pop\n      jump\t// out\n        /* \"#utility.yul\":458:601   */\n    tag_54:\n        /* \"#utility.yul\":515:520   */\n      0x00\n        /* \"#utility.yul\":546:552   */\n      dup2\n        /* \"#utility.yul\":540:553   */\n      mload\n        /* \"#utility.yul\":531:553   */\n      swap1\n      pop\n        /* \"#utility.yul\":562:595   */\n      tag_56\n        /* \"#utility.yul\":589:594   */\n      dup2\n        /* \"#utility.yul\":562:595   */\n      tag_53\n      jump\t// in\n    tag_56:\n        /* \"#utility.yul\":458:601   */\n      swap3\n      swap2\n      pop\n      pop\n      jump\t// out\n        /* \"#utility.yul\":607:936   */\n    tag_12:\n        /* \"#utility.yul\":666:672   */\n      0x00\n        /* \"#utility.yul\":715:717   */\n      0x20\n        /* \"#utility.yul\":703:712   */\n      dup3\n        /* \"#utility.yul\":694:701   */\n      dup5\n        /* \"#utility.yul\":690:713   */\n      sub\n        /* \"#utility.yul\":686:718   */\n      slt\n        /* \"#utility.yul\":683:802   */\n      iszero\n      tag_58\n      jumpi\n        /* \"#utility.yul\":721:800   */\n      tag_59\n      tag_60\n      jump\t// in\n    tag_59:\n        /* \"#utility.yul\":683:802   */\n    tag_58:\n        /* \"#utility.yul\":841:842   */\n      0x00\n        /* \"#utility.yul\":866:919   */\n      tag_61\n        /* \"#utility.yul\":911:918   */\n      dup5\n        /* \"#utility.yul\":902:908   */\n      dup3\n        /* \"#utility.yul\":891:900   */\n      dup6\n        /* \"#utility.yul\":887:909   */\n      add\n        /* \"#utility.yul\":866:919   */\n      tag_42\n      jump\t// in\n    tag_61:\n        /* \"#utility.yul\":856:919   */\n      swap2\n      pop\n        /* \"#utility.yul\":812:929   */\n      pop\n        /* \"#utility.yul\":607:936   */\n      swap3\n      swap2\n      pop\n      pop\n      jump\t// out\n        /* \"#utility.yul\":942:1432   */\n    tag_7:\n        /* \"#utility.yul\":1018:1024   */\n      0x00\n        /* \"#utility.yul\":1026:1032   */\n      dup1\n        /* \"#utility.yul\":1075:1077   */\n      0x40\n        /* \"#utility.yul\":1063:1072   */\n      dup4\n        /* \"#utility.yul\":1054:1061   */\n      dup6\n        /* \"#utility.yul\":1050:1073   */\n      sub\n        /* \"#utility.yul\":1046:1078   */\n      slt\n        /* \"#utility.yul\":1043:1162   */\n      iszero\n      tag_63\n      jumpi\n        /* \"#utility.yul\":1081:1160   */\n      tag_64\n      tag_60\n      jump\t// in\n    tag_64:\n        /* \"#utility.yul\":1043:1162   */\n    tag_63:\n        /* \"#utility.yul\":1201:1202   */\n      0x00\n        /* \"#utility.yul\":1226:1287   */\n      tag_65\n        /* \"#utility.yul\":1279:1286   */\n      dup6\n        /* \"#utility.yul\":1270:1276   */\n      dup3\n        /* \"#utility.yul\":1259:1268   */\n      dup7\n        /* \"#utility.yul\":1255:1277   */\n      add\n        /* \"#utility.yul\":1226:1287   */\n      tag_46\n      jump\t// in\n    tag_65:\n        /* \"#utility.yul\":1216:1287   */\n      swap3\n      pop\n        /* \"#utility.yul\":1172:1297   */\n      pop\n        /* \"#utility.yul\":1336:1338   */\n      0x20\n        /* \"#utility.yul\":1362:1415   */\n      tag_66\n        /* \"#utility.yul\":1407:1414   */\n      dup6\n        /* \"#utility.yul\":1398:1404   */\n      dup3\n        /* \"#utility.yul\":1387:1396   */\n      dup7\n        /* \"#utility.yul\":1383:1405   */\n      add\n        /* \"#utility.yul\":1362:1415   */\n      tag_50\n      jump\t// in\n    tag_66:\n        /* \"#utility.yul\":1352:1415   */\n      swap2\n      pop\n        /* \"#utility.yul\":1307:1425   */\n      pop\n        /* \"#utility.yul\":942:1432   */\n      swap3\n      pop\n      swap3\n      swap1\n      pop\n      jump\t// out\n        /* \"#utility.yul\":1438:1789   */\n    tag_35:\n        /* \"#utility.yul\":1508:1514   */\n      0x00\n        /* \"#utility.yul\":1557:1559   */\n      0x20\n        /* \"#utility.yul\":1545:1554   */\n      dup3\n        /* \"#utility.yul\":1536:1543   */\n      dup5\n        /* \"#utility.yul\":1532:1555   */\n      sub\n        /* \"#utility.yul\":1528:1560   */\n      slt\n        /* \"#utility.yul\":1525:1644   */\n      iszero\n      tag_68\n      jumpi\n        /* \"#utility.yul\":1563:1642   */\n      tag_69\n      tag_60\n      jump\t// in\n    tag_69:\n        /* \"#utility.yul\":1525:1644   */\n    tag_68:\n        /* \"#utility.yul\":1683:1684   */\n      0x00\n        /* \"#utility.yul\":1708:1772   */\n      tag_70\n        /* \"#utility.yul\":1764:1771   */\n      dup5\n        /* \"#utility.yul\":1755:1761   */\n      dup3\n        /* \"#utility.yul\":1744:1753   */\n      dup6\n        /* \"#utility.yul\":1740:1762   */\n      add\n        /* \"#utility.yul\":1708:1772   */\n      tag_54\n      jump\t// in\n    tag_70:\n        /* \"#utility.yul\":1698:1772   */\n      swap2\n      pop\n        /* \"#utility.yul\":1654:1782   */\n      pop\n        /* \"#utility.yul\":1438:1789   */\n      swap3\n      swap2\n      pop\n      pop\n      jump\t// out\n        /* \"#utility.yul\":1795:1904   */\n    tag_71:\n        /* \"#utility.yul\":1876:1897   */\n      tag_73\n        /* \"#utility.yul\":1891:1896   */\n      dup2\n        /* \"#utility.yul\":1876:1897   */\n      tag_74\n      jump\t// in\n    tag_73:\n        /* \"#utility.yul\":1871:1874   */\n      dup3\n        /* \"#utility.yul\":1864:1898   */\n      mstore\n        /* \"#utility.yul\":1795:1904   */\n      pop\n      pop\n      jump\t// out\n        /* \"#utility.yul\":1910:2270   */\n    tag_75:\n        /* \"#utility.yul\":1996:1999   */\n      0x00\n        /* \"#utility.yul\":2024:2062   */\n      tag_77\n        /* \"#utility.yul\":2056:2061   */\n      dup3\n        /* \"#utility.yul\":2024:2062   */\n      tag_78\n      jump\t// in\n    tag_77:\n        /* \"#utility.yul\":2078:2148   */\n      tag_79\n        /* \"#utility.yul\":2141:2147   */\n      dup2\n        /* \"#utility.yul\":2136:2139   */\n      dup6\n        /* \"#utility.yul\":2078:2148   */\n      tag_80\n      jump\t// in\n    tag_79:\n        /* \"#utility.yul\":2071:2148   */\n      swap4\n      pop\n        /* \"#utility.yul\":2157:2209   */\n      tag_81\n        /* \"#utility.yul\":2202:2208   */\n      dup2\n        /* \"#utility.yul\":2197:2200   */\n      dup6\n        /* \"#utility.yul\":2190:2194   */\n      0x20\n        /* \"#utility.yul\":2183:2188   */\n      dup7\n        /* \"#utility.yul\":2179:2195   */\n      add\n        /* \"#utility.yul\":2157:2209   */\n      tag_82\n      jump\t// in\n    tag_81:\n        /* \"#utility.yul\":2234:2263   */\n      tag_83\n        /* \"#utility.yul\":2256:2262   */\n      dup2\n        /* \"#utility.yul\":2234:2263   */\n      tag_84\n      jump\t// in\n    tag_83:\n        /* \"#utility.yul\":2229:2232   */\n      dup5\n        /* \"#utility.yul\":2225:2264   */\n      add\n        /* \"#utility.yul\":2218:2264   */\n      swap2\n      pop\n        /* \"#utility.yul\":2000:2270   */\n      pop\n        /* \"#utility.yul\":1910:2270   */\n      swap3\n      swap2\n      pop\n      pop\n      jump\t// out\n        /* \"#utility.yul\":2276:2649   */\n    tag_85:\n        /* \"#utility.yul\":2380:2383   */\n      0x00\n        /* \"#utility.yul\":2408:2446   */\n      tag_87\n        /* \"#utility.yul\":2440:2445   */\n      dup3\n        /* \"#utility.yul\":2408:2446   */\n      tag_78\n      jump\t// in\n    tag_87:\n        /* \"#utility.yul\":2462:2550   */\n      tag_88\n        /* \"#utility.yul\":2543:2549   */\n      dup2\n        /* \"#utility.yul\":2538:2541   */\n      dup6\n        /* \"#utility.yul\":2462:2550   */\n      tag_89\n      jump\t// in\n    tag_88:\n        /* \"#utility.yul\":2455:2550   */\n      swap4\n      pop\n        /* \"#utility.yul\":2559:2611   */\n      tag_90\n        /* \"#utility.yul\":2604:2610   */\n      dup2\n        /* \"#utility.yul\":2599:2602   */\n      dup6\n        /* \"#utility.yul\":2592:2596   */\n      0x20\n        /* \"#utility.yul\":2585:2590   */\n      dup7\n        /* \"#utility.yul\":2581:2597   */\n      add\n        /* \"#utility.yul\":2559:2611   */\n      tag_82\n      jump\t// in\n    tag_90:\n        /* \"#utility.yul\":2636:2642   */\n      dup1\n        /* \"#utility.yul\":2631:2634   */\n      dup5\n        /* \"#utility.yul\":2627:2643   */\n      add\n        /* \"#utility.yul\":2620:2643   */\n      swap2\n      pop\n        /* \"#utility.yul\":2384:2649   */\n      pop\n        /* \"#utility.yul\":2276:2649   */\n      swap3\n      swap2\n      pop\n      pop\n      jump\t// out\n        /* \"#utility.yul\":2655:2773   */\n    tag_91:\n        /* \"#utility.yul\":2742:2766   */\n      tag_93\n        /* \"#utility.yul\":2760:2765   */\n      dup2\n        /* \"#utility.yul\":2742:2766   */\n      tag_94\n      jump\t// in\n    tag_93:\n        /* \"#utility.yul\":2737:2740   */\n      dup3\n        /* \"#utility.yul\":2730:2767   */\n      mstore\n        /* \"#utility.yul\":2655:2773   */\n      pop\n      pop\n      jump\t// out\n        /* \"#utility.yul\":2779:3050   */\n    tag_23:\n        /* \"#utility.yul\":2909:2912   */\n      0x00\n        /* \"#utility.yul\":2931:3024   */\n      tag_96\n        /* \"#utility.yul\":3020:3023   */\n      dup3\n        /* \"#utility.yul\":3011:3017   */\n      dup5\n        /* \"#utility.yul\":2931:3024   */\n      tag_85\n      jump\t// in\n    tag_96:\n        /* \"#utility.yul\":2924:3024   */\n      swap2\n      pop\n        /* \"#utility.yul\":3041:3044   */\n      dup2\n        /* \"#utility.yul\":3034:3044   */\n      swap1\n      pop\n        /* \"#utility.yul\":2779:3050   */\n      swap3\n      swap2\n      pop\n      pop\n      jump\t// out\n        /* \"#utility.yul\":3056:3463   */\n    tag_33:\n        /* \"#utility.yul\":3189:3193   */\n      0x00\n        /* \"#utility.yul\":3227:3229   */\n      0x40\n        /* \"#utility.yul\":3216:3225   */\n      dup3\n        /* \"#utility.yul\":3212:3230   */\n      add\n        /* \"#utility.yul\":3204:3230   */\n      swap1\n      pop\n        /* \"#utility.yul\":3240:3305   */\n      tag_98\n        /* \"#utility.yul\":3302:3303   */\n      0x00\n        /* \"#utility.yul\":3291:3300   */\n      dup4\n        /* \"#utility.yul\":3287:3304   */\n      add\n        /* \"#utility.yul\":3278:3284   */\n      dup6\n        /* \"#utility.yul\":3240:3305   */\n      tag_71\n      jump\t// in\n    tag_98:\n        /* \"#utility.yul\":3352:3361   */\n      dup2\n        /* \"#utility.yul\":3346:3350   */\n      dup2\n        /* \"#utility.yul\":3342:3362   */\n      sub\n        /* \"#utility.yul\":3337:3339   */\n      0x20\n        /* \"#utility.yul\":3326:3335   */\n      dup4\n        /* \"#utility.yul\":3322:3340   */\n      add\n        /* \"#utility.yul\":3315:3363   */\n      mstore\n        /* \"#utility.yul\":3380:3456   */\n      tag_99\n        /* \"#utility.yul\":3451:3455   */\n      dup2\n        /* \"#utility.yul\":3442:3448   */\n      dup5\n        /* \"#utility.yul\":3380:3456   */\n      tag_75\n      jump\t// in\n    tag_99:\n        /* \"#utility.yul\":3372:3456   */\n      swap1\n      pop\n        /* \"#utility.yul\":3056:3463   */\n      swap4\n      swap3\n      pop\n      pop\n      pop\n      jump\t// out\n        /* \"#utility.yul\":3469:3691   */\n    tag_15:\n        /* \"#utility.yul\":3562:3566   */\n      0x00\n        /* \"#utility.yul\":3600:3602   */\n      0x20\n        /* \"#utility.yul\":3589:3598   */\n      dup3\n        /* \"#utility.yul\":3585:3603   */\n      add\n        /* \"#utility.yul\":3577:3603   */\n      swap1\n      pop\n        /* \"#utility.yul\":3613:3684   */\n      tag_101\n        /* \"#utility.yul\":3681:3682   */\n      0x00\n        /* \"#utility.yul\":3670:3679   */\n      dup4\n        /* \"#utility.yul\":3666:3683   */\n      add\n        /* \"#utility.yul\":3657:3663   */\n      dup5\n        /* \"#utility.yul\":3613:3684   */\n      tag_91\n      jump\t// in\n    tag_101:\n        /* \"#utility.yul\":3469:3691   */\n      swap3\n      swap2\n      pop\n      pop\n      jump\t// out\n        /* \"#utility.yul\":3778:3876   */\n    tag_78:\n        /* \"#utility.yul\":3829:3835   */\n      0x00\n        /* \"#utility.yul\":3863:3868   */\n      dup2\n        /* \"#utility.yul\":3857:3869   */\n      mload\n        /* \"#utility.yul\":3847:3869   */\n      swap1\n      pop\n        /* \"#utility.yul\":3778:3876   */\n      swap2\n      swap1\n      pop\n      jump\t// out\n        /* \"#utility.yul\":3882:4050   */\n    tag_80:\n        /* \"#utility.yul\":3965:3976   */\n      0x00\n        /* \"#utility.yul\":3999:4005   */\n      dup3\n        /* \"#utility.yul\":3994:3997   */\n      dup3\n        /* \"#utility.yul\":3987:4006   */\n      mstore\n        /* \"#utility.yul\":4039:4043   */\n      0x20\n        /* \"#utility.yul\":4034:4037   */\n      dup3\n        /* \"#utility.yul\":4030:4044   */\n      add\n        /* \"#utility.yul\":4015:4044   */\n      swap1\n      pop\n        /* \"#utility.yul\":3882:4050   */\n      swap3\n      swap2\n      pop\n      pop\n      jump\t// out\n        /* \"#utility.yul\":4056:4203   */\n    tag_89:\n        /* \"#utility.yul\":4157:4168   */\n      0x00\n        /* \"#utility.yul\":4194:4197   */\n      dup2\n        /* \"#utility.yul\":4179:4197   */\n      swap1\n      pop\n        /* \"#utility.yul\":4056:4203   */\n      swap3\n      swap2\n      pop\n      pop\n      jump\t// out\n        /* \"#utility.yul\":4209:4305   */\n    tag_107:\n        /* \"#utility.yul\":4246:4253   */\n      0x00\n        /* \"#utility.yul\":4275:4299   */\n      tag_109\n        /* \"#utility.yul\":4293:4298   */\n      dup3\n        /* \"#utility.yul\":4275:4299   */\n      tag_110\n      jump\t// in\n    tag_109:\n        /* \"#utility.yul\":4264:4299   */\n      swap1\n      pop\n        /* \"#utility.yul\":4209:4305   */\n      swap2\n      swap1\n      pop\n      jump\t// out\n        /* \"#utility.yul\":4311:4415   */\n    tag_111:\n        /* \"#utility.yul\":4356:4363   */\n      0x00\n        /* \"#utility.yul\":4385:4409   */\n      tag_113\n        /* \"#utility.yul\":4403:4408   */\n      dup3\n        /* \"#utility.yul\":4385:4409   */\n      tag_110\n      jump\t// in\n    tag_113:\n        /* \"#utility.yul\":4374:4409   */\n      swap1\n      pop\n        /* \"#utility.yul\":4311:4415   */\n      swap2\n      swap1\n      pop\n      jump\t// out\n        /* \"#utility.yul\":4421:4511   */\n    tag_74:\n        /* \"#utility.yul\":4455:4462   */\n      0x00\n        /* \"#utility.yul\":4498:4503   */\n      dup2\n        /* \"#utility.yul\":4491:4504   */\n      iszero\n        /* \"#utility.yul\":4484:4505   */\n      iszero\n        /* \"#utility.yul\":4473:4505   */\n      swap1\n      pop\n        /* \"#utility.yul\":4421:4511   */\n      swap2\n      swap1\n      pop\n      jump\t// out\n        /* \"#utility.yul\":4517:4643   */\n    tag_110:\n        /* \"#utility.yul\":4554:4561   */\n      0x00\n        /* \"#utility.yul\":4594:4636   */\n      0xffffffffffffffffffffffffffffffffffffffff\n        /* \"#utility.yul\":4587:4592   */\n      dup3\n        /* \"#utility.yul\":4583:4637   */\n      and\n        /* \"#utility.yul\":4572:4637   */\n      swap1\n      pop\n        /* \"#utility.yul\":4517:4643   */\n      swap2\n      swap1\n      pop\n      jump\t// out\n        /* \"#utility.yul\":4649:4726   */\n    tag_94:\n        /* \"#utility.yul\":4686:4693   */\n      0x00\n        /* \"#utility.yul\":4715:4720   */\n      dup2\n        /* \"#utility.yul\":4704:4720   */\n      swap1\n      pop\n        /* \"#utility.yul\":4649:4726   */\n      swap2\n      swap1\n      pop\n      jump\t// out\n        /* \"#utility.yul\":4732:5039   */\n    tag_82:\n        /* \"#utility.yul\":4800:4801   */\n      0x00\n        /* \"#utility.yul\":4810:4923   */\n    tag_118:\n        /* \"#utility.yul\":4824:4830   */\n      dup4\n        /* \"#utility.yul\":4821:4822   */\n      dup2\n        /* \"#utility.yul\":4818:4831   */\n      lt\n        /* \"#utility.yul\":4810:4923   */\n      iszero\n      tag_120\n      jumpi\n        /* \"#utility.yul\":4909:4910   */\n      dup1\n        /* \"#utility.yul\":4904:4907   */\n      dup3\n        /* \"#utility.yul\":4900:4911   */\n      add\n        /* \"#utility.yul\":4894:4912   */\n      mload\n        /* \"#utility.yul\":4890:4891   */\n      dup2\n        /* \"#utility.yul\":4885:4888   */\n      dup5\n        /* \"#utility.yul\":4881:4892   */\n      add\n        /* \"#utility.yul\":4874:4913   */\n      mstore\n        /* \"#utility.yul\":4846:4848   */\n      0x20\n        /* \"#utility.yul\":4843:4844   */\n      dup2\n        /* \"#utility.yul\":4839:4849   */\n      add\n        /* \"#utility.yul\":4834:4849   */\n      swap1\n      pop\n        /* \"#utility.yul\":4810:4923   */\n      jump(tag_118)\n    tag_120:\n        /* \"#utility.yul\":4941:4947   */\n      dup4\n        /* \"#utility.yul\":4938:4939   */\n      dup2\n        /* \"#utility.yul\":4935:4948   */\n      gt\n        /* \"#utility.yul\":4932:5033   */\n      iszero\n      tag_121\n      jumpi\n        /* \"#utility.yul\":5021:5022   */\n      0x00\n        /* \"#utility.yul\":5012:5018   */\n      dup5\n        /* \"#utility.yul\":5007:5010   */\n      dup5\n        /* \"#utility.yul\":5003:5019   */\n      add\n        /* \"#utility.yul\":4996:5023   */\n      mstore\n        /* \"#utility.yul\":4932:5033   */\n    tag_121:\n        /* \"#utility.yul\":4781:5039   */\n      pop\n        /* \"#utility.yul\":4732:5039   */\n      pop\n      pop\n      pop\n      jump\t// out\n        /* \"#utility.yul\":5168:5285   */\n    tag_60:\n        /* \"#utility.yul\":5277:5278   */\n      0x00\n        /* \"#utility.yul\":5274:5275   */\n      dup1\n        /* \"#utility.yul\":5267:5279   */\n      revert\n        /* \"#utility.yul\":5291:5393   */\n    tag_84:\n        /* \"#utility.yul\":5332:5338   */\n      0x00\n        /* \"#utility.yul\":5383:5385   */\n      0x1f\n        /* \"#utility.yul\":5379:5386   */\n      not\n        /* \"#utility.yul\":5374:5376   */\n      0x1f\n        /* \"#utility.yul\":5367:5372   */\n      dup4\n        /* \"#utility.yul\":5363:5377   */\n      add\n        /* \"#utility.yul\":5359:5387   */\n      and\n        /* \"#utility.yul\":5349:5387   */\n      swap1\n      pop\n        /* \"#utility.yul\":5291:5393   */\n      swap2\n      swap1\n      pop\n      jump\t// out\n        /* \"#utility.yul\":5399:5521   */\n    tag_45:\n        /* \"#utility.yul\":5472:5496   */\n      tag_127\n        /* \"#utility.yul\":5490:5495   */\n      dup2\n        /* \"#utility.yul\":5472:5496   */\n      tag_107\n      jump\t// in\n    tag_127:\n        /* \"#utility.yul\":5465:5470   */\n      dup2\n        /* \"#utility.yul\":5462:5497   */\n      eq\n        /* \"#utility.yul\":5452:5515   */\n      tag_128\n      jumpi\n        /* \"#utility.yul\":5511:5512   */\n      0x00\n        /* \"#utility.yul\":5508:5509   */\n      dup1\n        /* \"#utility.yul\":5501:5513   */\n      revert\n        /* \"#utility.yul\":5452:5515   */\n    tag_128:\n        /* \"#utility.yul\":5399:5521   */\n      pop\n      jump\t// out\n        /* \"#utility.yul\":5527:5665   */\n    tag_49:\n        /* \"#utility.yul\":5608:5640   */\n      tag_130\n        /* \"#utility.yul\":5634:5639   */\n      dup2\n        /* \"#utility.yul\":5608:5640   */\n      tag_111\n      jump\t// in\n    tag_130:\n        /* \"#utility.yul\":5601:5606   */\n      dup2\n        /* \"#utility.yul\":5598:5641   */\n      eq\n        /* \"#utility.yul\":5588:5659   */\n      tag_131\n      jumpi\n        /* \"#utility.yul\":5655:5656   */\n      0x00\n        /* \"#utility.yul\":5652:5653   */\n      dup1\n        /* \"#utility.yul\":5645:5657   */\n      revert\n        /* \"#utility.yul\":5588:5659   */\n    tag_131:\n        /* \"#utility.yul\":5527:5665   */\n      pop\n      jump\t// out\n        /* \"#utility.yul\":5671:5793   */\n    tag_53:\n        /* \"#utility.yul\":5744:5768   */\n      tag_133\n        /* \"#utility.yul\":5762:5767   */\n      dup2\n        /* \"#utility.yul\":5744:5768   */\n      tag_94\n      jump\t// in\n    tag_133:\n        /* \"#utility.yul\":5737:5742   */\n      dup2\n        /* \"#utility.yul\":5734:5769   */\n      eq\n        /* \"#utility.yul\":5724:5787   */\n      tag_134\n      jumpi\n        /* \"#utility.yul\":5783:5784   */\n      0x00\n        /* \"#utility.yul\":5780:5781   */\n      dup1\n        /* \"#utility.yul\":5773:5785   */\n      revert\n        /* \"#utility.yul\":5724:5787   */\n    tag_134:\n        /* \"#utility.yul\":5671:5793   */\n      pop\n      jump\t// out\n\n    auxdata: 0xa264697066735822122036fb7d207acde2bd8ae5ea9114a9fb05d63ca51eb87ea562ff875643f3fc014664736f6c63430008070033\n}\n",
				"bytecode": {
					"linkReferences": {},
					"object": "608060405234801561001057600080fd5b5061071a806100206000396000f3fe6080604052600436106100345760003560e01c80633ca065bb1461003957806366563e69146100555780637e260ffd14610092575b600080fd5b610053600480360381019061004e919061047e565b6100bb565b005b34801561006157600080fd5b5061007c60048036038101906100779190610451565b6101be565b60405161008991906105ba565b60405180910390f35b34801561009e57600080fd5b506100b960048036038101906100b49190610451565b610307565b005b6000808373ffffffffffffffffffffffffffffffffffffffff1634846040516024016100e791906105ba565b6040516020818303038152906040527f33a0899e000000000000000000000000000000000000000000000000000000007bffffffffffffffffffffffffffffffffffffffffffffffffffffffff19166020820180517bffffffffffffffffffffffffffffffffffffffffffffffffffffffff83818316178352505050506040516101719190610573565b60006040518083038185875af1925050503d80600081146101ae576040519150601f19603f3d011682016040523d82523d6000602084013e6101b3565b606091505b509150915050505050565b60008060008373ffffffffffffffffffffffffffffffffffffffff166040516024016040516020818303038152906040527f5197c7aa000000000000000000000000000000000000000000000000000000007bffffffffffffffffffffffffffffffffffffffffffffffffffffffff19166020820180517bffffffffffffffffffffffffffffffffffffffffffffffffffffffff838183161783525050505060405161026a9190610573565b6000604051808303816000865af19150503d80600081146102a7576040519150601f19603f3d011682016040523d82523d6000602084013e6102ac565b606091505b50915091507f13848c3e38f8886f3f5d2ad9dff80d8092c2bbb8efd5b887a99c2c6cfc09ac2a82826040516102e292919061058a565b60405180910390a1808060200190518101906102fe91906104be565b92505050919050565b6000808273ffffffffffffffffffffffffffffffffffffffff166040516024016040516020818303038152906040527fbe82b41f000000000000000000000000000000000000000000000000000000007bffffffffffffffffffffffffffffffffffffffffffffffffffffffff19166020820180517bffffffffffffffffffffffffffffffffffffffffffffffffffffffff83818316178352505050506040516103b19190610573565b6000604051808303816000865af19150503d80600081146103ee576040519150601f19603f3d011682016040523d82523d6000602084013e6103f3565b606091505b5091509150505050565b60008135905061040c8161069f565b92915050565b600081359050610421816106b6565b92915050565b600081359050610436816106cd565b92915050565b60008151905061044b816106cd565b92915050565b60006020828403121561046757610466610689565b5b6000610475848285016103fd565b91505092915050565b6000806040838503121561049557610494610689565b5b60006104a385828601610412565b92505060206104b485828601610427565b9150509250929050565b6000602082840312156104d4576104d3610689565b5b60006104e28482850161043c565b91505092915050565b6104f481610620565b82525050565b6000610505826105d5565b61050f81856105e0565b935061051f818560208601610656565b6105288161068e565b840191505092915050565b600061053e826105d5565b61054881856105f1565b9350610558818560208601610656565b80840191505092915050565b61056d8161064c565b82525050565b600061057f8284610533565b915081905092915050565b600060408201905061059f60008301856104eb565b81810360208301526105b181846104fa565b90509392505050565b60006020820190506105cf6000830184610564565b92915050565b600081519050919050565b600082825260208201905092915050565b600081905092915050565b60006106078261062c565b9050919050565b60006106198261062c565b9050919050565b60008115159050919050565b600073ffffffffffffffffffffffffffffffffffffffff82169050919050565b6000819050919050565b60005b83811015610674578082015181840152602081019050610659565b83811115610683576000848401525b50505050565b600080fd5b6000601f19601f8301169050919050565b6106a8816105fc565b81146106b357600080fd5b50565b6106bf8161060e565b81146106ca57600080fd5b50565b6106d68161064c565b81146106e157600080fd5b5056fea264697066735822122036fb7d207acde2bd8ae5ea9114a9fb05d63ca51eb87ea562ff875643f3fc014664736f6c63430008070033",
					"opcodes": "PUSH1 0x80 PUSH1 0x40 MSTORE CALLVALUE DUP1 ISZERO PUSH2 0x10 JUMPI PUSH1 0x0 DUP1 REVERT JUMPDEST POP PUSH2 0x71A DUP1 PUSH2 0x20 PUSH1 0x0 CODECOPY PUSH1 0x0 RETURN INVALID PUSH1 0x80 PUSH1 0x40 MSTORE PUSH1 0x4 CALLDATASIZE LT PUSH2 0x34 JUMPI PUSH1 0x0 CALLDATALOAD PUSH1 0xE0 SHR DUP1 PUSH4 0x3CA065BB EQ PUSH2 0x39 JUMPI DUP1 PUSH4 0x66563E69 EQ PUSH2 0x55 JUMPI DUP1 PUSH4 0x7E260FFD EQ PUSH2 0x92 JUMPI JUMPDEST PUSH1 0x0 DUP1 REVERT JUMPDEST PUSH2 0x53 PUSH1 0x4 DUP1 CALLDATASIZE SUB DUP2 ADD SWAP1 PUSH2 0x4E SWAP2 SWAP1 PUSH2 0x47E JUMP JUMPDEST PUSH2 0xBB JUMP JUMPDEST STOP JUMPDEST CALLVALUE DUP1 ISZERO PUSH2 0x61 JUMPI PUSH1 0x0 DUP1 REVERT JUMPDEST POP PUSH2 0x7C PUSH1 0x4 DUP1 CALLDATASIZE SUB DUP2 ADD SWAP1 PUSH2 0x77 SWAP2 SWAP1 PUSH2 0x451 JUMP JUMPDEST PUSH2 0x1BE JUMP JUMPDEST PUSH1 0x40 MLOAD PUSH2 0x89 SWAP2 SWAP1 PUSH2 0x5BA JUMP JUMPDEST PUSH1 0x40 MLOAD DUP1 SWAP2 SUB SWAP1 RETURN JUMPDEST CALLVALUE DUP1 ISZERO PUSH2 0x9E JUMPI PUSH1 0x0 DUP1 REVERT JUMPDEST POP PUSH2 0xB9 PUSH1 0x4 DUP1 CALLDATASIZE SUB DUP2 ADD SWAP1 PUSH2 0xB4 SWAP2 SWAP1 PUSH2 0x451 JUMP JUMPDEST PUSH2 0x307 JUMP JUMPDEST STOP JUMPDEST PUSH1 0x0 DUP1 DUP4 PUSH20 0xFFFFFFFFFFFFFFFFFFFFFFFFFFFFFFFFFFFFFFFF AND CALLVALUE DUP5 PUSH1 0x40 MLOAD PUSH1 0x24 ADD PUSH2 0xE7 SWAP2 SWAP1 PUSH2 0x5BA JUMP JUMPDEST PUSH1 0x40 MLOAD PUSH1 0x20 DUP2 DUP4 SUB SUB DUP2 MSTORE SWAP1 PUSH1 0x40 MSTORE PUSH32 0x33A0899E00000000000000000000000000000000000000000000000000000000 PUSH28 0xFFFFFFFFFFFFFFFFFFFFFFFFFFFFFFFFFFFFFFFFFFFFFFFFFFFFFFFF NOT AND PUSH1 0x20 DUP3 ADD DUP1 MLOAD PUSH28 0xFFFFFFFFFFFFFFFFFFFFFFFFFFFFFFFFFFFFFFFFFFFFFFFFFFFFFFFF DUP4 DUP2 DUP4 AND OR DUP4 MSTORE POP POP POP POP PUSH1 0x40 MLOAD PUSH2 0x171 SWAP2 SWAP1 PUSH2 0x573 JUMP JUMPDEST PUSH1 0x0 PUSH1 0x40 MLOAD DUP1 DUP4 SUB DUP2 DUP6 DUP8 GAS CALL SWAP3 POP POP POP RETURNDATASIZE DUP1 PUSH1 0x0 DUP2 EQ PUSH2 0x1AE JUMPI PUSH1 0x40 MLOAD SWAP2 POP PUSH1 0x1F NOT PUSH1 0x3F RETURNDATASIZE ADD AND DUP3 ADD PUSH1 0x40 MSTORE RETURNDATASIZE DUP3 MSTORE RETURNDATASIZE PUSH1 0x0 PUSH1 0x20 DUP5 ADD RETURNDATACOPY PUSH2 0x1B3 JUMP JUMPDEST PUSH1 0x60 SWAP2 POP JUMPDEST POP SWAP2 POP SWAP2 POP POP POP POP POP JUMP JUMPDEST PUSH1 0x0 DUP1 PUSH1 0x0 DUP4 PUSH20 0xFFFFFFFFFFFFFFFFFFFFFFFFFFFFFFFFFFFFFFFF AND PUSH1 0x40 MLOAD PUSH1 0x24 ADD PUSH1 0x40 MLOAD PUSH1 0x20 DUP2 DUP4 SUB SUB DUP2 MSTORE SWAP1 PUSH1 0x40 MSTORE PUSH32 0x5197C7AA00000000000000000000000000000000000000000000000000000000 PUSH28 0xFFFFFFFFFFFFFFFFFFFFFFFFFFFFFFFFFFFFFFFFFFFFFFFFFFFFFFFF NOT AND PUSH1 0x20 DUP3 ADD DUP1 MLOAD PUSH28 0xFFFFFFFFFFFFFFFFFFFFFFFFFFFFFFFFFFFFFFFFFFFFFFFFFFFFFFFF DUP4 DUP2 DUP4 AND OR DUP4 MSTORE POP POP POP POP PUSH1 0x40 MLOAD PUSH2 0x26A SWAP2 SWAP1 PUSH2 0x573 JUMP JUMPDEST PUSH1 0x0 PUSH1 0x40 MLOAD DUP1 DUP4 SUB DUP2 PUSH1 0x0 DUP7 GAS CALL SWAP2 POP POP RETURNDATASIZE DUP1 PUSH1 0x0 DUP2 EQ PUSH2 0x2A7 JUMPI PUSH1 0x40 MLOAD SWAP2 POP PUSH1 0x1F NOT PUSH1 0x3F RETURNDATASIZE ADD AND DUP3 ADD PUSH1 0x40 MSTORE RETURNDATASIZE DUP3 MSTORE RETURNDATASIZE PUSH1 0x0 PUSH1 0x20 DUP5 ADD RETURNDATACOPY PUSH2 0x2AC JUMP JUMPDEST PUSH1 0x60 SWAP2 POP JUMPDEST POP SWAP2 POP SWAP2 POP PUSH32 0x13848C3E38F8886F3F5D2AD9DFF80D8092C2BBB8EFD5B887A99C2C6CFC09AC2A DUP3 DUP3 PUSH1 0x40 MLOAD PUSH2 0x2E2 SWAP3 SWAP2 SWAP1 PUSH2 0x58A JUMP JUMPDEST PUSH1 0x40 MLOAD DUP1 SWAP2 SUB SWAP1 LOG1 DUP1 DUP1 PUSH1 0x20 ADD SWAP1 MLOAD DUP2 ADD SWAP1 PUSH2 0x2FE SWAP2 SWAP1 PUSH2 0x4BE JUMP JUMPDEST SWAP3 POP POP POP SWAP2 SWAP1 POP JUMP JUMPDEST PUSH1 0x0 DUP1 DUP3 PUSH20 0xFFFFFFFFFFFFFFFFFFFFFFFFFFFFFFFFFFFFFFFF AND PUSH1 0x40 MLOAD PUSH1 0x24 ADD PUSH1 0x40 MLOAD PUSH1 0x20 DUP2 DUP4 SUB SUB DUP2 MSTORE SWAP1 PUSH1 0x40 MSTORE PUSH32 0xBE82B41F00000000000000000000000000000000000000000000000000000000 PUSH28 0xFFFFFFFFFFFFFFFFFFFFFFFFFFFFFFFFFFFFFFFFFFFFFFFFFFFFFFFF NOT AND PUSH1 0x20 DUP3 ADD DUP1 MLOAD PUSH28 0xFFFFFFFFFFFFFFFFFFFFFFFFFFFFFFFFFFFFFFFFFFFFFFFFFFFFFFFF DUP4 DUP2 DUP4 AND OR DUP4 MSTORE POP POP POP POP PUSH1 0x40 MLOAD PUSH2 0x3B1 SWAP2 SWAP1 PUSH2 0x573 JUMP JUMPDEST PUSH1 0x0 PUSH1 0x40 MLOAD DUP1 DUP4 SUB DUP2 PUSH1 0x0 DUP7 GAS CALL SWAP2 POP POP RETURNDATASIZE DUP1 PUSH1 0x0 DUP2 EQ PUSH2 0x3EE JUMPI PUSH1 0x40 MLOAD SWAP2 POP PUSH1 0x1F NOT PUSH1 0x3F RETURNDATASIZE ADD AND DUP3 ADD PUSH1 0x40 MSTORE RETURNDATASIZE DUP3 MSTORE RETURNDATASIZE PUSH1 0x0 PUSH1 0x20 DUP5 ADD RETURNDATACOPY PUSH2 0x3F3 JUMP JUMPDEST PUSH1 0x60 SWAP2 POP JUMPDEST POP SWAP2 POP SWAP2 POP POP POP POP JUMP JUMPDEST PUSH1 0x0 DUP2 CALLDATALOAD SWAP1 POP PUSH2 0x40C DUP2 PUSH2 0x69F JUMP JUMPDEST SWAP3 SWAP2 POP POP JUMP JUMPDEST PUSH1 0x0 DUP2 CALLDATALOAD SWAP1 POP PUSH2 0x421 DUP2 PUSH2 0x6B6 JUMP JUMPDEST SWAP3 SWAP2 POP POP JUMP JUMPDEST PUSH1 0x0 DUP2 CALLDATALOAD SWAP1 POP PUSH2 0x436 DUP2 PUSH2 0x6CD JUMP JUMPDEST SWAP3 SWAP2 POP POP JUMP JUMPDEST PUSH1 0x0 DUP2 MLOAD SWAP1 POP PUSH2 0x44B DUP2 PUSH2 0x6CD JUMP JUMPDEST SWAP3 SWAP2 POP POP JUMP JUMPDEST PUSH1 0x0 PUSH1 0x20 DUP3 DUP5 SUB SLT ISZERO PUSH2 0x467 JUMPI PUSH2 0x466 PUSH2 0x689 JUMP JUMPDEST JUMPDEST PUSH1 0x0 PUSH2 0x475 DUP5 DUP3 DUP6 ADD PUSH2 0x3FD JUMP JUMPDEST SWAP2 POP POP SWAP3 SWAP2 POP POP JUMP JUMPDEST PUSH1 0x0 DUP1 PUSH1 0x40 DUP4 DUP6 SUB SLT ISZERO PUSH2 0x495 JUMPI PUSH2 0x494 PUSH2 0x689 JUMP JUMPDEST JUMPDEST PUSH1 0x0 PUSH2 0x4A3 DUP6 DUP3 DUP7 ADD PUSH2 0x412 JUMP JUMPDEST SWAP3 POP POP PUSH1 0x20 PUSH2 0x4B4 DUP6 DUP3 DUP7 ADD PUSH2 0x427 JUMP JUMPDEST SWAP2 POP POP SWAP3 POP SWAP3 SWAP1 POP JUMP JUMPDEST PUSH1 0x0 PUSH1 0x20 DUP3 DUP5 SUB SLT ISZERO PUSH2 0x4D4 JUMPI PUSH2 0x4D3 PUSH2 0x689 JUMP JUMPDEST JUMPDEST PUSH1 0x0 PUSH2 0x4E2 DUP5 DUP3 DUP6 ADD PUSH2 0x43C JUMP JUMPDEST SWAP2 POP POP SWAP3 SWAP2 POP POP JUMP JUMPDEST PUSH2 0x4F4 DUP2 PUSH2 0x620 JUMP JUMPDEST DUP3 MSTORE POP POP JUMP JUMPDEST PUSH1 0x0 PUSH2 0x505 DUP3 PUSH2 0x5D5 JUMP JUMPDEST PUSH2 0x50F DUP2 DUP6 PUSH2 0x5E0 JUMP JUMPDEST SWAP4 POP PUSH2 0x51F DUP2 DUP6 PUSH1 0x20 DUP7 ADD PUSH2 0x656 JUMP JUMPDEST PUSH2 0x528 DUP2 PUSH2 0x68E JUMP JUMPDEST DUP5 ADD SWAP2 POP POP SWAP3 SWAP2 POP POP JUMP JUMPDEST PUSH1 0x0 PUSH2 0x53E DUP3 PUSH2 0x5D5 JUMP JUMPDEST PUSH2 0x548 DUP2 DUP6 PUSH2 0x5F1 JUMP JUMPDEST SWAP4 POP PUSH2 0x558 DUP2 DUP6 PUSH1 0x20 DUP7 ADD PUSH2 0x656 JUMP JUMPDEST DUP1 DUP5 ADD SWAP2 POP POP SWAP3 SWAP2 POP POP JUMP JUMPDEST PUSH2 0x56D DUP2 PUSH2 0x64C JUMP JUMPDEST DUP3 MSTORE POP POP JUMP JUMPDEST PUSH1 0x0 PUSH2 0x57F DUP3 DUP5 PUSH2 0x533 JUMP JUMPDEST SWAP2 POP DUP2 SWAP1 POP SWAP3 SWAP2 POP POP JUMP JUMPDEST PUSH1 0x0 PUSH1 0x40 DUP3 ADD SWAP1 POP PUSH2 0x59F PUSH1 0x0 DUP4 ADD DUP6 PUSH2 0x4EB JUMP JUMPDEST DUP2 DUP2 SUB PUSH1 0x20 DUP4 ADD MSTORE PUSH2 0x5B1 DUP2 DUP5 PUSH2 0x4FA JUMP JUMPDEST SWAP1 POP SWAP4 SWAP3 POP POP POP JUMP JUMPDEST PUSH1 0x0 PUSH1 0x20 DUP3 ADD SWAP1 POP PUSH2 0x5CF PUSH1 0x0 DUP4 ADD DUP5 PUSH2 0x564 JUMP JUMPDEST SWAP3 SWAP2 POP POP JUMP JUMPDEST PUSH1 0x0 DUP2 MLOAD SWAP1 POP SWAP2 SWAP1 POP JUMP JUMPDEST PUSH1 0x0 DUP3 DUP3 MSTORE PUSH1 0x20 DUP3 ADD SWAP1 POP SWAP3 SWAP2 POP POP JUMP JUMPDEST PUSH1 0x0 DUP2 SWAP1 POP SWAP3 SWAP2 POP POP JUMP JUMPDEST PUSH1 0x0 PUSH2 0x607 DUP3 PUSH2 0x62C JUMP JUMPDEST SWAP1 POP SWAP2 SWAP1 POP JUMP JUMPDEST PUSH1 0x0 PUSH2 0x619 DUP3 PUSH2 0x62C JUMP JUMPDEST SWAP1 POP SWAP2 SWAP1 POP JUMP JUMPDEST PUSH1 0x0 DUP2 ISZERO ISZERO SWAP1 POP SWAP2 SWAP1 POP JUMP JUMPDEST PUSH1 0x0 PUSH20 0xFFFFFFFFFFFFFFFFFFFFFFFFFFFFFFFFFFFFFFFF DUP3 AND SWAP1 POP SWAP2 SWAP1 POP JUMP JUMPDEST PUSH1 0x0 DUP2 SWAP1 POP SWAP2 SWAP1 POP JUMP JUMPDEST PUSH1 0x0 JUMPDEST DUP4 DUP2 LT ISZERO PUSH2 0x674 JUMPI DUP1 DUP3 ADD MLOAD DUP2 DUP5 ADD MSTORE PUSH1 0x20 DUP2 ADD SWAP1 POP PUSH2 0x659 JUMP JUMPDEST DUP4 DUP2 GT ISZERO PUSH2 0x683 JUMPI PUSH1 0x0 DUP5 DUP5 ADD MSTORE JUMPDEST POP POP POP POP JUMP JUMPDEST PUSH1 0x0 DUP1 REVERT JUMPDEST PUSH1 0x0 PUSH1 0x1F NOT PUSH1 0x1F DUP4 ADD AND SWAP1 POP SWAP2 SWAP1 POP JUMP JUMPDEST PUSH2 0x6A8 DUP2 PUSH2 0x5FC JUMP JUMPDEST DUP2 EQ PUSH2 0x6B3 JUMPI PUSH1 0x0 DUP1 REVERT JUMPDEST POP JUMP JUMPDEST PUSH2 0x6BF DUP2 PUSH2 0x60E JUMP JUMPDEST DUP2 EQ PUSH2 0x6CA JUMPI PUSH1 0x0 DUP1 REVERT JUMPDEST POP JUMP JUMPDEST PUSH2 0x6D6 DUP2 PUSH2 0x64C JUMP JUMPDEST DUP2 EQ PUSH2 0x6E1 JUMPI PUSH1 0x0 DUP1 REVERT JUMPDEST POP JUMP INVALID LOG2 PUSH5 0x6970667358 0x22 SLT KECCAK256 CALLDATASIZE 0xFB PUSH30 0x207ACDE2BD8AE5EA9114A9FB05D63CA51EB87EA562FF875643F3FC014664 PUSH20 0x6F6C634300080700330000000000000000000000 "
				},
				"gasEstimates": {
					"creation": {
						"codeDepositCost": "363600",
						"executionCost": "399",
						"totalCost": "363999"
					},
					"external": {
						"callGetX(address)": "infinite",
						"callNone(address)": "infinite",
						"callSetX(address,uint256)": "infinite"
					}
				},
				"methodIdentifiers": {
					"callGetX(address)": "66563e69",
					"callNone(address)": "7e260ffd",
					"callSetX(address,uint256)": "3ca065bb"
				}
			},
			"storageLayout": {
				"storage": [],
				"types": null
			},
			"userdoc": {
				"kind": "user",
				"methods": {},
				"version": 1
			}
		}
	}
}