{
	"call/Call.sol": {
		"Call": {
			"abi": [
				{
					"anonymous": false,
					"inputs": [
						{
							"indexed": false,
							"internalType": "bool",
							"name": "success",
							"type": "bool"
						},
						{
							"indexed": false,
							"internalType": "bytes",
							"name": "data",
							"type": "bytes"
						}
					],
					"name": "Response",
					"type": "event"
				},
				{
					"inputs": [
						{
							"internalType": "address payable",
							"name": "_addr",
							"type": "address"
						},
						{
							"internalType": "uint256",
							"name": "x",
							"type": "uint256"
						}
					],
					"name": "callSetX",
					"outputs": [],
					"stateMutability": "nonpayable",
					"type": "function"
				}
			],
			"devdoc": {
				"kind": "dev",
				"methods": {},
				"version": 1
			},
			"evm": {
				"assembly": "    /* \"call/Call.sol\":58:201  contract Call{\r... */\n  mstore(0x40, 0x80)\n  callvalue\n  dup1\n  iszero\n  tag_1\n  jumpi\n  0x00\n  dup1\n  revert\ntag_1:\n  pop\n  dataSize(sub_0)\n  dup1\n  dataOffset(sub_0)\n  0x00\n  codecopy\n  0x00\n  return\nstop\n\nsub_0: assembly {\n        /* \"call/Call.sol\":58:201  contract Call{\r... */\n      mstore(0x40, 0x80)\n      callvalue\n      dup1\n      iszero\n      tag_1\n      jumpi\n      0x00\n      dup1\n      revert\n    tag_1:\n      pop\n      jumpi(tag_2, lt(calldatasize, 0x04))\n      shr(0xe0, calldataload(0x00))\n      dup1\n      0x3ca065bb\n      eq\n      tag_3\n      jumpi\n    tag_2:\n      0x00\n      dup1\n      revert\n        /* \"call/Call.sol\":126:198  function callSetX(address payable _addr,uint x) public{\r... */\n    tag_3:\n      tag_4\n      0x04\n      dup1\n      calldatasize\n      sub\n      dup2\n      add\n      swap1\n      tag_5\n      swap2\n      swap1\n      tag_6\n      jump\t// in\n    tag_5:\n      tag_7\n      jump\t// in\n    tag_4:\n      stop\n    tag_7:\n      pop\n      pop\n      jump\t// out\n        /* \"#utility.yul\":7:162   */\n    tag_10:\n        /* \"#utility.yul\":61:66   */\n      0x00\n        /* \"#utility.yul\":99:105   */\n      dup2\n        /* \"#utility.yul\":86:106   */\n      calldataload\n        /* \"#utility.yul\":77:106   */\n      swap1\n      pop\n        /* \"#utility.yul\":115:156   */\n      tag_12\n        /* \"#utility.yul\":150:155   */\n      dup2\n        /* \"#utility.yul\":115:156   */\n      tag_13\n      jump\t// in\n    tag_12:\n        /* \"#utility.yul\":7:162   */\n      swap3\n      swap2\n      pop\n      pop\n      jump\t// out\n        /* \"#utility.yul\":168:307   */\n    tag_14:\n        /* \"#utility.yul\":214:219   */\n      0x00\n        /* \"#utility.yul\":252:258   */\n      dup2\n        /* \"#utility.yul\":239:259   */\n      calldataload\n        /* \"#utility.yul\":230:259   */\n      swap1\n      pop\n        /* \"#utility.yul\":268:301   */\n      tag_16\n        /* \"#utility.yul\":295:300   */\n      dup2\n        /* \"#utility.yul\":268:301   */\n      tag_17\n      jump\t// in\n    tag_16:\n        /* \"#utility.yul\":168:307   */\n      swap3\n      swap2\n      pop\n      pop\n      jump\t// out\n        /* \"#utility.yul\":313:803   */\n    tag_6:\n        /* \"#utility.yul\":389:395   */\n      0x00\n        /* \"#utility.yul\":397:403   */\n      dup1\n        /* \"#utility.yul\":446:448   */\n      0x40\n        /* \"#utility.yul\":434:443   */\n      dup4\n        /* \"#utility.yul\":425:432   */\n      dup6\n        /* \"#utility.yul\":421:444   */\n      sub\n        /* \"#utility.yul\":417:449   */\n      slt\n        /* \"#utility.yul\":414:533   */\n      iszero\n      tag_19\n      jumpi\n        /* \"#utility.yul\":452:531   */\n      tag_20\n      tag_21\n      jump\t// in\n    tag_20:\n        /* \"#utility.yul\":414:533   */\n    tag_19:\n        /* \"#utility.yul\":572:573   */\n      0x00\n        /* \"#utility.yul\":597:658   */\n      tag_22\n        /* \"#utility.yul\":650:657   */\n      dup6\n        /* \"#utility.yul\":641:647   */\n      dup3\n        /* \"#utility.yul\":630:639   */\n      dup7\n        /* \"#utility.yul\":626:648   */\n      add\n        /* \"#utility.yul\":597:658   */\n      tag_10\n      jump\t// in\n    tag_22:\n        /* \"#utility.yul\":587:658   */\n      swap3\n      pop\n        /* \"#utility.yul\":543:668   */\n      pop\n        /* \"#utility.yul\":707:709   */\n      0x20\n        /* \"#utility.yul\":733:786   */\n      tag_23\n        /* \"#utility.yul\":778:785   */\n      dup6\n        /* \"#utility.yul\":769:775   */\n      dup3\n        /* \"#utility.yul\":758:767   */\n      dup7\n        /* \"#utility.yul\":754:776   */\n      add\n        /* \"#utility.yul\":733:786   */\n      tag_14\n      jump\t// in\n    tag_23:\n        /* \"#utility.yul\":723:786   */\n      swap2\n      pop\n        /* \"#utility.yul\":678:796   */\n      pop\n        /* \"#utility.yul\":313:803   */\n      swap3\n      pop\n      swap3\n      swap1\n      pop\n      jump\t// out\n        /* \"#utility.yul\":890:994   */\n    tag_26:\n        /* \"#utility.yul\":935:942   */\n      0x00\n        /* \"#utility.yul\":964:988   */\n      tag_28\n        /* \"#utility.yul\":982:987   */\n      dup3\n        /* \"#utility.yul\":964:988   */\n      tag_29\n      jump\t// in\n    tag_28:\n        /* \"#utility.yul\":953:988   */\n      swap1\n      pop\n        /* \"#utility.yul\":890:994   */\n      swap2\n      swap1\n      pop\n      jump\t// out\n        /* \"#utility.yul\":1000:1126   */\n    tag_29:\n        /* \"#utility.yul\":1037:1044   */\n      0x00\n        /* \"#utility.yul\":1077:1119   */\n      0xffffffffffffffffffffffffffffffffffffffff\n        /* \"#utility.yul\":1070:1075   */\n      dup3\n        /* \"#utility.yul\":1066:1120   */\n      and\n        /* \"#utility.yul\":1055:1120   */\n      swap1\n      pop\n        /* \"#utility.yul\":1000:1126   */\n      swap2\n      swap1\n      pop\n      jump\t// out\n        /* \"#utility.yul\":1132:1209   */\n    tag_31:\n        /* \"#utility.yul\":1169:1176   */\n      0x00\n        /* \"#utility.yul\":1198:1203   */\n      dup2\n        /* \"#utility.yul\":1187:1203   */\n      swap1\n      pop\n        /* \"#utility.yul\":1132:1209   */\n      swap2\n      swap1\n      pop\n      jump\t// out\n        /* \"#utility.yul\":1338:1455   */\n    tag_21:\n        /* \"#utility.yul\":1447:1448   */\n      0x00\n        /* \"#utility.yul\":1444:1445   */\n      dup1\n        /* \"#utility.yul\":1437:1449   */\n      revert\n        /* \"#utility.yul\":1461:1599   */\n    tag_13:\n        /* \"#utility.yul\":1542:1574   */\n      tag_37\n        /* \"#utility.yul\":1568:1573   */\n      dup2\n        /* \"#utility.yul\":1542:1574   */\n      tag_26\n      jump\t// in\n    tag_37:\n        /* \"#utility.yul\":1535:1540   */\n      dup2\n        /* \"#utility.yul\":1532:1575   */\n      eq\n        /* \"#utility.yul\":1522:1593   */\n      tag_38\n      jumpi\n        /* \"#utility.yul\":1589:1590   */\n      0x00\n        /* \"#utility.yul\":1586:1587   */\n      dup1\n        /* \"#utility.yul\":1579:1591   */\n      revert\n        /* \"#utility.yul\":1522:1593   */\n    tag_38:\n        /* \"#utility.yul\":1461:1599   */\n      pop\n      jump\t// out\n        /* \"#utility.yul\":1605:1727   */\n    tag_17:\n        /* \"#utility.yul\":1678:1702   */\n      tag_40\n        /* \"#utility.yul\":1696:1701   */\n      dup2\n        /* \"#utility.yul\":1678:1702   */\n      tag_31\n      jump\t// in\n    tag_40:\n        /* \"#utility.yul\":1671:1676   */\n      dup2\n        /* \"#utility.yul\":1668:1703   */\n      eq\n        /* \"#utility.yul\":1658:1721   */\n      tag_41\n      jumpi\n        /* \"#utility.yul\":1717:1718   */\n      0x00\n        /* \"#utility.yul\":1714:1715   */\n      dup1\n        /* \"#utility.yul\":1707:1719   */\n      revert\n        /* \"#utility.yul\":1658:1721   */\n    tag_41:\n        /* \"#utility.yul\":1605:1727   */\n      pop\n      jump\t// out\n\n    auxdata: 0xa2646970667358221220954ee6959ca27a576012474196e587e69fd058d104bfde4322c150b35d64d61564736f6c63430008070033\n}\n",
				"bytecode": {
					"linkReferences": {},
					"object": "608060405234801561001057600080fd5b5061015f806100206000396000f3fe608060405234801561001057600080fd5b506004361061002b5760003560e01c80633ca065bb14610030575b600080fd5b61004a6004803603810190610045919061007a565b61004c565b005b5050565b60008135905061005f816100fb565b92915050565b60008135905061007481610112565b92915050565b60008060408385031215610091576100906100f6565b5b600061009f85828601610050565b92505060206100b085828601610065565b9150509250929050565b60006100c5826100cc565b9050919050565b600073ffffffffffffffffffffffffffffffffffffffff82169050919050565b6000819050919050565b600080fd5b610104816100ba565b811461010f57600080fd5b50565b61011b816100ec565b811461012657600080fd5b5056fea2646970667358221220954ee6959ca27a576012474196e587e69fd058d104bfde4322c150b35d64d61564736f6c63430008070033",
					"opcodes": "PUSH1 0x80 PUSH1 0x40 MSTORE CALLVALUE DUP1 ISZERO PUSH2 0x10 JUMPI PUSH1 0x0 DUP1 REVERT JUMPDEST POP PUSH2 0x15F DUP1 PUSH2 0x20 PUSH1 0x0 CODECOPY PUSH1 0x0 RETURN INVALID PUSH1 0x80 PUSH1 0x40 MSTORE CALLVALUE DUP1 ISZERO PUSH2 0x10 JUMPI PUSH1 0x0 DUP1 REVERT JUMPDEST POP PUSH1 0x4 CALLDATASIZE LT PUSH2 0x2B JUMPI PUSH1 0x0 CALLDATALOAD PUSH1 0xE0 SHR DUP1 PUSH4 0x3CA065BB EQ PUSH2 0x30 JUMPI JUMPDEST PUSH1 0x0 DUP1 REVERT JUMPDEST PUSH2 0x4A PUSH1 0x4 DUP1 CALLDATASIZE SUB DUP2 ADD SWAP1 PUSH2 0x45 SWAP2 SWAP1 PUSH2 0x7A JUMP JUMPDEST PUSH2 0x4C JUMP JUMPDEST STOP JUMPDEST POP POP JUMP JUMPDEST PUSH1 0x0 DUP2 CALLDATALOAD SWAP1 POP PUSH2 0x5F DUP2 PUSH2 0xFB JUMP JUMPDEST SWAP3 SWAP2 POP POP JUMP JUMPDEST PUSH1 0x0 DUP2 CALLDATALOAD SWAP1 POP PUSH2 0x74 DUP2 PUSH2 0x112 JUMP JUMPDEST SWAP3 SWAP2 POP POP JUMP JUMPDEST PUSH1 0x0 DUP1 PUSH1 0x40 DUP4 DUP6 SUB SLT ISZERO PUSH2 0x91 JUMPI PUSH2 0x90 PUSH2 0xF6 JUMP JUMPDEST JUMPDEST PUSH1 0x0 PUSH2 0x9F DUP6 DUP3 DUP7 ADD PUSH2 0x50 JUMP JUMPDEST SWAP3 POP POP PUSH1 0x20 PUSH2 0xB0 DUP6 DUP3 DUP7 ADD PUSH2 0x65 JUMP JUMPDEST SWAP2 POP POP SWAP3 POP SWAP3 SWAP1 POP JUMP JUMPDEST PUSH1 0x0 PUSH2 0xC5 DUP3 PUSH2 0xCC JUMP JUMPDEST SWAP1 POP SWAP2 SWAP1 POP JUMP JUMPDEST PUSH1 0x0 PUSH20 0xFFFFFFFFFFFFFFFFFFFFFFFFFFFFFFFFFFFFFFFF DUP3 AND SWAP1 POP SWAP2 SWAP1 POP JUMP JUMPDEST PUSH1 0x0 DUP2 SWAP1 POP SWAP2 SWAP1 POP JUMP JUMPDEST PUSH1 0x0 DUP1 REVERT JUMPDEST PUSH2 0x104 DUP2 PUSH2 0xBA JUMP JUMPDEST DUP2 EQ PUSH2 0x10F JUMPI PUSH1 0x0 DUP1 REVERT JUMPDEST POP JUMP JUMPDEST PUSH2 0x11B DUP2 PUSH2 0xEC JUMP JUMPDEST DUP2 EQ PUSH2 0x126 JUMPI PUSH1 0x0 DUP1 REVERT JUMPDEST POP JUMP INVALID LOG2 PUSH5 0x6970667358 0x22 SLT KECCAK256 SWAP6 0x4E 0xE6 SWAP6 SWAP13 LOG2 PUSH27 0x576012474196E587E69FD058D104BFDE4322C150B35D64D6156473 PUSH16 0x6C634300080700330000000000000000 "
				},
				"gasEstimates": {
					"creation": {
						"codeDepositCost": "70200",
						"executionCost": "117",
						"totalCost": "70317"
					},
					"external": {
						"callSetX(address,uint256)": "606"
					}
				},
				"methodIdentifiers": {
					"callSetX(address,uint256)": "3ca065bb"
				}
			},
			"storageLayout": {
				"storage": [],
				"types": null
			},
			"userdoc": {
				"kind": "user",
				"methods": {},
				"version": 1
			}
		}
	}
}