{
	"call/Call.sol": {
		"Call": {
			"abi": [
				{
					"anonymous": false,
					"inputs": [
						{
							"indexed": false,
							"internalType": "bool",
							"name": "success",
							"type": "bool"
						},
						{
							"indexed": false,
							"internalType": "bytes",
							"name": "data",
							"type": "bytes"
						}
					],
					"name": "Response",
					"type": "event"
				},
				{
					"inputs": [
						{
							"internalType": "address",
							"name": "_addr",
							"type": "address"
						}
					],
					"name": "callGetX",
					"outputs": [
						{
							"internalType": "uint256",
							"name": "",
							"type": "uint256"
						}
					],
					"stateMutability": "nonpayable",
					"type": "function"
				},
				{
					"inputs": [
						{
							"internalType": "address payable",
							"name": "_addr",
							"type": "address"
						},
						{
							"internalType": "uint256",
							"name": "x",
							"type": "uint256"
						}
					],
					"name": "callSetX",
					"outputs": [],
					"stateMutability": "payable",
					"type": "function"
				}
			],
			"devdoc": {
				"kind": "dev",
				"methods": {},
				"version": 1
			},
			"evm": {
				"assembly": "    /* \"call/Call.sol\":58:582  contract Call{\r... */\n  mstore(0x40, 0x80)\n  callvalue\n  dup1\n  iszero\n  tag_1\n  jumpi\n  0x00\n  dup1\n  revert\ntag_1:\n  pop\n  dataSize(sub_0)\n  dup1\n  dataOffset(sub_0)\n  0x00\n  codecopy\n  0x00\n  return\nstop\n\nsub_0: assembly {\n        /* \"call/Call.sol\":58:582  contract Call{\r... */\n      mstore(0x40, 0x80)\n      jumpi(tag_1, lt(calldatasize, 0x04))\n      shr(0xe0, calldataload(0x00))\n      dup1\n      0x3ca065bb\n      eq\n      tag_2\n      jumpi\n      dup1\n      0x66563e69\n      eq\n      tag_3\n      jumpi\n    tag_1:\n      0x00\n      dup1\n      revert\n        /* \"call/Call.sol\":126:335  function callSetX(address payable _addr,uint x) public payable{\r... */\n    tag_2:\n      tag_4\n      0x04\n      dup1\n      calldatasize\n      sub\n      dup2\n      add\n      swap1\n      tag_5\n      swap2\n      swap1\n      tag_6\n      jump\t// in\n    tag_5:\n      tag_7\n      jump\t// in\n    tag_4:\n      stop\n        /* \"call/Call.sol\":343:579  function callGetX(address _addr) external returns(uint){\r... */\n    tag_3:\n      callvalue\n      dup1\n      iszero\n      tag_8\n      jumpi\n      0x00\n      dup1\n      revert\n    tag_8:\n      pop\n      tag_9\n      0x04\n      dup1\n      calldatasize\n      sub\n      dup2\n      add\n      swap1\n      tag_10\n      swap2\n      swap1\n      tag_11\n      jump\t// in\n    tag_10:\n      tag_12\n      jump\t// in\n    tag_9:\n      mload(0x40)\n      tag_13\n      swap2\n      swap1\n      tag_14\n      jump\t// in\n    tag_13:\n      mload(0x40)\n      dup1\n      swap2\n      sub\n      swap1\n      return\n        /* \"call/Call.sol\":126:335  function callSetX(address payable _addr,uint x) public payable{\r... */\n    tag_7:\n        /* \"call/Call.sol\":200:212  bool success */\n      0x00\n        /* \"call/Call.sol\":213:230  bytes memory data */\n      dup1\n        /* \"call/Call.sol\":234:239  _addr */\n      dup4\n        /* \"call/Call.sol\":234:244  _addr.call */\n      0xffffffffffffffffffffffffffffffffffffffff\n      and\n        /* \"call/Call.sol\":251:260  msg.value */\n      callvalue\n        /* \"call/Call.sol\":314:315  x */\n      dup5\n        /* \"call/Call.sol\":276:316  abi.encodeWithSignature(\"set_X(uint)\",x) */\n      add(0x24, mload(0x40))\n      tag_16\n      swap2\n      swap1\n      tag_14\n      jump\t// in\n    tag_16:\n      mload(0x40)\n      0x20\n      dup2\n      dup4\n      sub\n      sub\n      dup2\n      mstore\n      swap1\n      0x40\n      mstore\n      and(not(0xffffffffffffffffffffffffffffffffffffffffffffffffffffffff), 0x33a0899e00000000000000000000000000000000000000000000000000000000)\n      0x20\n      dup3\n      add\n      dup1\n      mload\n      0xffffffffffffffffffffffffffffffffffffffffffffffffffffffff\n      dup4\n      dup2\n      dup4\n      and\n      or\n      dup4\n      mstore\n      pop\n      pop\n      pop\n      pop\n        /* \"call/Call.sol\":234:327  _addr.call{value:msg.value}(\r... */\n      mload(0x40)\n      tag_17\n      swap2\n      swap1\n      tag_18\n      jump\t// in\n    tag_17:\n      0x00\n      mload(0x40)\n      dup1\n      dup4\n      sub\n      dup2\n      dup6\n      dup8\n      gas\n      call\n      swap3\n      pop\n      pop\n      pop\n      returndatasize\n      dup1\n      0x00\n      dup2\n      eq\n      tag_21\n      jumpi\n      mload(0x40)\n      swap2\n      pop\n      and(add(returndatasize, 0x3f), not(0x1f))\n      dup3\n      add\n      0x40\n      mstore\n      returndatasize\n      dup3\n      mstore\n      returndatasize\n      0x00\n      0x20\n      dup5\n      add\n      returndatacopy\n      jump(tag_20)\n    tag_21:\n      0x60\n      swap2\n      pop\n    tag_20:\n      pop\n        /* \"call/Call.sol\":199:327  (bool success,bytes memory data) = _addr.call{value:msg.value}(\r... */\n      swap2\n      pop\n      swap2\n      pop\n        /* \"call/Call.sol\":188:335  {\r... */\n      pop\n      pop\n        /* \"call/Call.sol\":126:335  function callSetX(address payable _addr,uint x) public payable{\r... */\n      pop\n      pop\n      jump\t// out\n        /* \"call/Call.sol\":343:579  function callGetX(address _addr) external returns(uint){\r... */\n    tag_12:\n        /* \"call/Call.sol\":393:397  uint */\n      0x00\n        /* \"call/Call.sol\":410:422  bool success */\n      dup1\n        /* \"call/Call.sol\":423:440  bytes memory data */\n      0x00\n        /* \"call/Call.sol\":444:449  _addr */\n      dup4\n        /* \"call/Call.sol\":444:454  _addr.call */\n      0xffffffffffffffffffffffffffffffffffffffff\n      and\n        /* \"call/Call.sol\":469:502  abi.encodeWithSignature(\"getX()\") */\n      add(0x24, mload(0x40))\n      mload(0x40)\n      0x20\n      dup2\n      dup4\n      sub\n      sub\n      dup2\n      mstore\n      swap1\n      0x40\n      mstore\n      and(not(0xffffffffffffffffffffffffffffffffffffffffffffffffffffffff), 0x5197c7aa00000000000000000000000000000000000000000000000000000000)\n      0x20\n      dup3\n      add\n      dup1\n      mload\n      0xffffffffffffffffffffffffffffffffffffffffffffffffffffffff\n      dup4\n      dup2\n      dup4\n      and\n      or\n      dup4\n      mstore\n      pop\n      pop\n      pop\n      pop\n        /* \"call/Call.sol\":444:513  _addr.call(\r... */\n      mload(0x40)\n      tag_23\n      swap2\n      swap1\n      tag_18\n      jump\t// in\n    tag_23:\n      0x00\n      mload(0x40)\n      dup1\n      dup4\n      sub\n      dup2\n      0x00\n      dup7\n      gas\n      call\n      swap2\n      pop\n      pop\n      returndatasize\n      dup1\n      0x00\n      dup2\n      eq\n      tag_26\n      jumpi\n      mload(0x40)\n      swap2\n      pop\n      and(add(returndatasize, 0x3f), not(0x1f))\n      dup3\n      add\n      0x40\n      mstore\n      returndatasize\n      dup3\n      mstore\n      returndatasize\n      0x00\n      0x20\n      dup5\n      add\n      returndatacopy\n      jump(tag_25)\n    tag_26:\n      0x60\n      swap2\n      pop\n    tag_25:\n      pop\n        /* \"call/Call.sol\":409:513  (bool success,bytes memory data) = _addr.call(\r... */\n      swap2\n      pop\n      swap2\n      pop\n        /* \"call/Call.sol\":539:561  Response(success,data) */\n      0x13848c3e38f8886f3f5d2ad9dff80d8092c2bbb8efd5b887a99c2c6cfc09ac2a\n        /* \"call/Call.sol\":548:555  success */\n      dup3\n        /* \"call/Call.sol\":556:560  data */\n      dup3\n        /* \"call/Call.sol\":539:561  Response(success,data) */\n      mload(0x40)\n      tag_27\n      swap3\n      swap2\n      swap1\n      tag_28\n      jump\t// in\n    tag_27:\n      mload(0x40)\n      dup1\n      swap2\n      sub\n      swap1\n      log1\n        /* \"call/Call.sol\":398:579  {\r... */\n      pop\n      pop\n        /* \"call/Call.sol\":343:579  function callGetX(address _addr) external returns(uint){\r... */\n      swap2\n      swap1\n      pop\n      jump\t// out\n        /* \"#utility.yul\":7:146   */\n    tag_30:\n        /* \"#utility.yul\":53:58   */\n      0x00\n        /* \"#utility.yul\":91:97   */\n      dup2\n        /* \"#utility.yul\":78:98   */\n      calldataload\n        /* \"#utility.yul\":69:98   */\n      swap1\n      pop\n        /* \"#utility.yul\":107:140   */\n      tag_32\n        /* \"#utility.yul\":134:139   */\n      dup2\n        /* \"#utility.yul\":107:140   */\n      tag_33\n      jump\t// in\n    tag_32:\n        /* \"#utility.yul\":7:146   */\n      swap3\n      swap2\n      pop\n      pop\n      jump\t// out\n        /* \"#utility.yul\":152:307   */\n    tag_34:\n        /* \"#utility.yul\":206:211   */\n      0x00\n        /* \"#utility.yul\":244:250   */\n      dup2\n        /* \"#utility.yul\":231:251   */\n      calldataload\n        /* \"#utility.yul\":222:251   */\n      swap1\n      pop\n        /* \"#utility.yul\":260:301   */\n      tag_36\n        /* \"#utility.yul\":295:300   */\n      dup2\n        /* \"#utility.yul\":260:301   */\n      tag_37\n      jump\t// in\n    tag_36:\n        /* \"#utility.yul\":152:307   */\n      swap3\n      swap2\n      pop\n      pop\n      jump\t// out\n        /* \"#utility.yul\":313:452   */\n    tag_38:\n        /* \"#utility.yul\":359:364   */\n      0x00\n        /* \"#utility.yul\":397:403   */\n      dup2\n        /* \"#utility.yul\":384:404   */\n      calldataload\n        /* \"#utility.yul\":375:404   */\n      swap1\n      pop\n        /* \"#utility.yul\":413:446   */\n      tag_40\n        /* \"#utility.yul\":440:445   */\n      dup2\n        /* \"#utility.yul\":413:446   */\n      tag_41\n      jump\t// in\n    tag_40:\n        /* \"#utility.yul\":313:452   */\n      swap3\n      swap2\n      pop\n      pop\n      jump\t// out\n        /* \"#utility.yul\":458:787   */\n    tag_11:\n        /* \"#utility.yul\":517:523   */\n      0x00\n        /* \"#utility.yul\":566:568   */\n      0x20\n        /* \"#utility.yul\":554:563   */\n      dup3\n        /* \"#utility.yul\":545:552   */\n      dup5\n        /* \"#utility.yul\":541:564   */\n      sub\n        /* \"#utility.yul\":537:569   */\n      slt\n        /* \"#utility.yul\":534:653   */\n      iszero\n      tag_43\n      jumpi\n        /* \"#utility.yul\":572:651   */\n      tag_44\n      tag_45\n      jump\t// in\n    tag_44:\n        /* \"#utility.yul\":534:653   */\n    tag_43:\n        /* \"#utility.yul\":692:693   */\n      0x00\n        /* \"#utility.yul\":717:770   */\n      tag_46\n        /* \"#utility.yul\":762:769   */\n      dup5\n        /* \"#utility.yul\":753:759   */\n      dup3\n        /* \"#utility.yul\":742:751   */\n      dup6\n        /* \"#utility.yul\":738:760   */\n      add\n        /* \"#utility.yul\":717:770   */\n      tag_30\n      jump\t// in\n    tag_46:\n        /* \"#utility.yul\":707:770   */\n      swap2\n      pop\n        /* \"#utility.yul\":663:780   */\n      pop\n        /* \"#utility.yul\":458:787   */\n      swap3\n      swap2\n      pop\n      pop\n      jump\t// out\n        /* \"#utility.yul\":793:1283   */\n    tag_6:\n        /* \"#utility.yul\":869:875   */\n      0x00\n        /* \"#utility.yul\":877:883   */\n      dup1\n        /* \"#utility.yul\":926:928   */\n      0x40\n        /* \"#utility.yul\":914:923   */\n      dup4\n        /* \"#utility.yul\":905:912   */\n      dup6\n        /* \"#utility.yul\":901:924   */\n      sub\n        /* \"#utility.yul\":897:929   */\n      slt\n        /* \"#utility.yul\":894:1013   */\n      iszero\n      tag_48\n      jumpi\n        /* \"#utility.yul\":932:1011   */\n      tag_49\n      tag_45\n      jump\t// in\n    tag_49:\n        /* \"#utility.yul\":894:1013   */\n    tag_48:\n        /* \"#utility.yul\":1052:1053   */\n      0x00\n        /* \"#utility.yul\":1077:1138   */\n      tag_50\n        /* \"#utility.yul\":1130:1137   */\n      dup6\n        /* \"#utility.yul\":1121:1127   */\n      dup3\n        /* \"#utility.yul\":1110:1119   */\n      dup7\n        /* \"#utility.yul\":1106:1128   */\n      add\n        /* \"#utility.yul\":1077:1138   */\n      tag_34\n      jump\t// in\n    tag_50:\n        /* \"#utility.yul\":1067:1138   */\n      swap3\n      pop\n        /* \"#utility.yul\":1023:1148   */\n      pop\n        /* \"#utility.yul\":1187:1189   */\n      0x20\n        /* \"#utility.yul\":1213:1266   */\n      tag_51\n        /* \"#utility.yul\":1258:1265   */\n      dup6\n        /* \"#utility.yul\":1249:1255   */\n      dup3\n        /* \"#utility.yul\":1238:1247   */\n      dup7\n        /* \"#utility.yul\":1234:1256   */\n      add\n        /* \"#utility.yul\":1213:1266   */\n      tag_38\n      jump\t// in\n    tag_51:\n        /* \"#utility.yul\":1203:1266   */\n      swap2\n      pop\n        /* \"#utility.yul\":1158:1276   */\n      pop\n        /* \"#utility.yul\":793:1283   */\n      swap3\n      pop\n      swap3\n      swap1\n      pop\n      jump\t// out\n        /* \"#utility.yul\":1289:1398   */\n    tag_52:\n        /* \"#utility.yul\":1370:1391   */\n      tag_54\n        /* \"#utility.yul\":1385:1390   */\n      dup2\n        /* \"#utility.yul\":1370:1391   */\n      tag_55\n      jump\t// in\n    tag_54:\n        /* \"#utility.yul\":1365:1368   */\n      dup3\n        /* \"#utility.yul\":1358:1392   */\n      mstore\n        /* \"#utility.yul\":1289:1398   */\n      pop\n      pop\n      jump\t// out\n        /* \"#utility.yul\":1404:1764   */\n    tag_56:\n        /* \"#utility.yul\":1490:1493   */\n      0x00\n        /* \"#utility.yul\":1518:1556   */\n      tag_58\n        /* \"#utility.yul\":1550:1555   */\n      dup3\n        /* \"#utility.yul\":1518:1556   */\n      tag_59\n      jump\t// in\n    tag_58:\n        /* \"#utility.yul\":1572:1642   */\n      tag_60\n        /* \"#utility.yul\":1635:1641   */\n      dup2\n        /* \"#utility.yul\":1630:1633   */\n      dup6\n        /* \"#utility.yul\":1572:1642   */\n      tag_61\n      jump\t// in\n    tag_60:\n        /* \"#utility.yul\":1565:1642   */\n      swap4\n      pop\n        /* \"#utility.yul\":1651:1703   */\n      tag_62\n        /* \"#utility.yul\":1696:1702   */\n      dup2\n        /* \"#utility.yul\":1691:1694   */\n      dup6\n        /* \"#utility.yul\":1684:1688   */\n      0x20\n        /* \"#utility.yul\":1677:1682   */\n      dup7\n        /* \"#utility.yul\":1673:1689   */\n      add\n        /* \"#utility.yul\":1651:1703   */\n      tag_63\n      jump\t// in\n    tag_62:\n        /* \"#utility.yul\":1728:1757   */\n      tag_64\n        /* \"#utility.yul\":1750:1756   */\n      dup2\n        /* \"#utility.yul\":1728:1757   */\n      tag_65\n      jump\t// in\n    tag_64:\n        /* \"#utility.yul\":1723:1726   */\n      dup5\n        /* \"#utility.yul\":1719:1758   */\n      add\n        /* \"#utility.yul\":1712:1758   */\n      swap2\n      pop\n        /* \"#utility.yul\":1494:1764   */\n      pop\n        /* \"#utility.yul\":1404:1764   */\n      swap3\n      swap2\n      pop\n      pop\n      jump\t// out\n        /* \"#utility.yul\":1770:2143   */\n    tag_66:\n        /* \"#utility.yul\":1874:1877   */\n      0x00\n        /* \"#utility.yul\":1902:1940   */\n      tag_68\n        /* \"#utility.yul\":1934:1939   */\n      dup3\n        /* \"#utility.yul\":1902:1940   */\n      tag_59\n      jump\t// in\n    tag_68:\n        /* \"#utility.yul\":1956:2044   */\n      tag_69\n        /* \"#utility.yul\":2037:2043   */\n      dup2\n        /* \"#utility.yul\":2032:2035   */\n      dup6\n        /* \"#utility.yul\":1956:2044   */\n      tag_70\n      jump\t// in\n    tag_69:\n        /* \"#utility.yul\":1949:2044   */\n      swap4\n      pop\n        /* \"#utility.yul\":2053:2105   */\n      tag_71\n        /* \"#utility.yul\":2098:2104   */\n      dup2\n        /* \"#utility.yul\":2093:2096   */\n      dup6\n        /* \"#utility.yul\":2086:2090   */\n      0x20\n        /* \"#utility.yul\":2079:2084   */\n      dup7\n        /* \"#utility.yul\":2075:2091   */\n      add\n        /* \"#utility.yul\":2053:2105   */\n      tag_63\n      jump\t// in\n    tag_71:\n        /* \"#utility.yul\":2130:2136   */\n      dup1\n        /* \"#utility.yul\":2125:2128   */\n      dup5\n        /* \"#utility.yul\":2121:2137   */\n      add\n        /* \"#utility.yul\":2114:2137   */\n      swap2\n      pop\n        /* \"#utility.yul\":1878:2143   */\n      pop\n        /* \"#utility.yul\":1770:2143   */\n      swap3\n      swap2\n      pop\n      pop\n      jump\t// out\n        /* \"#utility.yul\":2149:2267   */\n    tag_72:\n        /* \"#utility.yul\":2236:2260   */\n      tag_74\n        /* \"#utility.yul\":2254:2259   */\n      dup2\n        /* \"#utility.yul\":2236:2260   */\n      tag_75\n      jump\t// in\n    tag_74:\n        /* \"#utility.yul\":2231:2234   */\n      dup3\n        /* \"#utility.yul\":2224:2261   */\n      mstore\n        /* \"#utility.yul\":2149:2267   */\n      pop\n      pop\n      jump\t// out\n        /* \"#utility.yul\":2273:2544   */\n    tag_18:\n        /* \"#utility.yul\":2403:2406   */\n      0x00\n        /* \"#utility.yul\":2425:2518   */\n      tag_77\n        /* \"#utility.yul\":2514:2517   */\n      dup3\n        /* \"#utility.yul\":2505:2511   */\n      dup5\n        /* \"#utility.yul\":2425:2518   */\n      tag_66\n      jump\t// in\n    tag_77:\n        /* \"#utility.yul\":2418:2518   */\n      swap2\n      pop\n        /* \"#utility.yul\":2535:2538   */\n      dup2\n        /* \"#utility.yul\":2528:2538   */\n      swap1\n      pop\n        /* \"#utility.yul\":2273:2544   */\n      swap3\n      swap2\n      pop\n      pop\n      jump\t// out\n        /* \"#utility.yul\":2550:2957   */\n    tag_28:\n        /* \"#utility.yul\":2683:2687   */\n      0x00\n        /* \"#utility.yul\":2721:2723   */\n      0x40\n        /* \"#utility.yul\":2710:2719   */\n      dup3\n        /* \"#utility.yul\":2706:2724   */\n      add\n        /* \"#utility.yul\":2698:2724   */\n      swap1\n      pop\n        /* \"#utility.yul\":2734:2799   */\n      tag_79\n        /* \"#utility.yul\":2796:2797   */\n      0x00\n        /* \"#utility.yul\":2785:2794   */\n      dup4\n        /* \"#utility.yul\":2781:2798   */\n      add\n        /* \"#utility.yul\":2772:2778   */\n      dup6\n        /* \"#utility.yul\":2734:2799   */\n      tag_52\n      jump\t// in\n    tag_79:\n        /* \"#utility.yul\":2846:2855   */\n      dup2\n        /* \"#utility.yul\":2840:2844   */\n      dup2\n        /* \"#utility.yul\":2836:2856   */\n      sub\n        /* \"#utility.yul\":2831:2833   */\n      0x20\n        /* \"#utility.yul\":2820:2829   */\n      dup4\n        /* \"#utility.yul\":2816:2834   */\n      add\n        /* \"#utility.yul\":2809:2857   */\n      mstore\n        /* \"#utility.yul\":2874:2950   */\n      tag_80\n        /* \"#utility.yul\":2945:2949   */\n      dup2\n        /* \"#utility.yul\":2936:2942   */\n      dup5\n        /* \"#utility.yul\":2874:2950   */\n      tag_56\n      jump\t// in\n    tag_80:\n        /* \"#utility.yul\":2866:2950   */\n      swap1\n      pop\n        /* \"#utility.yul\":2550:2957   */\n      swap4\n      swap3\n      pop\n      pop\n      pop\n      jump\t// out\n        /* \"#utility.yul\":2963:3185   */\n    tag_14:\n        /* \"#utility.yul\":3056:3060   */\n      0x00\n        /* \"#utility.yul\":3094:3096   */\n      0x20\n        /* \"#utility.yul\":3083:3092   */\n      dup3\n        /* \"#utility.yul\":3079:3097   */\n      add\n        /* \"#utility.yul\":3071:3097   */\n      swap1\n      pop\n        /* \"#utility.yul\":3107:3178   */\n      tag_82\n        /* \"#utility.yul\":3175:3176   */\n      0x00\n        /* \"#utility.yul\":3164:3173   */\n      dup4\n        /* \"#utility.yul\":3160:3177   */\n      add\n        /* \"#utility.yul\":3151:3157   */\n      dup5\n        /* \"#utility.yul\":3107:3178   */\n      tag_72\n      jump\t// in\n    tag_82:\n        /* \"#utility.yul\":2963:3185   */\n      swap3\n      swap2\n      pop\n      pop\n      jump\t// out\n        /* \"#utility.yul\":3272:3370   */\n    tag_59:\n        /* \"#utility.yul\":3323:3329   */\n      0x00\n        /* \"#utility.yul\":3357:3362   */\n      dup2\n        /* \"#utility.yul\":3351:3363   */\n      mload\n        /* \"#utility.yul\":3341:3363   */\n      swap1\n      pop\n        /* \"#utility.yul\":3272:3370   */\n      swap2\n      swap1\n      pop\n      jump\t// out\n        /* \"#utility.yul\":3376:3544   */\n    tag_61:\n        /* \"#utility.yul\":3459:3470   */\n      0x00\n        /* \"#utility.yul\":3493:3499   */\n      dup3\n        /* \"#utility.yul\":3488:3491   */\n      dup3\n        /* \"#utility.yul\":3481:3500   */\n      mstore\n        /* \"#utility.yul\":3533:3537   */\n      0x20\n        /* \"#utility.yul\":3528:3531   */\n      dup3\n        /* \"#utility.yul\":3524:3538   */\n      add\n        /* \"#utility.yul\":3509:3538   */\n      swap1\n      pop\n        /* \"#utility.yul\":3376:3544   */\n      swap3\n      swap2\n      pop\n      pop\n      jump\t// out\n        /* \"#utility.yul\":3550:3697   */\n    tag_70:\n        /* \"#utility.yul\":3651:3662   */\n      0x00\n        /* \"#utility.yul\":3688:3691   */\n      dup2\n        /* \"#utility.yul\":3673:3691   */\n      swap1\n      pop\n        /* \"#utility.yul\":3550:3697   */\n      swap3\n      swap2\n      pop\n      pop\n      jump\t// out\n        /* \"#utility.yul\":3703:3799   */\n    tag_88:\n        /* \"#utility.yul\":3740:3747   */\n      0x00\n        /* \"#utility.yul\":3769:3793   */\n      tag_90\n        /* \"#utility.yul\":3787:3792   */\n      dup3\n        /* \"#utility.yul\":3769:3793   */\n      tag_91\n      jump\t// in\n    tag_90:\n        /* \"#utility.yul\":3758:3793   */\n      swap1\n      pop\n        /* \"#utility.yul\":3703:3799   */\n      swap2\n      swap1\n      pop\n      jump\t// out\n        /* \"#utility.yul\":3805:3909   */\n    tag_92:\n        /* \"#utility.yul\":3850:3857   */\n      0x00\n        /* \"#utility.yul\":3879:3903   */\n      tag_94\n        /* \"#utility.yul\":3897:3902   */\n      dup3\n        /* \"#utility.yul\":3879:3903   */\n      tag_91\n      jump\t// in\n    tag_94:\n        /* \"#utility.yul\":3868:3903   */\n      swap1\n      pop\n        /* \"#utility.yul\":3805:3909   */\n      swap2\n      swap1\n      pop\n      jump\t// out\n        /* \"#utility.yul\":3915:4005   */\n    tag_55:\n        /* \"#utility.yul\":3949:3956   */\n      0x00\n        /* \"#utility.yul\":3992:3997   */\n      dup2\n        /* \"#utility.yul\":3985:3998   */\n      iszero\n        /* \"#utility.yul\":3978:3999   */\n      iszero\n        /* \"#utility.yul\":3967:3999   */\n      swap1\n      pop\n        /* \"#utility.yul\":3915:4005   */\n      swap2\n      swap1\n      pop\n      jump\t// out\n        /* \"#utility.yul\":4011:4137   */\n    tag_91:\n        /* \"#utility.yul\":4048:4055   */\n      0x00\n        /* \"#utility.yul\":4088:4130   */\n      0xffffffffffffffffffffffffffffffffffffffff\n        /* \"#utility.yul\":4081:4086   */\n      dup3\n        /* \"#utility.yul\":4077:4131   */\n      and\n        /* \"#utility.yul\":4066:4131   */\n      swap1\n      pop\n        /* \"#utility.yul\":4011:4137   */\n      swap2\n      swap1\n      pop\n      jump\t// out\n        /* \"#utility.yul\":4143:4220   */\n    tag_75:\n        /* \"#utility.yul\":4180:4187   */\n      0x00\n        /* \"#utility.yul\":4209:4214   */\n      dup2\n        /* \"#utility.yul\":4198:4214   */\n      swap1\n      pop\n        /* \"#utility.yul\":4143:4220   */\n      swap2\n      swap1\n      pop\n      jump\t// out\n        /* \"#utility.yul\":4226:4533   */\n    tag_63:\n        /* \"#utility.yul\":4294:4295   */\n      0x00\n        /* \"#utility.yul\":4304:4417   */\n    tag_99:\n        /* \"#utility.yul\":4318:4324   */\n      dup4\n        /* \"#utility.yul\":4315:4316   */\n      dup2\n        /* \"#utility.yul\":4312:4325   */\n      lt\n        /* \"#utility.yul\":4304:4417   */\n      iszero\n      tag_101\n      jumpi\n        /* \"#utility.yul\":4403:4404   */\n      dup1\n        /* \"#utility.yul\":4398:4401   */\n      dup3\n        /* \"#utility.yul\":4394:4405   */\n      add\n        /* \"#utility.yul\":4388:4406   */\n      mload\n        /* \"#utility.yul\":4384:4385   */\n      dup2\n        /* \"#utility.yul\":4379:4382   */\n      dup5\n        /* \"#utility.yul\":4375:4386   */\n      add\n        /* \"#utility.yul\":4368:4407   */\n      mstore\n        /* \"#utility.yul\":4340:4342   */\n      0x20\n        /* \"#utility.yul\":4337:4338   */\n      dup2\n        /* \"#utility.yul\":4333:4343   */\n      add\n        /* \"#utility.yul\":4328:4343   */\n      swap1\n      pop\n        /* \"#utility.yul\":4304:4417   */\n      jump(tag_99)\n    tag_101:\n        /* \"#utility.yul\":4435:4441   */\n      dup4\n        /* \"#utility.yul\":4432:4433   */\n      dup2\n        /* \"#utility.yul\":4429:4442   */\n      gt\n        /* \"#utility.yul\":4426:4527   */\n      iszero\n      tag_102\n      jumpi\n        /* \"#utility.yul\":4515:4516   */\n      0x00\n        /* \"#utility.yul\":4506:4512   */\n      dup5\n        /* \"#utility.yul\":4501:4504   */\n      dup5\n        /* \"#utility.yul\":4497:4513   */\n      add\n        /* \"#utility.yul\":4490:4517   */\n      mstore\n        /* \"#utility.yul\":4426:4527   */\n    tag_102:\n        /* \"#utility.yul\":4275:4533   */\n      pop\n        /* \"#utility.yul\":4226:4533   */\n      pop\n      pop\n      pop\n      jump\t// out\n        /* \"#utility.yul\":4662:4779   */\n    tag_45:\n        /* \"#utility.yul\":4771:4772   */\n      0x00\n        /* \"#utility.yul\":4768:4769   */\n      dup1\n        /* \"#utility.yul\":4761:4773   */\n      revert\n        /* \"#utility.yul\":4785:4887   */\n    tag_65:\n        /* \"#utility.yul\":4826:4832   */\n      0x00\n        /* \"#utility.yul\":4877:4879   */\n      0x1f\n        /* \"#utility.yul\":4873:4880   */\n      not\n        /* \"#utility.yul\":4868:4870   */\n      0x1f\n        /* \"#utility.yul\":4861:4866   */\n      dup4\n        /* \"#utility.yul\":4857:4871   */\n      add\n        /* \"#utility.yul\":4853:4881   */\n      and\n        /* \"#utility.yul\":4843:4881   */\n      swap1\n      pop\n        /* \"#utility.yul\":4785:4887   */\n      swap2\n      swap1\n      pop\n      jump\t// out\n        /* \"#utility.yul\":4893:5015   */\n    tag_33:\n        /* \"#utility.yul\":4966:4990   */\n      tag_108\n        /* \"#utility.yul\":4984:4989   */\n      dup2\n        /* \"#utility.yul\":4966:4990   */\n      tag_88\n      jump\t// in\n    tag_108:\n        /* \"#utility.yul\":4959:4964   */\n      dup2\n        /* \"#utility.yul\":4956:4991   */\n      eq\n        /* \"#utility.yul\":4946:5009   */\n      tag_109\n      jumpi\n        /* \"#utility.yul\":5005:5006   */\n      0x00\n        /* \"#utility.yul\":5002:5003   */\n      dup1\n        /* \"#utility.yul\":4995:5007   */\n      revert\n        /* \"#utility.yul\":4946:5009   */\n    tag_109:\n        /* \"#utility.yul\":4893:5015   */\n      pop\n      jump\t// out\n        /* \"#utility.yul\":5021:5159   */\n    tag_37:\n        /* \"#utility.yul\":5102:5134   */\n      tag_111\n        /* \"#utility.yul\":5128:5133   */\n      dup2\n        /* \"#utility.yul\":5102:5134   */\n      tag_92\n      jump\t// in\n    tag_111:\n        /* \"#utility.yul\":5095:5100   */\n      dup2\n        /* \"#utility.yul\":5092:5135   */\n      eq\n        /* \"#utility.yul\":5082:5153   */\n      tag_112\n      jumpi\n        /* \"#utility.yul\":5149:5150   */\n      0x00\n        /* \"#utility.yul\":5146:5147   */\n      dup1\n        /* \"#utility.yul\":5139:5151   */\n      revert\n        /* \"#utility.yul\":5082:5153   */\n    tag_112:\n        /* \"#utility.yul\":5021:5159   */\n      pop\n      jump\t// out\n        /* \"#utility.yul\":5165:5287   */\n    tag_41:\n        /* \"#utility.yul\":5238:5262   */\n      tag_114\n        /* \"#utility.yul\":5256:5261   */\n      dup2\n        /* \"#utility.yul\":5238:5262   */\n      tag_75\n      jump\t// in\n    tag_114:\n        /* \"#utility.yul\":5231:5236   */\n      dup2\n        /* \"#utility.yul\":5228:5263   */\n      eq\n        /* \"#utility.yul\":5218:5281   */\n      tag_115\n      jumpi\n        /* \"#utility.yul\":5277:5278   */\n      0x00\n        /* \"#utility.yul\":5274:5275   */\n      dup1\n        /* \"#utility.yul\":5267:5279   */\n      revert\n        /* \"#utility.yul\":5218:5281   */\n    tag_115:\n        /* \"#utility.yul\":5165:5287   */\n      pop\n      jump\t// out\n\n    auxdata: 0xa26469706673582212202b7eebf22cb24b7122c41d112c207d002296d6e90a0e0ec6b098838304d3537c64736f6c63430008070033\n}\n",
				"bytecode": {
					"linkReferences": {},
					"object": "608060405234801561001057600080fd5b50610598806100206000396000f3fe6080604052600436106100295760003560e01c80633ca065bb1461002e57806366563e691461004a575b600080fd5b61004860048036038101906100439190610329565b610087565b005b34801561005657600080fd5b50610071600480360381019061006c91906102fc565b61018a565b60405161007e9190610438565b60405180910390f35b6000808373ffffffffffffffffffffffffffffffffffffffff1634846040516024016100b39190610438565b6040516020818303038152906040527f33a0899e000000000000000000000000000000000000000000000000000000007bffffffffffffffffffffffffffffffffffffffffffffffffffffffff19166020820180517bffffffffffffffffffffffffffffffffffffffffffffffffffffffff838183161783525050505060405161013d91906103f1565b60006040518083038185875af1925050503d806000811461017a576040519150601f19603f3d011682016040523d82523d6000602084013e61017f565b606091505b509150915050505050565b60008060008373ffffffffffffffffffffffffffffffffffffffff166040516024016040516020818303038152906040527f5197c7aa000000000000000000000000000000000000000000000000000000007bffffffffffffffffffffffffffffffffffffffffffffffffffffffff19166020820180517bffffffffffffffffffffffffffffffffffffffffffffffffffffffff838183161783525050505060405161023691906103f1565b6000604051808303816000865af19150503d8060008114610273576040519150601f19603f3d011682016040523d82523d6000602084013e610278565b606091505b50915091507f13848c3e38f8886f3f5d2ad9dff80d8092c2bbb8efd5b887a99c2c6cfc09ac2a82826040516102ae929190610408565b60405180910390a15050919050565b6000813590506102cc8161051d565b92915050565b6000813590506102e181610534565b92915050565b6000813590506102f68161054b565b92915050565b60006020828403121561031257610311610507565b5b6000610320848285016102bd565b91505092915050565b600080604083850312156103405761033f610507565b5b600061034e858286016102d2565b925050602061035f858286016102e7565b9150509250929050565b6103728161049e565b82525050565b600061038382610453565b61038d818561045e565b935061039d8185602086016104d4565b6103a68161050c565b840191505092915050565b60006103bc82610453565b6103c6818561046f565b93506103d68185602086016104d4565b80840191505092915050565b6103eb816104ca565b82525050565b60006103fd82846103b1565b915081905092915050565b600060408201905061041d6000830185610369565b818103602083015261042f8184610378565b90509392505050565b600060208201905061044d60008301846103e2565b92915050565b600081519050919050565b600082825260208201905092915050565b600081905092915050565b6000610485826104aa565b9050919050565b6000610497826104aa565b9050919050565b60008115159050919050565b600073ffffffffffffffffffffffffffffffffffffffff82169050919050565b6000819050919050565b60005b838110156104f25780820151818401526020810190506104d7565b83811115610501576000848401525b50505050565b600080fd5b6000601f19601f8301169050919050565b6105268161047a565b811461053157600080fd5b50565b61053d8161048c565b811461054857600080fd5b50565b610554816104ca565b811461055f57600080fd5b5056fea26469706673582212202b7eebf22cb24b7122c41d112c207d002296d6e90a0e0ec6b098838304d3537c64736f6c63430008070033",
					"opcodes": "PUSH1 0x80 PUSH1 0x40 MSTORE CALLVALUE DUP1 ISZERO PUSH2 0x10 JUMPI PUSH1 0x0 DUP1 REVERT JUMPDEST POP PUSH2 0x598 DUP1 PUSH2 0x20 PUSH1 0x0 CODECOPY PUSH1 0x0 RETURN INVALID PUSH1 0x80 PUSH1 0x40 MSTORE PUSH1 0x4 CALLDATASIZE LT PUSH2 0x29 JUMPI PUSH1 0x0 CALLDATALOAD PUSH1 0xE0 SHR DUP1 PUSH4 0x3CA065BB EQ PUSH2 0x2E JUMPI DUP1 PUSH4 0x66563E69 EQ PUSH2 0x4A JUMPI JUMPDEST PUSH1 0x0 DUP1 REVERT JUMPDEST PUSH2 0x48 PUSH1 0x4 DUP1 CALLDATASIZE SUB DUP2 ADD SWAP1 PUSH2 0x43 SWAP2 SWAP1 PUSH2 0x329 JUMP JUMPDEST PUSH2 0x87 JUMP JUMPDEST STOP JUMPDEST CALLVALUE DUP1 ISZERO PUSH2 0x56 JUMPI PUSH1 0x0 DUP1 REVERT JUMPDEST POP PUSH2 0x71 PUSH1 0x4 DUP1 CALLDATASIZE SUB DUP2 ADD SWAP1 PUSH2 0x6C SWAP2 SWAP1 PUSH2 0x2FC JUMP JUMPDEST PUSH2 0x18A JUMP JUMPDEST PUSH1 0x40 MLOAD PUSH2 0x7E SWAP2 SWAP1 PUSH2 0x438 JUMP JUMPDEST PUSH1 0x40 MLOAD DUP1 SWAP2 SUB SWAP1 RETURN JUMPDEST PUSH1 0x0 DUP1 DUP4 PUSH20 0xFFFFFFFFFFFFFFFFFFFFFFFFFFFFFFFFFFFFFFFF AND CALLVALUE DUP5 PUSH1 0x40 MLOAD PUSH1 0x24 ADD PUSH2 0xB3 SWAP2 SWAP1 PUSH2 0x438 JUMP JUMPDEST PUSH1 0x40 MLOAD PUSH1 0x20 DUP2 DUP4 SUB SUB DUP2 MSTORE SWAP1 PUSH1 0x40 MSTORE PUSH32 0x33A0899E00000000000000000000000000000000000000000000000000000000 PUSH28 0xFFFFFFFFFFFFFFFFFFFFFFFFFFFFFFFFFFFFFFFFFFFFFFFFFFFFFFFF NOT AND PUSH1 0x20 DUP3 ADD DUP1 MLOAD PUSH28 0xFFFFFFFFFFFFFFFFFFFFFFFFFFFFFFFFFFFFFFFFFFFFFFFFFFFFFFFF DUP4 DUP2 DUP4 AND OR DUP4 MSTORE POP POP POP POP PUSH1 0x40 MLOAD PUSH2 0x13D SWAP2 SWAP1 PUSH2 0x3F1 JUMP JUMPDEST PUSH1 0x0 PUSH1 0x40 MLOAD DUP1 DUP4 SUB DUP2 DUP6 DUP8 GAS CALL SWAP3 POP POP POP RETURNDATASIZE DUP1 PUSH1 0x0 DUP2 EQ PUSH2 0x17A JUMPI PUSH1 0x40 MLOAD SWAP2 POP PUSH1 0x1F NOT PUSH1 0x3F RETURNDATASIZE ADD AND DUP3 ADD PUSH1 0x40 MSTORE RETURNDATASIZE DUP3 MSTORE RETURNDATASIZE PUSH1 0x0 PUSH1 0x20 DUP5 ADD RETURNDATACOPY PUSH2 0x17F JUMP JUMPDEST PUSH1 0x60 SWAP2 POP JUMPDEST POP SWAP2 POP SWAP2 POP POP POP POP POP JUMP JUMPDEST PUSH1 0x0 DUP1 PUSH1 0x0 DUP4 PUSH20 0xFFFFFFFFFFFFFFFFFFFFFFFFFFFFFFFFFFFFFFFF AND PUSH1 0x40 MLOAD PUSH1 0x24 ADD PUSH1 0x40 MLOAD PUSH1 0x20 DUP2 DUP4 SUB SUB DUP2 MSTORE SWAP1 PUSH1 0x40 MSTORE PUSH32 0x5197C7AA00000000000000000000000000000000000000000000000000000000 PUSH28 0xFFFFFFFFFFFFFFFFFFFFFFFFFFFFFFFFFFFFFFFFFFFFFFFFFFFFFFFF NOT AND PUSH1 0x20 DUP3 ADD DUP1 MLOAD PUSH28 0xFFFFFFFFFFFFFFFFFFFFFFFFFFFFFFFFFFFFFFFFFFFFFFFFFFFFFFFF DUP4 DUP2 DUP4 AND OR DUP4 MSTORE POP POP POP POP PUSH1 0x40 MLOAD PUSH2 0x236 SWAP2 SWAP1 PUSH2 0x3F1 JUMP JUMPDEST PUSH1 0x0 PUSH1 0x40 MLOAD DUP1 DUP4 SUB DUP2 PUSH1 0x0 DUP7 GAS CALL SWAP2 POP POP RETURNDATASIZE DUP1 PUSH1 0x0 DUP2 EQ PUSH2 0x273 JUMPI PUSH1 0x40 MLOAD SWAP2 POP PUSH1 0x1F NOT PUSH1 0x3F RETURNDATASIZE ADD AND DUP3 ADD PUSH1 0x40 MSTORE RETURNDATASIZE DUP3 MSTORE RETURNDATASIZE PUSH1 0x0 PUSH1 0x20 DUP5 ADD RETURNDATACOPY PUSH2 0x278 JUMP JUMPDEST PUSH1 0x60 SWAP2 POP JUMPDEST POP SWAP2 POP SWAP2 POP PUSH32 0x13848C3E38F8886F3F5D2AD9DFF80D8092C2BBB8EFD5B887A99C2C6CFC09AC2A DUP3 DUP3 PUSH1 0x40 MLOAD PUSH2 0x2AE SWAP3 SWAP2 SWAP1 PUSH2 0x408 JUMP JUMPDEST PUSH1 0x40 MLOAD DUP1 SWAP2 SUB SWAP1 LOG1 POP POP SWAP2 SWAP1 POP JUMP JUMPDEST PUSH1 0x0 DUP2 CALLDATALOAD SWAP1 POP PUSH2 0x2CC DUP2 PUSH2 0x51D JUMP JUMPDEST SWAP3 SWAP2 POP POP JUMP JUMPDEST PUSH1 0x0 DUP2 CALLDATALOAD SWAP1 POP PUSH2 0x2E1 DUP2 PUSH2 0x534 JUMP JUMPDEST SWAP3 SWAP2 POP POP JUMP JUMPDEST PUSH1 0x0 DUP2 CALLDATALOAD SWAP1 POP PUSH2 0x2F6 DUP2 PUSH2 0x54B JUMP JUMPDEST SWAP3 SWAP2 POP POP JUMP JUMPDEST PUSH1 0x0 PUSH1 0x20 DUP3 DUP5 SUB SLT ISZERO PUSH2 0x312 JUMPI PUSH2 0x311 PUSH2 0x507 JUMP JUMPDEST JUMPDEST PUSH1 0x0 PUSH2 0x320 DUP5 DUP3 DUP6 ADD PUSH2 0x2BD JUMP JUMPDEST SWAP2 POP POP SWAP3 SWAP2 POP POP JUMP JUMPDEST PUSH1 0x0 DUP1 PUSH1 0x40 DUP4 DUP6 SUB SLT ISZERO PUSH2 0x340 JUMPI PUSH2 0x33F PUSH2 0x507 JUMP JUMPDEST JUMPDEST PUSH1 0x0 PUSH2 0x34E DUP6 DUP3 DUP7 ADD PUSH2 0x2D2 JUMP JUMPDEST SWAP3 POP POP PUSH1 0x20 PUSH2 0x35F DUP6 DUP3 DUP7 ADD PUSH2 0x2E7 JUMP JUMPDEST SWAP2 POP POP SWAP3 POP SWAP3 SWAP1 POP JUMP JUMPDEST PUSH2 0x372 DUP2 PUSH2 0x49E JUMP JUMPDEST DUP3 MSTORE POP POP JUMP JUMPDEST PUSH1 0x0 PUSH2 0x383 DUP3 PUSH2 0x453 JUMP JUMPDEST PUSH2 0x38D DUP2 DUP6 PUSH2 0x45E JUMP JUMPDEST SWAP4 POP PUSH2 0x39D DUP2 DUP6 PUSH1 0x20 DUP7 ADD PUSH2 0x4D4 JUMP JUMPDEST PUSH2 0x3A6 DUP2 PUSH2 0x50C JUMP JUMPDEST DUP5 ADD SWAP2 POP POP SWAP3 SWAP2 POP POP JUMP JUMPDEST PUSH1 0x0 PUSH2 0x3BC DUP3 PUSH2 0x453 JUMP JUMPDEST PUSH2 0x3C6 DUP2 DUP6 PUSH2 0x46F JUMP JUMPDEST SWAP4 POP PUSH2 0x3D6 DUP2 DUP6 PUSH1 0x20 DUP7 ADD PUSH2 0x4D4 JUMP JUMPDEST DUP1 DUP5 ADD SWAP2 POP POP SWAP3 SWAP2 POP POP JUMP JUMPDEST PUSH2 0x3EB DUP2 PUSH2 0x4CA JUMP JUMPDEST DUP3 MSTORE POP POP JUMP JUMPDEST PUSH1 0x0 PUSH2 0x3FD DUP3 DUP5 PUSH2 0x3B1 JUMP JUMPDEST SWAP2 POP DUP2 SWAP1 POP SWAP3 SWAP2 POP POP JUMP JUMPDEST PUSH1 0x0 PUSH1 0x40 DUP3 ADD SWAP1 POP PUSH2 0x41D PUSH1 0x0 DUP4 ADD DUP6 PUSH2 0x369 JUMP JUMPDEST DUP2 DUP2 SUB PUSH1 0x20 DUP4 ADD MSTORE PUSH2 0x42F DUP2 DUP5 PUSH2 0x378 JUMP JUMPDEST SWAP1 POP SWAP4 SWAP3 POP POP POP JUMP JUMPDEST PUSH1 0x0 PUSH1 0x20 DUP3 ADD SWAP1 POP PUSH2 0x44D PUSH1 0x0 DUP4 ADD DUP5 PUSH2 0x3E2 JUMP JUMPDEST SWAP3 SWAP2 POP POP JUMP JUMPDEST PUSH1 0x0 DUP2 MLOAD SWAP1 POP SWAP2 SWAP1 POP JUMP JUMPDEST PUSH1 0x0 DUP3 DUP3 MSTORE PUSH1 0x20 DUP3 ADD SWAP1 POP SWAP3 SWAP2 POP POP JUMP JUMPDEST PUSH1 0x0 DUP2 SWAP1 POP SWAP3 SWAP2 POP POP JUMP JUMPDEST PUSH1 0x0 PUSH2 0x485 DUP3 PUSH2 0x4AA JUMP JUMPDEST SWAP1 POP SWAP2 SWAP1 POP JUMP JUMPDEST PUSH1 0x0 PUSH2 0x497 DUP3 PUSH2 0x4AA JUMP JUMPDEST SWAP1 POP SWAP2 SWAP1 POP JUMP JUMPDEST PUSH1 0x0 DUP2 ISZERO ISZERO SWAP1 POP SWAP2 SWAP1 POP JUMP JUMPDEST PUSH1 0x0 PUSH20 0xFFFFFFFFFFFFFFFFFFFFFFFFFFFFFFFFFFFFFFFF DUP3 AND SWAP1 POP SWAP2 SWAP1 POP JUMP JUMPDEST PUSH1 0x0 DUP2 SWAP1 POP SWAP2 SWAP1 POP JUMP JUMPDEST PUSH1 0x0 JUMPDEST DUP4 DUP2 LT ISZERO PUSH2 0x4F2 JUMPI DUP1 DUP3 ADD MLOAD DUP2 DUP5 ADD MSTORE PUSH1 0x20 DUP2 ADD SWAP1 POP PUSH2 0x4D7 JUMP JUMPDEST DUP4 DUP2 GT ISZERO PUSH2 0x501 JUMPI PUSH1 0x0 DUP5 DUP5 ADD MSTORE JUMPDEST POP POP POP POP JUMP JUMPDEST PUSH1 0x0 DUP1 REVERT JUMPDEST PUSH1 0x0 PUSH1 0x1F NOT PUSH1 0x1F DUP4 ADD AND SWAP1 POP SWAP2 SWAP1 POP JUMP JUMPDEST PUSH2 0x526 DUP2 PUSH2 0x47A JUMP JUMPDEST DUP2 EQ PUSH2 0x531 JUMPI PUSH1 0x0 DUP1 REVERT JUMPDEST POP JUMP JUMPDEST PUSH2 0x53D DUP2 PUSH2 0x48C JUMP JUMPDEST DUP2 EQ PUSH2 0x548 JUMPI PUSH1 0x0 DUP1 REVERT JUMPDEST POP JUMP JUMPDEST PUSH2 0x554 DUP2 PUSH2 0x4CA JUMP JUMPDEST DUP2 EQ PUSH2 0x55F JUMPI PUSH1 0x0 DUP1 REVERT JUMPDEST POP JUMP INVALID LOG2 PUSH5 0x6970667358 0x22 SLT KECCAK256 0x2B PUSH31 0xEBF22CB24B7122C41D112C207D002296D6E90A0E0EC6B098838304D3537C64 PUSH20 0x6F6C634300080700330000000000000000000000 "
				},
				"gasEstimates": {
					"creation": {
						"codeDepositCost": "286400",
						"executionCost": "324",
						"totalCost": "286724"
					},
					"external": {
						"callGetX(address)": "infinite",
						"callSetX(address,uint256)": "infinite"
					}
				},
				"methodIdentifiers": {
					"callGetX(address)": "66563e69",
					"callSetX(address,uint256)": "3ca065bb"
				}
			},
			"storageLayout": {
				"storage": [],
				"types": null
			},
			"userdoc": {
				"kind": "user",
				"methods": {},
				"version": 1
			}
		}
	}
}