{
	"call/Call.sol": {
		"Call": {
			"abi": [
				{
					"anonymous": false,
					"inputs": [
						{
							"indexed": false,
							"internalType": "bool",
							"name": "success",
							"type": "bool"
						},
						{
							"indexed": false,
							"internalType": "bytes",
							"name": "data",
							"type": "bytes"
						}
					],
					"name": "Response",
					"type": "event"
				},
				{
					"inputs": [
						{
							"internalType": "address payable",
							"name": "_addr",
							"type": "address"
						},
						{
							"internalType": "uint256",
							"name": "x",
							"type": "uint256"
						}
					],
					"name": "callSetX",
					"outputs": [],
					"stateMutability": "payable",
					"type": "function"
				}
			],
			"devdoc": {
				"kind": "dev",
				"methods": {},
				"version": 1
			},
			"evm": {
				"assembly": "    /* \"call/Call.sol\":58:338  contract Call{\r... */\n  mstore(0x40, 0x80)\n  callvalue\n  dup1\n  iszero\n  tag_1\n  jumpi\n  0x00\n  dup1\n  revert\ntag_1:\n  pop\n  dataSize(sub_0)\n  dup1\n  dataOffset(sub_0)\n  0x00\n  codecopy\n  0x00\n  return\nstop\n\nsub_0: assembly {\n        /* \"call/Call.sol\":58:338  contract Call{\r... */\n      mstore(0x40, 0x80)\n      jumpi(tag_1, lt(calldatasize, 0x04))\n      shr(0xe0, calldataload(0x00))\n      dup1\n      0x3ca065bb\n      eq\n      tag_2\n      jumpi\n    tag_1:\n      0x00\n      dup1\n      revert\n        /* \"call/Call.sol\":126:335  function callSetX(address payable _addr,uint x) public payable{\r... */\n    tag_2:\n      tag_3\n      0x04\n      dup1\n      calldatasize\n      sub\n      dup2\n      add\n      swap1\n      tag_4\n      swap2\n      swap1\n      tag_5\n      jump\t// in\n    tag_4:\n      tag_6\n      jump\t// in\n    tag_3:\n      stop\n    tag_6:\n        /* \"call/Call.sol\":200:212  bool success */\n      0x00\n        /* \"call/Call.sol\":213:230  bytes memory data */\n      dup1\n        /* \"call/Call.sol\":234:239  _addr */\n      dup4\n        /* \"call/Call.sol\":234:244  _addr.call */\n      0xffffffffffffffffffffffffffffffffffffffff\n      and\n        /* \"call/Call.sol\":251:260  msg.value */\n      callvalue\n        /* \"call/Call.sol\":314:315  x */\n      dup5\n        /* \"call/Call.sol\":276:316  abi.encodeWithSignature(\"set_X(uint)\",x) */\n      add(0x24, mload(0x40))\n      tag_8\n      swap2\n      swap1\n      tag_9\n      jump\t// in\n    tag_8:\n      mload(0x40)\n      0x20\n      dup2\n      dup4\n      sub\n      sub\n      dup2\n      mstore\n      swap1\n      0x40\n      mstore\n      and(not(0xffffffffffffffffffffffffffffffffffffffffffffffffffffffff), 0x33a0899e00000000000000000000000000000000000000000000000000000000)\n      0x20\n      dup3\n      add\n      dup1\n      mload\n      0xffffffffffffffffffffffffffffffffffffffffffffffffffffffff\n      dup4\n      dup2\n      dup4\n      and\n      or\n      dup4\n      mstore\n      pop\n      pop\n      pop\n      pop\n        /* \"call/Call.sol\":234:327  _addr.call{value:msg.value}(\r... */\n      mload(0x40)\n      tag_10\n      swap2\n      swap1\n      tag_11\n      jump\t// in\n    tag_10:\n      0x00\n      mload(0x40)\n      dup1\n      dup4\n      sub\n      dup2\n      dup6\n      dup8\n      gas\n      call\n      swap3\n      pop\n      pop\n      pop\n      returndatasize\n      dup1\n      0x00\n      dup2\n      eq\n      tag_14\n      jumpi\n      mload(0x40)\n      swap2\n      pop\n      and(add(returndatasize, 0x3f), not(0x1f))\n      dup3\n      add\n      0x40\n      mstore\n      returndatasize\n      dup3\n      mstore\n      returndatasize\n      0x00\n      0x20\n      dup5\n      add\n      returndatacopy\n      jump(tag_13)\n    tag_14:\n      0x60\n      swap2\n      pop\n    tag_13:\n      pop\n        /* \"call/Call.sol\":199:327  (bool success,bytes memory data) = _addr.call{value:msg.value}(\r... */\n      swap2\n      pop\n      swap2\n      pop\n        /* \"call/Call.sol\":188:335  {\r... */\n      pop\n      pop\n        /* \"call/Call.sol\":126:335  function callSetX(address payable _addr,uint x) public payable{\r... */\n      pop\n      pop\n      jump\t// out\n        /* \"#utility.yul\":7:162   */\n    tag_16:\n        /* \"#utility.yul\":61:66   */\n      0x00\n        /* \"#utility.yul\":99:105   */\n      dup2\n        /* \"#utility.yul\":86:106   */\n      calldataload\n        /* \"#utility.yul\":77:106   */\n      swap1\n      pop\n        /* \"#utility.yul\":115:156   */\n      tag_18\n        /* \"#utility.yul\":150:155   */\n      dup2\n        /* \"#utility.yul\":115:156   */\n      tag_19\n      jump\t// in\n    tag_18:\n        /* \"#utility.yul\":7:162   */\n      swap3\n      swap2\n      pop\n      pop\n      jump\t// out\n        /* \"#utility.yul\":168:307   */\n    tag_20:\n        /* \"#utility.yul\":214:219   */\n      0x00\n        /* \"#utility.yul\":252:258   */\n      dup2\n        /* \"#utility.yul\":239:259   */\n      calldataload\n        /* \"#utility.yul\":230:259   */\n      swap1\n      pop\n        /* \"#utility.yul\":268:301   */\n      tag_22\n        /* \"#utility.yul\":295:300   */\n      dup2\n        /* \"#utility.yul\":268:301   */\n      tag_23\n      jump\t// in\n    tag_22:\n        /* \"#utility.yul\":168:307   */\n      swap3\n      swap2\n      pop\n      pop\n      jump\t// out\n        /* \"#utility.yul\":313:803   */\n    tag_5:\n        /* \"#utility.yul\":389:395   */\n      0x00\n        /* \"#utility.yul\":397:403   */\n      dup1\n        /* \"#utility.yul\":446:448   */\n      0x40\n        /* \"#utility.yul\":434:443   */\n      dup4\n        /* \"#utility.yul\":425:432   */\n      dup6\n        /* \"#utility.yul\":421:444   */\n      sub\n        /* \"#utility.yul\":417:449   */\n      slt\n        /* \"#utility.yul\":414:533   */\n      iszero\n      tag_25\n      jumpi\n        /* \"#utility.yul\":452:531   */\n      tag_26\n      tag_27\n      jump\t// in\n    tag_26:\n        /* \"#utility.yul\":414:533   */\n    tag_25:\n        /* \"#utility.yul\":572:573   */\n      0x00\n        /* \"#utility.yul\":597:658   */\n      tag_28\n        /* \"#utility.yul\":650:657   */\n      dup6\n        /* \"#utility.yul\":641:647   */\n      dup3\n        /* \"#utility.yul\":630:639   */\n      dup7\n        /* \"#utility.yul\":626:648   */\n      add\n        /* \"#utility.yul\":597:658   */\n      tag_16\n      jump\t// in\n    tag_28:\n        /* \"#utility.yul\":587:658   */\n      swap3\n      pop\n        /* \"#utility.yul\":543:668   */\n      pop\n        /* \"#utility.yul\":707:709   */\n      0x20\n        /* \"#utility.yul\":733:786   */\n      tag_29\n        /* \"#utility.yul\":778:785   */\n      dup6\n        /* \"#utility.yul\":769:775   */\n      dup3\n        /* \"#utility.yul\":758:767   */\n      dup7\n        /* \"#utility.yul\":754:776   */\n      add\n        /* \"#utility.yul\":733:786   */\n      tag_20\n      jump\t// in\n    tag_29:\n        /* \"#utility.yul\":723:786   */\n      swap2\n      pop\n        /* \"#utility.yul\":678:796   */\n      pop\n        /* \"#utility.yul\":313:803   */\n      swap3\n      pop\n      swap3\n      swap1\n      pop\n      jump\t// out\n        /* \"#utility.yul\":809:1182   */\n    tag_30:\n        /* \"#utility.yul\":913:916   */\n      0x00\n        /* \"#utility.yul\":941:979   */\n      tag_32\n        /* \"#utility.yul\":973:978   */\n      dup3\n        /* \"#utility.yul\":941:979   */\n      tag_33\n      jump\t// in\n    tag_32:\n        /* \"#utility.yul\":995:1083   */\n      tag_34\n        /* \"#utility.yul\":1076:1082   */\n      dup2\n        /* \"#utility.yul\":1071:1074   */\n      dup6\n        /* \"#utility.yul\":995:1083   */\n      tag_35\n      jump\t// in\n    tag_34:\n        /* \"#utility.yul\":988:1083   */\n      swap4\n      pop\n        /* \"#utility.yul\":1092:1144   */\n      tag_36\n        /* \"#utility.yul\":1137:1143   */\n      dup2\n        /* \"#utility.yul\":1132:1135   */\n      dup6\n        /* \"#utility.yul\":1125:1129   */\n      0x20\n        /* \"#utility.yul\":1118:1123   */\n      dup7\n        /* \"#utility.yul\":1114:1130   */\n      add\n        /* \"#utility.yul\":1092:1144   */\n      tag_37\n      jump\t// in\n    tag_36:\n        /* \"#utility.yul\":1169:1175   */\n      dup1\n        /* \"#utility.yul\":1164:1167   */\n      dup5\n        /* \"#utility.yul\":1160:1176   */\n      add\n        /* \"#utility.yul\":1153:1176   */\n      swap2\n      pop\n        /* \"#utility.yul\":917:1182   */\n      pop\n        /* \"#utility.yul\":809:1182   */\n      swap3\n      swap2\n      pop\n      pop\n      jump\t// out\n        /* \"#utility.yul\":1188:1306   */\n    tag_38:\n        /* \"#utility.yul\":1275:1299   */\n      tag_40\n        /* \"#utility.yul\":1293:1298   */\n      dup2\n        /* \"#utility.yul\":1275:1299   */\n      tag_41\n      jump\t// in\n    tag_40:\n        /* \"#utility.yul\":1270:1273   */\n      dup3\n        /* \"#utility.yul\":1263:1300   */\n      mstore\n        /* \"#utility.yul\":1188:1306   */\n      pop\n      pop\n      jump\t// out\n        /* \"#utility.yul\":1312:1583   */\n    tag_11:\n        /* \"#utility.yul\":1442:1445   */\n      0x00\n        /* \"#utility.yul\":1464:1557   */\n      tag_43\n        /* \"#utility.yul\":1553:1556   */\n      dup3\n        /* \"#utility.yul\":1544:1550   */\n      dup5\n        /* \"#utility.yul\":1464:1557   */\n      tag_30\n      jump\t// in\n    tag_43:\n        /* \"#utility.yul\":1457:1557   */\n      swap2\n      pop\n        /* \"#utility.yul\":1574:1577   */\n      dup2\n        /* \"#utility.yul\":1567:1577   */\n      swap1\n      pop\n        /* \"#utility.yul\":1312:1583   */\n      swap3\n      swap2\n      pop\n      pop\n      jump\t// out\n        /* \"#utility.yul\":1589:1811   */\n    tag_9:\n        /* \"#utility.yul\":1682:1686   */\n      0x00\n        /* \"#utility.yul\":1720:1722   */\n      0x20\n        /* \"#utility.yul\":1709:1718   */\n      dup3\n        /* \"#utility.yul\":1705:1723   */\n      add\n        /* \"#utility.yul\":1697:1723   */\n      swap1\n      pop\n        /* \"#utility.yul\":1733:1804   */\n      tag_45\n        /* \"#utility.yul\":1801:1802   */\n      0x00\n        /* \"#utility.yul\":1790:1799   */\n      dup4\n        /* \"#utility.yul\":1786:1803   */\n      add\n        /* \"#utility.yul\":1777:1783   */\n      dup5\n        /* \"#utility.yul\":1733:1804   */\n      tag_38\n      jump\t// in\n    tag_45:\n        /* \"#utility.yul\":1589:1811   */\n      swap3\n      swap2\n      pop\n      pop\n      jump\t// out\n        /* \"#utility.yul\":1898:1996   */\n    tag_33:\n        /* \"#utility.yul\":1949:1955   */\n      0x00\n        /* \"#utility.yul\":1983:1988   */\n      dup2\n        /* \"#utility.yul\":1977:1989   */\n      mload\n        /* \"#utility.yul\":1967:1989   */\n      swap1\n      pop\n        /* \"#utility.yul\":1898:1996   */\n      swap2\n      swap1\n      pop\n      jump\t// out\n        /* \"#utility.yul\":2002:2149   */\n    tag_35:\n        /* \"#utility.yul\":2103:2114   */\n      0x00\n        /* \"#utility.yul\":2140:2143   */\n      dup2\n        /* \"#utility.yul\":2125:2143   */\n      swap1\n      pop\n        /* \"#utility.yul\":2002:2149   */\n      swap3\n      swap2\n      pop\n      pop\n      jump\t// out\n        /* \"#utility.yul\":2155:2259   */\n    tag_50:\n        /* \"#utility.yul\":2200:2207   */\n      0x00\n        /* \"#utility.yul\":2229:2253   */\n      tag_52\n        /* \"#utility.yul\":2247:2252   */\n      dup3\n        /* \"#utility.yul\":2229:2253   */\n      tag_53\n      jump\t// in\n    tag_52:\n        /* \"#utility.yul\":2218:2253   */\n      swap1\n      pop\n        /* \"#utility.yul\":2155:2259   */\n      swap2\n      swap1\n      pop\n      jump\t// out\n        /* \"#utility.yul\":2265:2391   */\n    tag_53:\n        /* \"#utility.yul\":2302:2309   */\n      0x00\n        /* \"#utility.yul\":2342:2384   */\n      0xffffffffffffffffffffffffffffffffffffffff\n        /* \"#utility.yul\":2335:2340   */\n      dup3\n        /* \"#utility.yul\":2331:2385   */\n      and\n        /* \"#utility.yul\":2320:2385   */\n      swap1\n      pop\n        /* \"#utility.yul\":2265:2391   */\n      swap2\n      swap1\n      pop\n      jump\t// out\n        /* \"#utility.yul\":2397:2474   */\n    tag_41:\n        /* \"#utility.yul\":2434:2441   */\n      0x00\n        /* \"#utility.yul\":2463:2468   */\n      dup2\n        /* \"#utility.yul\":2452:2468   */\n      swap1\n      pop\n        /* \"#utility.yul\":2397:2474   */\n      swap2\n      swap1\n      pop\n      jump\t// out\n        /* \"#utility.yul\":2480:2787   */\n    tag_37:\n        /* \"#utility.yul\":2548:2549   */\n      0x00\n        /* \"#utility.yul\":2558:2671   */\n    tag_57:\n        /* \"#utility.yul\":2572:2578   */\n      dup4\n        /* \"#utility.yul\":2569:2570   */\n      dup2\n        /* \"#utility.yul\":2566:2579   */\n      lt\n        /* \"#utility.yul\":2558:2671   */\n      iszero\n      tag_59\n      jumpi\n        /* \"#utility.yul\":2657:2658   */\n      dup1\n        /* \"#utility.yul\":2652:2655   */\n      dup3\n        /* \"#utility.yul\":2648:2659   */\n      add\n        /* \"#utility.yul\":2642:2660   */\n      mload\n        /* \"#utility.yul\":2638:2639   */\n      dup2\n        /* \"#utility.yul\":2633:2636   */\n      dup5\n        /* \"#utility.yul\":2629:2640   */\n      add\n        /* \"#utility.yul\":2622:2661   */\n      mstore\n        /* \"#utility.yul\":2594:2596   */\n      0x20\n        /* \"#utility.yul\":2591:2592   */\n      dup2\n        /* \"#utility.yul\":2587:2597   */\n      add\n        /* \"#utility.yul\":2582:2597   */\n      swap1\n      pop\n        /* \"#utility.yul\":2558:2671   */\n      jump(tag_57)\n    tag_59:\n        /* \"#utility.yul\":2689:2695   */\n      dup4\n        /* \"#utility.yul\":2686:2687   */\n      dup2\n        /* \"#utility.yul\":2683:2696   */\n      gt\n        /* \"#utility.yul\":2680:2781   */\n      iszero\n      tag_60\n      jumpi\n        /* \"#utility.yul\":2769:2770   */\n      0x00\n        /* \"#utility.yul\":2760:2766   */\n      dup5\n        /* \"#utility.yul\":2755:2758   */\n      dup5\n        /* \"#utility.yul\":2751:2767   */\n      add\n        /* \"#utility.yul\":2744:2771   */\n      mstore\n        /* \"#utility.yul\":2680:2781   */\n    tag_60:\n        /* \"#utility.yul\":2529:2787   */\n      pop\n        /* \"#utility.yul\":2480:2787   */\n      pop\n      pop\n      pop\n      jump\t// out\n        /* \"#utility.yul\":2916:3033   */\n    tag_27:\n        /* \"#utility.yul\":3025:3026   */\n      0x00\n        /* \"#utility.yul\":3022:3023   */\n      dup1\n        /* \"#utility.yul\":3015:3027   */\n      revert\n        /* \"#utility.yul\":3039:3177   */\n    tag_19:\n        /* \"#utility.yul\":3120:3152   */\n      tag_65\n        /* \"#utility.yul\":3146:3151   */\n      dup2\n        /* \"#utility.yul\":3120:3152   */\n      tag_50\n      jump\t// in\n    tag_65:\n        /* \"#utility.yul\":3113:3118   */\n      dup2\n        /* \"#utility.yul\":3110:3153   */\n      eq\n        /* \"#utility.yul\":3100:3171   */\n      tag_66\n      jumpi\n        /* \"#utility.yul\":3167:3168   */\n      0x00\n        /* \"#utility.yul\":3164:3165   */\n      dup1\n        /* \"#utility.yul\":3157:3169   */\n      revert\n        /* \"#utility.yul\":3100:3171   */\n    tag_66:\n        /* \"#utility.yul\":3039:3177   */\n      pop\n      jump\t// out\n        /* \"#utility.yul\":3183:3305   */\n    tag_23:\n        /* \"#utility.yul\":3256:3280   */\n      tag_68\n        /* \"#utility.yul\":3274:3279   */\n      dup2\n        /* \"#utility.yul\":3256:3280   */\n      tag_41\n      jump\t// in\n    tag_68:\n        /* \"#utility.yul\":3249:3254   */\n      dup2\n        /* \"#utility.yul\":3246:3281   */\n      eq\n        /* \"#utility.yul\":3236:3299   */\n      tag_69\n      jumpi\n        /* \"#utility.yul\":3295:3296   */\n      0x00\n        /* \"#utility.yul\":3292:3293   */\n      dup1\n        /* \"#utility.yul\":3285:3297   */\n      revert\n        /* \"#utility.yul\":3236:3299   */\n    tag_69:\n        /* \"#utility.yul\":3183:3305   */\n      pop\n      jump\t// out\n\n    auxdata: 0xa2646970667358221220bf97242ba5fe22362c36f6f43a3d1b4c8c201ead9533f002195d0e7199e6913b64736f6c63430008070033\n}\n",
				"bytecode": {
					"linkReferences": {},
					"object": "608060405234801561001057600080fd5b5061030c806100206000396000f3fe60806040526004361061001e5760003560e01c80633ca065bb14610023575b600080fd5b61003d6004803603810190610038919061016c565b61003f565b005b6000808373ffffffffffffffffffffffffffffffffffffffff16348460405160240161006b9190610203565b6040516020818303038152906040527f33a0899e000000000000000000000000000000000000000000000000000000007bffffffffffffffffffffffffffffffffffffffffffffffffffffffff19166020820180517bffffffffffffffffffffffffffffffffffffffffffffffffffffffff83818316178352505050506040516100f591906101ec565b60006040518083038185875af1925050503d8060008114610132576040519150601f19603f3d011682016040523d82523d6000602084013e610137565b606091505b509150915050505050565b600081359050610151816102a8565b92915050565b600081359050610166816102bf565b92915050565b60008060408385031215610183576101826102a3565b5b600061019185828601610142565b92505060206101a285828601610157565b9150509250929050565b60006101b78261021e565b6101c18185610229565b93506101d1818560208601610270565b80840191505092915050565b6101e681610266565b82525050565b60006101f882846101ac565b915081905092915050565b600060208201905061021860008301846101dd565b92915050565b600081519050919050565b600081905092915050565b600061023f82610246565b9050919050565b600073ffffffffffffffffffffffffffffffffffffffff82169050919050565b6000819050919050565b60005b8381101561028e578082015181840152602081019050610273565b8381111561029d576000848401525b50505050565b600080fd5b6102b181610234565b81146102bc57600080fd5b50565b6102c881610266565b81146102d357600080fd5b5056fea2646970667358221220bf97242ba5fe22362c36f6f43a3d1b4c8c201ead9533f002195d0e7199e6913b64736f6c63430008070033",
					"opcodes": "PUSH1 0x80 PUSH1 0x40 MSTORE CALLVALUE DUP1 ISZERO PUSH2 0x10 JUMPI PUSH1 0x0 DUP1 REVERT JUMPDEST POP PUSH2 0x30C DUP1 PUSH2 0x20 PUSH1 0x0 CODECOPY PUSH1 0x0 RETURN INVALID PUSH1 0x80 PUSH1 0x40 MSTORE PUSH1 0x4 CALLDATASIZE LT PUSH2 0x1E JUMPI PUSH1 0x0 CALLDATALOAD PUSH1 0xE0 SHR DUP1 PUSH4 0x3CA065BB EQ PUSH2 0x23 JUMPI JUMPDEST PUSH1 0x0 DUP1 REVERT JUMPDEST PUSH2 0x3D PUSH1 0x4 DUP1 CALLDATASIZE SUB DUP2 ADD SWAP1 PUSH2 0x38 SWAP2 SWAP1 PUSH2 0x16C JUMP JUMPDEST PUSH2 0x3F JUMP JUMPDEST STOP JUMPDEST PUSH1 0x0 DUP1 DUP4 PUSH20 0xFFFFFFFFFFFFFFFFFFFFFFFFFFFFFFFFFFFFFFFF AND CALLVALUE DUP5 PUSH1 0x40 MLOAD PUSH1 0x24 ADD PUSH2 0x6B SWAP2 SWAP1 PUSH2 0x203 JUMP JUMPDEST PUSH1 0x40 MLOAD PUSH1 0x20 DUP2 DUP4 SUB SUB DUP2 MSTORE SWAP1 PUSH1 0x40 MSTORE PUSH32 0x33A0899E00000000000000000000000000000000000000000000000000000000 PUSH28 0xFFFFFFFFFFFFFFFFFFFFFFFFFFFFFFFFFFFFFFFFFFFFFFFFFFFFFFFF NOT AND PUSH1 0x20 DUP3 ADD DUP1 MLOAD PUSH28 0xFFFFFFFFFFFFFFFFFFFFFFFFFFFFFFFFFFFFFFFFFFFFFFFFFFFFFFFF DUP4 DUP2 DUP4 AND OR DUP4 MSTORE POP POP POP POP PUSH1 0x40 MLOAD PUSH2 0xF5 SWAP2 SWAP1 PUSH2 0x1EC JUMP JUMPDEST PUSH1 0x0 PUSH1 0x40 MLOAD DUP1 DUP4 SUB DUP2 DUP6 DUP8 GAS CALL SWAP3 POP POP POP RETURNDATASIZE DUP1 PUSH1 0x0 DUP2 EQ PUSH2 0x132 JUMPI PUSH1 0x40 MLOAD SWAP2 POP PUSH1 0x1F NOT PUSH1 0x3F RETURNDATASIZE ADD AND DUP3 ADD PUSH1 0x40 MSTORE RETURNDATASIZE DUP3 MSTORE RETURNDATASIZE PUSH1 0x0 PUSH1 0x20 DUP5 ADD RETURNDATACOPY PUSH2 0x137 JUMP JUMPDEST PUSH1 0x60 SWAP2 POP JUMPDEST POP SWAP2 POP SWAP2 POP POP POP POP POP JUMP JUMPDEST PUSH1 0x0 DUP2 CALLDATALOAD SWAP1 POP PUSH2 0x151 DUP2 PUSH2 0x2A8 JUMP JUMPDEST SWAP3 SWAP2 POP POP JUMP JUMPDEST PUSH1 0x0 DUP2 CALLDATALOAD SWAP1 POP PUSH2 0x166 DUP2 PUSH2 0x2BF JUMP JUMPDEST SWAP3 SWAP2 POP POP JUMP JUMPDEST PUSH1 0x0 DUP1 PUSH1 0x40 DUP4 DUP6 SUB SLT ISZERO PUSH2 0x183 JUMPI PUSH2 0x182 PUSH2 0x2A3 JUMP JUMPDEST JUMPDEST PUSH1 0x0 PUSH2 0x191 DUP6 DUP3 DUP7 ADD PUSH2 0x142 JUMP JUMPDEST SWAP3 POP POP PUSH1 0x20 PUSH2 0x1A2 DUP6 DUP3 DUP7 ADD PUSH2 0x157 JUMP JUMPDEST SWAP2 POP POP SWAP3 POP SWAP3 SWAP1 POP JUMP JUMPDEST PUSH1 0x0 PUSH2 0x1B7 DUP3 PUSH2 0x21E JUMP JUMPDEST PUSH2 0x1C1 DUP2 DUP6 PUSH2 0x229 JUMP JUMPDEST SWAP4 POP PUSH2 0x1D1 DUP2 DUP6 PUSH1 0x20 DUP7 ADD PUSH2 0x270 JUMP JUMPDEST DUP1 DUP5 ADD SWAP2 POP POP SWAP3 SWAP2 POP POP JUMP JUMPDEST PUSH2 0x1E6 DUP2 PUSH2 0x266 JUMP JUMPDEST DUP3 MSTORE POP POP JUMP JUMPDEST PUSH1 0x0 PUSH2 0x1F8 DUP3 DUP5 PUSH2 0x1AC JUMP JUMPDEST SWAP2 POP DUP2 SWAP1 POP SWAP3 SWAP2 POP POP JUMP JUMPDEST PUSH1 0x0 PUSH1 0x20 DUP3 ADD SWAP1 POP PUSH2 0x218 PUSH1 0x0 DUP4 ADD DUP5 PUSH2 0x1DD JUMP JUMPDEST SWAP3 SWAP2 POP POP JUMP JUMPDEST PUSH1 0x0 DUP2 MLOAD SWAP1 POP SWAP2 SWAP1 POP JUMP JUMPDEST PUSH1 0x0 DUP2 SWAP1 POP SWAP3 SWAP2 POP POP JUMP JUMPDEST PUSH1 0x0 PUSH2 0x23F DUP3 PUSH2 0x246 JUMP JUMPDEST SWAP1 POP SWAP2 SWAP1 POP JUMP JUMPDEST PUSH1 0x0 PUSH20 0xFFFFFFFFFFFFFFFFFFFFFFFFFFFFFFFFFFFFFFFF DUP3 AND SWAP1 POP SWAP2 SWAP1 POP JUMP JUMPDEST PUSH1 0x0 DUP2 SWAP1 POP SWAP2 SWAP1 POP JUMP JUMPDEST PUSH1 0x0 JUMPDEST DUP4 DUP2 LT ISZERO PUSH2 0x28E JUMPI DUP1 DUP3 ADD MLOAD DUP2 DUP5 ADD MSTORE PUSH1 0x20 DUP2 ADD SWAP1 POP PUSH2 0x273 JUMP JUMPDEST DUP4 DUP2 GT ISZERO PUSH2 0x29D JUMPI PUSH1 0x0 DUP5 DUP5 ADD MSTORE JUMPDEST POP POP POP POP JUMP JUMPDEST PUSH1 0x0 DUP1 REVERT JUMPDEST PUSH2 0x2B1 DUP2 PUSH2 0x234 JUMP JUMPDEST DUP2 EQ PUSH2 0x2BC JUMPI PUSH1 0x0 DUP1 REVERT JUMPDEST POP JUMP JUMPDEST PUSH2 0x2C8 DUP2 PUSH2 0x266 JUMP JUMPDEST DUP2 EQ PUSH2 0x2D3 JUMPI PUSH1 0x0 DUP1 REVERT JUMPDEST POP JUMP INVALID LOG2 PUSH5 0x6970667358 0x22 SLT KECCAK256 0xBF SWAP8 0x24 0x2B 0xA5 INVALID 0x22 CALLDATASIZE 0x2C CALLDATASIZE 0xF6 DELEGATECALL GASPRICE RETURNDATASIZE SHL 0x4C DUP13 KECCAK256 0x1E 0xAD SWAP6 CALLER CREATE MUL NOT 0x5D 0xE PUSH18 0x99E6913B64736F6C63430008070033000000 "
				},
				"gasEstimates": {
					"creation": {
						"codeDepositCost": "156000",
						"executionCost": "202",
						"totalCost": "156202"
					},
					"external": {
						"callSetX(address,uint256)": "infinite"
					}
				},
				"methodIdentifiers": {
					"callSetX(address,uint256)": "3ca065bb"
				}
			},
			"storageLayout": {
				"storage": [],
				"types": null
			},
			"userdoc": {
				"kind": "user",
				"methods": {},
				"version": 1
			}
		}
	}
}