{
	"call/OtherContract.sol": {
		"OtherContract": {
			"abi": [
				{
					"inputs": [],
					"name": "set_X",
					"outputs": [],
					"stateMutability": "nonpayable",
					"type": "function"
				}
			],
			"devdoc": {
				"kind": "dev",
				"methods": {},
				"version": 1
			},
			"evm": {
				"assembly": "    /* \"call/OtherContract.sol\":58:145  contract OtherContract{\r... */\n  mstore(0x40, 0x80)\n    /* \"call/OtherContract.sol\":105:106  0 */\n  0x00\n    /* \"call/OtherContract.sol\":87:106  uint private _x = 0 */\n  dup1\n  sstore\n    /* \"call/OtherContract.sol\":58:145  contract OtherContract{\r... */\n  callvalue\n  dup1\n  iszero\n  tag_1\n  jumpi\n  0x00\n  dup1\n  revert\ntag_1:\n  pop\n  dataSize(sub_0)\n  dup1\n  dataOffset(sub_0)\n  0x00\n  codecopy\n  0x00\n  return\nstop\n\nsub_0: assembly {\n        /* \"call/OtherContract.sol\":58:145  contract OtherContract{\r... */\n      mstore(0x40, 0x80)\n      callvalue\n      dup1\n      iszero\n      tag_1\n      jumpi\n      0x00\n      dup1\n      revert\n    tag_1:\n      pop\n      jumpi(tag_2, lt(calldatasize, 0x04))\n      shr(0xe0, calldataload(0x00))\n      dup1\n      0xb79bfcb3\n      eq\n      tag_3\n      jumpi\n    tag_2:\n      0x00\n      dup1\n      revert\n        /* \"call/OtherContract.sol\":115:142  function set_X() external{} */\n    tag_3:\n      tag_4\n      tag_5\n      jump\t// in\n    tag_4:\n      stop\n    tag_5:\n      jump\t// out\n\n    auxdata: 0xa2646970667358221220159536fc1a83b9677be361f18dbd0de1a25b83d403ec07fbb38e42cb1fa73ba064736f6c63430008070033\n}\n",
				"bytecode": {
					"linkReferences": {},
					"object": "608060405260008055348015601357600080fd5b50606d8060216000396000f3fe6080604052348015600f57600080fd5b506004361060285760003560e01c8063b79bfcb314602d575b600080fd5b60336035565b005b56fea2646970667358221220159536fc1a83b9677be361f18dbd0de1a25b83d403ec07fbb38e42cb1fa73ba064736f6c63430008070033",
					"opcodes": "PUSH1 0x80 PUSH1 0x40 MSTORE PUSH1 0x0 DUP1 SSTORE CALLVALUE DUP1 ISZERO PUSH1 0x13 JUMPI PUSH1 0x0 DUP1 REVERT JUMPDEST POP PUSH1 0x6D DUP1 PUSH1 0x21 PUSH1 0x0 CODECOPY PUSH1 0x0 RETURN INVALID PUSH1 0x80 PUSH1 0x40 MSTORE CALLVALUE DUP1 ISZERO PUSH1 0xF JUMPI PUSH1 0x0 DUP1 REVERT JUMPDEST POP PUSH1 0x4 CALLDATASIZE LT PUSH1 0x28 JUMPI PUSH1 0x0 CALLDATALOAD PUSH1 0xE0 SHR DUP1 PUSH4 0xB79BFCB3 EQ PUSH1 0x2D JUMPI JUMPDEST PUSH1 0x0 DUP1 REVERT JUMPDEST PUSH1 0x33 PUSH1 0x35 JUMP JUMPDEST STOP JUMPDEST JUMP INVALID LOG2 PUSH5 0x6970667358 0x22 SLT KECCAK256 ISZERO SWAP6 CALLDATASIZE 0xFC BYTE DUP4 0xB9 PUSH8 0x7BE361F18DBD0DE1 LOG2 JUMPDEST DUP4 0xD4 SUB 0xEC SMOD 0xFB 0xB3 DUP15 TIMESTAMP 0xCB 0x1F 0xA7 EXTCODESIZE LOG0 PUSH5 0x736F6C6343 STOP ADDMOD SMOD STOP CALLER "
				},
				"gasEstimates": {
					"creation": {
						"codeDepositCost": "21800",
						"executionCost": "5081",
						"totalCost": "26881"
					},
					"external": {
						"set_X()": "122"
					}
				},
				"methodIdentifiers": {
					"set_X()": "b79bfcb3"
				}
			},
			"storageLayout": {
				"storage": [
					{
						"astId": 4,
						"contract": "call/OtherContract.sol:OtherContract",
						"label": "_x",
						"offset": 0,
						"slot": "0",
						"type": "t_uint256"
					}
				],
				"types": {
					"t_uint256": {
						"encoding": "inplace",
						"label": "uint256",
						"numberOfBytes": "32"
					}
				}
			},
			"userdoc": {
				"kind": "user",
				"methods": {},
				"version": 1
			}
		}
	}
}