{
	"create/create.sol": {
		"PairFactory": {
			"abi": [
				{
					"inputs": [
						{
							"internalType": "address",
							"name": "token1",
							"type": "address"
						},
						{
							"internalType": "address",
							"name": "token2",
							"type": "address"
						}
					],
					"name": "createPair",
					"outputs": [
						{
							"internalType": "address",
							"name": "pairAddr",
							"type": "address"
						}
					],
					"stateMutability": "nonpayable",
					"type": "function"
				},
				{
					"inputs": [
						{
							"internalType": "address",
							"name": "",
							"type": "address"
						},
						{
							"internalType": "address",
							"name": "",
							"type": "address"
						}
					],
					"name": "getPair",
					"outputs": [
						{
							"internalType": "address",
							"name": "",
							"type": "address"
						}
					],
					"stateMutability": "view",
					"type": "function"
				}
			],
			"devdoc": {
				"kind": "dev",
				"methods": {},
				"version": 1
			},
			"evm": {
				"assembly": "    /* \"create/create.sol\":406:772  contract PairFactory{\r... */\n  mstore(0x40, 0x80)\n  callvalue\n  dup1\n  iszero\n  tag_1\n  jumpi\n  0x00\n  dup1\n  revert\ntag_1:\n  pop\n  dataSize(sub_0)\n  dup1\n  dataOffset(sub_0)\n  0x00\n  codecopy\n  0x00\n  return\nstop\n\nsub_0: assembly {\n        /* \"create/create.sol\":406:772  contract PairFactory{\r... */\n      mstore(0x40, 0x80)\n      callvalue\n      dup1\n      iszero\n      tag_1\n      jumpi\n      0x00\n      dup1\n      revert\n    tag_1:\n      pop\n      jumpi(tag_2, lt(calldatasize, 0x04))\n      shr(0xe0, calldataload(0x00))\n      dup1\n      0xc9c65396\n      eq\n      tag_3\n      jumpi\n      dup1\n      0xe6a43905\n      eq\n      tag_4\n      jumpi\n    tag_2:\n      0x00\n      dup1\n      revert\n        /* \"create/create.sol\":531:769  function createPair(address token1,address token2) external returns(address pairAddr){\r... */\n    tag_3:\n      tag_5\n      0x04\n      dup1\n      calldatasize\n      sub\n      dup2\n      add\n      swap1\n      tag_6\n      swap2\n      swap1\n      tag_7\n      jump\t// in\n    tag_6:\n      tag_8\n      jump\t// in\n    tag_5:\n      mload(0x40)\n      tag_9\n      swap2\n      swap1\n      tag_10\n      jump\t// in\n    tag_9:\n      mload(0x40)\n      dup1\n      swap2\n      sub\n      swap1\n      return\n        /* \"create/create.sol\":433:495  mapping(address => mapping(address => address)) public getPair */\n    tag_4:\n      tag_11\n      0x04\n      dup1\n      calldatasize\n      sub\n      dup2\n      add\n      swap1\n      tag_12\n      swap2\n      swap1\n      tag_7\n      jump\t// in\n    tag_12:\n      tag_13\n      jump\t// in\n    tag_11:\n      mload(0x40)\n      tag_14\n      swap2\n      swap1\n      tag_10\n      jump\t// in\n    tag_14:\n      mload(0x40)\n      dup1\n      swap2\n      sub\n      swap1\n      return\n        /* \"create/create.sol\":531:769  function createPair(address token1,address token2) external returns(address pairAddr){\r... */\n    tag_8:\n        /* \"create/create.sol\":599:615  address pairAddr */\n      0x00\n        /* \"create/create.sol\":655:664  Pair pair */\n      dup1\n        /* \"create/create.sol\":667:677  new Pair() */\n      mload(0x40)\n      tag_16\n      swap1\n      tag_17\n      jump\t// in\n    tag_16:\n      mload(0x40)\n      dup1\n      swap2\n      sub\n      swap1\n      0x00\n      create\n      dup1\n      iszero\n      dup1\n      iszero\n      tag_18\n      jumpi\n      returndatasize\n      0x00\n      dup1\n      returndatacopy\n      revert(0x00, returndatasize)\n    tag_18:\n      pop\n        /* \"create/create.sol\":655:677  Pair pair = new Pair() */\n      swap1\n      pop\n        /* \"create/create.sol\":690:694  pair */\n      dup1\n        /* \"create/create.sol\":690:705  pair.initialize */\n      0xffffffffffffffffffffffffffffffffffffffff\n      and\n      0x485cc955\n        /* \"create/create.sol\":706:712  token1 */\n      dup6\n        /* \"create/create.sol\":713:719  token2 */\n      dup6\n        /* \"create/create.sol\":690:720  pair.initialize(token1,token2) */\n      mload(0x40)\n      dup4\n      0xffffffff\n      and\n      0xe0\n      shl\n      dup2\n      mstore\n      0x04\n      add\n      tag_19\n      swap3\n      swap2\n      swap1\n      tag_20\n      jump\t// in\n    tag_19:\n      0x00\n      mload(0x40)\n      dup1\n      dup4\n      sub\n      dup2\n      0x00\n      dup8\n      dup1\n      extcodesize\n      iszero\n      dup1\n      iszero\n      tag_21\n      jumpi\n      0x00\n      dup1\n      revert\n    tag_21:\n      pop\n      gas\n      call\n      iszero\n      dup1\n      iszero\n      tag_23\n      jumpi\n      returndatasize\n      0x00\n      dup1\n      returndatacopy\n      revert(0x00, returndatasize)\n    tag_23:\n      pop\n      pop\n      pop\n      pop\n        /* \"create/create.sol\":752:756  pair */\n      dup1\n        /* \"create/create.sol\":733:757  pairAddr = address(pair) */\n      swap2\n      pop\n        /* \"create/create.sol\":616:769  {\r... */\n      pop\n        /* \"create/create.sol\":531:769  function createPair(address token1,address token2) external returns(address pairAddr){\r... */\n      swap3\n      swap2\n      pop\n      pop\n      jump\t// out\n        /* \"create/create.sol\":433:495  mapping(address => mapping(address => address)) public getPair */\n    tag_13:\n      mstore(0x20, 0x00)\n      dup2\n      0x00\n      mstore\n      mstore(0x20, keccak256(0x00, 0x40))\n      dup1\n      0x00\n      mstore\n      keccak256(0x00, 0x40)\n      0x00\n      swap2\n      pop\n      swap2\n      pop\n      swap1\n      sload\n      swap1\n      0x0100\n      exp\n      swap1\n      div\n      0xffffffffffffffffffffffffffffffffffffffff\n      and\n      dup2\n      jump\t// out\n    tag_17:\n      dataSize(sub_0)\n      dup1\n      dataOffset(sub_0)\n      dup4\n      codecopy\n      add\n      swap1\n      jump\t// out\n        /* \"#utility.yul\":7:146   */\n    tag_25:\n        /* \"#utility.yul\":53:58   */\n      0x00\n        /* \"#utility.yul\":91:97   */\n      dup2\n        /* \"#utility.yul\":78:98   */\n      calldataload\n        /* \"#utility.yul\":69:98   */\n      swap1\n      pop\n        /* \"#utility.yul\":107:140   */\n      tag_27\n        /* \"#utility.yul\":134:139   */\n      dup2\n        /* \"#utility.yul\":107:140   */\n      tag_28\n      jump\t// in\n    tag_27:\n        /* \"#utility.yul\":7:146   */\n      swap3\n      swap2\n      pop\n      pop\n      jump\t// out\n        /* \"#utility.yul\":152:626   */\n    tag_7:\n        /* \"#utility.yul\":220:226   */\n      0x00\n        /* \"#utility.yul\":228:234   */\n      dup1\n        /* \"#utility.yul\":277:279   */\n      0x40\n        /* \"#utility.yul\":265:274   */\n      dup4\n        /* \"#utility.yul\":256:263   */\n      dup6\n        /* \"#utility.yul\":252:275   */\n      sub\n        /* \"#utility.yul\":248:280   */\n      slt\n        /* \"#utility.yul\":245:364   */\n      iszero\n      tag_30\n      jumpi\n        /* \"#utility.yul\":283:362   */\n      tag_31\n      tag_32\n      jump\t// in\n    tag_31:\n        /* \"#utility.yul\":245:364   */\n    tag_30:\n        /* \"#utility.yul\":403:404   */\n      0x00\n        /* \"#utility.yul\":428:481   */\n      tag_33\n        /* \"#utility.yul\":473:480   */\n      dup6\n        /* \"#utility.yul\":464:470   */\n      dup3\n        /* \"#utility.yul\":453:462   */\n      dup7\n        /* \"#utility.yul\":449:471   */\n      add\n        /* \"#utility.yul\":428:481   */\n      tag_25\n      jump\t// in\n    tag_33:\n        /* \"#utility.yul\":418:481   */\n      swap3\n      pop\n        /* \"#utility.yul\":374:491   */\n      pop\n        /* \"#utility.yul\":530:532   */\n      0x20\n        /* \"#utility.yul\":556:609   */\n      tag_34\n        /* \"#utility.yul\":601:608   */\n      dup6\n        /* \"#utility.yul\":592:598   */\n      dup3\n        /* \"#utility.yul\":581:590   */\n      dup7\n        /* \"#utility.yul\":577:599   */\n      add\n        /* \"#utility.yul\":556:609   */\n      tag_25\n      jump\t// in\n    tag_34:\n        /* \"#utility.yul\":546:609   */\n      swap2\n      pop\n        /* \"#utility.yul\":501:619   */\n      pop\n        /* \"#utility.yul\":152:626   */\n      swap3\n      pop\n      swap3\n      swap1\n      pop\n      jump\t// out\n        /* \"#utility.yul\":632:750   */\n    tag_35:\n        /* \"#utility.yul\":719:743   */\n      tag_37\n        /* \"#utility.yul\":737:742   */\n      dup2\n        /* \"#utility.yul\":719:743   */\n      tag_38\n      jump\t// in\n    tag_37:\n        /* \"#utility.yul\":714:717   */\n      dup3\n        /* \"#utility.yul\":707:744   */\n      mstore\n        /* \"#utility.yul\":632:750   */\n      pop\n      pop\n      jump\t// out\n        /* \"#utility.yul\":756:978   */\n    tag_10:\n        /* \"#utility.yul\":849:853   */\n      0x00\n        /* \"#utility.yul\":887:889   */\n      0x20\n        /* \"#utility.yul\":876:885   */\n      dup3\n        /* \"#utility.yul\":872:890   */\n      add\n        /* \"#utility.yul\":864:890   */\n      swap1\n      pop\n        /* \"#utility.yul\":900:971   */\n      tag_40\n        /* \"#utility.yul\":968:969   */\n      0x00\n        /* \"#utility.yul\":957:966   */\n      dup4\n        /* \"#utility.yul\":953:970   */\n      add\n        /* \"#utility.yul\":944:950   */\n      dup5\n        /* \"#utility.yul\":900:971   */\n      tag_35\n      jump\t// in\n    tag_40:\n        /* \"#utility.yul\":756:978   */\n      swap3\n      swap2\n      pop\n      pop\n      jump\t// out\n        /* \"#utility.yul\":984:1316   */\n    tag_20:\n        /* \"#utility.yul\":1105:1109   */\n      0x00\n        /* \"#utility.yul\":1143:1145   */\n      0x40\n        /* \"#utility.yul\":1132:1141   */\n      dup3\n        /* \"#utility.yul\":1128:1146   */\n      add\n        /* \"#utility.yul\":1120:1146   */\n      swap1\n      pop\n        /* \"#utility.yul\":1156:1227   */\n      tag_42\n        /* \"#utility.yul\":1224:1225   */\n      0x00\n        /* \"#utility.yul\":1213:1222   */\n      dup4\n        /* \"#utility.yul\":1209:1226   */\n      add\n        /* \"#utility.yul\":1200:1206   */\n      dup6\n        /* \"#utility.yul\":1156:1227   */\n      tag_35\n      jump\t// in\n    tag_42:\n        /* \"#utility.yul\":1237:1309   */\n      tag_43\n        /* \"#utility.yul\":1305:1307   */\n      0x20\n        /* \"#utility.yul\":1294:1303   */\n      dup4\n        /* \"#utility.yul\":1290:1308   */\n      add\n        /* \"#utility.yul\":1281:1287   */\n      dup5\n        /* \"#utility.yul\":1237:1309   */\n      tag_35\n      jump\t// in\n    tag_43:\n        /* \"#utility.yul\":984:1316   */\n      swap4\n      swap3\n      pop\n      pop\n      pop\n      jump\t// out\n        /* \"#utility.yul\":1403:1499   */\n    tag_38:\n        /* \"#utility.yul\":1440:1447   */\n      0x00\n        /* \"#utility.yul\":1469:1493   */\n      tag_47\n        /* \"#utility.yul\":1487:1492   */\n      dup3\n        /* \"#utility.yul\":1469:1493   */\n      tag_48\n      jump\t// in\n    tag_47:\n        /* \"#utility.yul\":1458:1493   */\n      swap1\n      pop\n        /* \"#utility.yul\":1403:1499   */\n      swap2\n      swap1\n      pop\n      jump\t// out\n        /* \"#utility.yul\":1505:1631   */\n    tag_48:\n        /* \"#utility.yul\":1542:1549   */\n      0x00\n        /* \"#utility.yul\":1582:1624   */\n      0xffffffffffffffffffffffffffffffffffffffff\n        /* \"#utility.yul\":1575:1580   */\n      dup3\n        /* \"#utility.yul\":1571:1625   */\n      and\n        /* \"#utility.yul\":1560:1625   */\n      swap1\n      pop\n        /* \"#utility.yul\":1505:1631   */\n      swap2\n      swap1\n      pop\n      jump\t// out\n        /* \"#utility.yul\":1760:1877   */\n    tag_32:\n        /* \"#utility.yul\":1869:1870   */\n      0x00\n        /* \"#utility.yul\":1866:1867   */\n      dup1\n        /* \"#utility.yul\":1859:1871   */\n      revert\n        /* \"#utility.yul\":1883:2005   */\n    tag_28:\n        /* \"#utility.yul\":1956:1980   */\n      tag_54\n        /* \"#utility.yul\":1974:1979   */\n      dup2\n        /* \"#utility.yul\":1956:1980   */\n      tag_38\n      jump\t// in\n    tag_54:\n        /* \"#utility.yul\":1949:1954   */\n      dup2\n        /* \"#utility.yul\":1946:1981   */\n      eq\n        /* \"#utility.yul\":1936:1999   */\n      tag_55\n      jumpi\n        /* \"#utility.yul\":1995:1996   */\n      0x00\n        /* \"#utility.yul\":1992:1993   */\n      dup1\n        /* \"#utility.yul\":1985:1997   */\n      revert\n        /* \"#utility.yul\":1936:1999   */\n    tag_55:\n        /* \"#utility.yul\":1883:2005   */\n      pop\n      jump\t// out\n    stop\n\n    sub_0: assembly {\n            /* \"create/create.sol\":58:402  contract Pair{\r... */\n          mstore(0x40, 0x80)\n            /* \"create/create.sol\":207:217  msg.sender */\n          caller\n            /* \"create/create.sol\":197:204  factory */\n          0x00\n          dup1\n            /* \"create/create.sol\":197:217  factory = msg.sender */\n          0x0100\n          exp\n          dup2\n          sload\n          dup2\n          0xffffffffffffffffffffffffffffffffffffffff\n          mul\n          not\n          and\n          swap1\n          dup4\n          0xffffffffffffffffffffffffffffffffffffffff\n          and\n          mul\n          or\n          swap1\n          sstore\n          pop\n            /* \"create/create.sol\":58:402  contract Pair{\r... */\n          dataSize(sub_0)\n          dup1\n          dataOffset(sub_0)\n          0x00\n          codecopy\n          0x00\n          return\n        stop\n\n        sub_0: assembly {\n                /* \"create/create.sol\":58:402  contract Pair{\r... */\n              mstore(0x40, 0x80)\n              callvalue\n              dup1\n              iszero\n              tag_1\n              jumpi\n              0x00\n              dup1\n              revert\n            tag_1:\n              pop\n              jumpi(tag_2, lt(calldatasize, 0x04))\n              shr(0xe0, calldataload(0x00))\n              dup1\n              0x25be124e\n              eq\n              tag_3\n              jumpi\n              dup1\n              0x485cc955\n              eq\n              tag_4\n              jumpi\n              dup1\n              0xc45a0155\n              eq\n              tag_5\n              jumpi\n              dup1\n              0xd21220a7\n              eq\n              tag_6\n              jumpi\n            tag_2:\n              0x00\n              dup1\n              revert\n                /* \"create/create.sol\":135:156  address public token2 */\n            tag_3:\n              tag_7\n              tag_8\n              jump\t// in\n            tag_7:\n              mload(0x40)\n              tag_9\n              swap2\n              swap1\n              tag_10\n              jump\t// in\n            tag_9:\n              mload(0x40)\n              dup1\n              swap2\n              sub\n              swap1\n              return\n                /* \"create/create.sol\":233:397  function initialize(address _token1,address _token2) external{\r... */\n            tag_4:\n              tag_11\n              0x04\n              dup1\n              calldatasize\n              sub\n              dup2\n              add\n              swap1\n              tag_12\n              swap2\n              swap1\n              tag_13\n              jump\t// in\n            tag_12:\n              tag_14\n              jump\t// in\n            tag_11:\n              stop\n                /* \"create/create.sol\":78:100  address public factory */\n            tag_5:\n              tag_15\n              tag_16\n              jump\t// in\n            tag_15:\n              mload(0x40)\n              tag_17\n              swap2\n              swap1\n              tag_10\n              jump\t// in\n            tag_17:\n              mload(0x40)\n              dup1\n              swap2\n              sub\n              swap1\n              return\n                /* \"create/create.sol\":107:128  address public token1 */\n            tag_6:\n              tag_18\n              tag_19\n              jump\t// in\n            tag_18:\n              mload(0x40)\n              tag_20\n              swap2\n              swap1\n              tag_10\n              jump\t// in\n            tag_20:\n              mload(0x40)\n              dup1\n              swap2\n              sub\n              swap1\n              return\n                /* \"create/create.sol\":135:156  address public token2 */\n            tag_8:\n              0x02\n              0x00\n              swap1\n              sload\n              swap1\n              0x0100\n              exp\n              swap1\n              div\n              0xffffffffffffffffffffffffffffffffffffffff\n              and\n              dup2\n              jump\t// out\n                /* \"create/create.sol\":233:397  function initialize(address _token1,address _token2) external{\r... */\n            tag_14:\n                /* \"create/create.sol\":327:334  factory */\n              0x00\n              dup1\n              sload\n              swap1\n              0x0100\n              exp\n              swap1\n              div\n              0xffffffffffffffffffffffffffffffffffffffff\n              and\n                /* \"create/create.sol\":313:334  msg.sender == factory */\n              0xffffffffffffffffffffffffffffffffffffffff\n              and\n                /* \"create/create.sol\":313:323  msg.sender */\n              caller\n                /* \"create/create.sol\":313:334  msg.sender == factory */\n              0xffffffffffffffffffffffffffffffffffffffff\n              and\n              eq\n                /* \"create/create.sol\":305:335  require(msg.sender == factory) */\n              tag_22\n              jumpi\n              0x00\n              dup1\n              revert\n            tag_22:\n                /* \"create/create.sol\":355:362  _token1 */\n              dup2\n                /* \"create/create.sol\":346:352  token1 */\n              0x01\n              0x00\n                /* \"create/create.sol\":346:362  token1 = _token1 */\n              0x0100\n              exp\n              dup2\n              sload\n              dup2\n              0xffffffffffffffffffffffffffffffffffffffff\n              mul\n              not\n              and\n              swap1\n              dup4\n              0xffffffffffffffffffffffffffffffffffffffff\n              and\n              mul\n              or\n              swap1\n              sstore\n              pop\n                /* \"create/create.sol\":382:389  _token2 */\n              dup1\n                /* \"create/create.sol\":373:379  token2 */\n              0x02\n              0x00\n                /* \"create/create.sol\":373:389  token2 = _token2 */\n              0x0100\n              exp\n              dup2\n              sload\n              dup2\n              0xffffffffffffffffffffffffffffffffffffffff\n              mul\n              not\n              and\n              swap1\n              dup4\n              0xffffffffffffffffffffffffffffffffffffffff\n              and\n              mul\n              or\n              swap1\n              sstore\n              pop\n                /* \"create/create.sol\":233:397  function initialize(address _token1,address _token2) external{\r... */\n              pop\n              pop\n              jump\t// out\n                /* \"create/create.sol\":78:100  address public factory */\n            tag_16:\n              0x00\n              dup1\n              sload\n              swap1\n              0x0100\n              exp\n              swap1\n              div\n              0xffffffffffffffffffffffffffffffffffffffff\n              and\n              dup2\n              jump\t// out\n                /* \"create/create.sol\":107:128  address public token1 */\n            tag_19:\n              0x01\n              0x00\n              swap1\n              sload\n              swap1\n              0x0100\n              exp\n              swap1\n              div\n              0xffffffffffffffffffffffffffffffffffffffff\n              and\n              dup2\n              jump\t// out\n                /* \"#utility.yul\":7:146   */\n            tag_24:\n                /* \"#utility.yul\":53:58   */\n              0x00\n                /* \"#utility.yul\":91:97   */\n              dup2\n                /* \"#utility.yul\":78:98   */\n              calldataload\n                /* \"#utility.yul\":69:98   */\n              swap1\n              pop\n                /* \"#utility.yul\":107:140   */\n              tag_26\n                /* \"#utility.yul\":134:139   */\n              dup2\n                /* \"#utility.yul\":107:140   */\n              tag_27\n              jump\t// in\n            tag_26:\n                /* \"#utility.yul\":7:146   */\n              swap3\n              swap2\n              pop\n              pop\n              jump\t// out\n                /* \"#utility.yul\":152:626   */\n            tag_13:\n                /* \"#utility.yul\":220:226   */\n              0x00\n                /* \"#utility.yul\":228:234   */\n              dup1\n                /* \"#utility.yul\":277:279   */\n              0x40\n                /* \"#utility.yul\":265:274   */\n              dup4\n                /* \"#utility.yul\":256:263   */\n              dup6\n                /* \"#utility.yul\":252:275   */\n              sub\n                /* \"#utility.yul\":248:280   */\n              slt\n                /* \"#utility.yul\":245:364   */\n              iszero\n              tag_29\n              jumpi\n                /* \"#utility.yul\":283:362   */\n              tag_30\n              tag_31\n              jump\t// in\n            tag_30:\n                /* \"#utility.yul\":245:364   */\n            tag_29:\n                /* \"#utility.yul\":403:404   */\n              0x00\n                /* \"#utility.yul\":428:481   */\n              tag_32\n                /* \"#utility.yul\":473:480   */\n              dup6\n                /* \"#utility.yul\":464:470   */\n              dup3\n                /* \"#utility.yul\":453:462   */\n              dup7\n                /* \"#utility.yul\":449:471   */\n              add\n                /* \"#utility.yul\":428:481   */\n              tag_24\n              jump\t// in\n            tag_32:\n                /* \"#utility.yul\":418:481   */\n              swap3\n              pop\n                /* \"#utility.yul\":374:491   */\n              pop\n                /* \"#utility.yul\":530:532   */\n              0x20\n                /* \"#utility.yul\":556:609   */\n              tag_33\n                /* \"#utility.yul\":601:608   */\n              dup6\n                /* \"#utility.yul\":592:598   */\n              dup3\n                /* \"#utility.yul\":581:590   */\n              dup7\n                /* \"#utility.yul\":577:599   */\n              add\n                /* \"#utility.yul\":556:609   */\n              tag_24\n              jump\t// in\n            tag_33:\n                /* \"#utility.yul\":546:609   */\n              swap2\n              pop\n                /* \"#utility.yul\":501:619   */\n              pop\n                /* \"#utility.yul\":152:626   */\n              swap3\n              pop\n              swap3\n              swap1\n              pop\n              jump\t// out\n                /* \"#utility.yul\":632:750   */\n            tag_34:\n                /* \"#utility.yul\":719:743   */\n              tag_36\n                /* \"#utility.yul\":737:742   */\n              dup2\n                /* \"#utility.yul\":719:743   */\n              tag_37\n              jump\t// in\n            tag_36:\n                /* \"#utility.yul\":714:717   */\n              dup3\n                /* \"#utility.yul\":707:744   */\n              mstore\n                /* \"#utility.yul\":632:750   */\n              pop\n              pop\n              jump\t// out\n                /* \"#utility.yul\":756:978   */\n            tag_10:\n                /* \"#utility.yul\":849:853   */\n              0x00\n                /* \"#utility.yul\":887:889   */\n              0x20\n                /* \"#utility.yul\":876:885   */\n              dup3\n                /* \"#utility.yul\":872:890   */\n              add\n                /* \"#utility.yul\":864:890   */\n              swap1\n              pop\n                /* \"#utility.yul\":900:971   */\n              tag_39\n                /* \"#utility.yul\":968:969   */\n              0x00\n                /* \"#utility.yul\":957:966   */\n              dup4\n                /* \"#utility.yul\":953:970   */\n              add\n                /* \"#utility.yul\":944:950   */\n              dup5\n                /* \"#utility.yul\":900:971   */\n              tag_34\n              jump\t// in\n            tag_39:\n                /* \"#utility.yul\":756:978   */\n              swap3\n              swap2\n              pop\n              pop\n              jump\t// out\n                /* \"#utility.yul\":1065:1161   */\n            tag_37:\n                /* \"#utility.yul\":1102:1109   */\n              0x00\n                /* \"#utility.yul\":1131:1155   */\n              tag_43\n                /* \"#utility.yul\":1149:1154   */\n              dup3\n                /* \"#utility.yul\":1131:1155   */\n              tag_44\n              jump\t// in\n            tag_43:\n                /* \"#utility.yul\":1120:1155   */\n              swap1\n              pop\n                /* \"#utility.yul\":1065:1161   */\n              swap2\n              swap1\n              pop\n              jump\t// out\n                /* \"#utility.yul\":1167:1293   */\n            tag_44:\n                /* \"#utility.yul\":1204:1211   */\n              0x00\n                /* \"#utility.yul\":1244:1286   */\n              0xffffffffffffffffffffffffffffffffffffffff\n                /* \"#utility.yul\":1237:1242   */\n              dup3\n                /* \"#utility.yul\":1233:1287   */\n              and\n                /* \"#utility.yul\":1222:1287   */\n              swap1\n              pop\n                /* \"#utility.yul\":1167:1293   */\n              swap2\n              swap1\n              pop\n              jump\t// out\n                /* \"#utility.yul\":1422:1539   */\n            tag_31:\n                /* \"#utility.yul\":1531:1532   */\n              0x00\n                /* \"#utility.yul\":1528:1529   */\n              dup1\n                /* \"#utility.yul\":1521:1533   */\n              revert\n                /* \"#utility.yul\":1545:1667   */\n            tag_27:\n                /* \"#utility.yul\":1618:1642   */\n              tag_50\n                /* \"#utility.yul\":1636:1641   */\n              dup2\n                /* \"#utility.yul\":1618:1642   */\n              tag_37\n              jump\t// in\n            tag_50:\n                /* \"#utility.yul\":1611:1616   */\n              dup2\n                /* \"#utility.yul\":1608:1643   */\n              eq\n                /* \"#utility.yul\":1598:1661   */\n              tag_51\n              jumpi\n                /* \"#utility.yul\":1657:1658   */\n              0x00\n                /* \"#utility.yul\":1654:1655   */\n              dup1\n                /* \"#utility.yul\":1647:1659   */\n              revert\n                /* \"#utility.yul\":1598:1661   */\n            tag_51:\n                /* \"#utility.yul\":1545:1667   */\n              pop\n              jump\t// out\n\n            auxdata: 0xa26469706673582212205519fd366f747f546fc7b02e9759df574501340bb54cee3d77813cb468c8469764736f6c63430008070033\n        }\n    }\n\n    auxdata: 0xa26469706673582212207eee825cb5f9a220f1f76ca61bb6af6d94affadedf9460f9cf14cc4d851493e064736f6c63430008070033\n}\n",
				"bytecode": {
					"linkReferences": {},
					"object": "608060405234801561001057600080fd5b50610626806100206000396000f3fe608060405234801561001057600080fd5b50600436106100365760003560e01c8063c9c653961461003b578063e6a439051461006b575b600080fd5b610055600480360381019061005091906101a4565b61009b565b60405161006291906101f3565b60405180910390f35b610085600480360381019061008091906101a4565b610140565b60405161009291906101f3565b60405180910390f35b6000806040516100aa90610182565b604051809103906000f0801580156100c6573d6000803e3d6000fd5b5090508073ffffffffffffffffffffffffffffffffffffffff1663485cc95585856040518363ffffffff1660e01b815260040161010492919061020e565b600060405180830381600087803b15801561011e57600080fd5b505af1158015610132573d6000803e3d6000fd5b505050508091505092915050565b60006020528160005260406000206020528060005260406000206000915091509054906101000a900473ffffffffffffffffffffffffffffffffffffffff1681565b61036b8061028683390190565b60008135905061019e8161026e565b92915050565b600080604083850312156101bb576101ba610269565b5b60006101c98582860161018f565b92505060206101da8582860161018f565b9150509250929050565b6101ed81610237565b82525050565b600060208201905061020860008301846101e4565b92915050565b600060408201905061022360008301856101e4565b61023060208301846101e4565b9392505050565b600061024282610249565b9050919050565b600073ffffffffffffffffffffffffffffffffffffffff82169050919050565b600080fd5b61027781610237565b811461028257600080fd5b5056fe6080604052336000806101000a81548173ffffffffffffffffffffffffffffffffffffffff021916908373ffffffffffffffffffffffffffffffffffffffff160217905550610318806100536000396000f3fe608060405234801561001057600080fd5b506004361061004c5760003560e01c806325be124e14610051578063485cc9551461006f578063c45a01551461008b578063d21220a7146100a9575b600080fd5b6100596100c7565b6040516100669190610279565b60405180910390f35b6100896004803603810190610084919061022a565b6100ed565b005b6100936101cb565b6040516100a09190610279565b60405180910390f35b6100b16101ef565b6040516100be9190610279565b60405180910390f35b600260009054906101000a900473ffffffffffffffffffffffffffffffffffffffff1681565b60008054906101000a900473ffffffffffffffffffffffffffffffffffffffff1673ffffffffffffffffffffffffffffffffffffffff163373ffffffffffffffffffffffffffffffffffffffff161461014557600080fd5b81600160006101000a81548173ffffffffffffffffffffffffffffffffffffffff021916908373ffffffffffffffffffffffffffffffffffffffff16021790555080600260006101000a81548173ffffffffffffffffffffffffffffffffffffffff021916908373ffffffffffffffffffffffffffffffffffffffff1602179055505050565b60008054906101000a900473ffffffffffffffffffffffffffffffffffffffff1681565b600160009054906101000a900473ffffffffffffffffffffffffffffffffffffffff1681565b600081359050610224816102cb565b92915050565b60008060408385031215610241576102406102c6565b5b600061024f85828601610215565b925050602061026085828601610215565b9150509250929050565b61027381610294565b82525050565b600060208201905061028e600083018461026a565b92915050565b600061029f826102a6565b9050919050565b600073ffffffffffffffffffffffffffffffffffffffff82169050919050565b600080fd5b6102d481610294565b81146102df57600080fd5b5056fea26469706673582212205519fd366f747f546fc7b02e9759df574501340bb54cee3d77813cb468c8469764736f6c63430008070033a26469706673582212207eee825cb5f9a220f1f76ca61bb6af6d94affadedf9460f9cf14cc4d851493e064736f6c63430008070033",
					"opcodes": "PUSH1 0x80 PUSH1 0x40 MSTORE CALLVALUE DUP1 ISZERO PUSH2 0x10 JUMPI PUSH1 0x0 DUP1 REVERT JUMPDEST POP PUSH2 0x626 DUP1 PUSH2 0x20 PUSH1 0x0 CODECOPY PUSH1 0x0 RETURN INVALID PUSH1 0x80 PUSH1 0x40 MSTORE CALLVALUE DUP1 ISZERO PUSH2 0x10 JUMPI PUSH1 0x0 DUP1 REVERT JUMPDEST POP PUSH1 0x4 CALLDATASIZE LT PUSH2 0x36 JUMPI PUSH1 0x0 CALLDATALOAD PUSH1 0xE0 SHR DUP1 PUSH4 0xC9C65396 EQ PUSH2 0x3B JUMPI DUP1 PUSH4 0xE6A43905 EQ PUSH2 0x6B JUMPI JUMPDEST PUSH1 0x0 DUP1 REVERT JUMPDEST PUSH2 0x55 PUSH1 0x4 DUP1 CALLDATASIZE SUB DUP2 ADD SWAP1 PUSH2 0x50 SWAP2 SWAP1 PUSH2 0x1A4 JUMP JUMPDEST PUSH2 0x9B JUMP JUMPDEST PUSH1 0x40 MLOAD PUSH2 0x62 SWAP2 SWAP1 PUSH2 0x1F3 JUMP JUMPDEST PUSH1 0x40 MLOAD DUP1 SWAP2 SUB SWAP1 RETURN JUMPDEST PUSH2 0x85 PUSH1 0x4 DUP1 CALLDATASIZE SUB DUP2 ADD SWAP1 PUSH2 0x80 SWAP2 SWAP1 PUSH2 0x1A4 JUMP JUMPDEST PUSH2 0x140 JUMP JUMPDEST PUSH1 0x40 MLOAD PUSH2 0x92 SWAP2 SWAP1 PUSH2 0x1F3 JUMP JUMPDEST PUSH1 0x40 MLOAD DUP1 SWAP2 SUB SWAP1 RETURN JUMPDEST PUSH1 0x0 DUP1 PUSH1 0x40 MLOAD PUSH2 0xAA SWAP1 PUSH2 0x182 JUMP JUMPDEST PUSH1 0x40 MLOAD DUP1 SWAP2 SUB SWAP1 PUSH1 0x0 CREATE DUP1 ISZERO DUP1 ISZERO PUSH2 0xC6 JUMPI RETURNDATASIZE PUSH1 0x0 DUP1 RETURNDATACOPY RETURNDATASIZE PUSH1 0x0 REVERT JUMPDEST POP SWAP1 POP DUP1 PUSH20 0xFFFFFFFFFFFFFFFFFFFFFFFFFFFFFFFFFFFFFFFF AND PUSH4 0x485CC955 DUP6 DUP6 PUSH1 0x40 MLOAD DUP4 PUSH4 0xFFFFFFFF AND PUSH1 0xE0 SHL DUP2 MSTORE PUSH1 0x4 ADD PUSH2 0x104 SWAP3 SWAP2 SWAP1 PUSH2 0x20E JUMP JUMPDEST PUSH1 0x0 PUSH1 0x40 MLOAD DUP1 DUP4 SUB DUP2 PUSH1 0x0 DUP8 DUP1 EXTCODESIZE ISZERO DUP1 ISZERO PUSH2 0x11E JUMPI PUSH1 0x0 DUP1 REVERT JUMPDEST POP GAS CALL ISZERO DUP1 ISZERO PUSH2 0x132 JUMPI RETURNDATASIZE PUSH1 0x0 DUP1 RETURNDATACOPY RETURNDATASIZE PUSH1 0x0 REVERT JUMPDEST POP POP POP POP DUP1 SWAP2 POP POP SWAP3 SWAP2 POP POP JUMP JUMPDEST PUSH1 0x0 PUSH1 0x20 MSTORE DUP2 PUSH1 0x0 MSTORE PUSH1 0x40 PUSH1 0x0 KECCAK256 PUSH1 0x20 MSTORE DUP1 PUSH1 0x0 MSTORE PUSH1 0x40 PUSH1 0x0 KECCAK256 PUSH1 0x0 SWAP2 POP SWAP2 POP SWAP1 SLOAD SWAP1 PUSH2 0x100 EXP SWAP1 DIV PUSH20 0xFFFFFFFFFFFFFFFFFFFFFFFFFFFFFFFFFFFFFFFF AND DUP2 JUMP JUMPDEST PUSH2 0x36B DUP1 PUSH2 0x286 DUP4 CODECOPY ADD SWAP1 JUMP JUMPDEST PUSH1 0x0 DUP2 CALLDATALOAD SWAP1 POP PUSH2 0x19E DUP2 PUSH2 0x26E JUMP JUMPDEST SWAP3 SWAP2 POP POP JUMP JUMPDEST PUSH1 0x0 DUP1 PUSH1 0x40 DUP4 DUP6 SUB SLT ISZERO PUSH2 0x1BB JUMPI PUSH2 0x1BA PUSH2 0x269 JUMP JUMPDEST JUMPDEST PUSH1 0x0 PUSH2 0x1C9 DUP6 DUP3 DUP7 ADD PUSH2 0x18F JUMP JUMPDEST SWAP3 POP POP PUSH1 0x20 PUSH2 0x1DA DUP6 DUP3 DUP7 ADD PUSH2 0x18F JUMP JUMPDEST SWAP2 POP POP SWAP3 POP SWAP3 SWAP1 POP JUMP JUMPDEST PUSH2 0x1ED DUP2 PUSH2 0x237 JUMP JUMPDEST DUP3 MSTORE POP POP JUMP JUMPDEST PUSH1 0x0 PUSH1 0x20 DUP3 ADD SWAP1 POP PUSH2 0x208 PUSH1 0x0 DUP4 ADD DUP5 PUSH2 0x1E4 JUMP JUMPDEST SWAP3 SWAP2 POP POP JUMP JUMPDEST PUSH1 0x0 PUSH1 0x40 DUP3 ADD SWAP1 POP PUSH2 0x223 PUSH1 0x0 DUP4 ADD DUP6 PUSH2 0x1E4 JUMP JUMPDEST PUSH2 0x230 PUSH1 0x20 DUP4 ADD DUP5 PUSH2 0x1E4 JUMP JUMPDEST SWAP4 SWAP3 POP POP POP JUMP JUMPDEST PUSH1 0x0 PUSH2 0x242 DUP3 PUSH2 0x249 JUMP JUMPDEST SWAP1 POP SWAP2 SWAP1 POP JUMP JUMPDEST PUSH1 0x0 PUSH20 0xFFFFFFFFFFFFFFFFFFFFFFFFFFFFFFFFFFFFFFFF DUP3 AND SWAP1 POP SWAP2 SWAP1 POP JUMP JUMPDEST PUSH1 0x0 DUP1 REVERT JUMPDEST PUSH2 0x277 DUP2 PUSH2 0x237 JUMP JUMPDEST DUP2 EQ PUSH2 0x282 JUMPI PUSH1 0x0 DUP1 REVERT JUMPDEST POP JUMP INVALID PUSH1 0x80 PUSH1 0x40 MSTORE CALLER PUSH1 0x0 DUP1 PUSH2 0x100 EXP DUP2 SLOAD DUP2 PUSH20 0xFFFFFFFFFFFFFFFFFFFFFFFFFFFFFFFFFFFFFFFF MUL NOT AND SWAP1 DUP4 PUSH20 0xFFFFFFFFFFFFFFFFFFFFFFFFFFFFFFFFFFFFFFFF AND MUL OR SWAP1 SSTORE POP PUSH2 0x318 DUP1 PUSH2 0x53 PUSH1 0x0 CODECOPY PUSH1 0x0 RETURN INVALID PUSH1 0x80 PUSH1 0x40 MSTORE CALLVALUE DUP1 ISZERO PUSH2 0x10 JUMPI PUSH1 0x0 DUP1 REVERT JUMPDEST POP PUSH1 0x4 CALLDATASIZE LT PUSH2 0x4C JUMPI PUSH1 0x0 CALLDATALOAD PUSH1 0xE0 SHR DUP1 PUSH4 0x25BE124E EQ PUSH2 0x51 JUMPI DUP1 PUSH4 0x485CC955 EQ PUSH2 0x6F JUMPI DUP1 PUSH4 0xC45A0155 EQ PUSH2 0x8B JUMPI DUP1 PUSH4 0xD21220A7 EQ PUSH2 0xA9 JUMPI JUMPDEST PUSH1 0x0 DUP1 REVERT JUMPDEST PUSH2 0x59 PUSH2 0xC7 JUMP JUMPDEST PUSH1 0x40 MLOAD PUSH2 0x66 SWAP2 SWAP1 PUSH2 0x279 JUMP JUMPDEST PUSH1 0x40 MLOAD DUP1 SWAP2 SUB SWAP1 RETURN JUMPDEST PUSH2 0x89 PUSH1 0x4 DUP1 CALLDATASIZE SUB DUP2 ADD SWAP1 PUSH2 0x84 SWAP2 SWAP1 PUSH2 0x22A JUMP JUMPDEST PUSH2 0xED JUMP JUMPDEST STOP JUMPDEST PUSH2 0x93 PUSH2 0x1CB JUMP JUMPDEST PUSH1 0x40 MLOAD PUSH2 0xA0 SWAP2 SWAP1 PUSH2 0x279 JUMP JUMPDEST PUSH1 0x40 MLOAD DUP1 SWAP2 SUB SWAP1 RETURN JUMPDEST PUSH2 0xB1 PUSH2 0x1EF JUMP JUMPDEST PUSH1 0x40 MLOAD PUSH2 0xBE SWAP2 SWAP1 PUSH2 0x279 JUMP JUMPDEST PUSH1 0x40 MLOAD DUP1 SWAP2 SUB SWAP1 RETURN JUMPDEST PUSH1 0x2 PUSH1 0x0 SWAP1 SLOAD SWAP1 PUSH2 0x100 EXP SWAP1 DIV PUSH20 0xFFFFFFFFFFFFFFFFFFFFFFFFFFFFFFFFFFFFFFFF AND DUP2 JUMP JUMPDEST PUSH1 0x0 DUP1 SLOAD SWAP1 PUSH2 0x100 EXP SWAP1 DIV PUSH20 0xFFFFFFFFFFFFFFFFFFFFFFFFFFFFFFFFFFFFFFFF AND PUSH20 0xFFFFFFFFFFFFFFFFFFFFFFFFFFFFFFFFFFFFFFFF AND CALLER PUSH20 0xFFFFFFFFFFFFFFFFFFFFFFFFFFFFFFFFFFFFFFFF AND EQ PUSH2 0x145 JUMPI PUSH1 0x0 DUP1 REVERT JUMPDEST DUP2 PUSH1 0x1 PUSH1 0x0 PUSH2 0x100 EXP DUP2 SLOAD DUP2 PUSH20 0xFFFFFFFFFFFFFFFFFFFFFFFFFFFFFFFFFFFFFFFF MUL NOT AND SWAP1 DUP4 PUSH20 0xFFFFFFFFFFFFFFFFFFFFFFFFFFFFFFFFFFFFFFFF AND MUL OR SWAP1 SSTORE POP DUP1 PUSH1 0x2 PUSH1 0x0 PUSH2 0x100 EXP DUP2 SLOAD DUP2 PUSH20 0xFFFFFFFFFFFFFFFFFFFFFFFFFFFFFFFFFFFFFFFF MUL NOT AND SWAP1 DUP4 PUSH20 0xFFFFFFFFFFFFFFFFFFFFFFFFFFFFFFFFFFFFFFFF AND MUL OR SWAP1 SSTORE POP POP POP JUMP JUMPDEST PUSH1 0x0 DUP1 SLOAD SWAP1 PUSH2 0x100 EXP SWAP1 DIV PUSH20 0xFFFFFFFFFFFFFFFFFFFFFFFFFFFFFFFFFFFFFFFF AND DUP2 JUMP JUMPDEST PUSH1 0x1 PUSH1 0x0 SWAP1 SLOAD SWAP1 PUSH2 0x100 EXP SWAP1 DIV PUSH20 0xFFFFFFFFFFFFFFFFFFFFFFFFFFFFFFFFFFFFFFFF AND DUP2 JUMP JUMPDEST PUSH1 0x0 DUP2 CALLDATALOAD SWAP1 POP PUSH2 0x224 DUP2 PUSH2 0x2CB JUMP JUMPDEST SWAP3 SWAP2 POP POP JUMP JUMPDEST PUSH1 0x0 DUP1 PUSH1 0x40 DUP4 DUP6 SUB SLT ISZERO PUSH2 0x241 JUMPI PUSH2 0x240 PUSH2 0x2C6 JUMP JUMPDEST JUMPDEST PUSH1 0x0 PUSH2 0x24F DUP6 DUP3 DUP7 ADD PUSH2 0x215 JUMP JUMPDEST SWAP3 POP POP PUSH1 0x20 PUSH2 0x260 DUP6 DUP3 DUP7 ADD PUSH2 0x215 JUMP JUMPDEST SWAP2 POP POP SWAP3 POP SWAP3 SWAP1 POP JUMP JUMPDEST PUSH2 0x273 DUP2 PUSH2 0x294 JUMP JUMPDEST DUP3 MSTORE POP POP JUMP JUMPDEST PUSH1 0x0 PUSH1 0x20 DUP3 ADD SWAP1 POP PUSH2 0x28E PUSH1 0x0 DUP4 ADD DUP5 PUSH2 0x26A JUMP JUMPDEST SWAP3 SWAP2 POP POP JUMP JUMPDEST PUSH1 0x0 PUSH2 0x29F DUP3 PUSH2 0x2A6 JUMP JUMPDEST SWAP1 POP SWAP2 SWAP1 POP JUMP JUMPDEST PUSH1 0x0 PUSH20 0xFFFFFFFFFFFFFFFFFFFFFFFFFFFFFFFFFFFFFFFF DUP3 AND SWAP1 POP SWAP2 SWAP1 POP JUMP JUMPDEST PUSH1 0x0 DUP1 REVERT JUMPDEST PUSH2 0x2D4 DUP2 PUSH2 0x294 JUMP JUMPDEST DUP2 EQ PUSH2 0x2DF JUMPI PUSH1 0x0 DUP1 REVERT JUMPDEST POP JUMP INVALID LOG2 PUSH5 0x6970667358 0x22 SLT KECCAK256 SSTORE NOT REVERT CALLDATASIZE PUSH16 0x747F546FC7B02E9759DF574501340BB5 0x4C 0xEE RETURNDATASIZE PUSH24 0x813CB468C8469764736F6C63430008070033A26469706673 PC 0x22 SLT KECCAK256 PUSH31 0xEE825CB5F9A220F1F76CA61BB6AF6D94AFFADEDF9460F9CF14CC4D851493E0 PUSH5 0x736F6C6343 STOP ADDMOD SMOD STOP CALLER "
				},
				"gasEstimates": {
					"creation": {
						"codeDepositCost": "314800",
						"executionCost": "355",
						"totalCost": "315155"
					},
					"external": {
						"createPair(address,address)": "infinite",
						"getPair(address,address)": "infinite"
					}
				},
				"methodIdentifiers": {
					"createPair(address,address)": "c9c65396",
					"getPair(address,address)": "e6a43905"
				}
			},
			"storageLayout": {
				"storage": [
					{
						"astId": 46,
						"contract": "create/create.sol:PairFactory",
						"label": "getPair",
						"offset": 0,
						"slot": "0",
						"type": "t_mapping(t_address,t_mapping(t_address,t_address))"
					},
					{
						"astId": 49,
						"contract": "create/create.sol:PairFactory",
						"label": "allPairs",
						"offset": 0,
						"slot": "1",
						"type": "t_array(t_address)dyn_storage"
					}
				],
				"types": {
					"t_address": {
						"encoding": "inplace",
						"label": "address",
						"numberOfBytes": "20"
					},
					"t_array(t_address)dyn_storage": {
						"base": "t_address",
						"encoding": "dynamic_array",
						"label": "address[]",
						"numberOfBytes": "32"
					},
					"t_mapping(t_address,t_address)": {
						"encoding": "mapping",
						"key": "t_address",
						"label": "mapping(address => address)",
						"numberOfBytes": "32",
						"value": "t_address"
					},
					"t_mapping(t_address,t_mapping(t_address,t_address))": {
						"encoding": "mapping",
						"key": "t_address",
						"label": "mapping(address => mapping(address => address))",
						"numberOfBytes": "32",
						"value": "t_mapping(t_address,t_address)"
					}
				}
			},
			"userdoc": {
				"kind": "user",
				"methods": {},
				"version": 1
			}
		}
	}
}